{
	"practice/DelegateCall.sol": {
		"Sat2": {
			"abi": [
				{
					"inputs": [],
					"stateMutability": "payable",
					"type": "constructor"
				},
				{
					"inputs": [],
					"name": "destruct",
					"outputs": [],
					"stateMutability": "nonpayable",
					"type": "function"
				},
				{
					"inputs": [],
					"name": "num",
					"outputs": [
						{
							"internalType": "uint256",
							"name": "",
							"type": "uint256"
						}
					],
					"stateMutability": "view",
					"type": "function"
				},
				{
					"inputs": [],
					"name": "sender",
					"outputs": [
						{
							"internalType": "address",
							"name": "",
							"type": "address"
						}
					],
					"stateMutability": "view",
					"type": "function"
				},
				{
					"inputs": [
						{
							"internalType": "uint256",
							"name": "_num",
							"type": "uint256"
						}
					],
					"name": "setVars",
					"outputs": [],
					"stateMutability": "payable",
					"type": "function"
				},
				{
					"inputs": [],
					"name": "value",
					"outputs": [
						{
							"internalType": "uint256",
							"name": "",
							"type": "uint256"
						}
					],
					"stateMutability": "view",
					"type": "function"
				}
			],
			"devdoc": {
				"kind": "dev",
				"methods": {},
				"version": 1
			},
			"evm": {
				"assembly": "    /* \"practice/DelegateCall.sol\":438:855  contract Sat2{\r... */\n  mstore(0x40, 0x80)\n    /* \"practice/DelegateCall.sol\":622:632  msg.sender */\n  caller\n    /* \"practice/DelegateCall.sol\":608:613  owner */\n  0x03\n  0x00\n    /* \"practice/DelegateCall.sol\":608:633  owner=payable(msg.sender) */\n  0x0100\n  exp\n  dup2\n  sload\n  dup2\n  0xffffffffffffffffffffffffffffffffffffffff\n  mul\n  not\n  and\n  swap1\n  dup4\n  0xffffffffffffffffffffffffffffffffffffffff\n  and\n  mul\n  or\n  swap1\n  sstore\n  pop\n    /* \"practice/DelegateCall.sol\":438:855  contract Sat2{\r... */\n  dataSize(sub_0)\n  dup1\n  dataOffset(sub_0)\n  0x00\n  codecopy\n  0x00\n  return\nstop\n\nsub_0: assembly {\n        /* \"practice/DelegateCall.sol\":438:855  contract Sat2{\r... */\n      mstore(0x40, 0x80)\n      jumpi(tag_1, lt(calldatasize, 0x04))\n      shr(0xe0, calldataload(0x00))\n      dup1\n      0x2b68b9c6\n      eq\n      tag_2\n      jumpi\n      dup1\n      0x3fa4f245\n      eq\n      tag_3\n      jumpi\n      dup1\n      0x4e70b1dc\n      eq\n      tag_4\n      jumpi\n      dup1\n      0x6466414b\n      eq\n      tag_5\n      jumpi\n      dup1\n      0x67e404ce\n      eq\n      tag_6\n      jumpi\n    tag_1:\n      0x00\n      dup1\n      revert\n        /* \"practice/DelegateCall.sol\":786:850  function destruct() public{\r... */\n    tag_2:\n      callvalue\n      dup1\n      iszero\n      tag_7\n      jumpi\n      0x00\n      dup1\n      revert\n    tag_7:\n      pop\n      tag_8\n      tag_9\n      jump\t// in\n    tag_8:\n      stop\n        /* \"practice/DelegateCall.sol\":511:531  uint256 public value */\n    tag_3:\n      callvalue\n      dup1\n      iszero\n      tag_10\n      jumpi\n      0x00\n      dup1\n      revert\n    tag_10:\n      pop\n      tag_11\n      tag_12\n      jump\t// in\n    tag_11:\n      mload(0x40)\n      tag_13\n      swap2\n      swap1\n      tag_14\n      jump\t// in\n    tag_13:\n      mload(0x40)\n      dup1\n      swap2\n      sub\n      swap1\n      return\n        /* \"practice/DelegateCall.sol\":458:476  uint256 public num */\n    tag_4:\n      callvalue\n      dup1\n      iszero\n      tag_15\n      jumpi\n      0x00\n      dup1\n      revert\n    tag_15:\n      pop\n      tag_16\n      tag_17\n      jump\t// in\n    tag_16:\n      mload(0x40)\n      tag_18\n      swap2\n      swap1\n      tag_14\n      jump\t// in\n    tag_18:\n      mload(0x40)\n      dup1\n      swap2\n      sub\n      swap1\n      return\n        /* \"practice/DelegateCall.sol\":649:778  function setVars(uint256 _num) public payable{\r... */\n    tag_5:\n      tag_19\n      0x04\n      dup1\n      calldatasize\n      sub\n      dup2\n      add\n      swap1\n      tag_20\n      swap2\n      swap1\n      tag_21\n      jump\t// in\n    tag_20:\n      tag_22\n      jump\t// in\n    tag_19:\n      stop\n        /* \"practice/DelegateCall.sol\":483:504  address public sender */\n    tag_6:\n      callvalue\n      dup1\n      iszero\n      tag_23\n      jumpi\n      0x00\n      dup1\n      revert\n    tag_23:\n      pop\n      tag_24\n      tag_25\n      jump\t// in\n    tag_24:\n      mload(0x40)\n      tag_26\n      swap2\n      swap1\n      tag_27\n      jump\t// in\n    tag_26:\n      mload(0x40)\n      dup1\n      swap2\n      sub\n      swap1\n      return\n        /* \"practice/DelegateCall.sol\":786:850  function destruct() public{\r... */\n    tag_9:\n        /* \"practice/DelegateCall.sol\":836:841  owner */\n      0x03\n      0x00\n      swap1\n      sload\n      swap1\n      0x0100\n      exp\n      swap1\n      div\n      0xffffffffffffffffffffffffffffffffffffffff\n      and\n        /* \"practice/DelegateCall.sol\":823:842  selfdestruct(owner) */\n      0xffffffffffffffffffffffffffffffffffffffff\n      and\n      selfdestruct\n        /* \"practice/DelegateCall.sol\":511:531  uint256 public value */\n    tag_12:\n      sload(0x02)\n      dup2\n      jump\t// out\n        /* \"practice/DelegateCall.sol\":458:476  uint256 public num */\n    tag_17:\n      sload(0x00)\n      dup2\n      jump\t// out\n        /* \"practice/DelegateCall.sol\":649:778  function setVars(uint256 _num) public payable{\r... */\n    tag_22:\n        /* \"practice/DelegateCall.sol\":712:716  _num */\n      dup1\n        /* \"practice/DelegateCall.sol\":710:711  2 */\n      0x02\n        /* \"practice/DelegateCall.sol\":710:716  2*_num */\n      tag_30\n      swap2\n      swap1\n      tag_31\n      jump\t// in\n    tag_30:\n        /* \"practice/DelegateCall.sol\":705:708  num */\n      0x00\n        /* \"practice/DelegateCall.sol\":705:716  num =2*_num */\n      dup2\n      swap1\n      sstore\n      pop\n        /* \"practice/DelegateCall.sol\":734:744  msg.sender */\n      caller\n        /* \"practice/DelegateCall.sol\":727:733  sender */\n      0x01\n      0x00\n        /* \"practice/DelegateCall.sol\":727:744  sender=msg.sender */\n      0x0100\n      exp\n      dup2\n      sload\n      dup2\n      0xffffffffffffffffffffffffffffffffffffffff\n      mul\n      not\n      and\n      swap1\n      dup4\n      0xffffffffffffffffffffffffffffffffffffffff\n      and\n      mul\n      or\n      swap1\n      sstore\n      pop\n        /* \"practice/DelegateCall.sol\":761:770  msg.value */\n      callvalue\n        /* \"practice/DelegateCall.sol\":755:760  value */\n      0x02\n        /* \"practice/DelegateCall.sol\":755:770  value=msg.value */\n      dup2\n      swap1\n      sstore\n      pop\n        /* \"practice/DelegateCall.sol\":649:778  function setVars(uint256 _num) public payable{\r... */\n      pop\n      jump\t// out\n        /* \"practice/DelegateCall.sol\":483:504  address public sender */\n    tag_25:\n      0x01\n      0x00\n      swap1\n      sload\n      swap1\n      0x0100\n      exp\n      swap1\n      div\n      0xffffffffffffffffffffffffffffffffffffffff\n      and\n      dup2\n      jump\t// out\n        /* \"#utility.yul\":7:146   */\n    tag_33:\n      0x00\n        /* \"#utility.yul\":91:97   */\n      dup2\n        /* \"#utility.yul\":78:98   */\n      calldataload\n        /* \"#utility.yul\":69:98   */\n      swap1\n      pop\n        /* \"#utility.yul\":107:140   */\n      tag_35\n        /* \"#utility.yul\":134:139   */\n      dup2\n        /* \"#utility.yul\":107:140   */\n      tag_36\n      jump\t// in\n    tag_35:\n        /* \"#utility.yul\":59:146   */\n      swap3\n      swap2\n      pop\n      pop\n      jump\t// out\n        /* \"#utility.yul\":152:414   */\n    tag_21:\n      0x00\n        /* \"#utility.yul\":260:262   */\n      0x20\n        /* \"#utility.yul\":248:257   */\n      dup3\n        /* \"#utility.yul\":239:246   */\n      dup5\n        /* \"#utility.yul\":235:258   */\n      sub\n        /* \"#utility.yul\":231:263   */\n      slt\n        /* \"#utility.yul\":228:230   */\n      iszero\n      tag_38\n      jumpi\n        /* \"#utility.yul\":276:277   */\n      0x00\n        /* \"#utility.yul\":273:274   */\n      dup1\n        /* \"#utility.yul\":266:278   */\n      revert\n        /* \"#utility.yul\":228:230   */\n    tag_38:\n        /* \"#utility.yul\":319:320   */\n      0x00\n        /* \"#utility.yul\":344:397   */\n      tag_39\n        /* \"#utility.yul\":389:396   */\n      dup5\n        /* \"#utility.yul\":380:386   */\n      dup3\n        /* \"#utility.yul\":369:378   */\n      dup6\n        /* \"#utility.yul\":365:387   */\n      add\n        /* \"#utility.yul\":344:397   */\n      tag_33\n      jump\t// in\n    tag_39:\n        /* \"#utility.yul\":334:397   */\n      swap2\n      pop\n        /* \"#utility.yul\":290:407   */\n      pop\n        /* \"#utility.yul\":218:414   */\n      swap3\n      swap2\n      pop\n      pop\n      jump\t// out\n        /* \"#utility.yul\":420:538   */\n    tag_40:\n        /* \"#utility.yul\":507:531   */\n      tag_42\n        /* \"#utility.yul\":525:530   */\n      dup2\n        /* \"#utility.yul\":507:531   */\n      tag_43\n      jump\t// in\n    tag_42:\n        /* \"#utility.yul\":502:505   */\n      dup3\n        /* \"#utility.yul\":495:532   */\n      mstore\n        /* \"#utility.yul\":485:538   */\n      pop\n      pop\n      jump\t// out\n        /* \"#utility.yul\":544:662   */\n    tag_44:\n        /* \"#utility.yul\":631:655   */\n      tag_46\n        /* \"#utility.yul\":649:654   */\n      dup2\n        /* \"#utility.yul\":631:655   */\n      tag_47\n      jump\t// in\n    tag_46:\n        /* \"#utility.yul\":626:629   */\n      dup3\n        /* \"#utility.yul\":619:656   */\n      mstore\n        /* \"#utility.yul\":609:662   */\n      pop\n      pop\n      jump\t// out\n        /* \"#utility.yul\":668:890   */\n    tag_27:\n      0x00\n        /* \"#utility.yul\":799:801   */\n      0x20\n        /* \"#utility.yul\":788:797   */\n      dup3\n        /* \"#utility.yul\":784:802   */\n      add\n        /* \"#utility.yul\":776:802   */\n      swap1\n      pop\n        /* \"#utility.yul\":812:883   */\n      tag_49\n        /* \"#utility.yul\":880:881   */\n      0x00\n        /* \"#utility.yul\":869:878   */\n      dup4\n        /* \"#utility.yul\":865:882   */\n      add\n        /* \"#utility.yul\":856:862   */\n      dup5\n        /* \"#utility.yul\":812:883   */\n      tag_40\n      jump\t// in\n    tag_49:\n        /* \"#utility.yul\":766:890   */\n      swap3\n      swap2\n      pop\n      pop\n      jump\t// out\n        /* \"#utility.yul\":896:1118   */\n    tag_14:\n      0x00\n        /* \"#utility.yul\":1027:1029   */\n      0x20\n        /* \"#utility.yul\":1016:1025   */\n      dup3\n        /* \"#utility.yul\":1012:1030   */\n      add\n        /* \"#utility.yul\":1004:1030   */\n      swap1\n      pop\n        /* \"#utility.yul\":1040:1111   */\n      tag_51\n        /* \"#utility.yul\":1108:1109   */\n      0x00\n        /* \"#utility.yul\":1097:1106   */\n      dup4\n        /* \"#utility.yul\":1093:1110   */\n      add\n        /* \"#utility.yul\":1084:1090   */\n      dup5\n        /* \"#utility.yul\":1040:1111   */\n      tag_44\n      jump\t// in\n    tag_51:\n        /* \"#utility.yul\":994:1118   */\n      swap3\n      swap2\n      pop\n      pop\n      jump\t// out\n        /* \"#utility.yul\":1124:1472   */\n    tag_31:\n      0x00\n        /* \"#utility.yul\":1187:1207   */\n      tag_53\n        /* \"#utility.yul\":1205:1206   */\n      dup3\n        /* \"#utility.yul\":1187:1207   */\n      tag_47\n      jump\t// in\n    tag_53:\n        /* \"#utility.yul\":1182:1207   */\n      swap2\n      pop\n        /* \"#utility.yul\":1221:1241   */\n      tag_54\n        /* \"#utility.yul\":1239:1240   */\n      dup4\n        /* \"#utility.yul\":1221:1241   */\n      tag_47\n      jump\t// in\n    tag_54:\n        /* \"#utility.yul\":1216:1241   */\n      swap3\n      pop\n        /* \"#utility.yul\":1409:1410   */\n      dup2\n        /* \"#utility.yul\":1341:1407   */\n      0xffffffffffffffffffffffffffffffffffffffffffffffffffffffffffffffff\n        /* \"#utility.yul\":1337:1411   */\n      div\n        /* \"#utility.yul\":1334:1335   */\n      dup4\n        /* \"#utility.yul\":1331:1412   */\n      gt\n        /* \"#utility.yul\":1326:1327   */\n      dup3\n        /* \"#utility.yul\":1319:1328   */\n      iszero\n        /* \"#utility.yul\":1312:1329   */\n      iszero\n        /* \"#utility.yul\":1308:1413   */\n      and\n        /* \"#utility.yul\":1305:1307   */\n      iszero\n      tag_55\n      jumpi\n        /* \"#utility.yul\":1416:1434   */\n      tag_56\n      tag_57\n      jump\t// in\n    tag_56:\n        /* \"#utility.yul\":1305:1307   */\n    tag_55:\n        /* \"#utility.yul\":1464:1465   */\n      dup3\n        /* \"#utility.yul\":1461:1462   */\n      dup3\n        /* \"#utility.yul\":1457:1466   */\n      mul\n        /* \"#utility.yul\":1446:1466   */\n      swap1\n      pop\n        /* \"#utility.yul\":1172:1472   */\n      swap3\n      swap2\n      pop\n      pop\n      jump\t// out\n        /* \"#utility.yul\":1478:1574   */\n    tag_43:\n      0x00\n        /* \"#utility.yul\":1544:1568   */\n      tag_59\n        /* \"#utility.yul\":1562:1567   */\n      dup3\n        /* \"#utility.yul\":1544:1568   */\n      tag_60\n      jump\t// in\n    tag_59:\n        /* \"#utility.yul\":1533:1568   */\n      swap1\n      pop\n        /* \"#utility.yul\":1523:1574   */\n      swap2\n      swap1\n      pop\n      jump\t// out\n        /* \"#utility.yul\":1580:1706   */\n    tag_60:\n      0x00\n        /* \"#utility.yul\":1657:1699   */\n      0xffffffffffffffffffffffffffffffffffffffff\n        /* \"#utility.yul\":1650:1655   */\n      dup3\n        /* \"#utility.yul\":1646:1700   */\n      and\n        /* \"#utility.yul\":1635:1700   */\n      swap1\n      pop\n        /* \"#utility.yul\":1625:1706   */\n      swap2\n      swap1\n      pop\n      jump\t// out\n        /* \"#utility.yul\":1712:1789   */\n    tag_47:\n      0x00\n        /* \"#utility.yul\":1778:1783   */\n      dup2\n        /* \"#utility.yul\":1767:1783   */\n      swap1\n      pop\n        /* \"#utility.yul\":1757:1789   */\n      swap2\n      swap1\n      pop\n      jump\t// out\n        /* \"#utility.yul\":1795:1975   */\n    tag_57:\n        /* \"#utility.yul\":1843:1920   */\n      0x4e487b7100000000000000000000000000000000000000000000000000000000\n        /* \"#utility.yul\":1840:1841   */\n      0x00\n        /* \"#utility.yul\":1833:1921   */\n      mstore\n        /* \"#utility.yul\":1940:1944   */\n      0x11\n        /* \"#utility.yul\":1937:1938   */\n      0x04\n        /* \"#utility.yul\":1930:1945   */\n      mstore\n        /* \"#utility.yul\":1964:1968   */\n      0x24\n        /* \"#utility.yul\":1961:1962   */\n      0x00\n        /* \"#utility.yul\":1954:1969   */\n      revert\n        /* \"#utility.yul\":1981:2103   */\n    tag_36:\n        /* \"#utility.yul\":2054:2078   */\n      tag_65\n        /* \"#utility.yul\":2072:2077   */\n      dup2\n        /* \"#utility.yul\":2054:2078   */\n      tag_47\n      jump\t// in\n    tag_65:\n        /* \"#utility.yul\":2047:2052   */\n      dup2\n        /* \"#utility.yul\":2044:2079   */\n      eq\n        /* \"#utility.yul\":2034:2036   */\n      tag_66\n      jumpi\n        /* \"#utility.yul\":2093:2094   */\n      0x00\n        /* \"#utility.yul\":2090:2091   */\n      dup1\n        /* \"#utility.yul\":2083:2095   */\n      revert\n        /* \"#utility.yul\":2034:2036   */\n    tag_66:\n        /* \"#utility.yul\":2024:2103   */\n      pop\n      jump\t// out\n\n    auxdata: 0xa264697066735822122036549bbddeae82d9193d6d83f9f9f21792e4404ef8e4f6746cadb4823fdc162e64736f6c63430008000033\n}\n",
				"bytecode": {
					"linkReferences": {},
					"object": "608060405233600360006101000a81548173ffffffffffffffffffffffffffffffffffffffff021916908373ffffffffffffffffffffffffffffffffffffffff160217905550610372806100546000396000f3fe60806040526004361061004a5760003560e01c80632b68b9c61461004f5780633fa4f245146100665780634e70b1dc146100915780636466414b146100bc57806367e404ce146100d8575b600080fd5b34801561005b57600080fd5b50610064610103565b005b34801561007257600080fd5b5061007b61013e565b6040516100889190610245565b60405180910390f35b34801561009d57600080fd5b506100a6610144565b6040516100b39190610245565b60405180910390f35b6100d660048036038101906100d191906101e3565b61014a565b005b3480156100e457600080fd5b506100ed6101a8565b6040516100fa919061022a565b60405180910390f35b600360009054906101000a900473ffffffffffffffffffffffffffffffffffffffff1673ffffffffffffffffffffffffffffffffffffffff16ff5b60025481565b60005481565b8060026101579190610260565b60008190555033600160006101000a81548173ffffffffffffffffffffffffffffffffffffffff021916908373ffffffffffffffffffffffffffffffffffffffff1602179055503460028190555050565b600160009054906101000a900473ffffffffffffffffffffffffffffffffffffffff1681565b6000813590506101dd81610325565b92915050565b6000602082840312156101f557600080fd5b6000610203848285016101ce565b91505092915050565b610215816102ba565b82525050565b610224816102ec565b82525050565b600060208201905061023f600083018461020c565b92915050565b600060208201905061025a600083018461021b565b92915050565b600061026b826102ec565b9150610276836102ec565b9250817fffffffffffffffffffffffffffffffffffffffffffffffffffffffffffffffff04831182151516156102af576102ae6102f6565b5b828202905092915050565b60006102c5826102cc565b9050919050565b600073ffffffffffffffffffffffffffffffffffffffff82169050919050565b6000819050919050565b7f4e487b7100000000000000000000000000000000000000000000000000000000600052601160045260246000fd5b61032e816102ec565b811461033957600080fd5b5056fea264697066735822122036549bbddeae82d9193d6d83f9f9f21792e4404ef8e4f6746cadb4823fdc162e64736f6c63430008000033",
					"opcodes": "PUSH1 0x80 PUSH1 0x40 MSTORE CALLER PUSH1 0x3 PUSH1 0x0 PUSH2 0x100 EXP DUP2 SLOAD DUP2 PUSH20 0xFFFFFFFFFFFFFFFFFFFFFFFFFFFFFFFFFFFFFFFF MUL NOT AND SWAP1 DUP4 PUSH20 0xFFFFFFFFFFFFFFFFFFFFFFFFFFFFFFFFFFFFFFFF AND MUL OR SWAP1 SSTORE POP PUSH2 0x372 DUP1 PUSH2 0x54 PUSH1 0x0 CODECOPY PUSH1 0x0 RETURN INVALID PUSH1 0x80 PUSH1 0x40 MSTORE PUSH1 0x4 CALLDATASIZE LT PUSH2 0x4A JUMPI PUSH1 0x0 CALLDATALOAD PUSH1 0xE0 SHR DUP1 PUSH4 0x2B68B9C6 EQ PUSH2 0x4F JUMPI DUP1 PUSH4 0x3FA4F245 EQ PUSH2 0x66 JUMPI DUP1 PUSH4 0x4E70B1DC EQ PUSH2 0x91 JUMPI DUP1 PUSH4 0x6466414B EQ PUSH2 0xBC JUMPI DUP1 PUSH4 0x67E404CE EQ PUSH2 0xD8 JUMPI JUMPDEST PUSH1 0x0 DUP1 REVERT JUMPDEST CALLVALUE DUP1 ISZERO PUSH2 0x5B JUMPI PUSH1 0x0 DUP1 REVERT JUMPDEST POP PUSH2 0x64 PUSH2 0x103 JUMP JUMPDEST STOP JUMPDEST CALLVALUE DUP1 ISZERO PUSH2 0x72 JUMPI PUSH1 0x0 DUP1 REVERT JUMPDEST POP PUSH2 0x7B PUSH2 0x13E JUMP JUMPDEST PUSH1 0x40 MLOAD PUSH2 0x88 SWAP2 SWAP1 PUSH2 0x245 JUMP JUMPDEST PUSH1 0x40 MLOAD DUP1 SWAP2 SUB SWAP1 RETURN JUMPDEST CALLVALUE DUP1 ISZERO PUSH2 0x9D JUMPI PUSH1 0x0 DUP1 REVERT JUMPDEST POP PUSH2 0xA6 PUSH2 0x144 JUMP JUMPDEST PUSH1 0x40 MLOAD PUSH2 0xB3 SWAP2 SWAP1 PUSH2 0x245 JUMP JUMPDEST PUSH1 0x40 MLOAD DUP1 SWAP2 SUB SWAP1 RETURN JUMPDEST PUSH2 0xD6 PUSH1 0x4 DUP1 CALLDATASIZE SUB DUP2 ADD SWAP1 PUSH2 0xD1 SWAP2 SWAP1 PUSH2 0x1E3 JUMP JUMPDEST PUSH2 0x14A JUMP JUMPDEST STOP JUMPDEST CALLVALUE DUP1 ISZERO PUSH2 0xE4 JUMPI PUSH1 0x0 DUP1 REVERT JUMPDEST POP PUSH2 0xED PUSH2 0x1A8 JUMP JUMPDEST PUSH1 0x40 MLOAD PUSH2 0xFA SWAP2 SWAP1 PUSH2 0x22A JUMP JUMPDEST PUSH1 0x40 MLOAD DUP1 SWAP2 SUB SWAP1 RETURN JUMPDEST PUSH1 0x3 PUSH1 0x0 SWAP1 SLOAD SWAP1 PUSH2 0x100 EXP SWAP1 DIV PUSH20 0xFFFFFFFFFFFFFFFFFFFFFFFFFFFFFFFFFFFFFFFF AND PUSH20 0xFFFFFFFFFFFFFFFFFFFFFFFFFFFFFFFFFFFFFFFF AND SELFDESTRUCT JUMPDEST PUSH1 0x2 SLOAD DUP2 JUMP JUMPDEST PUSH1 0x0 SLOAD DUP2 JUMP JUMPDEST DUP1 PUSH1 0x2 PUSH2 0x157 SWAP2 SWAP1 PUSH2 0x260 JUMP JUMPDEST PUSH1 0x0 DUP2 SWAP1 SSTORE POP CALLER PUSH1 0x1 PUSH1 0x0 PUSH2 0x100 EXP DUP2 SLOAD DUP2 PUSH20 0xFFFFFFFFFFFFFFFFFFFFFFFFFFFFFFFFFFFFFFFF MUL NOT AND SWAP1 DUP4 PUSH20 0xFFFFFFFFFFFFFFFFFFFFFFFFFFFFFFFFFFFFFFFF AND MUL OR SWAP1 SSTORE POP CALLVALUE PUSH1 0x2 DUP2 SWAP1 SSTORE POP POP JUMP JUMPDEST PUSH1 0x1 PUSH1 0x0 SWAP1 SLOAD SWAP1 PUSH2 0x100 EXP SWAP1 DIV PUSH20 0xFFFFFFFFFFFFFFFFFFFFFFFFFFFFFFFFFFFFFFFF AND DUP2 JUMP JUMPDEST PUSH1 0x0 DUP2 CALLDATALOAD SWAP1 POP PUSH2 0x1DD DUP2 PUSH2 0x325 JUMP JUMPDEST SWAP3 SWAP2 POP POP JUMP JUMPDEST PUSH1 0x0 PUSH1 0x20 DUP3 DUP5 SUB SLT ISZERO PUSH2 0x1F5 JUMPI PUSH1 0x0 DUP1 REVERT JUMPDEST PUSH1 0x0 PUSH2 0x203 DUP5 DUP3 DUP6 ADD PUSH2 0x1CE JUMP JUMPDEST SWAP2 POP POP SWAP3 SWAP2 POP POP JUMP JUMPDEST PUSH2 0x215 DUP2 PUSH2 0x2BA JUMP JUMPDEST DUP3 MSTORE POP POP JUMP JUMPDEST PUSH2 0x224 DUP2 PUSH2 0x2EC JUMP JUMPDEST DUP3 MSTORE POP POP JUMP JUMPDEST PUSH1 0x0 PUSH1 0x20 DUP3 ADD SWAP1 POP PUSH2 0x23F PUSH1 0x0 DUP4 ADD DUP5 PUSH2 0x20C JUMP JUMPDEST SWAP3 SWAP2 POP POP JUMP JUMPDEST PUSH1 0x0 PUSH1 0x20 DUP3 ADD SWAP1 POP PUSH2 0x25A PUSH1 0x0 DUP4 ADD DUP5 PUSH2 0x21B JUMP JUMPDEST SWAP3 SWAP2 POP POP JUMP JUMPDEST PUSH1 0x0 PUSH2 0x26B DUP3 PUSH2 0x2EC JUMP JUMPDEST SWAP2 POP PUSH2 0x276 DUP4 PUSH2 0x2EC JUMP JUMPDEST SWAP3 POP DUP2 PUSH32 0xFFFFFFFFFFFFFFFFFFFFFFFFFFFFFFFFFFFFFFFFFFFFFFFFFFFFFFFFFFFFFFFF DIV DUP4 GT DUP3 ISZERO ISZERO AND ISZERO PUSH2 0x2AF JUMPI PUSH2 0x2AE PUSH2 0x2F6 JUMP JUMPDEST JUMPDEST DUP3 DUP3 MUL SWAP1 POP SWAP3 SWAP2 POP POP JUMP JUMPDEST PUSH1 0x0 PUSH2 0x2C5 DUP3 PUSH2 0x2CC JUMP JUMPDEST SWAP1 POP SWAP2 SWAP1 POP JUMP JUMPDEST PUSH1 0x0 PUSH20 0xFFFFFFFFFFFFFFFFFFFFFFFFFFFFFFFFFFFFFFFF DUP3 AND SWAP1 POP SWAP2 SWAP1 POP JUMP JUMPDEST PUSH1 0x0 DUP2 SWAP1 POP SWAP2 SWAP1 POP JUMP JUMPDEST PUSH32 0x4E487B7100000000000000000000000000000000000000000000000000000000 PUSH1 0x0 MSTORE PUSH1 0x11 PUSH1 0x4 MSTORE PUSH1 0x24 PUSH1 0x0 REVERT JUMPDEST PUSH2 0x32E DUP2 PUSH2 0x2EC JUMP JUMPDEST DUP2 EQ PUSH2 0x339 JUMPI PUSH1 0x0 DUP1 REVERT JUMPDEST POP JUMP INVALID LOG2 PUSH5 0x6970667358 0x22 SLT KECCAK256 CALLDATASIZE SLOAD SWAP12 0xBD 0xDE 0xAE DUP3 0xD9 NOT RETURNDATASIZE PUSH14 0x83F9F9F21792E4404EF8E4F6746C 0xAD 0xB4 DUP3 EXTCODEHASH 0xDC AND 0x2E PUSH5 0x736F6C6343 STOP ADDMOD STOP STOP CALLER "
				},
				"gasEstimates": {
					"creation": {
						"codeDepositCost": "176400",
						"executionCost": "21062",
						"totalCost": "197462"
					},
					"external": {
						"destruct()": "30958",
						"num()": "1151",
						"sender()": "1280",
						"setVars(uint256)": "infinite",
						"value()": "1129"
					}
				},
				"methodIdentifiers": {
					"destruct()": "2b68b9c6",
					"num()": "4e70b1dc",
					"sender()": "67e404ce",
					"setVars(uint256)": "6466414b",
					"value()": "3fa4f245"
				}
			},
			"storageLayout": {
				"storage": [
					{
						"astId": 52,
						"contract": "practice/DelegateCall.sol:Sat2",
						"label": "num",
						"offset": 0,
						"slot": "0",
						"type": "t_uint256"
					},
					{
						"astId": 54,
						"contract": "practice/DelegateCall.sol:Sat2",
						"label": "sender",
						"offset": 0,
						"slot": "1",
						"type": "t_address"
					},
					{
						"astId": 56,
						"contract": "practice/DelegateCall.sol:Sat2",
						"label": "value",
						"offset": 0,
						"slot": "2",
						"type": "t_uint256"
					},
					{
						"astId": 58,
						"contract": "practice/DelegateCall.sol:Sat2",
						"label": "owner",
						"offset": 0,
						"slot": "3",
						"type": "t_address_payable"
					}
				],
				"types": {
					"t_address": {
						"encoding": "inplace",
						"label": "address",
						"numberOfBytes": "20"
					},
					"t_address_payable": {
						"encoding": "inplace",
						"label": "address payable",
						"numberOfBytes": "20"
					},
					"t_uint256": {
						"encoding": "inplace",
						"label": "uint256",
						"numberOfBytes": "32"
					}
				}
			},
			"userdoc": {
				"kind": "user",
				"methods": {},
				"version": 1
			}
		}
	}
}