{
	"practice/DeFiBank.sol": {
		"DeFiBank": {
			"abi": [
				{
					"inputs": [],
					"stateMutability": "nonpayable",
					"type": "constructor"
				},
				{
					"inputs": [],
					"name": "collectionReward",
					"outputs": [],
					"stateMutability": "nonpayable",
					"type": "function"
				},
				{
					"inputs": [
						{
							"internalType": "uint256",
							"name": "amount",
							"type": "uint256"
						}
					],
					"name": "createStake",
					"outputs": [],
					"stateMutability": "nonpayable",
					"type": "function"
				},
				{
					"inputs": [
						{
							"internalType": "address",
							"name": "",
							"type": "address"
						}
					],
					"name": "hasStaked",
					"outputs": [
						{
							"internalType": "bool",
							"name": "",
							"type": "bool"
						}
					],
					"stateMutability": "view",
					"type": "function"
				},
				{
					"inputs": [
						{
							"internalType": "address",
							"name": "",
							"type": "address"
						}
					],
					"name": "isStacking",
					"outputs": [
						{
							"internalType": "bool",
							"name": "",
							"type": "bool"
						}
					],
					"stateMutability": "view",
					"type": "function"
				},
				{
					"inputs": [],
					"name": "mytoken",
					"outputs": [
						{
							"internalType": "address",
							"name": "",
							"type": "address"
						}
					],
					"stateMutability": "view",
					"type": "function"
				},
				{
					"inputs": [],
					"name": "name",
					"outputs": [
						{
							"internalType": "string",
							"name": "",
							"type": "string"
						}
					],
					"stateMutability": "view",
					"type": "function"
				},
				{
					"inputs": [
						{
							"internalType": "uint256",
							"name": "",
							"type": "uint256"
						}
					],
					"name": "stakers",
					"outputs": [
						{
							"internalType": "address",
							"name": "",
							"type": "address"
						}
					],
					"stateMutability": "view",
					"type": "function"
				},
				{
					"inputs": [
						{
							"internalType": "address",
							"name": "",
							"type": "address"
						}
					],
					"name": "stakingBalance",
					"outputs": [
						{
							"internalType": "uint256",
							"name": "",
							"type": "uint256"
						}
					],
					"stateMutability": "view",
					"type": "function"
				},
				{
					"inputs": [],
					"name": "unstake",
					"outputs": [],
					"stateMutability": "nonpayable",
					"type": "function"
				},
				{
					"inputs": [],
					"name": "usdc",
					"outputs": [
						{
							"internalType": "address",
							"name": "",
							"type": "address"
						}
					],
					"stateMutability": "view",
					"type": "function"
				}
			],
			"devdoc": {
				"kind": "dev",
				"methods": {},
				"version": 1
			},
			"evm": {
				"assembly": "    /* \"practice/DeFiBank.sol\":712:2083  contract DeFiBank{\r... */\n  mstore(0x40, 0x80)\n    /* \"practice/DeFiBank.sol\":736:765  string public name=\"DefiBank\" */\n  mload(0x40)\n  dup1\n  0x40\n  add\n  0x40\n  mstore\n  dup1\n  0x08\n  dup2\n  mstore\n  0x20\n  add\n  0x4465666942616e6b000000000000000000000000000000000000000000000000\n  dup2\n  mstore\n  pop\n  0x00\n  swap1\n  dup1\n  mload\n  swap1\n  0x20\n  add\n  swap1\n  tag_1\n  swap3\n  swap2\n  swap1\n  tag_2\n  jump\t// in\ntag_1:\n  pop\n    /* \"practice/DeFiBank.sol\":1010:1161  constructor() public {\r... */\n  callvalue\n  dup1\n  iszero\n  tag_3\n  jumpi\n  0x00\n  dup1\n  revert\ntag_3:\n  pop\n    /* \"practice/DeFiBank.sol\":1049:1091  0xA0b86991c6218b36c1d19D4a2e9Eb0cE3606eB48 */\n  0xa0b86991c6218b36c1d19d4a2e9eb0ce3606eb48\n    /* \"practice/DeFiBank.sol\":1042:1046  usdc */\n  0x01\n  0x00\n    /* \"practice/DeFiBank.sol\":1042:1091  usdc = 0xA0b86991c6218b36c1d19D4a2e9Eb0cE3606eB48 */\n  0x0100\n  exp\n  dup2\n  sload\n  dup2\n  0xffffffffffffffffffffffffffffffffffffffff\n  mul\n  not\n  and\n  swap1\n  dup4\n  0xffffffffffffffffffffffffffffffffffffffff\n  and\n  mul\n  or\n  swap1\n  sstore\n  pop\n    /* \"practice/DeFiBank.sol\":1111:1153  0x5B38Da6a701c568545dCfcB03FcB875f56beddC4 */\n  0x5b38da6a701c568545dcfcb03fcb875f56beddc4\n    /* \"practice/DeFiBank.sol\":1102:1109  mytoken */\n  0x02\n  0x00\n    /* \"practice/DeFiBank.sol\":1102:1153  mytoken= 0x5B38Da6a701c568545dCfcB03FcB875f56beddC4 */\n  0x0100\n  exp\n  dup2\n  sload\n  dup2\n  0xffffffffffffffffffffffffffffffffffffffff\n  mul\n  not\n  and\n  swap1\n  dup4\n  0xffffffffffffffffffffffffffffffffffffffff\n  and\n  mul\n  or\n  swap1\n  sstore\n  pop\n    /* \"practice/DeFiBank.sol\":712:2083  contract DeFiBank{\r... */\n  jump(tag_6)\ntag_2:\n  dup3\n  dup1\n  sload\n  tag_7\n  swap1\n  tag_8\n  jump\t// in\ntag_7:\n  swap1\n  0x00\n  mstore\n  keccak256(0x00, 0x20)\n  swap1\n  0x1f\n  add\n  0x20\n  swap1\n  div\n  dup2\n  add\n  swap3\n  dup3\n  tag_10\n  jumpi\n  0x00\n  dup6\n  sstore\n  jump(tag_9)\ntag_10:\n  dup3\n  0x1f\n  lt\n  tag_11\n  jumpi\n  dup1\n  mload\n  not(0xff)\n  and\n  dup4\n  dup1\n  add\n  or\n  dup6\n  sstore\n  jump(tag_9)\ntag_11:\n  dup3\n  dup1\n  add\n  0x01\n  add\n  dup6\n  sstore\n  dup3\n  iszero\n  tag_9\n  jumpi\n  swap2\n  dup3\n  add\ntag_12:\n  dup3\n  dup2\n  gt\n  iszero\n  tag_13\n  jumpi\n  dup3\n  mload\n  dup3\n  sstore\n  swap2\n  0x20\n  add\n  swap2\n  swap1\n  0x01\n  add\n  swap1\n  jump(tag_12)\ntag_13:\ntag_9:\n  pop\n  swap1\n  pop\n  tag_14\n  swap2\n  swap1\n  tag_15\n  jump\t// in\ntag_14:\n  pop\n  swap1\n  jump\t// out\ntag_15:\ntag_16:\n  dup1\n  dup3\n  gt\n  iszero\n  tag_17\n  jumpi\n  0x00\n  dup2\n  0x00\n  swap1\n  sstore\n  pop\n  0x01\n  add\n  jump(tag_16)\ntag_17:\n  pop\n  swap1\n  jump\t// out\n    /* \"#utility.yul\":7:327   */\ntag_8:\n    /* \"#utility.yul\":51:57   */\n  0x00\n    /* \"#utility.yul\":88:89   */\n  0x02\n    /* \"#utility.yul\":82:86   */\n  dup3\n    /* \"#utility.yul\":78:90   */\n  div\n    /* \"#utility.yul\":68:90   */\n  swap1\n  pop\n    /* \"#utility.yul\":135:136   */\n  0x01\n    /* \"#utility.yul\":129:133   */\n  dup3\n    /* \"#utility.yul\":125:137   */\n  and\n    /* \"#utility.yul\":156:174   */\n  dup1\n    /* \"#utility.yul\":146:148   */\n  tag_20\n  jumpi\n    /* \"#utility.yul\":212:216   */\n  0x7f\n    /* \"#utility.yul\":204:210   */\n  dup3\n    /* \"#utility.yul\":200:217   */\n  and\n    /* \"#utility.yul\":190:217   */\n  swap2\n  pop\n    /* \"#utility.yul\":146:148   */\ntag_20:\n    /* \"#utility.yul\":274:276   */\n  0x20\n    /* \"#utility.yul\":266:272   */\n  dup3\n    /* \"#utility.yul\":263:277   */\n  lt\n    /* \"#utility.yul\":243:261   */\n  dup2\n    /* \"#utility.yul\":240:278   */\n  eq\n    /* \"#utility.yul\":237:239   */\n  iszero\n  tag_21\n  jumpi\n    /* \"#utility.yul\":293:311   */\n  tag_22\n  tag_23\n  jump\t// in\ntag_22:\n    /* \"#utility.yul\":237:239   */\ntag_21:\n    /* \"#utility.yul\":58:327   */\n  pop\n  swap2\n  swap1\n  pop\n  jump\t// out\n    /* \"#utility.yul\":333:513   */\ntag_23:\n    /* \"#utility.yul\":381:458   */\n  0x4e487b7100000000000000000000000000000000000000000000000000000000\n    /* \"#utility.yul\":378:379   */\n  0x00\n    /* \"#utility.yul\":371:459   */\n  mstore\n    /* \"#utility.yul\":478:482   */\n  0x22\n    /* \"#utility.yul\":475:476   */\n  0x04\n    /* \"#utility.yul\":468:483   */\n  mstore\n    /* \"#utility.yul\":502:506   */\n  0x24\n    /* \"#utility.yul\":499:500   */\n  0x00\n    /* \"#utility.yul\":492:507   */\n  revert\n    /* \"practice/DeFiBank.sol\":712:2083  contract DeFiBank{\r... */\ntag_6:\n  dataSize(sub_0)\n  dup1\n  dataOffset(sub_0)\n  0x00\n  codecopy\n  0x00\n  return\nstop\n\nsub_0: assembly {\n        /* \"practice/DeFiBank.sol\":712:2083  contract DeFiBank{\r... */\n      mstore(0x40, 0x80)\n      callvalue\n      dup1\n      iszero\n      tag_1\n      jumpi\n      0x00\n      dup1\n      revert\n    tag_1:\n      pop\n      jumpi(tag_2, lt(calldatasize, 0x04))\n      shr(0xe0, calldataload(0x00))\n      dup1\n      0x45bc78ab\n      gt\n      tag_13\n      jumpi\n      dup1\n      0x45bc78ab\n      eq\n      tag_8\n      jumpi\n      dup1\n      0x49fc5f87\n      eq\n      tag_9\n      jumpi\n      dup1\n      0x5eab74fc\n      eq\n      tag_10\n      jumpi\n      dup1\n      0xc93c8f34\n      eq\n      tag_11\n      jumpi\n      dup1\n      0xfd5e6dd1\n      eq\n      tag_12\n      jumpi\n      jump(tag_2)\n    tag_13:\n      dup1\n      0x06fdde03\n      eq\n      tag_3\n      jumpi\n      dup1\n      0x07e9417a\n      eq\n      tag_4\n      jumpi\n      dup1\n      0x1bf6ddae\n      eq\n      tag_5\n      jumpi\n      dup1\n      0x2def6620\n      eq\n      tag_6\n      jumpi\n      dup1\n      0x3e413bee\n      eq\n      tag_7\n      jumpi\n    tag_2:\n      0x00\n      dup1\n      revert\n        /* \"practice/DeFiBank.sol\":736:765  string public name=\"DefiBank\" */\n    tag_3:\n      tag_14\n      tag_15\n      jump\t// in\n    tag_14:\n      mload(0x40)\n      tag_16\n      swap2\n      swap1\n      tag_17\n      jump\t// in\n    tag_16:\n      mload(0x40)\n      dup1\n      swap2\n      sub\n      swap1\n      return\n        /* \"practice/DeFiBank.sol\":914:955  mapping(address=> bool) public isStacking */\n    tag_4:\n      tag_18\n      0x04\n      dup1\n      calldatasize\n      sub\n      dup2\n      add\n      swap1\n      tag_19\n      swap2\n      swap1\n      tag_20\n      jump\t// in\n    tag_19:\n      tag_21\n      jump\t// in\n    tag_18:\n      mload(0x40)\n      tag_22\n      swap2\n      swap1\n      tag_23\n      jump\t// in\n    tag_22:\n      mload(0x40)\n      dup1\n      swap2\n      sub\n      swap1\n      return\n        /* \"practice/DeFiBank.sol\":1169:1494  function createStake(uint amount) public {\r... */\n    tag_5:\n      tag_24\n      0x04\n      dup1\n      calldatasize\n      sub\n      dup2\n      add\n      swap1\n      tag_25\n      swap2\n      swap1\n      tag_26\n      jump\t// in\n    tag_25:\n      tag_27\n      jump\t// in\n    tag_24:\n      stop\n        /* \"practice/DeFiBank.sol\":1502:1765  function unstake() public{\r... */\n    tag_6:\n      tag_28\n      tag_29\n      jump\t// in\n    tag_28:\n      stop\n        /* \"practice/DeFiBank.sol\":774:793  address public usdc */\n    tag_7:\n      tag_30\n      tag_31\n      jump\t// in\n    tag_30:\n      mload(0x40)\n      tag_32\n      swap2\n      swap1\n      tag_33\n      jump\t// in\n    tag_32:\n      mload(0x40)\n      dup1\n      swap2\n      sub\n      swap1\n      return\n        /* \"practice/DeFiBank.sol\":862:906  mapping(address=>uint) public stakingBalance */\n    tag_8:\n      tag_34\n      0x04\n      dup1\n      calldatasize\n      sub\n      dup2\n      add\n      swap1\n      tag_35\n      swap2\n      swap1\n      tag_20\n      jump\t// in\n    tag_35:\n      tag_36\n      jump\t// in\n    tag_34:\n      mload(0x40)\n      tag_37\n      swap2\n      swap1\n      tag_38\n      jump\t// in\n    tag_37:\n      mload(0x40)\n      dup1\n      swap2\n      sub\n      swap1\n      return\n        /* \"practice/DeFiBank.sol\":1773:2078  function collectionReward() public{\r... */\n    tag_9:\n      tag_39\n      tag_40\n      jump\t// in\n    tag_39:\n      stop\n        /* \"practice/DeFiBank.sol\":800:822  address public mytoken */\n    tag_10:\n      tag_41\n      tag_42\n      jump\t// in\n    tag_41:\n      mload(0x40)\n      tag_43\n      swap2\n      swap1\n      tag_33\n      jump\t// in\n    tag_43:\n      mload(0x40)\n      dup1\n      swap2\n      sub\n      swap1\n      return\n        /* \"practice/DeFiBank.sol\":962:1001  mapping(address=>bool) public hasStaked */\n    tag_11:\n      tag_44\n      0x04\n      dup1\n      calldatasize\n      sub\n      dup2\n      add\n      swap1\n      tag_45\n      swap2\n      swap1\n      tag_20\n      jump\t// in\n    tag_45:\n      tag_46\n      jump\t// in\n    tag_44:\n      mload(0x40)\n      tag_47\n      swap2\n      swap1\n      tag_23\n      jump\t// in\n    tag_47:\n      mload(0x40)\n      dup1\n      swap2\n      sub\n      swap1\n      return\n        /* \"practice/DeFiBank.sol\":831:855  address[] public stakers */\n    tag_12:\n      tag_48\n      0x04\n      dup1\n      calldatasize\n      sub\n      dup2\n      add\n      swap1\n      tag_49\n      swap2\n      swap1\n      tag_26\n      jump\t// in\n    tag_49:\n      tag_50\n      jump\t// in\n    tag_48:\n      mload(0x40)\n      tag_51\n      swap2\n      swap1\n      tag_33\n      jump\t// in\n    tag_51:\n      mload(0x40)\n      dup1\n      swap2\n      sub\n      swap1\n      return\n        /* \"practice/DeFiBank.sol\":736:765  string public name=\"DefiBank\" */\n    tag_15:\n      0x00\n      dup1\n      sload\n      tag_52\n      swap1\n      tag_53\n      jump\t// in\n    tag_52:\n      dup1\n      0x1f\n      add\n      0x20\n      dup1\n      swap2\n      div\n      mul\n      0x20\n      add\n      mload(0x40)\n      swap1\n      dup2\n      add\n      0x40\n      mstore\n      dup1\n      swap3\n      swap2\n      swap1\n      dup2\n      dup2\n      mstore\n      0x20\n      add\n      dup3\n      dup1\n      sload\n      tag_54\n      swap1\n      tag_53\n      jump\t// in\n    tag_54:\n      dup1\n      iszero\n      tag_55\n      jumpi\n      dup1\n      0x1f\n      lt\n      tag_56\n      jumpi\n      0x0100\n      dup1\n      dup4\n      sload\n      div\n      mul\n      dup4\n      mstore\n      swap2\n      0x20\n      add\n      swap2\n      jump(tag_55)\n    tag_56:\n      dup3\n      add\n      swap2\n      swap1\n      0x00\n      mstore\n      keccak256(0x00, 0x20)\n      swap1\n    tag_57:\n      dup2\n      sload\n      dup2\n      mstore\n      swap1\n      0x01\n      add\n      swap1\n      0x20\n      add\n      dup1\n      dup4\n      gt\n      tag_57\n      jumpi\n      dup3\n      swap1\n      sub\n      0x1f\n      and\n      dup3\n      add\n      swap2\n    tag_55:\n      pop\n      pop\n      pop\n      pop\n      pop\n      dup2\n      jump\t// out\n        /* \"practice/DeFiBank.sol\":914:955  mapping(address=> bool) public isStacking */\n    tag_21:\n      mstore(0x20, 0x05)\n      dup1\n      0x00\n      mstore\n      keccak256(0x00, 0x40)\n      0x00\n      swap2\n      pop\n      sload\n      swap1\n      0x0100\n      exp\n      swap1\n      div\n      0xff\n      and\n      dup2\n      jump\t// out\n        /* \"practice/DeFiBank.sol\":1169:1494  function createStake(uint amount) public {\r... */\n    tag_27:\n        /* \"practice/DeFiBank.sol\":1228:1232  usdc */\n      0x01\n      0x00\n      swap1\n      sload\n      swap1\n      0x0100\n      exp\n      swap1\n      div\n      0xffffffffffffffffffffffffffffffffffffffff\n      and\n        /* \"practice/DeFiBank.sol\":1221:1246  IERC20(usdc).transferFrom */\n      0xffffffffffffffffffffffffffffffffffffffff\n      and\n      0x23b872dd\n        /* \"practice/DeFiBank.sol\":1247:1257  msg.sender */\n      caller\n        /* \"practice/DeFiBank.sol\":1266:1270  this */\n      address\n        /* \"practice/DeFiBank.sol\":1272:1278  amount */\n      dup5\n        /* \"practice/DeFiBank.sol\":1221:1279  IERC20(usdc).transferFrom(msg.sender,address(this),amount) */\n      mload(0x40)\n      dup5\n      0xffffffff\n      and\n      0xe0\n      shl\n      dup2\n      mstore\n      0x04\n      add\n      tag_59\n      swap4\n      swap3\n      swap2\n      swap1\n      tag_60\n      jump\t// in\n    tag_59:\n      0x20\n      mload(0x40)\n      dup1\n      dup4\n      sub\n      dup2\n      0x00\n      dup8\n      dup1\n      extcodesize\n      iszero\n      dup1\n      iszero\n      tag_61\n      jumpi\n      0x00\n      dup1\n      revert\n    tag_61:\n      pop\n      gas\n      call\n      iszero\n      dup1\n      iszero\n      tag_63\n      jumpi\n      returndatasize\n      0x00\n      dup1\n      returndatacopy\n      revert(0x00, returndatasize)\n    tag_63:\n      pop\n      pop\n      pop\n      pop\n      mload(0x40)\n      returndatasize\n      not(0x1f)\n      0x1f\n      dup3\n      add\n      and\n      dup3\n      add\n      dup1\n      0x40\n      mstore\n      pop\n      dup2\n      add\n      swap1\n      tag_64\n      swap2\n      swap1\n      tag_65\n      jump\t// in\n    tag_64:\n      pop\n        /* \"practice/DeFiBank.sol\":1318:1324  amount */\n      dup1\n        /* \"practice/DeFiBank.sol\":1290:1304  stakingBalance */\n      0x04\n        /* \"practice/DeFiBank.sol\":1290:1316  stakingBalance[msg.sender] */\n      0x00\n        /* \"practice/DeFiBank.sol\":1305:1315  msg.sender */\n      caller\n        /* \"practice/DeFiBank.sol\":1290:1316  stakingBalance[msg.sender] */\n      0xffffffffffffffffffffffffffffffffffffffff\n      and\n      0xffffffffffffffffffffffffffffffffffffffff\n      and\n      dup2\n      mstore\n      0x20\n      add\n      swap1\n      dup2\n      mstore\n      0x20\n      add\n      0x00\n      keccak256\n      0x00\n        /* \"practice/DeFiBank.sol\":1290:1324  stakingBalance[msg.sender]+=amount */\n      dup3\n      dup3\n      sload\n      tag_66\n      swap2\n      swap1\n      tag_67\n      jump\t// in\n    tag_66:\n      swap3\n      pop\n      pop\n      dup2\n      swap1\n      sstore\n      pop\n        /* \"practice/DeFiBank.sol\":1339:1348  hasStaked */\n      0x06\n        /* \"practice/DeFiBank.sol\":1339:1360  hasStaked[msg.sender] */\n      0x00\n        /* \"practice/DeFiBank.sol\":1349:1359  msg.sender */\n      caller\n        /* \"practice/DeFiBank.sol\":1339:1360  hasStaked[msg.sender] */\n      0xffffffffffffffffffffffffffffffffffffffff\n      and\n      0xffffffffffffffffffffffffffffffffffffffff\n      and\n      dup2\n      mstore\n      0x20\n      add\n      swap1\n      dup2\n      mstore\n      0x20\n      add\n      0x00\n      keccak256\n      0x00\n      swap1\n      sload\n      swap1\n      0x0100\n      exp\n      swap1\n      div\n      0xff\n      and\n        /* \"practice/DeFiBank.sol\":1335:1412  if(!hasStaked[msg.sender]){\r... */\n      tag_68\n      jumpi\n        /* \"practice/DeFiBank.sol\":1376:1383  stakers */\n      0x03\n        /* \"practice/DeFiBank.sol\":1389:1399  msg.sender */\n      caller\n        /* \"practice/DeFiBank.sol\":1376:1400  stakers.push(msg.sender) */\n      swap1\n      dup1\n      0x01\n      dup2\n      sload\n      add\n      dup1\n      dup3\n      sstore\n      dup1\n      swap2\n      pop\n      pop\n      0x01\n      swap1\n      sub\n      swap1\n      0x00\n      mstore\n      keccak256(0x00, 0x20)\n      add\n      0x00\n      swap1\n      swap2\n      swap1\n      swap2\n      swap1\n      swap2\n      0x0100\n      exp\n      dup2\n      sload\n      dup2\n      0xffffffffffffffffffffffffffffffffffffffff\n      mul\n      not\n      and\n      swap1\n      dup4\n      0xffffffffffffffffffffffffffffffffffffffff\n      and\n      mul\n      or\n      swap1\n      sstore\n      pop\n        /* \"practice/DeFiBank.sol\":1335:1412  if(!hasStaked[msg.sender]){\r... */\n    tag_68:\n        /* \"practice/DeFiBank.sol\":1445:1449  true */\n      0x01\n        /* \"practice/DeFiBank.sol\":1422:1432  isStacking */\n      0x05\n        /* \"practice/DeFiBank.sol\":1422:1444  isStacking[msg.sender] */\n      0x00\n        /* \"practice/DeFiBank.sol\":1433:1443  msg.sender */\n      caller\n        /* \"practice/DeFiBank.sol\":1422:1444  isStacking[msg.sender] */\n      0xffffffffffffffffffffffffffffffffffffffff\n      and\n      0xffffffffffffffffffffffffffffffffffffffff\n      and\n      dup2\n      mstore\n      0x20\n      add\n      swap1\n      dup2\n      mstore\n      0x20\n      add\n      0x00\n      keccak256\n      0x00\n        /* \"practice/DeFiBank.sol\":1422:1449  isStacking[msg.sender]=true */\n      0x0100\n      exp\n      dup2\n      sload\n      dup2\n      0xff\n      mul\n      not\n      and\n      swap1\n      dup4\n      iszero\n      iszero\n      mul\n      or\n      swap1\n      sstore\n      pop\n        /* \"practice/DeFiBank.sol\":1482:1486  true */\n      0x01\n        /* \"practice/DeFiBank.sol\":1460:1469  hasStaked */\n      0x06\n        /* \"practice/DeFiBank.sol\":1460:1481  hasStaked[msg.sender] */\n      0x00\n        /* \"practice/DeFiBank.sol\":1470:1480  msg.sender */\n      caller\n        /* \"practice/DeFiBank.sol\":1460:1481  hasStaked[msg.sender] */\n      0xffffffffffffffffffffffffffffffffffffffff\n      and\n      0xffffffffffffffffffffffffffffffffffffffff\n      and\n      dup2\n      mstore\n      0x20\n      add\n      swap1\n      dup2\n      mstore\n      0x20\n      add\n      0x00\n      keccak256\n      0x00\n        /* \"practice/DeFiBank.sol\":1460:1486  hasStaked[msg.sender]=true */\n      0x0100\n      exp\n      dup2\n      sload\n      dup2\n      0xff\n      mul\n      not\n      and\n      swap1\n      dup4\n      iszero\n      iszero\n      mul\n      or\n      swap1\n      sstore\n      pop\n        /* \"practice/DeFiBank.sol\":1169:1494  function createStake(uint amount) public {\r... */\n      pop\n      jump\t// out\n        /* \"practice/DeFiBank.sol\":1502:1765  function unstake() public{\r... */\n    tag_29:\n        /* \"practice/DeFiBank.sol\":1538:1550  uint balance */\n      0x00\n        /* \"practice/DeFiBank.sol\":1551:1565  stakingBalance */\n      0x04\n        /* \"practice/DeFiBank.sol\":1551:1577  stakingBalance[msg.sender] */\n      0x00\n        /* \"practice/DeFiBank.sol\":1566:1576  msg.sender */\n      caller\n        /* \"practice/DeFiBank.sol\":1551:1577  stakingBalance[msg.sender] */\n      0xffffffffffffffffffffffffffffffffffffffff\n      and\n      0xffffffffffffffffffffffffffffffffffffffff\n      and\n      dup2\n      mstore\n      0x20\n      add\n      swap1\n      dup2\n      mstore\n      0x20\n      add\n      0x00\n      keccak256\n      sload\n        /* \"practice/DeFiBank.sol\":1538:1577  uint balance=stakingBalance[msg.sender] */\n      swap1\n      pop\n        /* \"practice/DeFiBank.sol\":1604:1605  0 */\n      0x00\n        /* \"practice/DeFiBank.sol\":1596:1603  balance */\n      dup2\n        /* \"practice/DeFiBank.sol\":1596:1605  balance>0 */\n      gt\n        /* \"practice/DeFiBank.sol\":1588:1627  require(balance>0,\"not enough balance\") */\n      tag_71\n      jumpi\n      mload(0x40)\n      0x08c379a000000000000000000000000000000000000000000000000000000000\n      dup2\n      mstore\n      0x04\n      add\n      tag_72\n      swap1\n      tag_73\n      jump\t// in\n    tag_72:\n      mload(0x40)\n      dup1\n      swap2\n      sub\n      swap1\n      revert\n    tag_71:\n        /* \"practice/DeFiBank.sol\":1645:1649  usdc */\n      0x01\n      0x00\n      swap1\n      sload\n      swap1\n      0x0100\n      exp\n      swap1\n      div\n      0xffffffffffffffffffffffffffffffffffffffff\n      and\n        /* \"practice/DeFiBank.sol\":1638:1659  IERC20(usdc).transfer */\n      0xffffffffffffffffffffffffffffffffffffffff\n      and\n      0xa9059cbb\n        /* \"practice/DeFiBank.sol\":1660:1670  msg.sender */\n      caller\n        /* \"practice/DeFiBank.sol\":1671:1678  balance */\n      dup4\n        /* \"practice/DeFiBank.sol\":1638:1679  IERC20(usdc).transfer(msg.sender,balance) */\n      mload(0x40)\n      dup4\n      0xffffffff\n      and\n      0xe0\n      shl\n      dup2\n      mstore\n      0x04\n      add\n      tag_74\n      swap3\n      swap2\n      swap1\n      tag_75\n      jump\t// in\n    tag_74:\n      0x20\n      mload(0x40)\n      dup1\n      dup4\n      sub\n      dup2\n      0x00\n      dup8\n      dup1\n      extcodesize\n      iszero\n      dup1\n      iszero\n      tag_76\n      jumpi\n      0x00\n      dup1\n      revert\n    tag_76:\n      pop\n      gas\n      call\n      iszero\n      dup1\n      iszero\n      tag_78\n      jumpi\n      returndatasize\n      0x00\n      dup1\n      returndatacopy\n      revert(0x00, returndatasize)\n    tag_78:\n      pop\n      pop\n      pop\n      pop\n      mload(0x40)\n      returndatasize\n      not(0x1f)\n      0x1f\n      dup3\n      add\n      and\n      dup3\n      add\n      dup1\n      0x40\n      mstore\n      pop\n      dup2\n      add\n      swap1\n      tag_79\n      swap2\n      swap1\n      tag_65\n      jump\t// in\n    tag_79:\n      pop\n        /* \"practice/DeFiBank.sol\":1717:1718  0 */\n      0x00\n        /* \"practice/DeFiBank.sol\":1690:1704  stakingBalance */\n      0x04\n        /* \"practice/DeFiBank.sol\":1690:1716  stakingBalance[msg.sender] */\n      0x00\n        /* \"practice/DeFiBank.sol\":1705:1715  msg.sender */\n      caller\n        /* \"practice/DeFiBank.sol\":1690:1716  stakingBalance[msg.sender] */\n      0xffffffffffffffffffffffffffffffffffffffff\n      and\n      0xffffffffffffffffffffffffffffffffffffffff\n      and\n      dup2\n      mstore\n      0x20\n      add\n      swap1\n      dup2\n      mstore\n      0x20\n      add\n      0x00\n      keccak256\n        /* \"practice/DeFiBank.sol\":1690:1718  stakingBalance[msg.sender]=0 */\n      dup2\n      swap1\n      sstore\n      pop\n        /* \"practice/DeFiBank.sol\":1752:1757  false */\n      0x00\n        /* \"practice/DeFiBank.sol\":1729:1739  isStacking */\n      0x05\n        /* \"practice/DeFiBank.sol\":1729:1751  isStacking[msg.sender] */\n      0x00\n        /* \"practice/DeFiBank.sol\":1740:1750  msg.sender */\n      caller\n        /* \"practice/DeFiBank.sol\":1729:1751  isStacking[msg.sender] */\n      0xffffffffffffffffffffffffffffffffffffffff\n      and\n      0xffffffffffffffffffffffffffffffffffffffff\n      and\n      dup2\n      mstore\n      0x20\n      add\n      swap1\n      dup2\n      mstore\n      0x20\n      add\n      0x00\n      keccak256\n      0x00\n        /* \"practice/DeFiBank.sol\":1729:1757  isStacking[msg.sender]=false */\n      0x0100\n      exp\n      dup2\n      sload\n      dup2\n      0xff\n      mul\n      not\n      and\n      swap1\n      dup4\n      iszero\n      iszero\n      mul\n      or\n      swap1\n      sstore\n      pop\n        /* \"practice/DeFiBank.sol\":1502:1765  function unstake() public{\r... */\n      pop\n      jump\t// out\n        /* \"practice/DeFiBank.sol\":774:793  address public usdc */\n    tag_31:\n      0x01\n      0x00\n      swap1\n      sload\n      swap1\n      0x0100\n      exp\n      swap1\n      div\n      0xffffffffffffffffffffffffffffffffffffffff\n      and\n      dup2\n      jump\t// out\n        /* \"practice/DeFiBank.sol\":862:906  mapping(address=>uint) public stakingBalance */\n    tag_36:\n      mstore(0x20, 0x04)\n      dup1\n      0x00\n      mstore\n      keccak256(0x00, 0x40)\n      0x00\n      swap2\n      pop\n      swap1\n      pop\n      sload\n      dup2\n      jump\t// out\n        /* \"practice/DeFiBank.sol\":1773:2078  function collectionReward() public{\r... */\n    tag_40:\n        /* \"practice/DeFiBank.sol\":1822:1828  uint i */\n      0x00\n        /* \"practice/DeFiBank.sol\":1818:2069  for(uint i=0;i<stakers.length;i++){\r... */\n    tag_81:\n        /* \"practice/DeFiBank.sol\":1833:1840  stakers */\n      0x03\n        /* \"practice/DeFiBank.sol\":1833:1847  stakers.length */\n      dup1\n      sload\n      swap1\n      pop\n        /* \"practice/DeFiBank.sol\":1831:1832  i */\n      dup2\n        /* \"practice/DeFiBank.sol\":1831:1847  i<stakers.length */\n      lt\n        /* \"practice/DeFiBank.sol\":1818:2069  for(uint i=0;i<stakers.length;i++){\r... */\n      iszero\n      tag_82\n      jumpi\n        /* \"practice/DeFiBank.sol\":1867:1884  address recipient */\n      0x00\n        /* \"practice/DeFiBank.sol\":1887:1894  stakers */\n      0x03\n        /* \"practice/DeFiBank.sol\":1895:1896  i */\n      dup3\n        /* \"practice/DeFiBank.sol\":1887:1897  stakers[i] */\n      dup2\n      sload\n      dup2\n      lt\n      tag_84\n      jumpi\n      mstore(0x00, 0x4e487b7100000000000000000000000000000000000000000000000000000000)\n      mstore(0x04, 0x32)\n      revert(0x00, 0x24)\n    tag_84:\n      swap1\n      0x00\n      mstore\n      keccak256(0x00, 0x20)\n      add\n      0x00\n      swap1\n      sload\n      swap1\n      0x0100\n      exp\n      swap1\n      div\n      0xffffffffffffffffffffffffffffffffffffffff\n      and\n        /* \"practice/DeFiBank.sol\":1867:1897  address recipient = stakers[i] */\n      swap1\n      pop\n        /* \"practice/DeFiBank.sol\":1912:1924  uint balance */\n      0x00\n        /* \"practice/DeFiBank.sol\":1927:1941  stakingBalance */\n      0x04\n        /* \"practice/DeFiBank.sol\":1927:1952  stakingBalance[recipient] */\n      0x00\n        /* \"practice/DeFiBank.sol\":1942:1951  recipient */\n      dup4\n        /* \"practice/DeFiBank.sol\":1927:1952  stakingBalance[recipient] */\n      0xffffffffffffffffffffffffffffffffffffffff\n      and\n      0xffffffffffffffffffffffffffffffffffffffff\n      and\n      dup2\n      mstore\n      0x20\n      add\n      swap1\n      dup2\n      mstore\n      0x20\n      add\n      0x00\n      keccak256\n      sload\n        /* \"practice/DeFiBank.sol\":1912:1952  uint balance = stakingBalance[recipient] */\n      swap1\n      pop\n        /* \"practice/DeFiBank.sol\":1978:1979  0 */\n      0x00\n        /* \"practice/DeFiBank.sol\":1970:1977  balance */\n      dup2\n        /* \"practice/DeFiBank.sol\":1970:1979  balance>0 */\n      gt\n        /* \"practice/DeFiBank.sol\":1967:2058  if(balance>0){\r... */\n      iszero\n      tag_86\n      jumpi\n        /* \"practice/DeFiBank.sol\":2006:2013  mytoken */\n      0x02\n      0x00\n      swap1\n      sload\n      swap1\n      0x0100\n      exp\n      swap1\n      div\n      0xffffffffffffffffffffffffffffffffffffffff\n      and\n        /* \"practice/DeFiBank.sol\":1999:2023  IERC20(mytoken).transfer */\n      0xffffffffffffffffffffffffffffffffffffffff\n      and\n      0xa9059cbb\n        /* \"practice/DeFiBank.sol\":2024:2033  recipient */\n      dup4\n        /* \"practice/DeFiBank.sol\":2034:2041  balance */\n      dup4\n        /* \"practice/DeFiBank.sol\":1999:2042  IERC20(mytoken).transfer(recipient,balance) */\n      mload(0x40)\n      dup4\n      0xffffffff\n      and\n      0xe0\n      shl\n      dup2\n      mstore\n      0x04\n      add\n      tag_87\n      swap3\n      swap2\n      swap1\n      tag_75\n      jump\t// in\n    tag_87:\n      0x20\n      mload(0x40)\n      dup1\n      dup4\n      sub\n      dup2\n      0x00\n      dup8\n      dup1\n      extcodesize\n      iszero\n      dup1\n      iszero\n      tag_88\n      jumpi\n      0x00\n      dup1\n      revert\n    tag_88:\n      pop\n      gas\n      call\n      iszero\n      dup1\n      iszero\n      tag_90\n      jumpi\n      returndatasize\n      0x00\n      dup1\n      returndatacopy\n      revert(0x00, returndatasize)\n    tag_90:\n      pop\n      pop\n      pop\n      pop\n      mload(0x40)\n      returndatasize\n      not(0x1f)\n      0x1f\n      dup3\n      add\n      and\n      dup3\n      add\n      dup1\n      0x40\n      mstore\n      pop\n      dup2\n      add\n      swap1\n      tag_91\n      swap2\n      swap1\n      tag_65\n      jump\t// in\n    tag_91:\n      pop\n        /* \"practice/DeFiBank.sol\":1967:2058  if(balance>0){\r... */\n    tag_86:\n        /* \"practice/DeFiBank.sol\":1818:2069  for(uint i=0;i<stakers.length;i++){\r... */\n      pop\n      pop\n        /* \"practice/DeFiBank.sol\":1848:1851  i++ */\n      dup1\n      dup1\n      tag_92\n      swap1\n      tag_93\n      jump\t// in\n    tag_92:\n      swap2\n      pop\n      pop\n        /* \"practice/DeFiBank.sol\":1818:2069  for(uint i=0;i<stakers.length;i++){\r... */\n      jump(tag_81)\n    tag_82:\n      pop\n        /* \"practice/DeFiBank.sol\":1773:2078  function collectionReward() public{\r... */\n      jump\t// out\n        /* \"practice/DeFiBank.sol\":800:822  address public mytoken */\n    tag_42:\n      0x02\n      0x00\n      swap1\n      sload\n      swap1\n      0x0100\n      exp\n      swap1\n      div\n      0xffffffffffffffffffffffffffffffffffffffff\n      and\n      dup2\n      jump\t// out\n        /* \"practice/DeFiBank.sol\":962:1001  mapping(address=>bool) public hasStaked */\n    tag_46:\n      mstore(0x20, 0x06)\n      dup1\n      0x00\n      mstore\n      keccak256(0x00, 0x40)\n      0x00\n      swap2\n      pop\n      sload\n      swap1\n      0x0100\n      exp\n      swap1\n      div\n      0xff\n      and\n      dup2\n      jump\t// out\n        /* \"practice/DeFiBank.sol\":831:855  address[] public stakers */\n    tag_50:\n      0x03\n      dup2\n      dup2\n      sload\n      dup2\n      lt\n      tag_94\n      jumpi\n      0x00\n      dup1\n      revert\n    tag_94:\n      swap1\n      0x00\n      mstore\n      keccak256(0x00, 0x20)\n      add\n      0x00\n      swap2\n      pop\n      sload\n      swap1\n      0x0100\n      exp\n      swap1\n      div\n      0xffffffffffffffffffffffffffffffffffffffff\n      and\n      dup2\n      jump\t// out\n        /* \"#utility.yul\":7:146   */\n    tag_97:\n        /* \"#utility.yul\":53:58   */\n      0x00\n        /* \"#utility.yul\":91:97   */\n      dup2\n        /* \"#utility.yul\":78:98   */\n      calldataload\n        /* \"#utility.yul\":69:98   */\n      swap1\n      pop\n        /* \"#utility.yul\":107:140   */\n      tag_99\n        /* \"#utility.yul\":134:139   */\n      dup2\n        /* \"#utility.yul\":107:140   */\n      tag_100\n      jump\t// in\n    tag_99:\n        /* \"#utility.yul\":59:146   */\n      swap3\n      swap2\n      pop\n      pop\n      jump\t// out\n        /* \"#utility.yul\":152:289   */\n    tag_101:\n        /* \"#utility.yul\":206:211   */\n      0x00\n        /* \"#utility.yul\":237:243   */\n      dup2\n        /* \"#utility.yul\":231:244   */\n      mload\n        /* \"#utility.yul\":222:244   */\n      swap1\n      pop\n        /* \"#utility.yul\":253:283   */\n      tag_103\n        /* \"#utility.yul\":277:282   */\n      dup2\n        /* \"#utility.yul\":253:283   */\n      tag_104\n      jump\t// in\n    tag_103:\n        /* \"#utility.yul\":212:289   */\n      swap3\n      swap2\n      pop\n      pop\n      jump\t// out\n        /* \"#utility.yul\":295:434   */\n    tag_105:\n        /* \"#utility.yul\":341:346   */\n      0x00\n        /* \"#utility.yul\":379:385   */\n      dup2\n        /* \"#utility.yul\":366:386   */\n      calldataload\n        /* \"#utility.yul\":357:386   */\n      swap1\n      pop\n        /* \"#utility.yul\":395:428   */\n      tag_107\n        /* \"#utility.yul\":422:427   */\n      dup2\n        /* \"#utility.yul\":395:428   */\n      tag_108\n      jump\t// in\n    tag_107:\n        /* \"#utility.yul\":347:434   */\n      swap3\n      swap2\n      pop\n      pop\n      jump\t// out\n        /* \"#utility.yul\":440:702   */\n    tag_20:\n        /* \"#utility.yul\":499:505   */\n      0x00\n        /* \"#utility.yul\":548:550   */\n      0x20\n        /* \"#utility.yul\":536:545   */\n      dup3\n        /* \"#utility.yul\":527:534   */\n      dup5\n        /* \"#utility.yul\":523:546   */\n      sub\n        /* \"#utility.yul\":519:551   */\n      slt\n        /* \"#utility.yul\":516:518   */\n      iszero\n      tag_110\n      jumpi\n        /* \"#utility.yul\":564:565   */\n      0x00\n        /* \"#utility.yul\":561:562   */\n      dup1\n        /* \"#utility.yul\":554:566   */\n      revert\n        /* \"#utility.yul\":516:518   */\n    tag_110:\n        /* \"#utility.yul\":607:608   */\n      0x00\n        /* \"#utility.yul\":632:685   */\n      tag_111\n        /* \"#utility.yul\":677:684   */\n      dup5\n        /* \"#utility.yul\":668:674   */\n      dup3\n        /* \"#utility.yul\":657:666   */\n      dup6\n        /* \"#utility.yul\":653:675   */\n      add\n        /* \"#utility.yul\":632:685   */\n      tag_97\n      jump\t// in\n    tag_111:\n        /* \"#utility.yul\":622:685   */\n      swap2\n      pop\n        /* \"#utility.yul\":578:695   */\n      pop\n        /* \"#utility.yul\":506:702   */\n      swap3\n      swap2\n      pop\n      pop\n      jump\t// out\n        /* \"#utility.yul\":708:986   */\n    tag_65:\n        /* \"#utility.yul\":775:781   */\n      0x00\n        /* \"#utility.yul\":824:826   */\n      0x20\n        /* \"#utility.yul\":812:821   */\n      dup3\n        /* \"#utility.yul\":803:810   */\n      dup5\n        /* \"#utility.yul\":799:822   */\n      sub\n        /* \"#utility.yul\":795:827   */\n      slt\n        /* \"#utility.yul\":792:794   */\n      iszero\n      tag_113\n      jumpi\n        /* \"#utility.yul\":840:841   */\n      0x00\n        /* \"#utility.yul\":837:838   */\n      dup1\n        /* \"#utility.yul\":830:842   */\n      revert\n        /* \"#utility.yul\":792:794   */\n    tag_113:\n        /* \"#utility.yul\":883:884   */\n      0x00\n        /* \"#utility.yul\":908:969   */\n      tag_114\n        /* \"#utility.yul\":961:968   */\n      dup5\n        /* \"#utility.yul\":952:958   */\n      dup3\n        /* \"#utility.yul\":941:950   */\n      dup6\n        /* \"#utility.yul\":937:959   */\n      add\n        /* \"#utility.yul\":908:969   */\n      tag_101\n      jump\t// in\n    tag_114:\n        /* \"#utility.yul\":898:969   */\n      swap2\n      pop\n        /* \"#utility.yul\":854:979   */\n      pop\n        /* \"#utility.yul\":782:986   */\n      swap3\n      swap2\n      pop\n      pop\n      jump\t// out\n        /* \"#utility.yul\":992:1254   */\n    tag_26:\n        /* \"#utility.yul\":1051:1057   */\n      0x00\n        /* \"#utility.yul\":1100:1102   */\n      0x20\n        /* \"#utility.yul\":1088:1097   */\n      dup3\n        /* \"#utility.yul\":1079:1086   */\n      dup5\n        /* \"#utility.yul\":1075:1098   */\n      sub\n        /* \"#utility.yul\":1071:1103   */\n      slt\n        /* \"#utility.yul\":1068:1070   */\n      iszero\n      tag_116\n      jumpi\n        /* \"#utility.yul\":1116:1117   */\n      0x00\n        /* \"#utility.yul\":1113:1114   */\n      dup1\n        /* \"#utility.yul\":1106:1118   */\n      revert\n        /* \"#utility.yul\":1068:1070   */\n    tag_116:\n        /* \"#utility.yul\":1159:1160   */\n      0x00\n        /* \"#utility.yul\":1184:1237   */\n      tag_117\n        /* \"#utility.yul\":1229:1236   */\n      dup5\n        /* \"#utility.yul\":1220:1226   */\n      dup3\n        /* \"#utility.yul\":1209:1218   */\n      dup6\n        /* \"#utility.yul\":1205:1227   */\n      add\n        /* \"#utility.yul\":1184:1237   */\n      tag_105\n      jump\t// in\n    tag_117:\n        /* \"#utility.yul\":1174:1237   */\n      swap2\n      pop\n        /* \"#utility.yul\":1130:1247   */\n      pop\n        /* \"#utility.yul\":1058:1254   */\n      swap3\n      swap2\n      pop\n      pop\n      jump\t// out\n        /* \"#utility.yul\":1260:1378   */\n    tag_118:\n        /* \"#utility.yul\":1347:1371   */\n      tag_120\n        /* \"#utility.yul\":1365:1370   */\n      dup2\n        /* \"#utility.yul\":1347:1371   */\n      tag_121\n      jump\t// in\n    tag_120:\n        /* \"#utility.yul\":1342:1345   */\n      dup3\n        /* \"#utility.yul\":1335:1372   */\n      mstore\n        /* \"#utility.yul\":1325:1378   */\n      pop\n      pop\n      jump\t// out\n        /* \"#utility.yul\":1384:1493   */\n    tag_122:\n        /* \"#utility.yul\":1465:1486   */\n      tag_124\n        /* \"#utility.yul\":1480:1485   */\n      dup2\n        /* \"#utility.yul\":1465:1486   */\n      tag_125\n      jump\t// in\n    tag_124:\n        /* \"#utility.yul\":1460:1463   */\n      dup3\n        /* \"#utility.yul\":1453:1487   */\n      mstore\n        /* \"#utility.yul\":1443:1493   */\n      pop\n      pop\n      jump\t// out\n        /* \"#utility.yul\":1499:1863   */\n    tag_126:\n        /* \"#utility.yul\":1587:1590   */\n      0x00\n        /* \"#utility.yul\":1615:1654   */\n      tag_128\n        /* \"#utility.yul\":1648:1653   */\n      dup3\n        /* \"#utility.yul\":1615:1654   */\n      tag_129\n      jump\t// in\n    tag_128:\n        /* \"#utility.yul\":1670:1741   */\n      tag_130\n        /* \"#utility.yul\":1734:1740   */\n      dup2\n        /* \"#utility.yul\":1729:1732   */\n      dup6\n        /* \"#utility.yul\":1670:1741   */\n      tag_131\n      jump\t// in\n    tag_130:\n        /* \"#utility.yul\":1663:1741   */\n      swap4\n      pop\n        /* \"#utility.yul\":1750:1802   */\n      tag_132\n        /* \"#utility.yul\":1795:1801   */\n      dup2\n        /* \"#utility.yul\":1790:1793   */\n      dup6\n        /* \"#utility.yul\":1783:1787   */\n      0x20\n        /* \"#utility.yul\":1776:1781   */\n      dup7\n        /* \"#utility.yul\":1772:1788   */\n      add\n        /* \"#utility.yul\":1750:1802   */\n      tag_133\n      jump\t// in\n    tag_132:\n        /* \"#utility.yul\":1827:1856   */\n      tag_134\n        /* \"#utility.yul\":1849:1855   */\n      dup2\n        /* \"#utility.yul\":1827:1856   */\n      tag_135\n      jump\t// in\n    tag_134:\n        /* \"#utility.yul\":1822:1825   */\n      dup5\n        /* \"#utility.yul\":1818:1857   */\n      add\n        /* \"#utility.yul\":1811:1857   */\n      swap2\n      pop\n        /* \"#utility.yul\":1591:1863   */\n      pop\n      swap3\n      swap2\n      pop\n      pop\n      jump\t// out\n        /* \"#utility.yul\":1869:2235   */\n    tag_136:\n        /* \"#utility.yul\":2011:2014   */\n      0x00\n        /* \"#utility.yul\":2032:2099   */\n      tag_138\n        /* \"#utility.yul\":2096:2098   */\n      0x12\n        /* \"#utility.yul\":2091:2094   */\n      dup4\n        /* \"#utility.yul\":2032:2099   */\n      tag_131\n      jump\t// in\n    tag_138:\n        /* \"#utility.yul\":2025:2099   */\n      swap2\n      pop\n        /* \"#utility.yul\":2108:2201   */\n      tag_139\n        /* \"#utility.yul\":2197:2200   */\n      dup3\n        /* \"#utility.yul\":2108:2201   */\n      tag_140\n      jump\t// in\n    tag_139:\n        /* \"#utility.yul\":2226:2228   */\n      0x20\n        /* \"#utility.yul\":2221:2224   */\n      dup3\n        /* \"#utility.yul\":2217:2229   */\n      add\n        /* \"#utility.yul\":2210:2229   */\n      swap1\n      pop\n        /* \"#utility.yul\":2015:2235   */\n      swap2\n      swap1\n      pop\n      jump\t// out\n        /* \"#utility.yul\":2241:2359   */\n    tag_141:\n        /* \"#utility.yul\":2328:2352   */\n      tag_143\n        /* \"#utility.yul\":2346:2351   */\n      dup2\n        /* \"#utility.yul\":2328:2352   */\n      tag_144\n      jump\t// in\n    tag_143:\n        /* \"#utility.yul\":2323:2326   */\n      dup3\n        /* \"#utility.yul\":2316:2353   */\n      mstore\n        /* \"#utility.yul\":2306:2359   */\n      pop\n      pop\n      jump\t// out\n        /* \"#utility.yul\":2365:2587   */\n    tag_33:\n        /* \"#utility.yul\":2458:2462   */\n      0x00\n        /* \"#utility.yul\":2496:2498   */\n      0x20\n        /* \"#utility.yul\":2485:2494   */\n      dup3\n        /* \"#utility.yul\":2481:2499   */\n      add\n        /* \"#utility.yul\":2473:2499   */\n      swap1\n      pop\n        /* \"#utility.yul\":2509:2580   */\n      tag_146\n        /* \"#utility.yul\":2577:2578   */\n      0x00\n        /* \"#utility.yul\":2566:2575   */\n      dup4\n        /* \"#utility.yul\":2562:2579   */\n      add\n        /* \"#utility.yul\":2553:2559   */\n      dup5\n        /* \"#utility.yul\":2509:2580   */\n      tag_118\n      jump\t// in\n    tag_146:\n        /* \"#utility.yul\":2463:2587   */\n      swap3\n      swap2\n      pop\n      pop\n      jump\t// out\n        /* \"#utility.yul\":2593:3035   */\n    tag_60:\n        /* \"#utility.yul\":2742:2746   */\n      0x00\n        /* \"#utility.yul\":2780:2782   */\n      0x60\n        /* \"#utility.yul\":2769:2778   */\n      dup3\n        /* \"#utility.yul\":2765:2783   */\n      add\n        /* \"#utility.yul\":2757:2783   */\n      swap1\n      pop\n        /* \"#utility.yul\":2793:2864   */\n      tag_148\n        /* \"#utility.yul\":2861:2862   */\n      0x00\n        /* \"#utility.yul\":2850:2859   */\n      dup4\n        /* \"#utility.yul\":2846:2863   */\n      add\n        /* \"#utility.yul\":2837:2843   */\n      dup7\n        /* \"#utility.yul\":2793:2864   */\n      tag_118\n      jump\t// in\n    tag_148:\n        /* \"#utility.yul\":2874:2946   */\n      tag_149\n        /* \"#utility.yul\":2942:2944   */\n      0x20\n        /* \"#utility.yul\":2931:2940   */\n      dup4\n        /* \"#utility.yul\":2927:2945   */\n      add\n        /* \"#utility.yul\":2918:2924   */\n      dup6\n        /* \"#utility.yul\":2874:2946   */\n      tag_118\n      jump\t// in\n    tag_149:\n        /* \"#utility.yul\":2956:3028   */\n      tag_150\n        /* \"#utility.yul\":3024:3026   */\n      0x40\n        /* \"#utility.yul\":3013:3022   */\n      dup4\n        /* \"#utility.yul\":3009:3027   */\n      add\n        /* \"#utility.yul\":3000:3006   */\n      dup5\n        /* \"#utility.yul\":2956:3028   */\n      tag_141\n      jump\t// in\n    tag_150:\n        /* \"#utility.yul\":2747:3035   */\n      swap5\n      swap4\n      pop\n      pop\n      pop\n      pop\n      jump\t// out\n        /* \"#utility.yul\":3041:3373   */\n    tag_75:\n        /* \"#utility.yul\":3162:3166   */\n      0x00\n        /* \"#utility.yul\":3200:3202   */\n      0x40\n        /* \"#utility.yul\":3189:3198   */\n      dup3\n        /* \"#utility.yul\":3185:3203   */\n      add\n        /* \"#utility.yul\":3177:3203   */\n      swap1\n      pop\n        /* \"#utility.yul\":3213:3284   */\n      tag_152\n        /* \"#utility.yul\":3281:3282   */\n      0x00\n        /* \"#utility.yul\":3270:3279   */\n      dup4\n        /* \"#utility.yul\":3266:3283   */\n      add\n        /* \"#utility.yul\":3257:3263   */\n      dup6\n        /* \"#utility.yul\":3213:3284   */\n      tag_118\n      jump\t// in\n    tag_152:\n        /* \"#utility.yul\":3294:3366   */\n      tag_153\n        /* \"#utility.yul\":3362:3364   */\n      0x20\n        /* \"#utility.yul\":3351:3360   */\n      dup4\n        /* \"#utility.yul\":3347:3365   */\n      add\n        /* \"#utility.yul\":3338:3344   */\n      dup5\n        /* \"#utility.yul\":3294:3366   */\n      tag_141\n      jump\t// in\n    tag_153:\n        /* \"#utility.yul\":3167:3373   */\n      swap4\n      swap3\n      pop\n      pop\n      pop\n      jump\t// out\n        /* \"#utility.yul\":3379:3589   */\n    tag_23:\n        /* \"#utility.yul\":3466:3470   */\n      0x00\n        /* \"#utility.yul\":3504:3506   */\n      0x20\n        /* \"#utility.yul\":3493:3502   */\n      dup3\n        /* \"#utility.yul\":3489:3507   */\n      add\n        /* \"#utility.yul\":3481:3507   */\n      swap1\n      pop\n        /* \"#utility.yul\":3517:3582   */\n      tag_155\n        /* \"#utility.yul\":3579:3580   */\n      0x00\n        /* \"#utility.yul\":3568:3577   */\n      dup4\n        /* \"#utility.yul\":3564:3581   */\n      add\n        /* \"#utility.yul\":3555:3561   */\n      dup5\n        /* \"#utility.yul\":3517:3582   */\n      tag_122\n      jump\t// in\n    tag_155:\n        /* \"#utility.yul\":3471:3589   */\n      swap3\n      swap2\n      pop\n      pop\n      jump\t// out\n        /* \"#utility.yul\":3595:3908   */\n    tag_17:\n        /* \"#utility.yul\":3708:3712   */\n      0x00\n        /* \"#utility.yul\":3746:3748   */\n      0x20\n        /* \"#utility.yul\":3735:3744   */\n      dup3\n        /* \"#utility.yul\":3731:3749   */\n      add\n        /* \"#utility.yul\":3723:3749   */\n      swap1\n      pop\n        /* \"#utility.yul\":3795:3804   */\n      dup2\n        /* \"#utility.yul\":3789:3793   */\n      dup2\n        /* \"#utility.yul\":3785:3805   */\n      sub\n        /* \"#utility.yul\":3781:3782   */\n      0x00\n        /* \"#utility.yul\":3770:3779   */\n      dup4\n        /* \"#utility.yul\":3766:3783   */\n      add\n        /* \"#utility.yul\":3759:3806   */\n      mstore\n        /* \"#utility.yul\":3823:3901   */\n      tag_157\n        /* \"#utility.yul\":3896:3900   */\n      dup2\n        /* \"#utility.yul\":3887:3893   */\n      dup5\n        /* \"#utility.yul\":3823:3901   */\n      tag_126\n      jump\t// in\n    tag_157:\n        /* \"#utility.yul\":3815:3901   */\n      swap1\n      pop\n        /* \"#utility.yul\":3713:3908   */\n      swap3\n      swap2\n      pop\n      pop\n      jump\t// out\n        /* \"#utility.yul\":3914:4333   */\n    tag_73:\n        /* \"#utility.yul\":4080:4084   */\n      0x00\n        /* \"#utility.yul\":4118:4120   */\n      0x20\n        /* \"#utility.yul\":4107:4116   */\n      dup3\n        /* \"#utility.yul\":4103:4121   */\n      add\n        /* \"#utility.yul\":4095:4121   */\n      swap1\n      pop\n        /* \"#utility.yul\":4167:4176   */\n      dup2\n        /* \"#utility.yul\":4161:4165   */\n      dup2\n        /* \"#utility.yul\":4157:4177   */\n      sub\n        /* \"#utility.yul\":4153:4154   */\n      0x00\n        /* \"#utility.yul\":4142:4151   */\n      dup4\n        /* \"#utility.yul\":4138:4155   */\n      add\n        /* \"#utility.yul\":4131:4178   */\n      mstore\n        /* \"#utility.yul\":4195:4326   */\n      tag_159\n        /* \"#utility.yul\":4321:4325   */\n      dup2\n        /* \"#utility.yul\":4195:4326   */\n      tag_136\n      jump\t// in\n    tag_159:\n        /* \"#utility.yul\":4187:4326   */\n      swap1\n      pop\n        /* \"#utility.yul\":4085:4333   */\n      swap2\n      swap1\n      pop\n      jump\t// out\n        /* \"#utility.yul\":4339:4561   */\n    tag_38:\n        /* \"#utility.yul\":4432:4436   */\n      0x00\n        /* \"#utility.yul\":4470:4472   */\n      0x20\n        /* \"#utility.yul\":4459:4468   */\n      dup3\n        /* \"#utility.yul\":4455:4473   */\n      add\n        /* \"#utility.yul\":4447:4473   */\n      swap1\n      pop\n        /* \"#utility.yul\":4483:4554   */\n      tag_161\n        /* \"#utility.yul\":4551:4552   */\n      0x00\n        /* \"#utility.yul\":4540:4549   */\n      dup4\n        /* \"#utility.yul\":4536:4553   */\n      add\n        /* \"#utility.yul\":4527:4533   */\n      dup5\n        /* \"#utility.yul\":4483:4554   */\n      tag_141\n      jump\t// in\n    tag_161:\n        /* \"#utility.yul\":4437:4561   */\n      swap3\n      swap2\n      pop\n      pop\n      jump\t// out\n        /* \"#utility.yul\":4567:4666   */\n    tag_129:\n        /* \"#utility.yul\":4619:4625   */\n      0x00\n        /* \"#utility.yul\":4653:4658   */\n      dup2\n        /* \"#utility.yul\":4647:4659   */\n      mload\n        /* \"#utility.yul\":4637:4659   */\n      swap1\n      pop\n        /* \"#utility.yul\":4626:4666   */\n      swap2\n      swap1\n      pop\n      jump\t// out\n        /* \"#utility.yul\":4672:4841   */\n    tag_131:\n        /* \"#utility.yul\":4756:4767   */\n      0x00\n        /* \"#utility.yul\":4790:4796   */\n      dup3\n        /* \"#utility.yul\":4785:4788   */\n      dup3\n        /* \"#utility.yul\":4778:4797   */\n      mstore\n        /* \"#utility.yul\":4830:4834   */\n      0x20\n        /* \"#utility.yul\":4825:4828   */\n      dup3\n        /* \"#utility.yul\":4821:4835   */\n      add\n        /* \"#utility.yul\":4806:4835   */\n      swap1\n      pop\n        /* \"#utility.yul\":4768:4841   */\n      swap3\n      swap2\n      pop\n      pop\n      jump\t// out\n        /* \"#utility.yul\":4847:5152   */\n    tag_67:\n        /* \"#utility.yul\":4887:4890   */\n      0x00\n        /* \"#utility.yul\":4906:4926   */\n      tag_165\n        /* \"#utility.yul\":4924:4925   */\n      dup3\n        /* \"#utility.yul\":4906:4926   */\n      tag_144\n      jump\t// in\n    tag_165:\n        /* \"#utility.yul\":4901:4926   */\n      swap2\n      pop\n        /* \"#utility.yul\":4940:4960   */\n      tag_166\n        /* \"#utility.yul\":4958:4959   */\n      dup4\n        /* \"#utility.yul\":4940:4960   */\n      tag_144\n      jump\t// in\n    tag_166:\n        /* \"#utility.yul\":4935:4960   */\n      swap3\n      pop\n        /* \"#utility.yul\":5094:5095   */\n      dup3\n        /* \"#utility.yul\":5026:5092   */\n      0xffffffffffffffffffffffffffffffffffffffffffffffffffffffffffffffff\n        /* \"#utility.yul\":5022:5096   */\n      sub\n        /* \"#utility.yul\":5019:5020   */\n      dup3\n        /* \"#utility.yul\":5016:5097   */\n      gt\n        /* \"#utility.yul\":5013:5015   */\n      iszero\n      tag_167\n      jumpi\n        /* \"#utility.yul\":5100:5118   */\n      tag_168\n      tag_169\n      jump\t// in\n    tag_168:\n        /* \"#utility.yul\":5013:5015   */\n    tag_167:\n        /* \"#utility.yul\":5144:5145   */\n      dup3\n        /* \"#utility.yul\":5141:5142   */\n      dup3\n        /* \"#utility.yul\":5137:5146   */\n      add\n        /* \"#utility.yul\":5130:5146   */\n      swap1\n      pop\n        /* \"#utility.yul\":4891:5152   */\n      swap3\n      swap2\n      pop\n      pop\n      jump\t// out\n        /* \"#utility.yul\":5158:5254   */\n    tag_121:\n        /* \"#utility.yul\":5195:5202   */\n      0x00\n        /* \"#utility.yul\":5224:5248   */\n      tag_171\n        /* \"#utility.yul\":5242:5247   */\n      dup3\n        /* \"#utility.yul\":5224:5248   */\n      tag_172\n      jump\t// in\n    tag_171:\n        /* \"#utility.yul\":5213:5248   */\n      swap1\n      pop\n        /* \"#utility.yul\":5203:5254   */\n      swap2\n      swap1\n      pop\n      jump\t// out\n        /* \"#utility.yul\":5260:5350   */\n    tag_125:\n        /* \"#utility.yul\":5294:5301   */\n      0x00\n        /* \"#utility.yul\":5337:5342   */\n      dup2\n        /* \"#utility.yul\":5330:5343   */\n      iszero\n        /* \"#utility.yul\":5323:5344   */\n      iszero\n        /* \"#utility.yul\":5312:5344   */\n      swap1\n      pop\n        /* \"#utility.yul\":5302:5350   */\n      swap2\n      swap1\n      pop\n      jump\t// out\n        /* \"#utility.yul\":5356:5482   */\n    tag_172:\n        /* \"#utility.yul\":5393:5400   */\n      0x00\n        /* \"#utility.yul\":5433:5475   */\n      0xffffffffffffffffffffffffffffffffffffffff\n        /* \"#utility.yul\":5426:5431   */\n      dup3\n        /* \"#utility.yul\":5422:5476   */\n      and\n        /* \"#utility.yul\":5411:5476   */\n      swap1\n      pop\n        /* \"#utility.yul\":5401:5482   */\n      swap2\n      swap1\n      pop\n      jump\t// out\n        /* \"#utility.yul\":5488:5565   */\n    tag_144:\n        /* \"#utility.yul\":5525:5532   */\n      0x00\n        /* \"#utility.yul\":5554:5559   */\n      dup2\n        /* \"#utility.yul\":5543:5559   */\n      swap1\n      pop\n        /* \"#utility.yul\":5533:5565   */\n      swap2\n      swap1\n      pop\n      jump\t// out\n        /* \"#utility.yul\":5571:5878   */\n    tag_133:\n        /* \"#utility.yul\":5639:5640   */\n      0x00\n        /* \"#utility.yul\":5649:5762   */\n    tag_177:\n        /* \"#utility.yul\":5663:5669   */\n      dup4\n        /* \"#utility.yul\":5660:5661   */\n      dup2\n        /* \"#utility.yul\":5657:5670   */\n      lt\n        /* \"#utility.yul\":5649:5762   */\n      iszero\n      tag_179\n      jumpi\n        /* \"#utility.yul\":5748:5749   */\n      dup1\n        /* \"#utility.yul\":5743:5746   */\n      dup3\n        /* \"#utility.yul\":5739:5750   */\n      add\n        /* \"#utility.yul\":5733:5751   */\n      mload\n        /* \"#utility.yul\":5729:5730   */\n      dup2\n        /* \"#utility.yul\":5724:5727   */\n      dup5\n        /* \"#utility.yul\":5720:5731   */\n      add\n        /* \"#utility.yul\":5713:5752   */\n      mstore\n        /* \"#utility.yul\":5685:5687   */\n      0x20\n        /* \"#utility.yul\":5682:5683   */\n      dup2\n        /* \"#utility.yul\":5678:5688   */\n      add\n        /* \"#utility.yul\":5673:5688   */\n      swap1\n      pop\n        /* \"#utility.yul\":5649:5762   */\n      jump(tag_177)\n    tag_179:\n        /* \"#utility.yul\":5780:5786   */\n      dup4\n        /* \"#utility.yul\":5777:5778   */\n      dup2\n        /* \"#utility.yul\":5774:5787   */\n      gt\n        /* \"#utility.yul\":5771:5773   */\n      iszero\n      tag_180\n      jumpi\n        /* \"#utility.yul\":5860:5861   */\n      0x00\n        /* \"#utility.yul\":5851:5857   */\n      dup5\n        /* \"#utility.yul\":5846:5849   */\n      dup5\n        /* \"#utility.yul\":5842:5858   */\n      add\n        /* \"#utility.yul\":5835:5862   */\n      mstore\n        /* \"#utility.yul\":5771:5773   */\n    tag_180:\n        /* \"#utility.yul\":5620:5878   */\n      pop\n      pop\n      pop\n      pop\n      jump\t// out\n        /* \"#utility.yul\":5884:6204   */\n    tag_53:\n        /* \"#utility.yul\":5928:5934   */\n      0x00\n        /* \"#utility.yul\":5965:5966   */\n      0x02\n        /* \"#utility.yul\":5959:5963   */\n      dup3\n        /* \"#utility.yul\":5955:5967   */\n      div\n        /* \"#utility.yul\":5945:5967   */\n      swap1\n      pop\n        /* \"#utility.yul\":6012:6013   */\n      0x01\n        /* \"#utility.yul\":6006:6010   */\n      dup3\n        /* \"#utility.yul\":6002:6014   */\n      and\n        /* \"#utility.yul\":6033:6051   */\n      dup1\n        /* \"#utility.yul\":6023:6025   */\n      tag_182\n      jumpi\n        /* \"#utility.yul\":6089:6093   */\n      0x7f\n        /* \"#utility.yul\":6081:6087   */\n      dup3\n        /* \"#utility.yul\":6077:6094   */\n      and\n        /* \"#utility.yul\":6067:6094   */\n      swap2\n      pop\n        /* \"#utility.yul\":6023:6025   */\n    tag_182:\n        /* \"#utility.yul\":6151:6153   */\n      0x20\n        /* \"#utility.yul\":6143:6149   */\n      dup3\n        /* \"#utility.yul\":6140:6154   */\n      lt\n        /* \"#utility.yul\":6120:6138   */\n      dup2\n        /* \"#utility.yul\":6117:6155   */\n      eq\n        /* \"#utility.yul\":6114:6116   */\n      iszero\n      tag_183\n      jumpi\n        /* \"#utility.yul\":6170:6188   */\n      tag_184\n      tag_185\n      jump\t// in\n    tag_184:\n        /* \"#utility.yul\":6114:6116   */\n    tag_183:\n        /* \"#utility.yul\":5935:6204   */\n      pop\n      swap2\n      swap1\n      pop\n      jump\t// out\n        /* \"#utility.yul\":6210:6443   */\n    tag_93:\n        /* \"#utility.yul\":6249:6252   */\n      0x00\n        /* \"#utility.yul\":6272:6296   */\n      tag_187\n        /* \"#utility.yul\":6290:6295   */\n      dup3\n        /* \"#utility.yul\":6272:6296   */\n      tag_144\n      jump\t// in\n    tag_187:\n        /* \"#utility.yul\":6263:6296   */\n      swap2\n      pop\n        /* \"#utility.yul\":6318:6384   */\n      0xffffffffffffffffffffffffffffffffffffffffffffffffffffffffffffffff\n        /* \"#utility.yul\":6311:6316   */\n      dup3\n        /* \"#utility.yul\":6308:6385   */\n      eq\n        /* \"#utility.yul\":6305:6307   */\n      iszero\n      tag_188\n      jumpi\n        /* \"#utility.yul\":6388:6406   */\n      tag_189\n      tag_169\n      jump\t// in\n    tag_189:\n        /* \"#utility.yul\":6305:6307   */\n    tag_188:\n        /* \"#utility.yul\":6435:6436   */\n      0x01\n        /* \"#utility.yul\":6428:6433   */\n      dup3\n        /* \"#utility.yul\":6424:6437   */\n      add\n        /* \"#utility.yul\":6417:6437   */\n      swap1\n      pop\n        /* \"#utility.yul\":6253:6443   */\n      swap2\n      swap1\n      pop\n      jump\t// out\n        /* \"#utility.yul\":6449:6629   */\n    tag_169:\n        /* \"#utility.yul\":6497:6574   */\n      0x4e487b7100000000000000000000000000000000000000000000000000000000\n        /* \"#utility.yul\":6494:6495   */\n      0x00\n        /* \"#utility.yul\":6487:6575   */\n      mstore\n        /* \"#utility.yul\":6594:6598   */\n      0x11\n        /* \"#utility.yul\":6591:6592   */\n      0x04\n        /* \"#utility.yul\":6584:6599   */\n      mstore\n        /* \"#utility.yul\":6618:6622   */\n      0x24\n        /* \"#utility.yul\":6615:6616   */\n      0x00\n        /* \"#utility.yul\":6608:6623   */\n      revert\n        /* \"#utility.yul\":6635:6815   */\n    tag_185:\n        /* \"#utility.yul\":6683:6760   */\n      0x4e487b7100000000000000000000000000000000000000000000000000000000\n        /* \"#utility.yul\":6680:6681   */\n      0x00\n        /* \"#utility.yul\":6673:6761   */\n      mstore\n        /* \"#utility.yul\":6780:6784   */\n      0x22\n        /* \"#utility.yul\":6777:6778   */\n      0x04\n        /* \"#utility.yul\":6770:6785   */\n      mstore\n        /* \"#utility.yul\":6804:6808   */\n      0x24\n        /* \"#utility.yul\":6801:6802   */\n      0x00\n        /* \"#utility.yul\":6794:6809   */\n      revert\n        /* \"#utility.yul\":6821:6923   */\n    tag_135:\n        /* \"#utility.yul\":6862:6868   */\n      0x00\n        /* \"#utility.yul\":6913:6915   */\n      0x1f\n        /* \"#utility.yul\":6909:6916   */\n      not\n        /* \"#utility.yul\":6904:6906   */\n      0x1f\n        /* \"#utility.yul\":6897:6902   */\n      dup4\n        /* \"#utility.yul\":6893:6907   */\n      add\n        /* \"#utility.yul\":6889:6917   */\n      and\n        /* \"#utility.yul\":6879:6917   */\n      swap1\n      pop\n        /* \"#utility.yul\":6869:6923   */\n      swap2\n      swap1\n      pop\n      jump\t// out\n        /* \"#utility.yul\":6929:7097   */\n    tag_140:\n        /* \"#utility.yul\":7069:7089   */\n      0x6e6f7420656e6f7567682062616c616e63650000000000000000000000000000\n        /* \"#utility.yul\":7065:7066   */\n      0x00\n        /* \"#utility.yul\":7057:7063   */\n      dup3\n        /* \"#utility.yul\":7053:7067   */\n      add\n        /* \"#utility.yul\":7046:7090   */\n      mstore\n        /* \"#utility.yul\":7035:7097   */\n      pop\n      jump\t// out\n        /* \"#utility.yul\":7103:7225   */\n    tag_100:\n        /* \"#utility.yul\":7176:7200   */\n      tag_195\n        /* \"#utility.yul\":7194:7199   */\n      dup2\n        /* \"#utility.yul\":7176:7200   */\n      tag_121\n      jump\t// in\n    tag_195:\n        /* \"#utility.yul\":7169:7174   */\n      dup2\n        /* \"#utility.yul\":7166:7201   */\n      eq\n        /* \"#utility.yul\":7156:7158   */\n      tag_196\n      jumpi\n        /* \"#utility.yul\":7215:7216   */\n      0x00\n        /* \"#utility.yul\":7212:7213   */\n      dup1\n        /* \"#utility.yul\":7205:7217   */\n      revert\n        /* \"#utility.yul\":7156:7158   */\n    tag_196:\n        /* \"#utility.yul\":7146:7225   */\n      pop\n      jump\t// out\n        /* \"#utility.yul\":7231:7347   */\n    tag_104:\n        /* \"#utility.yul\":7301:7322   */\n      tag_198\n        /* \"#utility.yul\":7316:7321   */\n      dup2\n        /* \"#utility.yul\":7301:7322   */\n      tag_125\n      jump\t// in\n    tag_198:\n        /* \"#utility.yul\":7294:7299   */\n      dup2\n        /* \"#utility.yul\":7291:7323   */\n      eq\n        /* \"#utility.yul\":7281:7283   */\n      tag_199\n      jumpi\n        /* \"#utility.yul\":7337:7338   */\n      0x00\n        /* \"#utility.yul\":7334:7335   */\n      dup1\n        /* \"#utility.yul\":7327:7339   */\n      revert\n        /* \"#utility.yul\":7281:7283   */\n    tag_199:\n        /* \"#utility.yul\":7271:7347   */\n      pop\n      jump\t// out\n        /* \"#utility.yul\":7353:7475   */\n    tag_108:\n        /* \"#utility.yul\":7426:7450   */\n      tag_201\n        /* \"#utility.yul\":7444:7449   */\n      dup2\n        /* \"#utility.yul\":7426:7450   */\n      tag_144\n      jump\t// in\n    tag_201:\n        /* \"#utility.yul\":7419:7424   */\n      dup2\n        /* \"#utility.yul\":7416:7451   */\n      eq\n        /* \"#utility.yul\":7406:7408   */\n      tag_202\n      jumpi\n        /* \"#utility.yul\":7465:7466   */\n      0x00\n        /* \"#utility.yul\":7462:7463   */\n      dup1\n        /* \"#utility.yul\":7455:7467   */\n      revert\n        /* \"#utility.yul\":7406:7408   */\n    tag_202:\n        /* \"#utility.yul\":7396:7475   */\n      pop\n      jump\t// out\n\n    auxdata: 0xa2646970667358221220a9b1aab74c962469174ae9479da185d9dec0644e80785008c4bcabcd27e9910964736f6c63430008040033\n}\n",
				"bytecode": {
					"linkReferences": {},
					"object": "60806040526040518060400160405280600881526020017f4465666942616e6b000000000000000000000000000000000000000000000000815250600090805190602001906200005192919062000110565b503480156200005f57600080fd5b5073a0b86991c6218b36c1d19d4a2e9eb0ce3606eb48600160006101000a81548173ffffffffffffffffffffffffffffffffffffffff021916908373ffffffffffffffffffffffffffffffffffffffff160217905550735b38da6a701c568545dcfcb03fcb875f56beddc4600260006101000a81548173ffffffffffffffffffffffffffffffffffffffff021916908373ffffffffffffffffffffffffffffffffffffffff16021790555062000225565b8280546200011e90620001c0565b90600052602060002090601f0160209004810192826200014257600085556200018e565b82601f106200015d57805160ff19168380011785556200018e565b828001600101855582156200018e579182015b828111156200018d57825182559160200191906001019062000170565b5b5090506200019d9190620001a1565b5090565b5b80821115620001bc576000816000905550600101620001a2565b5090565b60006002820490506001821680620001d957607f821691505b60208210811415620001f057620001ef620001f6565b5b50919050565b7f4e487b7100000000000000000000000000000000000000000000000000000000600052602260045260246000fd5b610de580620002356000396000f3fe608060405234801561001057600080fd5b506004361061009e5760003560e01c806345bc78ab1161006657806345bc78ab1461013557806349fc5f87146101655780635eab74fc1461016f578063c93c8f341461018d578063fd5e6dd1146101bd5761009e565b806306fdde03146100a357806307e9417a146100c15780631bf6ddae146100f15780632def66201461010d5780633e413bee14610117575b600080fd5b6100ab6101ed565b6040516100b89190610b0d565b60405180910390f35b6100db60048036038101906100d69190610973565b61027b565b6040516100e89190610af2565b60405180910390f35b61010b600480360381019061010691906109c5565b61029b565b005b61011561050b565b005b61011f6106e2565b60405161012c9190610a77565b60405180910390f35b61014f600480360381019061014a9190610973565b610708565b60405161015c9190610b4f565b60405180910390f35b61016d610720565b005b6101776108af565b6040516101849190610a77565b60405180910390f35b6101a760048036038101906101a29190610973565b6108d5565b6040516101b49190610af2565b60405180910390f35b6101d760048036038101906101d291906109c5565b6108f5565b6040516101e49190610a77565b60405180910390f35b600080546101fa90610c57565b80601f016020809104026020016040519081016040528092919081815260200182805461022690610c57565b80156102735780601f1061024857610100808354040283529160200191610273565b820191906000526020600020905b81548152906001019060200180831161025657829003601f168201915b505050505081565b60056020528060005260406000206000915054906101000a900460ff1681565b600160009054906101000a900473ffffffffffffffffffffffffffffffffffffffff1673ffffffffffffffffffffffffffffffffffffffff166323b872dd3330846040518463ffffffff1660e01b81526004016102fa93929190610a92565b602060405180830381600087803b15801561031457600080fd5b505af1158015610328573d6000803e3d6000fd5b505050506040513d601f19601f8201168201806040525081019061034c919061099c565b5080600460003373ffffffffffffffffffffffffffffffffffffffff1673ffffffffffffffffffffffffffffffffffffffff168152602001908152602001600020600082825461039c9190610b86565b92505081905550600660003373ffffffffffffffffffffffffffffffffffffffff1673ffffffffffffffffffffffffffffffffffffffff16815260200190815260200160002060009054906101000a900460ff16610458576003339080600181540180825580915050600190039060005260206000200160009091909190916101000a81548173ffffffffffffffffffffffffffffffffffffffff021916908373ffffffffffffffffffffffffffffffffffffffff1602179055505b6001600560003373ffffffffffffffffffffffffffffffffffffffff1673ffffffffffffffffffffffffffffffffffffffff16815260200190815260200160002060006101000a81548160ff0219169083151502179055506001600660003373ffffffffffffffffffffffffffffffffffffffff1673ffffffffffffffffffffffffffffffffffffffff16815260200190815260200160002060006101000a81548160ff02191690831515021790555050565b6000600460003373ffffffffffffffffffffffffffffffffffffffff1673ffffffffffffffffffffffffffffffffffffffff16815260200190815260200160002054905060008111610592576040517f08c379a000000000000000000000000000000000000000000000000000000000815260040161058990610b2f565b60405180910390fd5b600160009054906101000a900473ffffffffffffffffffffffffffffffffffffffff1673ffffffffffffffffffffffffffffffffffffffff1663a9059cbb33836040518363ffffffff1660e01b81526004016105ef929190610ac9565b602060405180830381600087803b15801561060957600080fd5b505af115801561061d573d6000803e3d6000fd5b505050506040513d601f19601f82011682018060405250810190610641919061099c565b506000600460003373ffffffffffffffffffffffffffffffffffffffff1673ffffffffffffffffffffffffffffffffffffffff168152602001908152602001600020819055506000600560003373ffffffffffffffffffffffffffffffffffffffff1673ffffffffffffffffffffffffffffffffffffffff16815260200190815260200160002060006101000a81548160ff02191690831515021790555050565b600160009054906101000a900473ffffffffffffffffffffffffffffffffffffffff1681565b60046020528060005260406000206000915090505481565b60005b6003805490508110156108ac5760006003828154811061076c577f4e487b7100000000000000000000000000000000000000000000000000000000600052603260045260246000fd5b9060005260206000200160009054906101000a900473ffffffffffffffffffffffffffffffffffffffff1690506000600460008373ffffffffffffffffffffffffffffffffffffffff1673ffffffffffffffffffffffffffffffffffffffff168152602001908152602001600020549050600081111561089757600260009054906101000a900473ffffffffffffffffffffffffffffffffffffffff1673ffffffffffffffffffffffffffffffffffffffff1663a9059cbb83836040518363ffffffff1660e01b8152600401610843929190610ac9565b602060405180830381600087803b15801561085d57600080fd5b505af1158015610871573d6000803e3d6000fd5b505050506040513d601f19601f82011682018060405250810190610895919061099c565b505b505080806108a490610c89565b915050610723565b50565b600260009054906101000a900473ffffffffffffffffffffffffffffffffffffffff1681565b60066020528060005260406000206000915054906101000a900460ff1681565b6003818154811061090557600080fd5b906000526020600020016000915054906101000a900473ffffffffffffffffffffffffffffffffffffffff1681565b60008135905061094381610d6a565b92915050565b60008151905061095881610d81565b92915050565b60008135905061096d81610d98565b92915050565b60006020828403121561098557600080fd5b600061099384828501610934565b91505092915050565b6000602082840312156109ae57600080fd5b60006109bc84828501610949565b91505092915050565b6000602082840312156109d757600080fd5b60006109e58482850161095e565b91505092915050565b6109f781610bdc565b82525050565b610a0681610bee565b82525050565b6000610a1782610b6a565b610a218185610b75565b9350610a31818560208601610c24565b610a3a81610d30565b840191505092915050565b6000610a52601283610b75565b9150610a5d82610d41565b602082019050919050565b610a7181610c1a565b82525050565b6000602082019050610a8c60008301846109ee565b92915050565b6000606082019050610aa760008301866109ee565b610ab460208301856109ee565b610ac16040830184610a68565b949350505050565b6000604082019050610ade60008301856109ee565b610aeb6020830184610a68565b9392505050565b6000602082019050610b0760008301846109fd565b92915050565b60006020820190508181036000830152610b278184610a0c565b905092915050565b60006020820190508181036000830152610b4881610a45565b9050919050565b6000602082019050610b646000830184610a68565b92915050565b600081519050919050565b600082825260208201905092915050565b6000610b9182610c1a565b9150610b9c83610c1a565b9250827fffffffffffffffffffffffffffffffffffffffffffffffffffffffffffffffff03821115610bd157610bd0610cd2565b5b828201905092915050565b6000610be782610bfa565b9050919050565b60008115159050919050565b600073ffffffffffffffffffffffffffffffffffffffff82169050919050565b6000819050919050565b60005b83811015610c42578082015181840152602081019050610c27565b83811115610c51576000848401525b50505050565b60006002820490506001821680610c6f57607f821691505b60208210811415610c8357610c82610d01565b5b50919050565b6000610c9482610c1a565b91507fffffffffffffffffffffffffffffffffffffffffffffffffffffffffffffffff821415610cc757610cc6610cd2565b5b600182019050919050565b7f4e487b7100000000000000000000000000000000000000000000000000000000600052601160045260246000fd5b7f4e487b7100000000000000000000000000000000000000000000000000000000600052602260045260246000fd5b6000601f19601f8301169050919050565b7f6e6f7420656e6f7567682062616c616e63650000000000000000000000000000600082015250565b610d7381610bdc565b8114610d7e57600080fd5b50565b610d8a81610bee565b8114610d9557600080fd5b50565b610da181610c1a565b8114610dac57600080fd5b5056fea2646970667358221220a9b1aab74c962469174ae9479da185d9dec0644e80785008c4bcabcd27e9910964736f6c63430008040033",
					"opcodes": "PUSH1 0x80 PUSH1 0x40 MSTORE PUSH1 0x40 MLOAD DUP1 PUSH1 0x40 ADD PUSH1 0x40 MSTORE DUP1 PUSH1 0x8 DUP2 MSTORE PUSH1 0x20 ADD PUSH32 0x4465666942616E6B000000000000000000000000000000000000000000000000 DUP2 MSTORE POP PUSH1 0x0 SWAP1 DUP1 MLOAD SWAP1 PUSH1 0x20 ADD SWAP1 PUSH3 0x51 SWAP3 SWAP2 SWAP1 PUSH3 0x110 JUMP JUMPDEST POP CALLVALUE DUP1 ISZERO PUSH3 0x5F JUMPI PUSH1 0x0 DUP1 REVERT JUMPDEST POP PUSH20 0xA0B86991C6218B36C1D19D4A2E9EB0CE3606EB48 PUSH1 0x1 PUSH1 0x0 PUSH2 0x100 EXP DUP2 SLOAD DUP2 PUSH20 0xFFFFFFFFFFFFFFFFFFFFFFFFFFFFFFFFFFFFFFFF MUL NOT AND SWAP1 DUP4 PUSH20 0xFFFFFFFFFFFFFFFFFFFFFFFFFFFFFFFFFFFFFFFF AND MUL OR SWAP1 SSTORE POP PUSH20 0x5B38DA6A701C568545DCFCB03FCB875F56BEDDC4 PUSH1 0x2 PUSH1 0x0 PUSH2 0x100 EXP DUP2 SLOAD DUP2 PUSH20 0xFFFFFFFFFFFFFFFFFFFFFFFFFFFFFFFFFFFFFFFF MUL NOT AND SWAP1 DUP4 PUSH20 0xFFFFFFFFFFFFFFFFFFFFFFFFFFFFFFFFFFFFFFFF AND MUL OR SWAP1 SSTORE POP PUSH3 0x225 JUMP JUMPDEST DUP3 DUP1 SLOAD PUSH3 0x11E SWAP1 PUSH3 0x1C0 JUMP JUMPDEST SWAP1 PUSH1 0x0 MSTORE PUSH1 0x20 PUSH1 0x0 KECCAK256 SWAP1 PUSH1 0x1F ADD PUSH1 0x20 SWAP1 DIV DUP2 ADD SWAP3 DUP3 PUSH3 0x142 JUMPI PUSH1 0x0 DUP6 SSTORE PUSH3 0x18E JUMP JUMPDEST DUP3 PUSH1 0x1F LT PUSH3 0x15D JUMPI DUP1 MLOAD PUSH1 0xFF NOT AND DUP4 DUP1 ADD OR DUP6 SSTORE PUSH3 0x18E JUMP JUMPDEST DUP3 DUP1 ADD PUSH1 0x1 ADD DUP6 SSTORE DUP3 ISZERO PUSH3 0x18E JUMPI SWAP2 DUP3 ADD JUMPDEST DUP3 DUP2 GT ISZERO PUSH3 0x18D JUMPI DUP3 MLOAD DUP3 SSTORE SWAP2 PUSH1 0x20 ADD SWAP2 SWAP1 PUSH1 0x1 ADD SWAP1 PUSH3 0x170 JUMP JUMPDEST JUMPDEST POP SWAP1 POP PUSH3 0x19D SWAP2 SWAP1 PUSH3 0x1A1 JUMP JUMPDEST POP SWAP1 JUMP JUMPDEST JUMPDEST DUP1 DUP3 GT ISZERO PUSH3 0x1BC JUMPI PUSH1 0x0 DUP2 PUSH1 0x0 SWAP1 SSTORE POP PUSH1 0x1 ADD PUSH3 0x1A2 JUMP JUMPDEST POP SWAP1 JUMP JUMPDEST PUSH1 0x0 PUSH1 0x2 DUP3 DIV SWAP1 POP PUSH1 0x1 DUP3 AND DUP1 PUSH3 0x1D9 JUMPI PUSH1 0x7F DUP3 AND SWAP2 POP JUMPDEST PUSH1 0x20 DUP3 LT DUP2 EQ ISZERO PUSH3 0x1F0 JUMPI PUSH3 0x1EF PUSH3 0x1F6 JUMP JUMPDEST JUMPDEST POP SWAP2 SWAP1 POP JUMP JUMPDEST PUSH32 0x4E487B7100000000000000000000000000000000000000000000000000000000 PUSH1 0x0 MSTORE PUSH1 0x22 PUSH1 0x4 MSTORE PUSH1 0x24 PUSH1 0x0 REVERT JUMPDEST PUSH2 0xDE5 DUP1 PUSH3 0x235 PUSH1 0x0 CODECOPY PUSH1 0x0 RETURN INVALID PUSH1 0x80 PUSH1 0x40 MSTORE CALLVALUE DUP1 ISZERO PUSH2 0x10 JUMPI PUSH1 0x0 DUP1 REVERT JUMPDEST POP PUSH1 0x4 CALLDATASIZE LT PUSH2 0x9E JUMPI PUSH1 0x0 CALLDATALOAD PUSH1 0xE0 SHR DUP1 PUSH4 0x45BC78AB GT PUSH2 0x66 JUMPI DUP1 PUSH4 0x45BC78AB EQ PUSH2 0x135 JUMPI DUP1 PUSH4 0x49FC5F87 EQ PUSH2 0x165 JUMPI DUP1 PUSH4 0x5EAB74FC EQ PUSH2 0x16F JUMPI DUP1 PUSH4 0xC93C8F34 EQ PUSH2 0x18D JUMPI DUP1 PUSH4 0xFD5E6DD1 EQ PUSH2 0x1BD JUMPI PUSH2 0x9E JUMP JUMPDEST DUP1 PUSH4 0x6FDDE03 EQ PUSH2 0xA3 JUMPI DUP1 PUSH4 0x7E9417A EQ PUSH2 0xC1 JUMPI DUP1 PUSH4 0x1BF6DDAE EQ PUSH2 0xF1 JUMPI DUP1 PUSH4 0x2DEF6620 EQ PUSH2 0x10D JUMPI DUP1 PUSH4 0x3E413BEE EQ PUSH2 0x117 JUMPI JUMPDEST PUSH1 0x0 DUP1 REVERT JUMPDEST PUSH2 0xAB PUSH2 0x1ED JUMP JUMPDEST PUSH1 0x40 MLOAD PUSH2 0xB8 SWAP2 SWAP1 PUSH2 0xB0D JUMP JUMPDEST PUSH1 0x40 MLOAD DUP1 SWAP2 SUB SWAP1 RETURN JUMPDEST PUSH2 0xDB PUSH1 0x4 DUP1 CALLDATASIZE SUB DUP2 ADD SWAP1 PUSH2 0xD6 SWAP2 SWAP1 PUSH2 0x973 JUMP JUMPDEST PUSH2 0x27B JUMP JUMPDEST PUSH1 0x40 MLOAD PUSH2 0xE8 SWAP2 SWAP1 PUSH2 0xAF2 JUMP JUMPDEST PUSH1 0x40 MLOAD DUP1 SWAP2 SUB SWAP1 RETURN JUMPDEST PUSH2 0x10B PUSH1 0x4 DUP1 CALLDATASIZE SUB DUP2 ADD SWAP1 PUSH2 0x106 SWAP2 SWAP1 PUSH2 0x9C5 JUMP JUMPDEST PUSH2 0x29B JUMP JUMPDEST STOP JUMPDEST PUSH2 0x115 PUSH2 0x50B JUMP JUMPDEST STOP JUMPDEST PUSH2 0x11F PUSH2 0x6E2 JUMP JUMPDEST PUSH1 0x40 MLOAD PUSH2 0x12C SWAP2 SWAP1 PUSH2 0xA77 JUMP JUMPDEST PUSH1 0x40 MLOAD DUP1 SWAP2 SUB SWAP1 RETURN JUMPDEST PUSH2 0x14F PUSH1 0x4 DUP1 CALLDATASIZE SUB DUP2 ADD SWAP1 PUSH2 0x14A SWAP2 SWAP1 PUSH2 0x973 JUMP JUMPDEST PUSH2 0x708 JUMP JUMPDEST PUSH1 0x40 MLOAD PUSH2 0x15C SWAP2 SWAP1 PUSH2 0xB4F JUMP JUMPDEST PUSH1 0x40 MLOAD DUP1 SWAP2 SUB SWAP1 RETURN JUMPDEST PUSH2 0x16D PUSH2 0x720 JUMP JUMPDEST STOP JUMPDEST PUSH2 0x177 PUSH2 0x8AF JUMP JUMPDEST PUSH1 0x40 MLOAD PUSH2 0x184 SWAP2 SWAP1 PUSH2 0xA77 JUMP JUMPDEST PUSH1 0x40 MLOAD DUP1 SWAP2 SUB SWAP1 RETURN JUMPDEST PUSH2 0x1A7 PUSH1 0x4 DUP1 CALLDATASIZE SUB DUP2 ADD SWAP1 PUSH2 0x1A2 SWAP2 SWAP1 PUSH2 0x973 JUMP JUMPDEST PUSH2 0x8D5 JUMP JUMPDEST PUSH1 0x40 MLOAD PUSH2 0x1B4 SWAP2 SWAP1 PUSH2 0xAF2 JUMP JUMPDEST PUSH1 0x40 MLOAD DUP1 SWAP2 SUB SWAP1 RETURN JUMPDEST PUSH2 0x1D7 PUSH1 0x4 DUP1 CALLDATASIZE SUB DUP2 ADD SWAP1 PUSH2 0x1D2 SWAP2 SWAP1 PUSH2 0x9C5 JUMP JUMPDEST PUSH2 0x8F5 JUMP JUMPDEST PUSH1 0x40 MLOAD PUSH2 0x1E4 SWAP2 SWAP1 PUSH2 0xA77 JUMP JUMPDEST PUSH1 0x40 MLOAD DUP1 SWAP2 SUB SWAP1 RETURN JUMPDEST PUSH1 0x0 DUP1 SLOAD PUSH2 0x1FA SWAP1 PUSH2 0xC57 JUMP JUMPDEST DUP1 PUSH1 0x1F ADD PUSH1 0x20 DUP1 SWAP2 DIV MUL PUSH1 0x20 ADD PUSH1 0x40 MLOAD SWAP1 DUP2 ADD PUSH1 0x40 MSTORE DUP1 SWAP3 SWAP2 SWAP1 DUP2 DUP2 MSTORE PUSH1 0x20 ADD DUP3 DUP1 SLOAD PUSH2 0x226 SWAP1 PUSH2 0xC57 JUMP JUMPDEST DUP1 ISZERO PUSH2 0x273 JUMPI DUP1 PUSH1 0x1F LT PUSH2 0x248 JUMPI PUSH2 0x100 DUP1 DUP4 SLOAD DIV MUL DUP4 MSTORE SWAP2 PUSH1 0x20 ADD SWAP2 PUSH2 0x273 JUMP JUMPDEST DUP3 ADD SWAP2 SWAP1 PUSH1 0x0 MSTORE PUSH1 0x20 PUSH1 0x0 KECCAK256 SWAP1 JUMPDEST DUP2 SLOAD DUP2 MSTORE SWAP1 PUSH1 0x1 ADD SWAP1 PUSH1 0x20 ADD DUP1 DUP4 GT PUSH2 0x256 JUMPI DUP3 SWAP1 SUB PUSH1 0x1F AND DUP3 ADD SWAP2 JUMPDEST POP POP POP POP POP DUP2 JUMP JUMPDEST PUSH1 0x5 PUSH1 0x20 MSTORE DUP1 PUSH1 0x0 MSTORE PUSH1 0x40 PUSH1 0x0 KECCAK256 PUSH1 0x0 SWAP2 POP SLOAD SWAP1 PUSH2 0x100 EXP SWAP1 DIV PUSH1 0xFF AND DUP2 JUMP JUMPDEST PUSH1 0x1 PUSH1 0x0 SWAP1 SLOAD SWAP1 PUSH2 0x100 EXP SWAP1 DIV PUSH20 0xFFFFFFFFFFFFFFFFFFFFFFFFFFFFFFFFFFFFFFFF AND PUSH20 0xFFFFFFFFFFFFFFFFFFFFFFFFFFFFFFFFFFFFFFFF AND PUSH4 0x23B872DD CALLER ADDRESS DUP5 PUSH1 0x40 MLOAD DUP5 PUSH4 0xFFFFFFFF AND PUSH1 0xE0 SHL DUP2 MSTORE PUSH1 0x4 ADD PUSH2 0x2FA SWAP4 SWAP3 SWAP2 SWAP1 PUSH2 0xA92 JUMP JUMPDEST PUSH1 0x20 PUSH1 0x40 MLOAD DUP1 DUP4 SUB DUP2 PUSH1 0x0 DUP8 DUP1 EXTCODESIZE ISZERO DUP1 ISZERO PUSH2 0x314 JUMPI PUSH1 0x0 DUP1 REVERT JUMPDEST POP GAS CALL ISZERO DUP1 ISZERO PUSH2 0x328 JUMPI RETURNDATASIZE PUSH1 0x0 DUP1 RETURNDATACOPY RETURNDATASIZE PUSH1 0x0 REVERT JUMPDEST POP POP POP POP PUSH1 0x40 MLOAD RETURNDATASIZE PUSH1 0x1F NOT PUSH1 0x1F DUP3 ADD AND DUP3 ADD DUP1 PUSH1 0x40 MSTORE POP DUP2 ADD SWAP1 PUSH2 0x34C SWAP2 SWAP1 PUSH2 0x99C JUMP JUMPDEST POP DUP1 PUSH1 0x4 PUSH1 0x0 CALLER PUSH20 0xFFFFFFFFFFFFFFFFFFFFFFFFFFFFFFFFFFFFFFFF AND PUSH20 0xFFFFFFFFFFFFFFFFFFFFFFFFFFFFFFFFFFFFFFFF AND DUP2 MSTORE PUSH1 0x20 ADD SWAP1 DUP2 MSTORE PUSH1 0x20 ADD PUSH1 0x0 KECCAK256 PUSH1 0x0 DUP3 DUP3 SLOAD PUSH2 0x39C SWAP2 SWAP1 PUSH2 0xB86 JUMP JUMPDEST SWAP3 POP POP DUP2 SWAP1 SSTORE POP PUSH1 0x6 PUSH1 0x0 CALLER PUSH20 0xFFFFFFFFFFFFFFFFFFFFFFFFFFFFFFFFFFFFFFFF AND PUSH20 0xFFFFFFFFFFFFFFFFFFFFFFFFFFFFFFFFFFFFFFFF AND DUP2 MSTORE PUSH1 0x20 ADD SWAP1 DUP2 MSTORE PUSH1 0x20 ADD PUSH1 0x0 KECCAK256 PUSH1 0x0 SWAP1 SLOAD SWAP1 PUSH2 0x100 EXP SWAP1 DIV PUSH1 0xFF AND PUSH2 0x458 JUMPI PUSH1 0x3 CALLER SWAP1 DUP1 PUSH1 0x1 DUP2 SLOAD ADD DUP1 DUP3 SSTORE DUP1 SWAP2 POP POP PUSH1 0x1 SWAP1 SUB SWAP1 PUSH1 0x0 MSTORE PUSH1 0x20 PUSH1 0x0 KECCAK256 ADD PUSH1 0x0 SWAP1 SWAP2 SWAP1 SWAP2 SWAP1 SWAP2 PUSH2 0x100 EXP DUP2 SLOAD DUP2 PUSH20 0xFFFFFFFFFFFFFFFFFFFFFFFFFFFFFFFFFFFFFFFF MUL NOT AND SWAP1 DUP4 PUSH20 0xFFFFFFFFFFFFFFFFFFFFFFFFFFFFFFFFFFFFFFFF AND MUL OR SWAP1 SSTORE POP JUMPDEST PUSH1 0x1 PUSH1 0x5 PUSH1 0x0 CALLER PUSH20 0xFFFFFFFFFFFFFFFFFFFFFFFFFFFFFFFFFFFFFFFF AND PUSH20 0xFFFFFFFFFFFFFFFFFFFFFFFFFFFFFFFFFFFFFFFF AND DUP2 MSTORE PUSH1 0x20 ADD SWAP1 DUP2 MSTORE PUSH1 0x20 ADD PUSH1 0x0 KECCAK256 PUSH1 0x0 PUSH2 0x100 EXP DUP2 SLOAD DUP2 PUSH1 0xFF MUL NOT AND SWAP1 DUP4 ISZERO ISZERO MUL OR SWAP1 SSTORE POP PUSH1 0x1 PUSH1 0x6 PUSH1 0x0 CALLER PUSH20 0xFFFFFFFFFFFFFFFFFFFFFFFFFFFFFFFFFFFFFFFF AND PUSH20 0xFFFFFFFFFFFFFFFFFFFFFFFFFFFFFFFFFFFFFFFF AND DUP2 MSTORE PUSH1 0x20 ADD SWAP1 DUP2 MSTORE PUSH1 0x20 ADD PUSH1 0x0 KECCAK256 PUSH1 0x0 PUSH2 0x100 EXP DUP2 SLOAD DUP2 PUSH1 0xFF MUL NOT AND SWAP1 DUP4 ISZERO ISZERO MUL OR SWAP1 SSTORE POP POP JUMP JUMPDEST PUSH1 0x0 PUSH1 0x4 PUSH1 0x0 CALLER PUSH20 0xFFFFFFFFFFFFFFFFFFFFFFFFFFFFFFFFFFFFFFFF AND PUSH20 0xFFFFFFFFFFFFFFFFFFFFFFFFFFFFFFFFFFFFFFFF AND DUP2 MSTORE PUSH1 0x20 ADD SWAP1 DUP2 MSTORE PUSH1 0x20 ADD PUSH1 0x0 KECCAK256 SLOAD SWAP1 POP PUSH1 0x0 DUP2 GT PUSH2 0x592 JUMPI PUSH1 0x40 MLOAD PUSH32 0x8C379A000000000000000000000000000000000000000000000000000000000 DUP2 MSTORE PUSH1 0x4 ADD PUSH2 0x589 SWAP1 PUSH2 0xB2F JUMP JUMPDEST PUSH1 0x40 MLOAD DUP1 SWAP2 SUB SWAP1 REVERT JUMPDEST PUSH1 0x1 PUSH1 0x0 SWAP1 SLOAD SWAP1 PUSH2 0x100 EXP SWAP1 DIV PUSH20 0xFFFFFFFFFFFFFFFFFFFFFFFFFFFFFFFFFFFFFFFF AND PUSH20 0xFFFFFFFFFFFFFFFFFFFFFFFFFFFFFFFFFFFFFFFF AND PUSH4 0xA9059CBB CALLER DUP4 PUSH1 0x40 MLOAD DUP4 PUSH4 0xFFFFFFFF AND PUSH1 0xE0 SHL DUP2 MSTORE PUSH1 0x4 ADD PUSH2 0x5EF SWAP3 SWAP2 SWAP1 PUSH2 0xAC9 JUMP JUMPDEST PUSH1 0x20 PUSH1 0x40 MLOAD DUP1 DUP4 SUB DUP2 PUSH1 0x0 DUP8 DUP1 EXTCODESIZE ISZERO DUP1 ISZERO PUSH2 0x609 JUMPI PUSH1 0x0 DUP1 REVERT JUMPDEST POP GAS CALL ISZERO DUP1 ISZERO PUSH2 0x61D JUMPI RETURNDATASIZE PUSH1 0x0 DUP1 RETURNDATACOPY RETURNDATASIZE PUSH1 0x0 REVERT JUMPDEST POP POP POP POP PUSH1 0x40 MLOAD RETURNDATASIZE PUSH1 0x1F NOT PUSH1 0x1F DUP3 ADD AND DUP3 ADD DUP1 PUSH1 0x40 MSTORE POP DUP2 ADD SWAP1 PUSH2 0x641 SWAP2 SWAP1 PUSH2 0x99C JUMP JUMPDEST POP PUSH1 0x0 PUSH1 0x4 PUSH1 0x0 CALLER PUSH20 0xFFFFFFFFFFFFFFFFFFFFFFFFFFFFFFFFFFFFFFFF AND PUSH20 0xFFFFFFFFFFFFFFFFFFFFFFFFFFFFFFFFFFFFFFFF AND DUP2 MSTORE PUSH1 0x20 ADD SWAP1 DUP2 MSTORE PUSH1 0x20 ADD PUSH1 0x0 KECCAK256 DUP2 SWAP1 SSTORE POP PUSH1 0x0 PUSH1 0x5 PUSH1 0x0 CALLER PUSH20 0xFFFFFFFFFFFFFFFFFFFFFFFFFFFFFFFFFFFFFFFF AND PUSH20 0xFFFFFFFFFFFFFFFFFFFFFFFFFFFFFFFFFFFFFFFF AND DUP2 MSTORE PUSH1 0x20 ADD SWAP1 DUP2 MSTORE PUSH1 0x20 ADD PUSH1 0x0 KECCAK256 PUSH1 0x0 PUSH2 0x100 EXP DUP2 SLOAD DUP2 PUSH1 0xFF MUL NOT AND SWAP1 DUP4 ISZERO ISZERO MUL OR SWAP1 SSTORE POP POP JUMP JUMPDEST PUSH1 0x1 PUSH1 0x0 SWAP1 SLOAD SWAP1 PUSH2 0x100 EXP SWAP1 DIV PUSH20 0xFFFFFFFFFFFFFFFFFFFFFFFFFFFFFFFFFFFFFFFF AND DUP2 JUMP JUMPDEST PUSH1 0x4 PUSH1 0x20 MSTORE DUP1 PUSH1 0x0 MSTORE PUSH1 0x40 PUSH1 0x0 KECCAK256 PUSH1 0x0 SWAP2 POP SWAP1 POP SLOAD DUP2 JUMP JUMPDEST PUSH1 0x0 JUMPDEST PUSH1 0x3 DUP1 SLOAD SWAP1 POP DUP2 LT ISZERO PUSH2 0x8AC JUMPI PUSH1 0x0 PUSH1 0x3 DUP3 DUP2 SLOAD DUP2 LT PUSH2 0x76C JUMPI PUSH32 0x4E487B7100000000000000000000000000000000000000000000000000000000 PUSH1 0x0 MSTORE PUSH1 0x32 PUSH1 0x4 MSTORE PUSH1 0x24 PUSH1 0x0 REVERT JUMPDEST SWAP1 PUSH1 0x0 MSTORE PUSH1 0x20 PUSH1 0x0 KECCAK256 ADD PUSH1 0x0 SWAP1 SLOAD SWAP1 PUSH2 0x100 EXP SWAP1 DIV PUSH20 0xFFFFFFFFFFFFFFFFFFFFFFFFFFFFFFFFFFFFFFFF AND SWAP1 POP PUSH1 0x0 PUSH1 0x4 PUSH1 0x0 DUP4 PUSH20 0xFFFFFFFFFFFFFFFFFFFFFFFFFFFFFFFFFFFFFFFF AND PUSH20 0xFFFFFFFFFFFFFFFFFFFFFFFFFFFFFFFFFFFFFFFF AND DUP2 MSTORE PUSH1 0x20 ADD SWAP1 DUP2 MSTORE PUSH1 0x20 ADD PUSH1 0x0 KECCAK256 SLOAD SWAP1 POP PUSH1 0x0 DUP2 GT ISZERO PUSH2 0x897 JUMPI PUSH1 0x2 PUSH1 0x0 SWAP1 SLOAD SWAP1 PUSH2 0x100 EXP SWAP1 DIV PUSH20 0xFFFFFFFFFFFFFFFFFFFFFFFFFFFFFFFFFFFFFFFF AND PUSH20 0xFFFFFFFFFFFFFFFFFFFFFFFFFFFFFFFFFFFFFFFF AND PUSH4 0xA9059CBB DUP4 DUP4 PUSH1 0x40 MLOAD DUP4 PUSH4 0xFFFFFFFF AND PUSH1 0xE0 SHL DUP2 MSTORE PUSH1 0x4 ADD PUSH2 0x843 SWAP3 SWAP2 SWAP1 PUSH2 0xAC9 JUMP JUMPDEST PUSH1 0x20 PUSH1 0x40 MLOAD DUP1 DUP4 SUB DUP2 PUSH1 0x0 DUP8 DUP1 EXTCODESIZE ISZERO DUP1 ISZERO PUSH2 0x85D JUMPI PUSH1 0x0 DUP1 REVERT JUMPDEST POP GAS CALL ISZERO DUP1 ISZERO PUSH2 0x871 JUMPI RETURNDATASIZE PUSH1 0x0 DUP1 RETURNDATACOPY RETURNDATASIZE PUSH1 0x0 REVERT JUMPDEST POP POP POP POP PUSH1 0x40 MLOAD RETURNDATASIZE PUSH1 0x1F NOT PUSH1 0x1F DUP3 ADD AND DUP3 ADD DUP1 PUSH1 0x40 MSTORE POP DUP2 ADD SWAP1 PUSH2 0x895 SWAP2 SWAP1 PUSH2 0x99C JUMP JUMPDEST POP JUMPDEST POP POP DUP1 DUP1 PUSH2 0x8A4 SWAP1 PUSH2 0xC89 JUMP JUMPDEST SWAP2 POP POP PUSH2 0x723 JUMP JUMPDEST POP JUMP JUMPDEST PUSH1 0x2 PUSH1 0x0 SWAP1 SLOAD SWAP1 PUSH2 0x100 EXP SWAP1 DIV PUSH20 0xFFFFFFFFFFFFFFFFFFFFFFFFFFFFFFFFFFFFFFFF AND DUP2 JUMP JUMPDEST PUSH1 0x6 PUSH1 0x20 MSTORE DUP1 PUSH1 0x0 MSTORE PUSH1 0x40 PUSH1 0x0 KECCAK256 PUSH1 0x0 SWAP2 POP SLOAD SWAP1 PUSH2 0x100 EXP SWAP1 DIV PUSH1 0xFF AND DUP2 JUMP JUMPDEST PUSH1 0x3 DUP2 DUP2 SLOAD DUP2 LT PUSH2 0x905 JUMPI PUSH1 0x0 DUP1 REVERT JUMPDEST SWAP1 PUSH1 0x0 MSTORE PUSH1 0x20 PUSH1 0x0 KECCAK256 ADD PUSH1 0x0 SWAP2 POP SLOAD SWAP1 PUSH2 0x100 EXP SWAP1 DIV PUSH20 0xFFFFFFFFFFFFFFFFFFFFFFFFFFFFFFFFFFFFFFFF AND DUP2 JUMP JUMPDEST PUSH1 0x0 DUP2 CALLDATALOAD SWAP1 POP PUSH2 0x943 DUP2 PUSH2 0xD6A JUMP JUMPDEST SWAP3 SWAP2 POP POP JUMP JUMPDEST PUSH1 0x0 DUP2 MLOAD SWAP1 POP PUSH2 0x958 DUP2 PUSH2 0xD81 JUMP JUMPDEST SWAP3 SWAP2 POP POP JUMP JUMPDEST PUSH1 0x0 DUP2 CALLDATALOAD SWAP1 POP PUSH2 0x96D DUP2 PUSH2 0xD98 JUMP JUMPDEST SWAP3 SWAP2 POP POP JUMP JUMPDEST PUSH1 0x0 PUSH1 0x20 DUP3 DUP5 SUB SLT ISZERO PUSH2 0x985 JUMPI PUSH1 0x0 DUP1 REVERT JUMPDEST PUSH1 0x0 PUSH2 0x993 DUP5 DUP3 DUP6 ADD PUSH2 0x934 JUMP JUMPDEST SWAP2 POP POP SWAP3 SWAP2 POP POP JUMP JUMPDEST PUSH1 0x0 PUSH1 0x20 DUP3 DUP5 SUB SLT ISZERO PUSH2 0x9AE JUMPI PUSH1 0x0 DUP1 REVERT JUMPDEST PUSH1 0x0 PUSH2 0x9BC DUP5 DUP3 DUP6 ADD PUSH2 0x949 JUMP JUMPDEST SWAP2 POP POP SWAP3 SWAP2 POP POP JUMP JUMPDEST PUSH1 0x0 PUSH1 0x20 DUP3 DUP5 SUB SLT ISZERO PUSH2 0x9D7 JUMPI PUSH1 0x0 DUP1 REVERT JUMPDEST PUSH1 0x0 PUSH2 0x9E5 DUP5 DUP3 DUP6 ADD PUSH2 0x95E JUMP JUMPDEST SWAP2 POP POP SWAP3 SWAP2 POP POP JUMP JUMPDEST PUSH2 0x9F7 DUP2 PUSH2 0xBDC JUMP JUMPDEST DUP3 MSTORE POP POP JUMP JUMPDEST PUSH2 0xA06 DUP2 PUSH2 0xBEE JUMP JUMPDEST DUP3 MSTORE POP POP JUMP JUMPDEST PUSH1 0x0 PUSH2 0xA17 DUP3 PUSH2 0xB6A JUMP JUMPDEST PUSH2 0xA21 DUP2 DUP6 PUSH2 0xB75 JUMP JUMPDEST SWAP4 POP PUSH2 0xA31 DUP2 DUP6 PUSH1 0x20 DUP7 ADD PUSH2 0xC24 JUMP JUMPDEST PUSH2 0xA3A DUP2 PUSH2 0xD30 JUMP JUMPDEST DUP5 ADD SWAP2 POP POP SWAP3 SWAP2 POP POP JUMP JUMPDEST PUSH1 0x0 PUSH2 0xA52 PUSH1 0x12 DUP4 PUSH2 0xB75 JUMP JUMPDEST SWAP2 POP PUSH2 0xA5D DUP3 PUSH2 0xD41 JUMP JUMPDEST PUSH1 0x20 DUP3 ADD SWAP1 POP SWAP2 SWAP1 POP JUMP JUMPDEST PUSH2 0xA71 DUP2 PUSH2 0xC1A JUMP JUMPDEST DUP3 MSTORE POP POP JUMP JUMPDEST PUSH1 0x0 PUSH1 0x20 DUP3 ADD SWAP1 POP PUSH2 0xA8C PUSH1 0x0 DUP4 ADD DUP5 PUSH2 0x9EE JUMP JUMPDEST SWAP3 SWAP2 POP POP JUMP JUMPDEST PUSH1 0x0 PUSH1 0x60 DUP3 ADD SWAP1 POP PUSH2 0xAA7 PUSH1 0x0 DUP4 ADD DUP7 PUSH2 0x9EE JUMP JUMPDEST PUSH2 0xAB4 PUSH1 0x20 DUP4 ADD DUP6 PUSH2 0x9EE JUMP JUMPDEST PUSH2 0xAC1 PUSH1 0x40 DUP4 ADD DUP5 PUSH2 0xA68 JUMP JUMPDEST SWAP5 SWAP4 POP POP POP POP JUMP JUMPDEST PUSH1 0x0 PUSH1 0x40 DUP3 ADD SWAP1 POP PUSH2 0xADE PUSH1 0x0 DUP4 ADD DUP6 PUSH2 0x9EE JUMP JUMPDEST PUSH2 0xAEB PUSH1 0x20 DUP4 ADD DUP5 PUSH2 0xA68 JUMP JUMPDEST SWAP4 SWAP3 POP POP POP JUMP JUMPDEST PUSH1 0x0 PUSH1 0x20 DUP3 ADD SWAP1 POP PUSH2 0xB07 PUSH1 0x0 DUP4 ADD DUP5 PUSH2 0x9FD JUMP JUMPDEST SWAP3 SWAP2 POP POP JUMP JUMPDEST PUSH1 0x0 PUSH1 0x20 DUP3 ADD SWAP1 POP DUP2 DUP2 SUB PUSH1 0x0 DUP4 ADD MSTORE PUSH2 0xB27 DUP2 DUP5 PUSH2 0xA0C JUMP JUMPDEST SWAP1 POP SWAP3 SWAP2 POP POP JUMP JUMPDEST PUSH1 0x0 PUSH1 0x20 DUP3 ADD SWAP1 POP DUP2 DUP2 SUB PUSH1 0x0 DUP4 ADD MSTORE PUSH2 0xB48 DUP2 PUSH2 0xA45 JUMP JUMPDEST SWAP1 POP SWAP2 SWAP1 POP JUMP JUMPDEST PUSH1 0x0 PUSH1 0x20 DUP3 ADD SWAP1 POP PUSH2 0xB64 PUSH1 0x0 DUP4 ADD DUP5 PUSH2 0xA68 JUMP JUMPDEST SWAP3 SWAP2 POP POP JUMP JUMPDEST PUSH1 0x0 DUP2 MLOAD SWAP1 POP SWAP2 SWAP1 POP JUMP JUMPDEST PUSH1 0x0 DUP3 DUP3 MSTORE PUSH1 0x20 DUP3 ADD SWAP1 POP SWAP3 SWAP2 POP POP JUMP JUMPDEST PUSH1 0x0 PUSH2 0xB91 DUP3 PUSH2 0xC1A JUMP JUMPDEST SWAP2 POP PUSH2 0xB9C DUP4 PUSH2 0xC1A JUMP JUMPDEST SWAP3 POP DUP3 PUSH32 0xFFFFFFFFFFFFFFFFFFFFFFFFFFFFFFFFFFFFFFFFFFFFFFFFFFFFFFFFFFFFFFFF SUB DUP3 GT ISZERO PUSH2 0xBD1 JUMPI PUSH2 0xBD0 PUSH2 0xCD2 JUMP JUMPDEST JUMPDEST DUP3 DUP3 ADD SWAP1 POP SWAP3 SWAP2 POP POP JUMP JUMPDEST PUSH1 0x0 PUSH2 0xBE7 DUP3 PUSH2 0xBFA JUMP JUMPDEST SWAP1 POP SWAP2 SWAP1 POP JUMP JUMPDEST PUSH1 0x0 DUP2 ISZERO ISZERO SWAP1 POP SWAP2 SWAP1 POP JUMP JUMPDEST PUSH1 0x0 PUSH20 0xFFFFFFFFFFFFFFFFFFFFFFFFFFFFFFFFFFFFFFFF DUP3 AND SWAP1 POP SWAP2 SWAP1 POP JUMP JUMPDEST PUSH1 0x0 DUP2 SWAP1 POP SWAP2 SWAP1 POP JUMP JUMPDEST PUSH1 0x0 JUMPDEST DUP4 DUP2 LT ISZERO PUSH2 0xC42 JUMPI DUP1 DUP3 ADD MLOAD DUP2 DUP5 ADD MSTORE PUSH1 0x20 DUP2 ADD SWAP1 POP PUSH2 0xC27 JUMP JUMPDEST DUP4 DUP2 GT ISZERO PUSH2 0xC51 JUMPI PUSH1 0x0 DUP5 DUP5 ADD MSTORE JUMPDEST POP POP POP POP JUMP JUMPDEST PUSH1 0x0 PUSH1 0x2 DUP3 DIV SWAP1 POP PUSH1 0x1 DUP3 AND DUP1 PUSH2 0xC6F JUMPI PUSH1 0x7F DUP3 AND SWAP2 POP JUMPDEST PUSH1 0x20 DUP3 LT DUP2 EQ ISZERO PUSH2 0xC83 JUMPI PUSH2 0xC82 PUSH2 0xD01 JUMP JUMPDEST JUMPDEST POP SWAP2 SWAP1 POP JUMP JUMPDEST PUSH1 0x0 PUSH2 0xC94 DUP3 PUSH2 0xC1A JUMP JUMPDEST SWAP2 POP PUSH32 0xFFFFFFFFFFFFFFFFFFFFFFFFFFFFFFFFFFFFFFFFFFFFFFFFFFFFFFFFFFFFFFFF DUP3 EQ ISZERO PUSH2 0xCC7 JUMPI PUSH2 0xCC6 PUSH2 0xCD2 JUMP JUMPDEST JUMPDEST PUSH1 0x1 DUP3 ADD SWAP1 POP SWAP2 SWAP1 POP JUMP JUMPDEST PUSH32 0x4E487B7100000000000000000000000000000000000000000000000000000000 PUSH1 0x0 MSTORE PUSH1 0x11 PUSH1 0x4 MSTORE PUSH1 0x24 PUSH1 0x0 REVERT JUMPDEST PUSH32 0x4E487B7100000000000000000000000000000000000000000000000000000000 PUSH1 0x0 MSTORE PUSH1 0x22 PUSH1 0x4 MSTORE PUSH1 0x24 PUSH1 0x0 REVERT JUMPDEST PUSH1 0x0 PUSH1 0x1F NOT PUSH1 0x1F DUP4 ADD AND SWAP1 POP SWAP2 SWAP1 POP JUMP JUMPDEST PUSH32 0x6E6F7420656E6F7567682062616C616E63650000000000000000000000000000 PUSH1 0x0 DUP3 ADD MSTORE POP JUMP JUMPDEST PUSH2 0xD73 DUP2 PUSH2 0xBDC JUMP JUMPDEST DUP2 EQ PUSH2 0xD7E JUMPI PUSH1 0x0 DUP1 REVERT JUMPDEST POP JUMP JUMPDEST PUSH2 0xD8A DUP2 PUSH2 0xBEE JUMP JUMPDEST DUP2 EQ PUSH2 0xD95 JUMPI PUSH1 0x0 DUP1 REVERT JUMPDEST POP JUMP JUMPDEST PUSH2 0xDA1 DUP2 PUSH2 0xC1A JUMP JUMPDEST DUP2 EQ PUSH2 0xDAC JUMPI PUSH1 0x0 DUP1 REVERT JUMPDEST POP JUMP INVALID LOG2 PUSH5 0x6970667358 0x22 SLT KECCAK256 0xA9 0xB1 0xAA 0xB7 0x4C SWAP7 0x24 PUSH10 0x174AE9479DA185D9DEC0 PUSH5 0x4E80785008 0xC4 0xBC 0xAB 0xCD 0x27 0xE9 SWAP2 MULMOD PUSH5 0x736F6C6343 STOP ADDMOD DIV STOP CALLER "
				},
				"gasEstimates": {
					"creation": {
						"codeDepositCost": "711400",
						"executionCost": "infinite",
						"totalCost": "infinite"
					},
					"external": {
						"collectionReward()": "infinite",
						"createStake(uint256)": "infinite",
						"hasStaked(address)": "1611",
						"isStacking(address)": "1568",
						"mytoken()": "1258",
						"name()": "infinite",
						"stakers(uint256)": "2444",
						"stakingBalance(address)": "1514",
						"unstake()": "infinite",
						"usdc()": "1303"
					}
				},
				"methodIdentifiers": {
					"collectionReward()": "49fc5f87",
					"createStake(uint256)": "1bf6ddae",
					"hasStaked(address)": "c93c8f34",
					"isStacking(address)": "07e9417a",
					"mytoken()": "5eab74fc",
					"name()": "06fdde03",
					"stakers(uint256)": "fd5e6dd1",
					"stakingBalance(address)": "45bc78ab",
					"unstake()": "2def6620",
					"usdc()": "3e413bee"
				}
			},
			"storageLayout": {
				"storage": [
					{
						"astId": 71,
						"contract": "practice/DeFiBank.sol:DeFiBank",
						"label": "name",
						"offset": 0,
						"slot": "0",
						"type": "t_string_storage"
					},
					{
						"astId": 73,
						"contract": "practice/DeFiBank.sol:DeFiBank",
						"label": "usdc",
						"offset": 0,
						"slot": "1",
						"type": "t_address"
					},
					{
						"astId": 75,
						"contract": "practice/DeFiBank.sol:DeFiBank",
						"label": "mytoken",
						"offset": 0,
						"slot": "2",
						"type": "t_address"
					},
					{
						"astId": 78,
						"contract": "practice/DeFiBank.sol:DeFiBank",
						"label": "stakers",
						"offset": 0,
						"slot": "3",
						"type": "t_array(t_address)dyn_storage"
					},
					{
						"astId": 82,
						"contract": "practice/DeFiBank.sol:DeFiBank",
						"label": "stakingBalance",
						"offset": 0,
						"slot": "4",
						"type": "t_mapping(t_address,t_uint256)"
					},
					{
						"astId": 86,
						"contract": "practice/DeFiBank.sol:DeFiBank",
						"label": "isStacking",
						"offset": 0,
						"slot": "5",
						"type": "t_mapping(t_address,t_bool)"
					},
					{
						"astId": 90,
						"contract": "practice/DeFiBank.sol:DeFiBank",
						"label": "hasStaked",
						"offset": 0,
						"slot": "6",
						"type": "t_mapping(t_address,t_bool)"
					}
				],
				"types": {
					"t_address": {
						"encoding": "inplace",
						"label": "address",
						"numberOfBytes": "20"
					},
					"t_array(t_address)dyn_storage": {
						"base": "t_address",
						"encoding": "dynamic_array",
						"label": "address[]",
						"numberOfBytes": "32"
					},
					"t_bool": {
						"encoding": "inplace",
						"label": "bool",
						"numberOfBytes": "1"
					},
					"t_mapping(t_address,t_bool)": {
						"encoding": "mapping",
						"key": "t_address",
						"label": "mapping(address => bool)",
						"numberOfBytes": "32",
						"value": "t_bool"
					},
					"t_mapping(t_address,t_uint256)": {
						"encoding": "mapping",
						"key": "t_address",
						"label": "mapping(address => uint256)",
						"numberOfBytes": "32",
						"value": "t_uint256"
					},
					"t_string_storage": {
						"encoding": "bytes",
						"label": "string",
						"numberOfBytes": "32"
					},
					"t_uint256": {
						"encoding": "inplace",
						"label": "uint256",
						"numberOfBytes": "32"
					}
				}
			},
			"userdoc": {
				"kind": "user",
				"methods": {},
				"version": 1
			}
		}
	}
}