{
	"practice/VehicleRegister.sol": {
		"VehicleRegister": {
			"abi": [
				{
					"inputs": [],
					"stateMutability": "nonpayable",
					"type": "constructor"
				},
				{
					"inputs": [
						{
							"internalType": "bytes32",
							"name": "_vin",
							"type": "bytes32"
						}
					],
					"name": "getVehicleDetails",
					"outputs": [
						{
							"internalType": "string",
							"name": "",
							"type": "string"
						}
					],
					"stateMutability": "nonpayable",
					"type": "function"
				},
				{
					"inputs": [
						{
							"internalType": "bytes32",
							"name": "_vin",
							"type": "bytes32"
						}
					],
					"name": "isVehicle",
					"outputs": [
						{
							"internalType": "bool",
							"name": "",
							"type": "bool"
						}
					],
					"stateMutability": "nonpayable",
					"type": "function"
				},
				{
					"inputs": [],
					"name": "owner",
					"outputs": [
						{
							"internalType": "address",
							"name": "",
							"type": "address"
						}
					],
					"stateMutability": "view",
					"type": "function"
				},
				{
					"inputs": [
						{
							"internalType": "bytes32",
							"name": "_vin",
							"type": "bytes32"
						},
						{
							"internalType": "string",
							"name": "_year",
							"type": "string"
						},
						{
							"internalType": "string",
							"name": "_model",
							"type": "string"
						},
						{
							"internalType": "string",
							"name": "_make",
							"type": "string"
						},
						{
							"internalType": "string",
							"name": "_owner",
							"type": "string"
						}
					],
					"name": "registerVehicle",
					"outputs": [],
					"stateMutability": "nonpayable",
					"type": "function"
				},
				{
					"inputs": [
						{
							"internalType": "bytes32",
							"name": "_vin",
							"type": "bytes32"
						},
						{
							"internalType": "string",
							"name": "_owner",
							"type": "string"
						}
					],
					"name": "transferVehicle",
					"outputs": [
						{
							"internalType": "string",
							"name": "",
							"type": "string"
						}
					],
					"stateMutability": "nonpayable",
					"type": "function"
				},
				{
					"inputs": [
						{
							"internalType": "bytes32",
							"name": "",
							"type": "bytes32"
						}
					],
					"name": "vehicleMap",
					"outputs": [
						{
							"internalType": "bytes32",
							"name": "vin",
							"type": "bytes32"
						},
						{
							"internalType": "string",
							"name": "year",
							"type": "string"
						},
						{
							"internalType": "string",
							"name": "model",
							"type": "string"
						},
						{
							"internalType": "string",
							"name": "make",
							"type": "string"
						},
						{
							"internalType": "string",
							"name": "owner",
							"type": "string"
						},
						{
							"internalType": "uint8",
							"name": "status",
							"type": "uint8"
						}
					],
					"stateMutability": "view",
					"type": "function"
				},
				{
					"inputs": [
						{
							"internalType": "uint256",
							"name": "",
							"type": "uint256"
						}
					],
					"name": "vins",
					"outputs": [
						{
							"internalType": "bytes32",
							"name": "",
							"type": "bytes32"
						}
					],
					"stateMutability": "view",
					"type": "function"
				}
			],
			"devdoc": {
				"kind": "dev",
				"methods": {},
				"version": 1
			},
			"evm": {
				"assembly": "    /* \"practice/VehicleRegister.sol\":27:1473  contract VehicleRegister{\r... */\n  mstore(0x40, 0x80)\n    /* \"practice/VehicleRegister.sol\":379:435  constructor() public {\r... */\n  callvalue\n  dup1\n  iszero\n  tag_1\n  jumpi\n  0x00\n  dup1\n  revert\ntag_1:\n  pop\n    /* \"practice/VehicleRegister.sol\":417:427  msg.sender */\n  caller\n    /* \"practice/VehicleRegister.sol\":411:416  owner */\n  0x00\n  dup1\n    /* \"practice/VehicleRegister.sol\":411:427  owner=msg.sender */\n  0x0100\n  exp\n  dup2\n  sload\n  dup2\n  0xffffffffffffffffffffffffffffffffffffffff\n  mul\n  not\n  and\n  swap1\n  dup4\n  0xffffffffffffffffffffffffffffffffffffffff\n  and\n  mul\n  or\n  swap1\n  sstore\n  pop\n    /* \"practice/VehicleRegister.sol\":27:1473  contract VehicleRegister{\r... */\n  dataSize(sub_0)\n  dup1\n  dataOffset(sub_0)\n  0x00\n  codecopy\n  0x00\n  return\nstop\n\nsub_0: assembly {\n        /* \"practice/VehicleRegister.sol\":27:1473  contract VehicleRegister{\r... */\n      mstore(0x40, 0x80)\n      callvalue\n      dup1\n      iszero\n      tag_1\n      jumpi\n      0x00\n      dup1\n      revert\n    tag_1:\n      pop\n      jumpi(tag_2, lt(calldatasize, 0x04))\n      shr(0xe0, calldataload(0x00))\n      dup1\n      0x8da5cb5b\n      gt\n      tag_10\n      jumpi\n      dup1\n      0x8da5cb5b\n      eq\n      tag_6\n      jumpi\n      dup1\n      0xd2e5aeee\n      eq\n      tag_7\n      jumpi\n      dup1\n      0xd4e9a481\n      eq\n      tag_8\n      jumpi\n      dup1\n      0xdbd575a2\n      eq\n      tag_9\n      jumpi\n      jump(tag_2)\n    tag_10:\n      dup1\n      0x1bd4fa4b\n      eq\n      tag_3\n      jumpi\n      dup1\n      0x731941c8\n      eq\n      tag_4\n      jumpi\n      dup1\n      0x76e897dc\n      eq\n      tag_5\n      jumpi\n    tag_2:\n      0x00\n      dup1\n      revert\n        /* \"practice/VehicleRegister.sol\":1034:1263  function transferVehicle(bytes32 _vin,string memory _owner) public isOwner(msg.sender) returns(string memory) {\r... */\n    tag_3:\n      tag_11\n      0x04\n      dup1\n      calldatasize\n      sub\n      dup2\n      add\n      swap1\n      tag_12\n      swap2\n      swap1\n      tag_13\n      jump\t// in\n    tag_12:\n      tag_14\n      jump\t// in\n    tag_11:\n      mload(0x40)\n      tag_15\n      swap2\n      swap1\n      tag_16\n      jump\t// in\n    tag_15:\n      mload(0x40)\n      dup1\n      swap2\n      sub\n      swap1\n      return\n        /* \"practice/VehicleRegister.sol\":87:108  bytes32[] public vins */\n    tag_4:\n      tag_17\n      0x04\n      dup1\n      calldatasize\n      sub\n      dup2\n      add\n      swap1\n      tag_18\n      swap2\n      swap1\n      tag_19\n      jump\t// in\n    tag_18:\n      tag_20\n      jump\t// in\n    tag_17:\n      mload(0x40)\n      tag_21\n      swap2\n      swap1\n      tag_22\n      jump\t// in\n    tag_21:\n      mload(0x40)\n      dup1\n      swap2\n      sub\n      swap1\n      return\n        /* \"practice/VehicleRegister.sol\":117:161  mapping(bytes32 => Vehicle)public vehicleMap */\n    tag_5:\n      tag_23\n      0x04\n      dup1\n      calldatasize\n      sub\n      dup2\n      add\n      swap1\n      tag_24\n      swap2\n      swap1\n      tag_25\n      jump\t// in\n    tag_24:\n      tag_26\n      jump\t// in\n    tag_23:\n      mload(0x40)\n      tag_27\n      swap7\n      swap6\n      swap5\n      swap4\n      swap3\n      swap2\n      swap1\n      tag_28\n      jump\t// in\n    tag_27:\n      mload(0x40)\n      dup1\n      swap2\n      sub\n      swap1\n      return\n        /* \"practice/VehicleRegister.sol\":60:80  address public owner */\n    tag_6:\n      tag_29\n      tag_30\n      jump\t// in\n    tag_29:\n      mload(0x40)\n      tag_31\n      swap2\n      swap1\n      tag_32\n      jump\t// in\n    tag_31:\n      mload(0x40)\n      dup1\n      swap2\n      sub\n      swap1\n      return\n        /* \"practice/VehicleRegister.sol\":843:1026  function isVehicle(bytes32 _vin) public returns(bool) {\r... */\n    tag_7:\n      tag_33\n      0x04\n      dup1\n      calldatasize\n      sub\n      dup2\n      add\n      swap1\n      tag_34\n      swap2\n      swap1\n      tag_25\n      jump\t// in\n    tag_34:\n      tag_35\n      jump\t// in\n    tag_33:\n      mload(0x40)\n      tag_36\n      swap2\n      swap1\n      tag_37\n      jump\t// in\n    tag_36:\n      mload(0x40)\n      dup1\n      swap2\n      sub\n      swap1\n      return\n        /* \"practice/VehicleRegister.sol\":548:835  function registerVehicle(bytes32 _vin,string memory _year,string memory _model,string memory _make,string memory _owner) public isOwner(msg.sender) {\r... */\n    tag_8:\n      tag_38\n      0x04\n      dup1\n      calldatasize\n      sub\n      dup2\n      add\n      swap1\n      tag_39\n      swap2\n      swap1\n      tag_40\n      jump\t// in\n    tag_39:\n      tag_41\n      jump\t// in\n    tag_38:\n      stop\n        /* \"practice/VehicleRegister.sol\":1271:1466  function getVehicleDetails(bytes32 _vin) public returns(string memory){\r... */\n    tag_9:\n      tag_42\n      0x04\n      dup1\n      calldatasize\n      sub\n      dup2\n      add\n      swap1\n      tag_43\n      swap2\n      swap1\n      tag_25\n      jump\t// in\n    tag_43:\n      tag_44\n      jump\t// in\n    tag_42:\n      mload(0x40)\n      tag_45\n      swap2\n      swap1\n      tag_16\n      jump\t// in\n    tag_45:\n      mload(0x40)\n      dup1\n      swap2\n      sub\n      swap1\n      return\n        /* \"practice/VehicleRegister.sol\":1034:1263  function transferVehicle(bytes32 _vin,string memory _owner) public isOwner(msg.sender) returns(string memory) {\r... */\n    tag_14:\n        /* \"practice/VehicleRegister.sol\":1129:1142  string memory */\n      0x60\n        /* \"practice/VehicleRegister.sol\":1109:1119  msg.sender */\n      caller\n        /* \"practice/VehicleRegister.sol\":499:505  _owner */\n      dup1\n        /* \"practice/VehicleRegister.sol\":492:505  owner==_owner */\n      0xffffffffffffffffffffffffffffffffffffffff\n      and\n        /* \"practice/VehicleRegister.sol\":492:497  owner */\n      0x00\n      dup1\n      sload\n      swap1\n      0x0100\n      exp\n      swap1\n      div\n      0xffffffffffffffffffffffffffffffffffffffff\n      and\n        /* \"practice/VehicleRegister.sol\":492:505  owner==_owner */\n      0xffffffffffffffffffffffffffffffffffffffff\n      and\n      eq\n        /* \"practice/VehicleRegister.sol\":484:520  require(owner==_owner,\"Not a owner\") */\n      tag_47\n      jumpi\n      mload(0x40)\n      0x08c379a000000000000000000000000000000000000000000000000000000000\n      dup2\n      mstore\n      0x04\n      add\n      tag_48\n      swap1\n      tag_49\n      jump\t// in\n    tag_48:\n      mload(0x40)\n      dup1\n      swap2\n      sub\n      swap1\n      revert\n    tag_47:\n        /* \"practice/VehicleRegister.sol\":1163:1178  isVehicle(_vin) */\n      tag_51\n        /* \"practice/VehicleRegister.sol\":1173:1177  _vin */\n      dup5\n        /* \"practice/VehicleRegister.sol\":1163:1172  isVehicle */\n      tag_35\n        /* \"practice/VehicleRegister.sol\":1163:1178  isVehicle(_vin) */\n      jump\t// in\n    tag_51:\n        /* \"practice/VehicleRegister.sol\":1155:1179  require(isVehicle(_vin)) */\n      tag_52\n      jumpi\n      0x00\n      dup1\n      revert\n    tag_52:\n        /* \"practice/VehicleRegister.sol\":1213:1219  _owner */\n      dup3\n        /* \"practice/VehicleRegister.sol\":1190:1200  vehicleMap */\n      0x02\n        /* \"practice/VehicleRegister.sol\":1190:1206  vehicleMap[_vin] */\n      0x00\n        /* \"practice/VehicleRegister.sol\":1201:1205  _vin */\n      dup7\n        /* \"practice/VehicleRegister.sol\":1190:1206  vehicleMap[_vin] */\n      dup2\n      mstore\n      0x20\n      add\n      swap1\n      dup2\n      mstore\n      0x20\n      add\n      0x00\n      keccak256\n        /* \"practice/VehicleRegister.sol\":1190:1212  vehicleMap[_vin].owner */\n      0x04\n      add\n        /* \"practice/VehicleRegister.sol\":1190:1219  vehicleMap[_vin].owner=_owner */\n      swap1\n      dup1\n      mload\n      swap1\n      0x20\n      add\n      swap1\n      tag_53\n      swap3\n      swap2\n      swap1\n      tag_54\n      jump\t// in\n    tag_53:\n      pop\n        /* \"practice/VehicleRegister.sol\":1254:1255  2 */\n      0x02\n        /* \"practice/VehicleRegister.sol\":1230:1240  vehicleMap */\n      dup1\n        /* \"practice/VehicleRegister.sol\":1230:1246  vehicleMap[_vin] */\n      0x00\n        /* \"practice/VehicleRegister.sol\":1241:1245  _vin */\n      dup7\n        /* \"practice/VehicleRegister.sol\":1230:1246  vehicleMap[_vin] */\n      dup2\n      mstore\n      0x20\n      add\n      swap1\n      dup2\n      mstore\n      0x20\n      add\n      0x00\n      keccak256\n        /* \"practice/VehicleRegister.sol\":1230:1253  vehicleMap[_vin].status */\n      0x05\n      add\n      0x00\n        /* \"practice/VehicleRegister.sol\":1230:1255  vehicleMap[_vin].status=2 */\n      0x0100\n      exp\n      dup2\n      sload\n      dup2\n      0xff\n      mul\n      not\n      and\n      swap1\n      dup4\n      0xff\n      and\n      mul\n      or\n      swap1\n      sstore\n      pop\n        /* \"practice/VehicleRegister.sol\":1034:1263  function transferVehicle(bytes32 _vin,string memory _owner) public isOwner(msg.sender) returns(string memory) {\r... */\n      pop\n      swap3\n      swap2\n      pop\n      pop\n      jump\t// out\n        /* \"practice/VehicleRegister.sol\":87:108  bytes32[] public vins */\n    tag_20:\n      0x01\n      dup2\n      dup2\n      sload\n      dup2\n      lt\n      tag_55\n      jumpi\n      0x00\n      dup1\n      revert\n    tag_55:\n      swap1\n      0x00\n      mstore\n      keccak256(0x00, 0x20)\n      add\n      0x00\n      swap2\n      pop\n      swap1\n      pop\n      sload\n      dup2\n      jump\t// out\n        /* \"practice/VehicleRegister.sol\":117:161  mapping(bytes32 => Vehicle)public vehicleMap */\n    tag_26:\n      mstore(0x20, 0x02)\n      dup1\n      0x00\n      mstore\n      keccak256(0x00, 0x40)\n      0x00\n      swap2\n      pop\n      swap1\n      pop\n      dup1\n      0x00\n      add\n      sload\n      swap1\n      dup1\n      0x01\n      add\n      dup1\n      sload\n      tag_57\n      swap1\n      tag_58\n      jump\t// in\n    tag_57:\n      dup1\n      0x1f\n      add\n      0x20\n      dup1\n      swap2\n      div\n      mul\n      0x20\n      add\n      mload(0x40)\n      swap1\n      dup2\n      add\n      0x40\n      mstore\n      dup1\n      swap3\n      swap2\n      swap1\n      dup2\n      dup2\n      mstore\n      0x20\n      add\n      dup3\n      dup1\n      sload\n      tag_59\n      swap1\n      tag_58\n      jump\t// in\n    tag_59:\n      dup1\n      iszero\n      tag_60\n      jumpi\n      dup1\n      0x1f\n      lt\n      tag_61\n      jumpi\n      0x0100\n      dup1\n      dup4\n      sload\n      div\n      mul\n      dup4\n      mstore\n      swap2\n      0x20\n      add\n      swap2\n      jump(tag_60)\n    tag_61:\n      dup3\n      add\n      swap2\n      swap1\n      0x00\n      mstore\n      keccak256(0x00, 0x20)\n      swap1\n    tag_62:\n      dup2\n      sload\n      dup2\n      mstore\n      swap1\n      0x01\n      add\n      swap1\n      0x20\n      add\n      dup1\n      dup4\n      gt\n      tag_62\n      jumpi\n      dup3\n      swap1\n      sub\n      0x1f\n      and\n      dup3\n      add\n      swap2\n    tag_60:\n      pop\n      pop\n      pop\n      pop\n      pop\n      swap1\n      dup1\n      0x02\n      add\n      dup1\n      sload\n      tag_63\n      swap1\n      tag_58\n      jump\t// in\n    tag_63:\n      dup1\n      0x1f\n      add\n      0x20\n      dup1\n      swap2\n      div\n      mul\n      0x20\n      add\n      mload(0x40)\n      swap1\n      dup2\n      add\n      0x40\n      mstore\n      dup1\n      swap3\n      swap2\n      swap1\n      dup2\n      dup2\n      mstore\n      0x20\n      add\n      dup3\n      dup1\n      sload\n      tag_64\n      swap1\n      tag_58\n      jump\t// in\n    tag_64:\n      dup1\n      iszero\n      tag_65\n      jumpi\n      dup1\n      0x1f\n      lt\n      tag_66\n      jumpi\n      0x0100\n      dup1\n      dup4\n      sload\n      div\n      mul\n      dup4\n      mstore\n      swap2\n      0x20\n      add\n      swap2\n      jump(tag_65)\n    tag_66:\n      dup3\n      add\n      swap2\n      swap1\n      0x00\n      mstore\n      keccak256(0x00, 0x20)\n      swap1\n    tag_67:\n      dup2\n      sload\n      dup2\n      mstore\n      swap1\n      0x01\n      add\n      swap1\n      0x20\n      add\n      dup1\n      dup4\n      gt\n      tag_67\n      jumpi\n      dup3\n      swap1\n      sub\n      0x1f\n      and\n      dup3\n      add\n      swap2\n    tag_65:\n      pop\n      pop\n      pop\n      pop\n      pop\n      swap1\n      dup1\n      0x03\n      add\n      dup1\n      sload\n      tag_68\n      swap1\n      tag_58\n      jump\t// in\n    tag_68:\n      dup1\n      0x1f\n      add\n      0x20\n      dup1\n      swap2\n      div\n      mul\n      0x20\n      add\n      mload(0x40)\n      swap1\n      dup2\n      add\n      0x40\n      mstore\n      dup1\n      swap3\n      swap2\n      swap1\n      dup2\n      dup2\n      mstore\n      0x20\n      add\n      dup3\n      dup1\n      sload\n      tag_69\n      swap1\n      tag_58\n      jump\t// in\n    tag_69:\n      dup1\n      iszero\n      tag_70\n      jumpi\n      dup1\n      0x1f\n      lt\n      tag_71\n      jumpi\n      0x0100\n      dup1\n      dup4\n      sload\n      div\n      mul\n      dup4\n      mstore\n      swap2\n      0x20\n      add\n      swap2\n      jump(tag_70)\n    tag_71:\n      dup3\n      add\n      swap2\n      swap1\n      0x00\n      mstore\n      keccak256(0x00, 0x20)\n      swap1\n    tag_72:\n      dup2\n      sload\n      dup2\n      mstore\n      swap1\n      0x01\n      add\n      swap1\n      0x20\n      add\n      dup1\n      dup4\n      gt\n      tag_72\n      jumpi\n      dup3\n      swap1\n      sub\n      0x1f\n      and\n      dup3\n      add\n      swap2\n    tag_70:\n      pop\n      pop\n      pop\n      pop\n      pop\n      swap1\n      dup1\n      0x04\n      add\n      dup1\n      sload\n      tag_73\n      swap1\n      tag_58\n      jump\t// in\n    tag_73:\n      dup1\n      0x1f\n      add\n      0x20\n      dup1\n      swap2\n      div\n      mul\n      0x20\n      add\n      mload(0x40)\n      swap1\n      dup2\n      add\n      0x40\n      mstore\n      dup1\n      swap3\n      swap2\n      swap1\n      dup2\n      dup2\n      mstore\n      0x20\n      add\n      dup3\n      dup1\n      sload\n      tag_74\n      swap1\n      tag_58\n      jump\t// in\n    tag_74:\n      dup1\n      iszero\n      tag_75\n      jumpi\n      dup1\n      0x1f\n      lt\n      tag_76\n      jumpi\n      0x0100\n      dup1\n      dup4\n      sload\n      div\n      mul\n      dup4\n      mstore\n      swap2\n      0x20\n      add\n      swap2\n      jump(tag_75)\n    tag_76:\n      dup3\n      add\n      swap2\n      swap1\n      0x00\n      mstore\n      keccak256(0x00, 0x20)\n      swap1\n    tag_77:\n      dup2\n      sload\n      dup2\n      mstore\n      swap1\n      0x01\n      add\n      swap1\n      0x20\n      add\n      dup1\n      dup4\n      gt\n      tag_77\n      jumpi\n      dup3\n      swap1\n      sub\n      0x1f\n      and\n      dup3\n      add\n      swap2\n    tag_75:\n      pop\n      pop\n      pop\n      pop\n      pop\n      swap1\n      dup1\n      0x05\n      add\n      0x00\n      swap1\n      sload\n      swap1\n      0x0100\n      exp\n      swap1\n      div\n      0xff\n      and\n      swap1\n      pop\n      dup7\n      jump\t// out\n        /* \"practice/VehicleRegister.sol\":60:80  address public owner */\n    tag_30:\n      0x00\n      dup1\n      sload\n      swap1\n      0x0100\n      exp\n      swap1\n      div\n      0xffffffffffffffffffffffffffffffffffffffff\n      and\n      dup2\n      jump\t// out\n        /* \"practice/VehicleRegister.sol\":843:1026  function isVehicle(bytes32 _vin) public returns(bool) {\r... */\n    tag_35:\n        /* \"practice/VehicleRegister.sol\":891:895  bool */\n      0x00\n        /* \"practice/VehicleRegister.sol\":936:937  0 */\n      dup1\n        /* \"practice/VehicleRegister.sol\":911:921  vehicleMap */\n      0x02\n        /* \"practice/VehicleRegister.sol\":911:927  vehicleMap[_vin] */\n      0x00\n        /* \"practice/VehicleRegister.sol\":922:926  _vin */\n      dup5\n        /* \"practice/VehicleRegister.sol\":911:927  vehicleMap[_vin] */\n      dup2\n      mstore\n      0x20\n      add\n      swap1\n      dup2\n      mstore\n      0x20\n      add\n      0x00\n      keccak256\n        /* \"practice/VehicleRegister.sol\":911:934  vehicleMap[_vin].status */\n      0x05\n      add\n      0x00\n      swap1\n      sload\n      swap1\n      0x0100\n      exp\n      swap1\n      div\n      0xff\n      and\n        /* \"practice/VehicleRegister.sol\":911:937  vehicleMap[_vin].status!=0 */\n      0xff\n      and\n      eq\n        /* \"practice/VehicleRegister.sol\":908:1019  if(vehicleMap[_vin].status!=0){\r... */\n      tag_79\n      jumpi\n        /* \"practice/VehicleRegister.sol\":960:964  true */\n      0x01\n        /* \"practice/VehicleRegister.sol\":953:964  return true */\n      swap1\n      pop\n      jump(tag_78)\n        /* \"practice/VehicleRegister.sol\":908:1019  if(vehicleMap[_vin].status!=0){\r... */\n    tag_79:\n        /* \"practice/VehicleRegister.sol\":1002:1007  false */\n      0x00\n        /* \"practice/VehicleRegister.sol\":995:1007  return false */\n      swap1\n      pop\n        /* \"practice/VehicleRegister.sol\":843:1026  function isVehicle(bytes32 _vin) public returns(bool) {\r... */\n    tag_78:\n      swap2\n      swap1\n      pop\n      jump\t// out\n        /* \"practice/VehicleRegister.sol\":548:835  function registerVehicle(bytes32 _vin,string memory _year,string memory _model,string memory _make,string memory _owner) public isOwner(msg.sender) {\r... */\n    tag_41:\n        /* \"practice/VehicleRegister.sol\":684:694  msg.sender */\n      caller\n        /* \"practice/VehicleRegister.sol\":499:505  _owner */\n      dup1\n        /* \"practice/VehicleRegister.sol\":492:505  owner==_owner */\n      0xffffffffffffffffffffffffffffffffffffffff\n      and\n        /* \"practice/VehicleRegister.sol\":492:497  owner */\n      0x00\n      dup1\n      sload\n      swap1\n      0x0100\n      exp\n      swap1\n      div\n      0xffffffffffffffffffffffffffffffffffffffff\n      and\n        /* \"practice/VehicleRegister.sol\":492:505  owner==_owner */\n      0xffffffffffffffffffffffffffffffffffffffff\n      and\n      eq\n        /* \"practice/VehicleRegister.sol\":484:520  require(owner==_owner,\"Not a owner\") */\n      tag_82\n      jumpi\n      mload(0x40)\n      0x08c379a000000000000000000000000000000000000000000000000000000000\n      dup2\n      mstore\n      0x04\n      add\n      tag_83\n      swap1\n      tag_49\n      jump\t// in\n    tag_83:\n      mload(0x40)\n      dup1\n      swap2\n      sub\n      swap1\n      revert\n    tag_82:\n        /* \"practice/VehicleRegister.sol\":716:731  isVehicle(_vin) */\n      tag_85\n        /* \"practice/VehicleRegister.sol\":726:730  _vin */\n      dup7\n        /* \"practice/VehicleRegister.sol\":716:725  isVehicle */\n      tag_35\n        /* \"practice/VehicleRegister.sol\":716:731  isVehicle(_vin) */\n      jump\t// in\n    tag_85:\n        /* \"practice/VehicleRegister.sol\":715:731  !isVehicle(_vin) */\n      iszero\n        /* \"practice/VehicleRegister.sol\":707:732  require(!isVehicle(_vin)) */\n      tag_86\n      jumpi\n      0x00\n      dup1\n      revert\n    tag_86:\n        /* \"practice/VehicleRegister.sol\":760:801  Vehicle(_vin,_year,_model,_make,_owner,1) */\n      mload(0x40)\n      dup1\n      0xc0\n      add\n      0x40\n      mstore\n      dup1\n        /* \"practice/VehicleRegister.sol\":768:772  _vin */\n      dup8\n        /* \"practice/VehicleRegister.sol\":760:801  Vehicle(_vin,_year,_model,_make,_owner,1) */\n      dup2\n      mstore\n      0x20\n      add\n        /* \"practice/VehicleRegister.sol\":773:778  _year */\n      dup7\n        /* \"practice/VehicleRegister.sol\":760:801  Vehicle(_vin,_year,_model,_make,_owner,1) */\n      dup2\n      mstore\n      0x20\n      add\n        /* \"practice/VehicleRegister.sol\":779:785  _model */\n      dup6\n        /* \"practice/VehicleRegister.sol\":760:801  Vehicle(_vin,_year,_model,_make,_owner,1) */\n      dup2\n      mstore\n      0x20\n      add\n        /* \"practice/VehicleRegister.sol\":786:791  _make */\n      dup5\n        /* \"practice/VehicleRegister.sol\":760:801  Vehicle(_vin,_year,_model,_make,_owner,1) */\n      dup2\n      mstore\n      0x20\n      add\n        /* \"practice/VehicleRegister.sol\":792:798  _owner */\n      dup4\n        /* \"practice/VehicleRegister.sol\":760:801  Vehicle(_vin,_year,_model,_make,_owner,1) */\n      dup2\n      mstore\n      0x20\n      add\n        /* \"practice/VehicleRegister.sol\":799:800  1 */\n      0x01\n        /* \"practice/VehicleRegister.sol\":760:801  Vehicle(_vin,_year,_model,_make,_owner,1) */\n      0xff\n      and\n      dup2\n      mstore\n      pop\n        /* \"practice/VehicleRegister.sol\":743:753  vehicleMap */\n      0x02\n        /* \"practice/VehicleRegister.sol\":743:759  vehicleMap[_vin] */\n      0x00\n        /* \"practice/VehicleRegister.sol\":754:758  _vin */\n      dup9\n        /* \"practice/VehicleRegister.sol\":743:759  vehicleMap[_vin] */\n      dup2\n      mstore\n      0x20\n      add\n      swap1\n      dup2\n      mstore\n      0x20\n      add\n      0x00\n      keccak256\n        /* \"practice/VehicleRegister.sol\":743:801  vehicleMap[_vin]=Vehicle(_vin,_year,_model,_make,_owner,1) */\n      0x00\n      dup3\n      add\n      mload\n      dup2\n      0x00\n      add\n      sstore\n      0x20\n      dup3\n      add\n      mload\n      dup2\n      0x01\n      add\n      swap1\n      dup1\n      mload\n      swap1\n      0x20\n      add\n      swap1\n      tag_87\n      swap3\n      swap2\n      swap1\n      tag_54\n      jump\t// in\n    tag_87:\n      pop\n      0x40\n      dup3\n      add\n      mload\n      dup2\n      0x02\n      add\n      swap1\n      dup1\n      mload\n      swap1\n      0x20\n      add\n      swap1\n      tag_88\n      swap3\n      swap2\n      swap1\n      tag_54\n      jump\t// in\n    tag_88:\n      pop\n      0x60\n      dup3\n      add\n      mload\n      dup2\n      0x03\n      add\n      swap1\n      dup1\n      mload\n      swap1\n      0x20\n      add\n      swap1\n      tag_89\n      swap3\n      swap2\n      swap1\n      tag_54\n      jump\t// in\n    tag_89:\n      pop\n      0x80\n      dup3\n      add\n      mload\n      dup2\n      0x04\n      add\n      swap1\n      dup1\n      mload\n      swap1\n      0x20\n      add\n      swap1\n      tag_90\n      swap3\n      swap2\n      swap1\n      tag_54\n      jump\t// in\n    tag_90:\n      pop\n      0xa0\n      dup3\n      add\n      mload\n      dup2\n      0x05\n      add\n      exp(0x0100, 0x00)\n      dup2\n      sload\n      dup2\n      0xff\n      mul\n      not\n      and\n      swap1\n      dup4\n      0xff\n      and\n      mul\n      or\n      swap1\n      sstore\n      pop\n      swap1\n      pop\n      pop\n        /* \"practice/VehicleRegister.sol\":812:816  vins */\n      0x01\n        /* \"practice/VehicleRegister.sol\":822:826  _vin */\n      dup7\n        /* \"practice/VehicleRegister.sol\":812:827  vins.push(_vin) */\n      swap1\n      dup1\n      0x01\n      dup2\n      sload\n      add\n      dup1\n      dup3\n      sstore\n      dup1\n      swap2\n      pop\n      pop\n      0x01\n      swap1\n      sub\n      swap1\n      0x00\n      mstore\n      keccak256(0x00, 0x20)\n      add\n      0x00\n      swap1\n      swap2\n      swap1\n      swap2\n      swap1\n      swap2\n      pop\n      sstore\n        /* \"practice/VehicleRegister.sol\":548:835  function registerVehicle(bytes32 _vin,string memory _year,string memory _model,string memory _make,string memory _owner) public isOwner(msg.sender) {\r... */\n      pop\n      pop\n      pop\n      pop\n      pop\n      pop\n      jump\t// out\n        /* \"practice/VehicleRegister.sol\":1271:1466  function getVehicleDetails(bytes32 _vin) public returns(string memory){\r... */\n    tag_44:\n        /* \"practice/VehicleRegister.sol\":1327:1340  string memory */\n      0x60\n        /* \"practice/VehicleRegister.sol\":1360:1375  isVehicle(_vin) */\n      tag_93\n        /* \"practice/VehicleRegister.sol\":1370:1374  _vin */\n      dup3\n        /* \"practice/VehicleRegister.sol\":1360:1369  isVehicle */\n      tag_35\n        /* \"practice/VehicleRegister.sol\":1360:1375  isVehicle(_vin) */\n      jump\t// in\n    tag_93:\n        /* \"practice/VehicleRegister.sol\":1352:1376  require(isVehicle(_vin)) */\n      tag_94\n      jumpi\n      0x00\n      dup1\n      revert\n    tag_94:\n        /* \"practice/VehicleRegister.sol\":1387:1409  string memory _vehicle */\n      0x00\n        /* \"practice/VehicleRegister.sol\":1410:1420  vehicleMap */\n      0x02\n        /* \"practice/VehicleRegister.sol\":1410:1426  vehicleMap[_vin] */\n      0x00\n        /* \"practice/VehicleRegister.sol\":1421:1425  _vin */\n      dup5\n        /* \"practice/VehicleRegister.sol\":1410:1426  vehicleMap[_vin] */\n      dup2\n      mstore\n      0x20\n      add\n      swap1\n      dup2\n      mstore\n      0x20\n      add\n      0x00\n      keccak256\n        /* \"practice/VehicleRegister.sol\":1410:1432  vehicleMap[_vin].owner */\n      0x04\n      add\n        /* \"practice/VehicleRegister.sol\":1387:1432  string memory _vehicle=vehicleMap[_vin].owner */\n      dup1\n      sload\n      tag_95\n      swap1\n      tag_58\n      jump\t// in\n    tag_95:\n      dup1\n      0x1f\n      add\n      0x20\n      dup1\n      swap2\n      div\n      mul\n      0x20\n      add\n      mload(0x40)\n      swap1\n      dup2\n      add\n      0x40\n      mstore\n      dup1\n      swap3\n      swap2\n      swap1\n      dup2\n      dup2\n      mstore\n      0x20\n      add\n      dup3\n      dup1\n      sload\n      tag_96\n      swap1\n      tag_58\n      jump\t// in\n    tag_96:\n      dup1\n      iszero\n      tag_97\n      jumpi\n      dup1\n      0x1f\n      lt\n      tag_98\n      jumpi\n      0x0100\n      dup1\n      dup4\n      sload\n      div\n      mul\n      dup4\n      mstore\n      swap2\n      0x20\n      add\n      swap2\n      jump(tag_97)\n    tag_98:\n      dup3\n      add\n      swap2\n      swap1\n      0x00\n      mstore\n      keccak256(0x00, 0x20)\n      swap1\n    tag_99:\n      dup2\n      sload\n      dup2\n      mstore\n      swap1\n      0x01\n      add\n      swap1\n      0x20\n      add\n      dup1\n      dup4\n      gt\n      tag_99\n      jumpi\n      dup3\n      swap1\n      sub\n      0x1f\n      and\n      dup3\n      add\n      swap2\n    tag_97:\n      pop\n      pop\n      pop\n      pop\n      pop\n      swap1\n      pop\n        /* \"practice/VehicleRegister.sol\":1450:1458  _vehicle */\n      dup1\n        /* \"practice/VehicleRegister.sol\":1443:1458  return _vehicle */\n      swap2\n      pop\n      pop\n        /* \"practice/VehicleRegister.sol\":1271:1466  function getVehicleDetails(bytes32 _vin) public returns(string memory){\r... */\n      swap2\n      swap1\n      pop\n      jump\t// out\n    tag_54:\n      dup3\n      dup1\n      sload\n      tag_100\n      swap1\n      tag_58\n      jump\t// in\n    tag_100:\n      swap1\n      0x00\n      mstore\n      keccak256(0x00, 0x20)\n      swap1\n      0x1f\n      add\n      0x20\n      swap1\n      div\n      dup2\n      add\n      swap3\n      dup3\n      tag_102\n      jumpi\n      0x00\n      dup6\n      sstore\n      jump(tag_101)\n    tag_102:\n      dup3\n      0x1f\n      lt\n      tag_103\n      jumpi\n      dup1\n      mload\n      not(0xff)\n      and\n      dup4\n      dup1\n      add\n      or\n      dup6\n      sstore\n      jump(tag_101)\n    tag_103:\n      dup3\n      dup1\n      add\n      0x01\n      add\n      dup6\n      sstore\n      dup3\n      iszero\n      tag_101\n      jumpi\n      swap2\n      dup3\n      add\n    tag_104:\n      dup3\n      dup2\n      gt\n      iszero\n      tag_105\n      jumpi\n      dup3\n      mload\n      dup3\n      sstore\n      swap2\n      0x20\n      add\n      swap2\n      swap1\n      0x01\n      add\n      swap1\n      jump(tag_104)\n    tag_105:\n    tag_101:\n      pop\n      swap1\n      pop\n      tag_106\n      swap2\n      swap1\n      tag_107\n      jump\t// in\n    tag_106:\n      pop\n      swap1\n      jump\t// out\n    tag_107:\n    tag_108:\n      dup1\n      dup3\n      gt\n      iszero\n      tag_109\n      jumpi\n      0x00\n      dup2\n      0x00\n      swap1\n      sstore\n      pop\n      0x01\n      add\n      jump(tag_108)\n    tag_109:\n      pop\n      swap1\n      jump\t// out\n        /* \"#utility.yul\":7:352   */\n    tag_111:\n        /* \"#utility.yul\":85:90   */\n      0x00\n        /* \"#utility.yul\":110:176   */\n      tag_113\n        /* \"#utility.yul\":126:175   */\n      tag_114\n        /* \"#utility.yul\":168:174   */\n      dup5\n        /* \"#utility.yul\":126:175   */\n      tag_115\n      jump\t// in\n    tag_114:\n        /* \"#utility.yul\":110:176   */\n      tag_116\n      jump\t// in\n    tag_113:\n        /* \"#utility.yul\":101:176   */\n      swap1\n      pop\n        /* \"#utility.yul\":199:205   */\n      dup3\n        /* \"#utility.yul\":192:197   */\n      dup2\n        /* \"#utility.yul\":185:206   */\n      mstore\n        /* \"#utility.yul\":237:241   */\n      0x20\n        /* \"#utility.yul\":230:235   */\n      dup2\n        /* \"#utility.yul\":226:242   */\n      add\n        /* \"#utility.yul\":275:278   */\n      dup5\n        /* \"#utility.yul\":266:272   */\n      dup5\n        /* \"#utility.yul\":261:264   */\n      dup5\n        /* \"#utility.yul\":257:273   */\n      add\n        /* \"#utility.yul\":254:279   */\n      gt\n        /* \"#utility.yul\":251:253   */\n      iszero\n      tag_117\n      jumpi\n        /* \"#utility.yul\":292:293   */\n      0x00\n        /* \"#utility.yul\":289:290   */\n      dup1\n        /* \"#utility.yul\":282:294   */\n      revert\n        /* \"#utility.yul\":251:253   */\n    tag_117:\n        /* \"#utility.yul\":305:346   */\n      tag_118\n        /* \"#utility.yul\":339:345   */\n      dup5\n        /* \"#utility.yul\":334:337   */\n      dup3\n        /* \"#utility.yul\":329:332   */\n      dup6\n        /* \"#utility.yul\":305:346   */\n      tag_119\n      jump\t// in\n    tag_118:\n        /* \"#utility.yul\":91:352   */\n      pop\n      swap4\n      swap3\n      pop\n      pop\n      pop\n      jump\t// out\n        /* \"#utility.yul\":358:497   */\n    tag_120:\n        /* \"#utility.yul\":404:409   */\n      0x00\n        /* \"#utility.yul\":442:448   */\n      dup2\n        /* \"#utility.yul\":429:449   */\n      calldataload\n        /* \"#utility.yul\":420:449   */\n      swap1\n      pop\n        /* \"#utility.yul\":458:491   */\n      tag_122\n        /* \"#utility.yul\":485:490   */\n      dup2\n        /* \"#utility.yul\":458:491   */\n      tag_123\n      jump\t// in\n    tag_122:\n        /* \"#utility.yul\":410:497   */\n      swap3\n      swap2\n      pop\n      pop\n      jump\t// out\n        /* \"#utility.yul\":517:790   */\n    tag_124:\n        /* \"#utility.yul\":573:578   */\n      0x00\n        /* \"#utility.yul\":622:625   */\n      dup3\n        /* \"#utility.yul\":615:619   */\n      0x1f\n        /* \"#utility.yul\":607:613   */\n      dup4\n        /* \"#utility.yul\":603:620   */\n      add\n        /* \"#utility.yul\":599:626   */\n      slt\n        /* \"#utility.yul\":589:591   */\n      tag_126\n      jumpi\n        /* \"#utility.yul\":640:641   */\n      0x00\n        /* \"#utility.yul\":637:638   */\n      dup1\n        /* \"#utility.yul\":630:642   */\n      revert\n        /* \"#utility.yul\":589:591   */\n    tag_126:\n        /* \"#utility.yul\":680:686   */\n      dup2\n        /* \"#utility.yul\":667:687   */\n      calldataload\n        /* \"#utility.yul\":705:784   */\n      tag_127\n        /* \"#utility.yul\":780:783   */\n      dup5\n        /* \"#utility.yul\":772:778   */\n      dup3\n        /* \"#utility.yul\":765:769   */\n      0x20\n        /* \"#utility.yul\":757:763   */\n      dup7\n        /* \"#utility.yul\":753:770   */\n      add\n        /* \"#utility.yul\":705:784   */\n      tag_111\n      jump\t// in\n    tag_127:\n        /* \"#utility.yul\":696:784   */\n      swap2\n      pop\n        /* \"#utility.yul\":579:790   */\n      pop\n      swap3\n      swap2\n      pop\n      pop\n      jump\t// out\n        /* \"#utility.yul\":796:935   */\n    tag_128:\n        /* \"#utility.yul\":842:847   */\n      0x00\n        /* \"#utility.yul\":880:886   */\n      dup2\n        /* \"#utility.yul\":867:887   */\n      calldataload\n        /* \"#utility.yul\":858:887   */\n      swap1\n      pop\n        /* \"#utility.yul\":896:929   */\n      tag_130\n        /* \"#utility.yul\":923:928   */\n      dup2\n        /* \"#utility.yul\":896:929   */\n      tag_131\n      jump\t// in\n    tag_130:\n        /* \"#utility.yul\":848:935   */\n      swap3\n      swap2\n      pop\n      pop\n      jump\t// out\n        /* \"#utility.yul\":941:1203   */\n    tag_25:\n        /* \"#utility.yul\":1000:1006   */\n      0x00\n        /* \"#utility.yul\":1049:1051   */\n      0x20\n        /* \"#utility.yul\":1037:1046   */\n      dup3\n        /* \"#utility.yul\":1028:1035   */\n      dup5\n        /* \"#utility.yul\":1024:1047   */\n      sub\n        /* \"#utility.yul\":1020:1052   */\n      slt\n        /* \"#utility.yul\":1017:1019   */\n      iszero\n      tag_133\n      jumpi\n        /* \"#utility.yul\":1065:1066   */\n      0x00\n        /* \"#utility.yul\":1062:1063   */\n      dup1\n        /* \"#utility.yul\":1055:1067   */\n      revert\n        /* \"#utility.yul\":1017:1019   */\n    tag_133:\n        /* \"#utility.yul\":1108:1109   */\n      0x00\n        /* \"#utility.yul\":1133:1186   */\n      tag_134\n        /* \"#utility.yul\":1178:1185   */\n      dup5\n        /* \"#utility.yul\":1169:1175   */\n      dup3\n        /* \"#utility.yul\":1158:1167   */\n      dup6\n        /* \"#utility.yul\":1154:1176   */\n      add\n        /* \"#utility.yul\":1133:1186   */\n      tag_120\n      jump\t// in\n    tag_134:\n        /* \"#utility.yul\":1123:1186   */\n      swap2\n      pop\n        /* \"#utility.yul\":1079:1196   */\n      pop\n        /* \"#utility.yul\":1007:1203   */\n      swap3\n      swap2\n      pop\n      pop\n      jump\t// out\n        /* \"#utility.yul\":1209:1729   */\n    tag_13:\n        /* \"#utility.yul\":1287:1293   */\n      0x00\n        /* \"#utility.yul\":1295:1301   */\n      dup1\n        /* \"#utility.yul\":1344:1346   */\n      0x40\n        /* \"#utility.yul\":1332:1341   */\n      dup4\n        /* \"#utility.yul\":1323:1330   */\n      dup6\n        /* \"#utility.yul\":1319:1342   */\n      sub\n        /* \"#utility.yul\":1315:1347   */\n      slt\n        /* \"#utility.yul\":1312:1314   */\n      iszero\n      tag_136\n      jumpi\n        /* \"#utility.yul\":1360:1361   */\n      0x00\n        /* \"#utility.yul\":1357:1358   */\n      dup1\n        /* \"#utility.yul\":1350:1362   */\n      revert\n        /* \"#utility.yul\":1312:1314   */\n    tag_136:\n        /* \"#utility.yul\":1403:1404   */\n      0x00\n        /* \"#utility.yul\":1428:1481   */\n      tag_137\n        /* \"#utility.yul\":1473:1480   */\n      dup6\n        /* \"#utility.yul\":1464:1470   */\n      dup3\n        /* \"#utility.yul\":1453:1462   */\n      dup7\n        /* \"#utility.yul\":1449:1471   */\n      add\n        /* \"#utility.yul\":1428:1481   */\n      tag_120\n      jump\t// in\n    tag_137:\n        /* \"#utility.yul\":1418:1481   */\n      swap3\n      pop\n        /* \"#utility.yul\":1374:1491   */\n      pop\n        /* \"#utility.yul\":1558:1560   */\n      0x20\n        /* \"#utility.yul\":1547:1556   */\n      dup4\n        /* \"#utility.yul\":1543:1561   */\n      add\n        /* \"#utility.yul\":1530:1562   */\n      calldataload\n        /* \"#utility.yul\":1589:1607   */\n      0xffffffffffffffff\n        /* \"#utility.yul\":1581:1587   */\n      dup2\n        /* \"#utility.yul\":1578:1608   */\n      gt\n        /* \"#utility.yul\":1575:1577   */\n      iszero\n      tag_138\n      jumpi\n        /* \"#utility.yul\":1621:1622   */\n      0x00\n        /* \"#utility.yul\":1618:1619   */\n      dup1\n        /* \"#utility.yul\":1611:1623   */\n      revert\n        /* \"#utility.yul\":1575:1577   */\n    tag_138:\n        /* \"#utility.yul\":1649:1712   */\n      tag_139\n        /* \"#utility.yul\":1704:1711   */\n      dup6\n        /* \"#utility.yul\":1695:1701   */\n      dup3\n        /* \"#utility.yul\":1684:1693   */\n      dup7\n        /* \"#utility.yul\":1680:1702   */\n      add\n        /* \"#utility.yul\":1649:1712   */\n      tag_124\n      jump\t// in\n    tag_139:\n        /* \"#utility.yul\":1639:1712   */\n      swap2\n      pop\n        /* \"#utility.yul\":1501:1722   */\n      pop\n        /* \"#utility.yul\":1302:1729   */\n      swap3\n      pop\n      swap3\n      swap1\n      pop\n      jump\t// out\n        /* \"#utility.yul\":1735:3031   */\n    tag_40:\n        /* \"#utility.yul\":1870:1876   */\n      0x00\n        /* \"#utility.yul\":1878:1884   */\n      dup1\n        /* \"#utility.yul\":1886:1892   */\n      0x00\n        /* \"#utility.yul\":1894:1900   */\n      dup1\n        /* \"#utility.yul\":1902:1908   */\n      0x00\n        /* \"#utility.yul\":1951:1954   */\n      0xa0\n        /* \"#utility.yul\":1939:1948   */\n      dup7\n        /* \"#utility.yul\":1930:1937   */\n      dup9\n        /* \"#utility.yul\":1926:1949   */\n      sub\n        /* \"#utility.yul\":1922:1955   */\n      slt\n        /* \"#utility.yul\":1919:1921   */\n      iszero\n      tag_141\n      jumpi\n        /* \"#utility.yul\":1968:1969   */\n      0x00\n        /* \"#utility.yul\":1965:1966   */\n      dup1\n        /* \"#utility.yul\":1958:1970   */\n      revert\n        /* \"#utility.yul\":1919:1921   */\n    tag_141:\n        /* \"#utility.yul\":2011:2012   */\n      0x00\n        /* \"#utility.yul\":2036:2089   */\n      tag_142\n        /* \"#utility.yul\":2081:2088   */\n      dup9\n        /* \"#utility.yul\":2072:2078   */\n      dup3\n        /* \"#utility.yul\":2061:2070   */\n      dup10\n        /* \"#utility.yul\":2057:2079   */\n      add\n        /* \"#utility.yul\":2036:2089   */\n      tag_120\n      jump\t// in\n    tag_142:\n        /* \"#utility.yul\":2026:2089   */\n      swap6\n      pop\n        /* \"#utility.yul\":1982:2099   */\n      pop\n        /* \"#utility.yul\":2166:2168   */\n      0x20\n        /* \"#utility.yul\":2155:2164   */\n      dup7\n        /* \"#utility.yul\":2151:2169   */\n      add\n        /* \"#utility.yul\":2138:2170   */\n      calldataload\n        /* \"#utility.yul\":2197:2215   */\n      0xffffffffffffffff\n        /* \"#utility.yul\":2189:2195   */\n      dup2\n        /* \"#utility.yul\":2186:2216   */\n      gt\n        /* \"#utility.yul\":2183:2185   */\n      iszero\n      tag_143\n      jumpi\n        /* \"#utility.yul\":2229:2230   */\n      0x00\n        /* \"#utility.yul\":2226:2227   */\n      dup1\n        /* \"#utility.yul\":2219:2231   */\n      revert\n        /* \"#utility.yul\":2183:2185   */\n    tag_143:\n        /* \"#utility.yul\":2257:2320   */\n      tag_144\n        /* \"#utility.yul\":2312:2319   */\n      dup9\n        /* \"#utility.yul\":2303:2309   */\n      dup3\n        /* \"#utility.yul\":2292:2301   */\n      dup10\n        /* \"#utility.yul\":2288:2310   */\n      add\n        /* \"#utility.yul\":2257:2320   */\n      tag_124\n      jump\t// in\n    tag_144:\n        /* \"#utility.yul\":2247:2320   */\n      swap5\n      pop\n        /* \"#utility.yul\":2109:2330   */\n      pop\n        /* \"#utility.yul\":2397:2399   */\n      0x40\n        /* \"#utility.yul\":2386:2395   */\n      dup7\n        /* \"#utility.yul\":2382:2400   */\n      add\n        /* \"#utility.yul\":2369:2401   */\n      calldataload\n        /* \"#utility.yul\":2428:2446   */\n      0xffffffffffffffff\n        /* \"#utility.yul\":2420:2426   */\n      dup2\n        /* \"#utility.yul\":2417:2447   */\n      gt\n        /* \"#utility.yul\":2414:2416   */\n      iszero\n      tag_145\n      jumpi\n        /* \"#utility.yul\":2460:2461   */\n      0x00\n        /* \"#utility.yul\":2457:2458   */\n      dup1\n        /* \"#utility.yul\":2450:2462   */\n      revert\n        /* \"#utility.yul\":2414:2416   */\n    tag_145:\n        /* \"#utility.yul\":2488:2551   */\n      tag_146\n        /* \"#utility.yul\":2543:2550   */\n      dup9\n        /* \"#utility.yul\":2534:2540   */\n      dup3\n        /* \"#utility.yul\":2523:2532   */\n      dup10\n        /* \"#utility.yul\":2519:2541   */\n      add\n        /* \"#utility.yul\":2488:2551   */\n      tag_124\n      jump\t// in\n    tag_146:\n        /* \"#utility.yul\":2478:2551   */\n      swap4\n      pop\n        /* \"#utility.yul\":2340:2561   */\n      pop\n        /* \"#utility.yul\":2628:2630   */\n      0x60\n        /* \"#utility.yul\":2617:2626   */\n      dup7\n        /* \"#utility.yul\":2613:2631   */\n      add\n        /* \"#utility.yul\":2600:2632   */\n      calldataload\n        /* \"#utility.yul\":2659:2677   */\n      0xffffffffffffffff\n        /* \"#utility.yul\":2651:2657   */\n      dup2\n        /* \"#utility.yul\":2648:2678   */\n      gt\n        /* \"#utility.yul\":2645:2647   */\n      iszero\n      tag_147\n      jumpi\n        /* \"#utility.yul\":2691:2692   */\n      0x00\n        /* \"#utility.yul\":2688:2689   */\n      dup1\n        /* \"#utility.yul\":2681:2693   */\n      revert\n        /* \"#utility.yul\":2645:2647   */\n    tag_147:\n        /* \"#utility.yul\":2719:2782   */\n      tag_148\n        /* \"#utility.yul\":2774:2781   */\n      dup9\n        /* \"#utility.yul\":2765:2771   */\n      dup3\n        /* \"#utility.yul\":2754:2763   */\n      dup10\n        /* \"#utility.yul\":2750:2772   */\n      add\n        /* \"#utility.yul\":2719:2782   */\n      tag_124\n      jump\t// in\n    tag_148:\n        /* \"#utility.yul\":2709:2782   */\n      swap3\n      pop\n        /* \"#utility.yul\":2571:2792   */\n      pop\n        /* \"#utility.yul\":2859:2862   */\n      0x80\n        /* \"#utility.yul\":2848:2857   */\n      dup7\n        /* \"#utility.yul\":2844:2863   */\n      add\n        /* \"#utility.yul\":2831:2864   */\n      calldataload\n        /* \"#utility.yul\":2891:2909   */\n      0xffffffffffffffff\n        /* \"#utility.yul\":2883:2889   */\n      dup2\n        /* \"#utility.yul\":2880:2910   */\n      gt\n        /* \"#utility.yul\":2877:2879   */\n      iszero\n      tag_149\n      jumpi\n        /* \"#utility.yul\":2923:2924   */\n      0x00\n        /* \"#utility.yul\":2920:2921   */\n      dup1\n        /* \"#utility.yul\":2913:2925   */\n      revert\n        /* \"#utility.yul\":2877:2879   */\n    tag_149:\n        /* \"#utility.yul\":2951:3014   */\n      tag_150\n        /* \"#utility.yul\":3006:3013   */\n      dup9\n        /* \"#utility.yul\":2997:3003   */\n      dup3\n        /* \"#utility.yul\":2986:2995   */\n      dup10\n        /* \"#utility.yul\":2982:3004   */\n      add\n        /* \"#utility.yul\":2951:3014   */\n      tag_124\n      jump\t// in\n    tag_150:\n        /* \"#utility.yul\":2941:3014   */\n      swap2\n      pop\n        /* \"#utility.yul\":2802:3024   */\n      pop\n        /* \"#utility.yul\":1909:3031   */\n      swap3\n      swap6\n      pop\n      swap3\n      swap6\n      swap1\n      swap4\n      pop\n      jump\t// out\n        /* \"#utility.yul\":3037:3299   */\n    tag_19:\n        /* \"#utility.yul\":3096:3102   */\n      0x00\n        /* \"#utility.yul\":3145:3147   */\n      0x20\n        /* \"#utility.yul\":3133:3142   */\n      dup3\n        /* \"#utility.yul\":3124:3131   */\n      dup5\n        /* \"#utility.yul\":3120:3143   */\n      sub\n        /* \"#utility.yul\":3116:3148   */\n      slt\n        /* \"#utility.yul\":3113:3115   */\n      iszero\n      tag_152\n      jumpi\n        /* \"#utility.yul\":3161:3162   */\n      0x00\n        /* \"#utility.yul\":3158:3159   */\n      dup1\n        /* \"#utility.yul\":3151:3163   */\n      revert\n        /* \"#utility.yul\":3113:3115   */\n    tag_152:\n        /* \"#utility.yul\":3204:3205   */\n      0x00\n        /* \"#utility.yul\":3229:3282   */\n      tag_153\n        /* \"#utility.yul\":3274:3281   */\n      dup5\n        /* \"#utility.yul\":3265:3271   */\n      dup3\n        /* \"#utility.yul\":3254:3263   */\n      dup6\n        /* \"#utility.yul\":3250:3272   */\n      add\n        /* \"#utility.yul\":3229:3282   */\n      tag_128\n      jump\t// in\n    tag_153:\n        /* \"#utility.yul\":3219:3282   */\n      swap2\n      pop\n        /* \"#utility.yul\":3175:3292   */\n      pop\n        /* \"#utility.yul\":3103:3299   */\n      swap3\n      swap2\n      pop\n      pop\n      jump\t// out\n        /* \"#utility.yul\":3305:3423   */\n    tag_154:\n        /* \"#utility.yul\":3392:3416   */\n      tag_156\n        /* \"#utility.yul\":3410:3415   */\n      dup2\n        /* \"#utility.yul\":3392:3416   */\n      tag_157\n      jump\t// in\n    tag_156:\n        /* \"#utility.yul\":3387:3390   */\n      dup3\n        /* \"#utility.yul\":3380:3417   */\n      mstore\n        /* \"#utility.yul\":3370:3423   */\n      pop\n      pop\n      jump\t// out\n        /* \"#utility.yul\":3429:3538   */\n    tag_158:\n        /* \"#utility.yul\":3510:3531   */\n      tag_160\n        /* \"#utility.yul\":3525:3530   */\n      dup2\n        /* \"#utility.yul\":3510:3531   */\n      tag_161\n      jump\t// in\n    tag_160:\n        /* \"#utility.yul\":3505:3508   */\n      dup3\n        /* \"#utility.yul\":3498:3532   */\n      mstore\n        /* \"#utility.yul\":3488:3538   */\n      pop\n      pop\n      jump\t// out\n        /* \"#utility.yul\":3544:3662   */\n    tag_162:\n        /* \"#utility.yul\":3631:3655   */\n      tag_164\n        /* \"#utility.yul\":3649:3654   */\n      dup2\n        /* \"#utility.yul\":3631:3655   */\n      tag_165\n      jump\t// in\n    tag_164:\n        /* \"#utility.yul\":3626:3629   */\n      dup3\n        /* \"#utility.yul\":3619:3656   */\n      mstore\n        /* \"#utility.yul\":3609:3662   */\n      pop\n      pop\n      jump\t// out\n        /* \"#utility.yul\":3668:4032   */\n    tag_166:\n        /* \"#utility.yul\":3756:3759   */\n      0x00\n        /* \"#utility.yul\":3784:3823   */\n      tag_168\n        /* \"#utility.yul\":3817:3822   */\n      dup3\n        /* \"#utility.yul\":3784:3823   */\n      tag_169\n      jump\t// in\n    tag_168:\n        /* \"#utility.yul\":3839:3910   */\n      tag_170\n        /* \"#utility.yul\":3903:3909   */\n      dup2\n        /* \"#utility.yul\":3898:3901   */\n      dup6\n        /* \"#utility.yul\":3839:3910   */\n      tag_171\n      jump\t// in\n    tag_170:\n        /* \"#utility.yul\":3832:3910   */\n      swap4\n      pop\n        /* \"#utility.yul\":3919:3971   */\n      tag_172\n        /* \"#utility.yul\":3964:3970   */\n      dup2\n        /* \"#utility.yul\":3959:3962   */\n      dup6\n        /* \"#utility.yul\":3952:3956   */\n      0x20\n        /* \"#utility.yul\":3945:3950   */\n      dup7\n        /* \"#utility.yul\":3941:3957   */\n      add\n        /* \"#utility.yul\":3919:3971   */\n      tag_173\n      jump\t// in\n    tag_172:\n        /* \"#utility.yul\":3996:4025   */\n      tag_174\n        /* \"#utility.yul\":4018:4024   */\n      dup2\n        /* \"#utility.yul\":3996:4025   */\n      tag_175\n      jump\t// in\n    tag_174:\n        /* \"#utility.yul\":3991:3994   */\n      dup5\n        /* \"#utility.yul\":3987:4026   */\n      add\n        /* \"#utility.yul\":3980:4026   */\n      swap2\n      pop\n        /* \"#utility.yul\":3760:4032   */\n      pop\n      swap3\n      swap2\n      pop\n      pop\n      jump\t// out\n        /* \"#utility.yul\":4038:4404   */\n    tag_176:\n        /* \"#utility.yul\":4180:4183   */\n      0x00\n        /* \"#utility.yul\":4201:4268   */\n      tag_178\n        /* \"#utility.yul\":4265:4267   */\n      0x0b\n        /* \"#utility.yul\":4260:4263   */\n      dup4\n        /* \"#utility.yul\":4201:4268   */\n      tag_171\n      jump\t// in\n    tag_178:\n        /* \"#utility.yul\":4194:4268   */\n      swap2\n      pop\n        /* \"#utility.yul\":4277:4370   */\n      tag_179\n        /* \"#utility.yul\":4366:4369   */\n      dup3\n        /* \"#utility.yul\":4277:4370   */\n      tag_180\n      jump\t// in\n    tag_179:\n        /* \"#utility.yul\":4395:4397   */\n      0x20\n        /* \"#utility.yul\":4390:4393   */\n      dup3\n        /* \"#utility.yul\":4386:4398   */\n      add\n        /* \"#utility.yul\":4379:4398   */\n      swap1\n      pop\n        /* \"#utility.yul\":4184:4404   */\n      swap2\n      swap1\n      pop\n      jump\t// out\n        /* \"#utility.yul\":4410:4522   */\n    tag_181:\n        /* \"#utility.yul\":4493:4515   */\n      tag_183\n        /* \"#utility.yul\":4509:4514   */\n      dup2\n        /* \"#utility.yul\":4493:4515   */\n      tag_184\n      jump\t// in\n    tag_183:\n        /* \"#utility.yul\":4488:4491   */\n      dup3\n        /* \"#utility.yul\":4481:4516   */\n      mstore\n        /* \"#utility.yul\":4471:4522   */\n      pop\n      pop\n      jump\t// out\n        /* \"#utility.yul\":4528:4750   */\n    tag_32:\n        /* \"#utility.yul\":4621:4625   */\n      0x00\n        /* \"#utility.yul\":4659:4661   */\n      0x20\n        /* \"#utility.yul\":4648:4657   */\n      dup3\n        /* \"#utility.yul\":4644:4662   */\n      add\n        /* \"#utility.yul\":4636:4662   */\n      swap1\n      pop\n        /* \"#utility.yul\":4672:4743   */\n      tag_186\n        /* \"#utility.yul\":4740:4741   */\n      0x00\n        /* \"#utility.yul\":4729:4738   */\n      dup4\n        /* \"#utility.yul\":4725:4742   */\n      add\n        /* \"#utility.yul\":4716:4722   */\n      dup5\n        /* \"#utility.yul\":4672:4743   */\n      tag_154\n      jump\t// in\n    tag_186:\n        /* \"#utility.yul\":4626:4750   */\n      swap3\n      swap2\n      pop\n      pop\n      jump\t// out\n        /* \"#utility.yul\":4756:4966   */\n    tag_37:\n        /* \"#utility.yul\":4843:4847   */\n      0x00\n        /* \"#utility.yul\":4881:4883   */\n      0x20\n        /* \"#utility.yul\":4870:4879   */\n      dup3\n        /* \"#utility.yul\":4866:4884   */\n      add\n        /* \"#utility.yul\":4858:4884   */\n      swap1\n      pop\n        /* \"#utility.yul\":4894:4959   */\n      tag_188\n        /* \"#utility.yul\":4956:4957   */\n      0x00\n        /* \"#utility.yul\":4945:4954   */\n      dup4\n        /* \"#utility.yul\":4941:4958   */\n      add\n        /* \"#utility.yul\":4932:4938   */\n      dup5\n        /* \"#utility.yul\":4894:4959   */\n      tag_158\n      jump\t// in\n    tag_188:\n        /* \"#utility.yul\":4848:4966   */\n      swap3\n      swap2\n      pop\n      pop\n      jump\t// out\n        /* \"#utility.yul\":4972:5194   */\n    tag_22:\n        /* \"#utility.yul\":5065:5069   */\n      0x00\n        /* \"#utility.yul\":5103:5105   */\n      0x20\n        /* \"#utility.yul\":5092:5101   */\n      dup3\n        /* \"#utility.yul\":5088:5106   */\n      add\n        /* \"#utility.yul\":5080:5106   */\n      swap1\n      pop\n        /* \"#utility.yul\":5116:5187   */\n      tag_190\n        /* \"#utility.yul\":5184:5185   */\n      0x00\n        /* \"#utility.yul\":5173:5182   */\n      dup4\n        /* \"#utility.yul\":5169:5186   */\n      add\n        /* \"#utility.yul\":5160:5166   */\n      dup5\n        /* \"#utility.yul\":5116:5187   */\n      tag_162\n      jump\t// in\n    tag_190:\n        /* \"#utility.yul\":5070:5194   */\n      swap3\n      swap2\n      pop\n      pop\n      jump\t// out\n        /* \"#utility.yul\":5200:6331   */\n    tag_28:\n        /* \"#utility.yul\":5509:5513   */\n      0x00\n        /* \"#utility.yul\":5547:5550   */\n      0xc0\n        /* \"#utility.yul\":5536:5545   */\n      dup3\n        /* \"#utility.yul\":5532:5551   */\n      add\n        /* \"#utility.yul\":5524:5551   */\n      swap1\n      pop\n        /* \"#utility.yul\":5561:5632   */\n      tag_192\n        /* \"#utility.yul\":5629:5630   */\n      0x00\n        /* \"#utility.yul\":5618:5627   */\n      dup4\n        /* \"#utility.yul\":5614:5631   */\n      add\n        /* \"#utility.yul\":5605:5611   */\n      dup10\n        /* \"#utility.yul\":5561:5632   */\n      tag_162\n      jump\t// in\n    tag_192:\n        /* \"#utility.yul\":5679:5688   */\n      dup2\n        /* \"#utility.yul\":5673:5677   */\n      dup2\n        /* \"#utility.yul\":5669:5689   */\n      sub\n        /* \"#utility.yul\":5664:5666   */\n      0x20\n        /* \"#utility.yul\":5653:5662   */\n      dup4\n        /* \"#utility.yul\":5649:5667   */\n      add\n        /* \"#utility.yul\":5642:5690   */\n      mstore\n        /* \"#utility.yul\":5707:5785   */\n      tag_193\n        /* \"#utility.yul\":5780:5784   */\n      dup2\n        /* \"#utility.yul\":5771:5777   */\n      dup9\n        /* \"#utility.yul\":5707:5785   */\n      tag_166\n      jump\t// in\n    tag_193:\n        /* \"#utility.yul\":5699:5785   */\n      swap1\n      pop\n        /* \"#utility.yul\":5832:5841   */\n      dup2\n        /* \"#utility.yul\":5826:5830   */\n      dup2\n        /* \"#utility.yul\":5822:5842   */\n      sub\n        /* \"#utility.yul\":5817:5819   */\n      0x40\n        /* \"#utility.yul\":5806:5815   */\n      dup4\n        /* \"#utility.yul\":5802:5820   */\n      add\n        /* \"#utility.yul\":5795:5843   */\n      mstore\n        /* \"#utility.yul\":5860:5938   */\n      tag_194\n        /* \"#utility.yul\":5933:5937   */\n      dup2\n        /* \"#utility.yul\":5924:5930   */\n      dup8\n        /* \"#utility.yul\":5860:5938   */\n      tag_166\n      jump\t// in\n    tag_194:\n        /* \"#utility.yul\":5852:5938   */\n      swap1\n      pop\n        /* \"#utility.yul\":5985:5994   */\n      dup2\n        /* \"#utility.yul\":5979:5983   */\n      dup2\n        /* \"#utility.yul\":5975:5995   */\n      sub\n        /* \"#utility.yul\":5970:5972   */\n      0x60\n        /* \"#utility.yul\":5959:5968   */\n      dup4\n        /* \"#utility.yul\":5955:5973   */\n      add\n        /* \"#utility.yul\":5948:5996   */\n      mstore\n        /* \"#utility.yul\":6013:6091   */\n      tag_195\n        /* \"#utility.yul\":6086:6090   */\n      dup2\n        /* \"#utility.yul\":6077:6083   */\n      dup7\n        /* \"#utility.yul\":6013:6091   */\n      tag_166\n      jump\t// in\n    tag_195:\n        /* \"#utility.yul\":6005:6091   */\n      swap1\n      pop\n        /* \"#utility.yul\":6139:6148   */\n      dup2\n        /* \"#utility.yul\":6133:6137   */\n      dup2\n        /* \"#utility.yul\":6129:6149   */\n      sub\n        /* \"#utility.yul\":6123:6126   */\n      0x80\n        /* \"#utility.yul\":6112:6121   */\n      dup4\n        /* \"#utility.yul\":6108:6127   */\n      add\n        /* \"#utility.yul\":6101:6150   */\n      mstore\n        /* \"#utility.yul\":6167:6245   */\n      tag_196\n        /* \"#utility.yul\":6240:6244   */\n      dup2\n        /* \"#utility.yul\":6231:6237   */\n      dup6\n        /* \"#utility.yul\":6167:6245   */\n      tag_166\n      jump\t// in\n    tag_196:\n        /* \"#utility.yul\":6159:6245   */\n      swap1\n      pop\n        /* \"#utility.yul\":6255:6324   */\n      tag_197\n        /* \"#utility.yul\":6319:6322   */\n      0xa0\n        /* \"#utility.yul\":6308:6317   */\n      dup4\n        /* \"#utility.yul\":6304:6323   */\n      add\n        /* \"#utility.yul\":6295:6301   */\n      dup5\n        /* \"#utility.yul\":6255:6324   */\n      tag_181\n      jump\t// in\n    tag_197:\n        /* \"#utility.yul\":5514:6331   */\n      swap8\n      swap7\n      pop\n      pop\n      pop\n      pop\n      pop\n      pop\n      pop\n      jump\t// out\n        /* \"#utility.yul\":6337:6650   */\n    tag_16:\n        /* \"#utility.yul\":6450:6454   */\n      0x00\n        /* \"#utility.yul\":6488:6490   */\n      0x20\n        /* \"#utility.yul\":6477:6486   */\n      dup3\n        /* \"#utility.yul\":6473:6491   */\n      add\n        /* \"#utility.yul\":6465:6491   */\n      swap1\n      pop\n        /* \"#utility.yul\":6537:6546   */\n      dup2\n        /* \"#utility.yul\":6531:6535   */\n      dup2\n        /* \"#utility.yul\":6527:6547   */\n      sub\n        /* \"#utility.yul\":6523:6524   */\n      0x00\n        /* \"#utility.yul\":6512:6521   */\n      dup4\n        /* \"#utility.yul\":6508:6525   */\n      add\n        /* \"#utility.yul\":6501:6548   */\n      mstore\n        /* \"#utility.yul\":6565:6643   */\n      tag_199\n        /* \"#utility.yul\":6638:6642   */\n      dup2\n        /* \"#utility.yul\":6629:6635   */\n      dup5\n        /* \"#utility.yul\":6565:6643   */\n      tag_166\n      jump\t// in\n    tag_199:\n        /* \"#utility.yul\":6557:6643   */\n      swap1\n      pop\n        /* \"#utility.yul\":6455:6650   */\n      swap3\n      swap2\n      pop\n      pop\n      jump\t// out\n        /* \"#utility.yul\":6656:7075   */\n    tag_49:\n        /* \"#utility.yul\":6822:6826   */\n      0x00\n        /* \"#utility.yul\":6860:6862   */\n      0x20\n        /* \"#utility.yul\":6849:6858   */\n      dup3\n        /* \"#utility.yul\":6845:6863   */\n      add\n        /* \"#utility.yul\":6837:6863   */\n      swap1\n      pop\n        /* \"#utility.yul\":6909:6918   */\n      dup2\n        /* \"#utility.yul\":6903:6907   */\n      dup2\n        /* \"#utility.yul\":6899:6919   */\n      sub\n        /* \"#utility.yul\":6895:6896   */\n      0x00\n        /* \"#utility.yul\":6884:6893   */\n      dup4\n        /* \"#utility.yul\":6880:6897   */\n      add\n        /* \"#utility.yul\":6873:6920   */\n      mstore\n        /* \"#utility.yul\":6937:7068   */\n      tag_201\n        /* \"#utility.yul\":7063:7067   */\n      dup2\n        /* \"#utility.yul\":6937:7068   */\n      tag_176\n      jump\t// in\n    tag_201:\n        /* \"#utility.yul\":6929:7068   */\n      swap1\n      pop\n        /* \"#utility.yul\":6827:7075   */\n      swap2\n      swap1\n      pop\n      jump\t// out\n        /* \"#utility.yul\":7081:7210   */\n    tag_116:\n        /* \"#utility.yul\":7115:7121   */\n      0x00\n        /* \"#utility.yul\":7142:7162   */\n      tag_203\n      tag_204\n      jump\t// in\n    tag_203:\n        /* \"#utility.yul\":7132:7162   */\n      swap1\n      pop\n        /* \"#utility.yul\":7171:7204   */\n      tag_205\n        /* \"#utility.yul\":7199:7203   */\n      dup3\n        /* \"#utility.yul\":7191:7197   */\n      dup3\n        /* \"#utility.yul\":7171:7204   */\n      tag_206\n      jump\t// in\n    tag_205:\n        /* \"#utility.yul\":7122:7210   */\n      swap2\n      swap1\n      pop\n      jump\t// out\n        /* \"#utility.yul\":7216:7291   */\n    tag_204:\n        /* \"#utility.yul\":7249:7255   */\n      0x00\n        /* \"#utility.yul\":7282:7284   */\n      0x40\n        /* \"#utility.yul\":7276:7285   */\n      mload\n        /* \"#utility.yul\":7266:7285   */\n      swap1\n      pop\n        /* \"#utility.yul\":7256:7291   */\n      swap1\n      jump\t// out\n        /* \"#utility.yul\":7297:7605   */\n    tag_115:\n        /* \"#utility.yul\":7359:7363   */\n      0x00\n        /* \"#utility.yul\":7449:7467   */\n      0xffffffffffffffff\n        /* \"#utility.yul\":7441:7447   */\n      dup3\n        /* \"#utility.yul\":7438:7468   */\n      gt\n        /* \"#utility.yul\":7435:7437   */\n      iszero\n      tag_209\n      jumpi\n        /* \"#utility.yul\":7471:7489   */\n      tag_210\n      tag_211\n      jump\t// in\n    tag_210:\n        /* \"#utility.yul\":7435:7437   */\n    tag_209:\n        /* \"#utility.yul\":7509:7538   */\n      tag_212\n        /* \"#utility.yul\":7531:7537   */\n      dup3\n        /* \"#utility.yul\":7509:7538   */\n      tag_175\n      jump\t// in\n    tag_212:\n        /* \"#utility.yul\":7501:7538   */\n      swap1\n      pop\n        /* \"#utility.yul\":7593:7597   */\n      0x20\n        /* \"#utility.yul\":7587:7591   */\n      dup2\n        /* \"#utility.yul\":7583:7598   */\n      add\n        /* \"#utility.yul\":7575:7598   */\n      swap1\n      pop\n        /* \"#utility.yul\":7364:7605   */\n      swap2\n      swap1\n      pop\n      jump\t// out\n        /* \"#utility.yul\":7611:7710   */\n    tag_169:\n        /* \"#utility.yul\":7663:7669   */\n      0x00\n        /* \"#utility.yul\":7697:7702   */\n      dup2\n        /* \"#utility.yul\":7691:7703   */\n      mload\n        /* \"#utility.yul\":7681:7703   */\n      swap1\n      pop\n        /* \"#utility.yul\":7670:7710   */\n      swap2\n      swap1\n      pop\n      jump\t// out\n        /* \"#utility.yul\":7716:7885   */\n    tag_171:\n        /* \"#utility.yul\":7800:7811   */\n      0x00\n        /* \"#utility.yul\":7834:7840   */\n      dup3\n        /* \"#utility.yul\":7829:7832   */\n      dup3\n        /* \"#utility.yul\":7822:7841   */\n      mstore\n        /* \"#utility.yul\":7874:7878   */\n      0x20\n        /* \"#utility.yul\":7869:7872   */\n      dup3\n        /* \"#utility.yul\":7865:7879   */\n      add\n        /* \"#utility.yul\":7850:7879   */\n      swap1\n      pop\n        /* \"#utility.yul\":7812:7885   */\n      swap3\n      swap2\n      pop\n      pop\n      jump\t// out\n        /* \"#utility.yul\":7891:7987   */\n    tag_157:\n        /* \"#utility.yul\":7928:7935   */\n      0x00\n        /* \"#utility.yul\":7957:7981   */\n      tag_216\n        /* \"#utility.yul\":7975:7980   */\n      dup3\n        /* \"#utility.yul\":7957:7981   */\n      tag_217\n      jump\t// in\n    tag_216:\n        /* \"#utility.yul\":7946:7981   */\n      swap1\n      pop\n        /* \"#utility.yul\":7936:7987   */\n      swap2\n      swap1\n      pop\n      jump\t// out\n        /* \"#utility.yul\":7993:8083   */\n    tag_161:\n        /* \"#utility.yul\":8027:8034   */\n      0x00\n        /* \"#utility.yul\":8070:8075   */\n      dup2\n        /* \"#utility.yul\":8063:8076   */\n      iszero\n        /* \"#utility.yul\":8056:8077   */\n      iszero\n        /* \"#utility.yul\":8045:8077   */\n      swap1\n      pop\n        /* \"#utility.yul\":8035:8083   */\n      swap2\n      swap1\n      pop\n      jump\t// out\n        /* \"#utility.yul\":8089:8166   */\n    tag_165:\n        /* \"#utility.yul\":8126:8133   */\n      0x00\n        /* \"#utility.yul\":8155:8160   */\n      dup2\n        /* \"#utility.yul\":8144:8160   */\n      swap1\n      pop\n        /* \"#utility.yul\":8134:8166   */\n      swap2\n      swap1\n      pop\n      jump\t// out\n        /* \"#utility.yul\":8172:8298   */\n    tag_217:\n        /* \"#utility.yul\":8209:8216   */\n      0x00\n        /* \"#utility.yul\":8249:8291   */\n      0xffffffffffffffffffffffffffffffffffffffff\n        /* \"#utility.yul\":8242:8247   */\n      dup3\n        /* \"#utility.yul\":8238:8292   */\n      and\n        /* \"#utility.yul\":8227:8292   */\n      swap1\n      pop\n        /* \"#utility.yul\":8217:8298   */\n      swap2\n      swap1\n      pop\n      jump\t// out\n        /* \"#utility.yul\":8304:8381   */\n    tag_221:\n        /* \"#utility.yul\":8341:8348   */\n      0x00\n        /* \"#utility.yul\":8370:8375   */\n      dup2\n        /* \"#utility.yul\":8359:8375   */\n      swap1\n      pop\n        /* \"#utility.yul\":8349:8381   */\n      swap2\n      swap1\n      pop\n      jump\t// out\n        /* \"#utility.yul\":8387:8473   */\n    tag_184:\n        /* \"#utility.yul\":8422:8429   */\n      0x00\n        /* \"#utility.yul\":8462:8466   */\n      0xff\n        /* \"#utility.yul\":8455:8460   */\n      dup3\n        /* \"#utility.yul\":8451:8467   */\n      and\n        /* \"#utility.yul\":8440:8467   */\n      swap1\n      pop\n        /* \"#utility.yul\":8430:8473   */\n      swap2\n      swap1\n      pop\n      jump\t// out\n        /* \"#utility.yul\":8479:8633   */\n    tag_119:\n        /* \"#utility.yul\":8563:8569   */\n      dup3\n        /* \"#utility.yul\":8558:8561   */\n      dup2\n        /* \"#utility.yul\":8553:8556   */\n      dup4\n        /* \"#utility.yul\":8540:8570   */\n      calldatacopy\n        /* \"#utility.yul\":8625:8626   */\n      0x00\n        /* \"#utility.yul\":8616:8622   */\n      dup4\n        /* \"#utility.yul\":8611:8614   */\n      dup4\n        /* \"#utility.yul\":8607:8623   */\n      add\n        /* \"#utility.yul\":8600:8627   */\n      mstore\n        /* \"#utility.yul\":8530:8633   */\n      pop\n      pop\n      pop\n      jump\t// out\n        /* \"#utility.yul\":8639:8946   */\n    tag_173:\n        /* \"#utility.yul\":8707:8708   */\n      0x00\n        /* \"#utility.yul\":8717:8830   */\n    tag_226:\n        /* \"#utility.yul\":8731:8737   */\n      dup4\n        /* \"#utility.yul\":8728:8729   */\n      dup2\n        /* \"#utility.yul\":8725:8738   */\n      lt\n        /* \"#utility.yul\":8717:8830   */\n      iszero\n      tag_228\n      jumpi\n        /* \"#utility.yul\":8816:8817   */\n      dup1\n        /* \"#utility.yul\":8811:8814   */\n      dup3\n        /* \"#utility.yul\":8807:8818   */\n      add\n        /* \"#utility.yul\":8801:8819   */\n      mload\n        /* \"#utility.yul\":8797:8798   */\n      dup2\n        /* \"#utility.yul\":8792:8795   */\n      dup5\n        /* \"#utility.yul\":8788:8799   */\n      add\n        /* \"#utility.yul\":8781:8820   */\n      mstore\n        /* \"#utility.yul\":8753:8755   */\n      0x20\n        /* \"#utility.yul\":8750:8751   */\n      dup2\n        /* \"#utility.yul\":8746:8756   */\n      add\n        /* \"#utility.yul\":8741:8756   */\n      swap1\n      pop\n        /* \"#utility.yul\":8717:8830   */\n      jump(tag_226)\n    tag_228:\n        /* \"#utility.yul\":8848:8854   */\n      dup4\n        /* \"#utility.yul\":8845:8846   */\n      dup2\n        /* \"#utility.yul\":8842:8855   */\n      gt\n        /* \"#utility.yul\":8839:8841   */\n      iszero\n      tag_229\n      jumpi\n        /* \"#utility.yul\":8928:8929   */\n      0x00\n        /* \"#utility.yul\":8919:8925   */\n      dup5\n        /* \"#utility.yul\":8914:8917   */\n      dup5\n        /* \"#utility.yul\":8910:8926   */\n      add\n        /* \"#utility.yul\":8903:8930   */\n      mstore\n        /* \"#utility.yul\":8839:8841   */\n    tag_229:\n        /* \"#utility.yul\":8688:8946   */\n      pop\n      pop\n      pop\n      pop\n      jump\t// out\n        /* \"#utility.yul\":8952:9272   */\n    tag_58:\n        /* \"#utility.yul\":8996:9002   */\n      0x00\n        /* \"#utility.yul\":9033:9034   */\n      0x02\n        /* \"#utility.yul\":9027:9031   */\n      dup3\n        /* \"#utility.yul\":9023:9035   */\n      div\n        /* \"#utility.yul\":9013:9035   */\n      swap1\n      pop\n        /* \"#utility.yul\":9080:9081   */\n      0x01\n        /* \"#utility.yul\":9074:9078   */\n      dup3\n        /* \"#utility.yul\":9070:9082   */\n      and\n        /* \"#utility.yul\":9101:9119   */\n      dup1\n        /* \"#utility.yul\":9091:9093   */\n      tag_231\n      jumpi\n        /* \"#utility.yul\":9157:9161   */\n      0x7f\n        /* \"#utility.yul\":9149:9155   */\n      dup3\n        /* \"#utility.yul\":9145:9162   */\n      and\n        /* \"#utility.yul\":9135:9162   */\n      swap2\n      pop\n        /* \"#utility.yul\":9091:9093   */\n    tag_231:\n        /* \"#utility.yul\":9219:9221   */\n      0x20\n        /* \"#utility.yul\":9211:9217   */\n      dup3\n        /* \"#utility.yul\":9208:9222   */\n      lt\n        /* \"#utility.yul\":9188:9206   */\n      dup2\n        /* \"#utility.yul\":9185:9223   */\n      eq\n        /* \"#utility.yul\":9182:9184   */\n      iszero\n      tag_232\n      jumpi\n        /* \"#utility.yul\":9238:9256   */\n      tag_233\n      tag_234\n      jump\t// in\n    tag_233:\n        /* \"#utility.yul\":9182:9184   */\n    tag_232:\n        /* \"#utility.yul\":9003:9272   */\n      pop\n      swap2\n      swap1\n      pop\n      jump\t// out\n        /* \"#utility.yul\":9278:9559   */\n    tag_206:\n        /* \"#utility.yul\":9361:9388   */\n      tag_236\n        /* \"#utility.yul\":9383:9387   */\n      dup3\n        /* \"#utility.yul\":9361:9388   */\n      tag_175\n      jump\t// in\n    tag_236:\n        /* \"#utility.yul\":9353:9359   */\n      dup2\n        /* \"#utility.yul\":9349:9389   */\n      add\n        /* \"#utility.yul\":9491:9497   */\n      dup2\n        /* \"#utility.yul\":9479:9489   */\n      dup2\n        /* \"#utility.yul\":9476:9498   */\n      lt\n        /* \"#utility.yul\":9455:9473   */\n      0xffffffffffffffff\n        /* \"#utility.yul\":9443:9453   */\n      dup3\n        /* \"#utility.yul\":9440:9474   */\n      gt\n        /* \"#utility.yul\":9437:9499   */\n      or\n        /* \"#utility.yul\":9434:9436   */\n      iszero\n      tag_237\n      jumpi\n        /* \"#utility.yul\":9502:9520   */\n      tag_238\n      tag_211\n      jump\t// in\n    tag_238:\n        /* \"#utility.yul\":9434:9436   */\n    tag_237:\n        /* \"#utility.yul\":9542:9552   */\n      dup1\n        /* \"#utility.yul\":9538:9540   */\n      0x40\n        /* \"#utility.yul\":9531:9553   */\n      mstore\n        /* \"#utility.yul\":9321:9559   */\n      pop\n      pop\n      pop\n      jump\t// out\n        /* \"#utility.yul\":9565:9745   */\n    tag_234:\n        /* \"#utility.yul\":9613:9690   */\n      0x4e487b7100000000000000000000000000000000000000000000000000000000\n        /* \"#utility.yul\":9610:9611   */\n      0x00\n        /* \"#utility.yul\":9603:9691   */\n      mstore\n        /* \"#utility.yul\":9710:9714   */\n      0x22\n        /* \"#utility.yul\":9707:9708   */\n      0x04\n        /* \"#utility.yul\":9700:9715   */\n      mstore\n        /* \"#utility.yul\":9734:9738   */\n      0x24\n        /* \"#utility.yul\":9731:9732   */\n      0x00\n        /* \"#utility.yul\":9724:9739   */\n      revert\n        /* \"#utility.yul\":9751:9931   */\n    tag_211:\n        /* \"#utility.yul\":9799:9876   */\n      0x4e487b7100000000000000000000000000000000000000000000000000000000\n        /* \"#utility.yul\":9796:9797   */\n      0x00\n        /* \"#utility.yul\":9789:9877   */\n      mstore\n        /* \"#utility.yul\":9896:9900   */\n      0x41\n        /* \"#utility.yul\":9893:9894   */\n      0x04\n        /* \"#utility.yul\":9886:9901   */\n      mstore\n        /* \"#utility.yul\":9920:9924   */\n      0x24\n        /* \"#utility.yul\":9917:9918   */\n      0x00\n        /* \"#utility.yul\":9910:9925   */\n      revert\n        /* \"#utility.yul\":9937:10039   */\n    tag_175:\n        /* \"#utility.yul\":9978:9984   */\n      0x00\n        /* \"#utility.yul\":10029:10031   */\n      0x1f\n        /* \"#utility.yul\":10025:10032   */\n      not\n        /* \"#utility.yul\":10020:10022   */\n      0x1f\n        /* \"#utility.yul\":10013:10018   */\n      dup4\n        /* \"#utility.yul\":10009:10023   */\n      add\n        /* \"#utility.yul\":10005:10033   */\n      and\n        /* \"#utility.yul\":9995:10033   */\n      swap1\n      pop\n        /* \"#utility.yul\":9985:10039   */\n      swap2\n      swap1\n      pop\n      jump\t// out\n        /* \"#utility.yul\":10045:10206   */\n    tag_180:\n        /* \"#utility.yul\":10185:10198   */\n      0x4e6f742061206f776e6572000000000000000000000000000000000000000000\n        /* \"#utility.yul\":10181:10182   */\n      0x00\n        /* \"#utility.yul\":10173:10179   */\n      dup3\n        /* \"#utility.yul\":10169:10183   */\n      add\n        /* \"#utility.yul\":10162:10199   */\n      mstore\n        /* \"#utility.yul\":10151:10206   */\n      pop\n      jump\t// out\n        /* \"#utility.yul\":10212:10334   */\n    tag_123:\n        /* \"#utility.yul\":10285:10309   */\n      tag_244\n        /* \"#utility.yul\":10303:10308   */\n      dup2\n        /* \"#utility.yul\":10285:10309   */\n      tag_165\n      jump\t// in\n    tag_244:\n        /* \"#utility.yul\":10278:10283   */\n      dup2\n        /* \"#utility.yul\":10275:10310   */\n      eq\n        /* \"#utility.yul\":10265:10267   */\n      tag_245\n      jumpi\n        /* \"#utility.yul\":10324:10325   */\n      0x00\n        /* \"#utility.yul\":10321:10322   */\n      dup1\n        /* \"#utility.yul\":10314:10326   */\n      revert\n        /* \"#utility.yul\":10265:10267   */\n    tag_245:\n        /* \"#utility.yul\":10255:10334   */\n      pop\n      jump\t// out\n        /* \"#utility.yul\":10340:10462   */\n    tag_131:\n        /* \"#utility.yul\":10413:10437   */\n      tag_247\n        /* \"#utility.yul\":10431:10436   */\n      dup2\n        /* \"#utility.yul\":10413:10437   */\n      tag_221\n      jump\t// in\n    tag_247:\n        /* \"#utility.yul\":10406:10411   */\n      dup2\n        /* \"#utility.yul\":10403:10438   */\n      eq\n        /* \"#utility.yul\":10393:10395   */\n      tag_248\n      jumpi\n        /* \"#utility.yul\":10452:10453   */\n      0x00\n        /* \"#utility.yul\":10449:10450   */\n      dup1\n        /* \"#utility.yul\":10442:10454   */\n      revert\n        /* \"#utility.yul\":10393:10395   */\n    tag_248:\n        /* \"#utility.yul\":10383:10462   */\n      pop\n      jump\t// out\n\n    auxdata: 0xa26469706673582212203072bea53274f88bff4b31706c7432ce4a4654c3d5b8bd95f2d62aa53f8c358864736f6c63430008040033\n}\n",
				"bytecode": {
					"linkReferences": {},
					"object": "608060405234801561001057600080fd5b50336000806101000a81548173ffffffffffffffffffffffffffffffffffffffff021916908373ffffffffffffffffffffffffffffffffffffffff160217905550610eed806100606000396000f3fe608060405234801561001057600080fd5b506004361061007d5760003560e01c80638da5cb5b1161005b5780638da5cb5b14610117578063d2e5aeee14610135578063d4e9a48114610165578063dbd575a2146101815761007d565b80631bd4fa4b14610082578063731941c8146100b257806376e897dc146100e2575b600080fd5b61009c6004803603810190610097919061097f565b6101b1565b6040516100a99190610c39565b60405180910390f35b6100cc60048036038101906100c79190610aaa565b6102b5565b6040516100d99190610ba1565b60405180910390f35b6100fc60048036038101906100f79190610956565b6102d9565b60405161010e96959493929190610bbc565b60405180910390f35b61011f610542565b60405161012c9190610b6b565b60405180910390f35b61014f600480360381019061014a9190610956565b610566565b60405161015c9190610b86565b60405180910390f35b61017f600480360381019061017a91906109d3565b6105a8565b005b61019b60048036038101906101969190610956565b610761565b6040516101a89190610c39565b60405180910390f35b6060338073ffffffffffffffffffffffffffffffffffffffff1660008054906101000a900473ffffffffffffffffffffffffffffffffffffffff1673ffffffffffffffffffffffffffffffffffffffff1614610242576040517f08c379a000000000000000000000000000000000000000000000000000000000815260040161023990610c5b565b60405180910390fd5b61024b84610566565b61025457600080fd5b8260026000868152602001908152602001600020600401908051906020019061027e929190610821565b50600280600086815260200190815260200160002060050160006101000a81548160ff021916908360ff1602179055505092915050565b600181815481106102c557600080fd5b906000526020600020016000915090505481565b600260205280600052604060002060009150905080600001549080600101805461030290610d8e565b80601f016020809104026020016040519081016040528092919081815260200182805461032e90610d8e565b801561037b5780601f106103505761010080835404028352916020019161037b565b820191906000526020600020905b81548152906001019060200180831161035e57829003601f168201915b50505050509080600201805461039090610d8e565b80601f01602080910402602001604051908101604052809291908181526020018280546103bc90610d8e565b80156104095780601f106103de57610100808354040283529160200191610409565b820191906000526020600020905b8154815290600101906020018083116103ec57829003601f168201915b50505050509080600301805461041e90610d8e565b80601f016020809104026020016040519081016040528092919081815260200182805461044a90610d8e565b80156104975780601f1061046c57610100808354040283529160200191610497565b820191906000526020600020905b81548152906001019060200180831161047a57829003601f168201915b5050505050908060040180546104ac90610d8e565b80601f01602080910402602001604051908101604052809291908181526020018280546104d890610d8e565b80156105255780601f106104fa57610100808354040283529160200191610525565b820191906000526020600020905b81548152906001019060200180831161050857829003601f168201915b5050505050908060050160009054906101000a900460ff16905086565b60008054906101000a900473ffffffffffffffffffffffffffffffffffffffff1681565b6000806002600084815260200190815260200160002060050160009054906101000a900460ff1660ff161461059e57600190506105a3565b600090505b919050565b338073ffffffffffffffffffffffffffffffffffffffff1660008054906101000a900473ffffffffffffffffffffffffffffffffffffffff1673ffffffffffffffffffffffffffffffffffffffff1614610637576040517f08c379a000000000000000000000000000000000000000000000000000000000815260040161062e90610c5b565b60405180910390fd5b61064086610566565b1561064a57600080fd5b6040518060c00160405280878152602001868152602001858152602001848152602001838152602001600160ff16815250600260008881526020019081526020016000206000820151816000015560208201518160010190805190602001906106b4929190610821565b5060408201518160020190805190602001906106d1929190610821565b5060608201518160030190805190602001906106ee929190610821565b50608082015181600401908051906020019061070b929190610821565b5060a08201518160050160006101000a81548160ff021916908360ff1602179055509050506001869080600181540180825580915050600190039060005260206000200160009091909190915055505050505050565b606061076c82610566565b61077557600080fd5b600060026000848152602001908152602001600020600401805461079890610d8e565b80601f01602080910402602001604051908101604052809291908181526020018280546107c490610d8e565b80156108115780601f106107e657610100808354040283529160200191610811565b820191906000526020600020905b8154815290600101906020018083116107f457829003601f168201915b5050505050905080915050919050565b82805461082d90610d8e565b90600052602060002090601f01602090048101928261084f5760008555610896565b82601f1061086857805160ff1916838001178555610896565b82800160010185558215610896579182015b8281111561089557825182559160200191906001019061087a565b5b5090506108a391906108a7565b5090565b5b808211156108c05760008160009055506001016108a8565b5090565b60006108d76108d284610ca0565b610c7b565b9050828152602081018484840111156108ef57600080fd5b6108fa848285610d4c565b509392505050565b60008135905061091181610e89565b92915050565b600082601f83011261092857600080fd5b81356109388482602086016108c4565b91505092915050565b60008135905061095081610ea0565b92915050565b60006020828403121561096857600080fd5b600061097684828501610902565b91505092915050565b6000806040838503121561099257600080fd5b60006109a085828601610902565b925050602083013567ffffffffffffffff8111156109bd57600080fd5b6109c985828601610917565b9150509250929050565b600080600080600060a086880312156109eb57600080fd5b60006109f988828901610902565b955050602086013567ffffffffffffffff811115610a1657600080fd5b610a2288828901610917565b945050604086013567ffffffffffffffff811115610a3f57600080fd5b610a4b88828901610917565b935050606086013567ffffffffffffffff811115610a6857600080fd5b610a7488828901610917565b925050608086013567ffffffffffffffff811115610a9157600080fd5b610a9d88828901610917565b9150509295509295909350565b600060208284031215610abc57600080fd5b6000610aca84828501610941565b91505092915050565b610adc81610ced565b82525050565b610aeb81610cff565b82525050565b610afa81610d0b565b82525050565b6000610b0b82610cd1565b610b158185610cdc565b9350610b25818560208601610d5b565b610b2e81610e4f565b840191505092915050565b6000610b46600b83610cdc565b9150610b5182610e60565b602082019050919050565b610b6581610d3f565b82525050565b6000602082019050610b806000830184610ad3565b92915050565b6000602082019050610b9b6000830184610ae2565b92915050565b6000602082019050610bb66000830184610af1565b92915050565b600060c082019050610bd16000830189610af1565b8181036020830152610be38188610b00565b90508181036040830152610bf78187610b00565b90508181036060830152610c0b8186610b00565b90508181036080830152610c1f8185610b00565b9050610c2e60a0830184610b5c565b979650505050505050565b60006020820190508181036000830152610c538184610b00565b905092915050565b60006020820190508181036000830152610c7481610b39565b9050919050565b6000610c85610c96565b9050610c918282610dc0565b919050565b6000604051905090565b600067ffffffffffffffff821115610cbb57610cba610e20565b5b610cc482610e4f565b9050602081019050919050565b600081519050919050565b600082825260208201905092915050565b6000610cf882610d15565b9050919050565b60008115159050919050565b6000819050919050565b600073ffffffffffffffffffffffffffffffffffffffff82169050919050565b6000819050919050565b600060ff82169050919050565b82818337600083830152505050565b60005b83811015610d79578082015181840152602081019050610d5e565b83811115610d88576000848401525b50505050565b60006002820490506001821680610da657607f821691505b60208210811415610dba57610db9610df1565b5b50919050565b610dc982610e4f565b810181811067ffffffffffffffff82111715610de857610de7610e20565b5b80604052505050565b7f4e487b7100000000000000000000000000000000000000000000000000000000600052602260045260246000fd5b7f4e487b7100000000000000000000000000000000000000000000000000000000600052604160045260246000fd5b6000601f19601f8301169050919050565b7f4e6f742061206f776e6572000000000000000000000000000000000000000000600082015250565b610e9281610d0b565b8114610e9d57600080fd5b50565b610ea981610d35565b8114610eb457600080fd5b5056fea26469706673582212203072bea53274f88bff4b31706c7432ce4a4654c3d5b8bd95f2d62aa53f8c358864736f6c63430008040033",
					"opcodes": "PUSH1 0x80 PUSH1 0x40 MSTORE CALLVALUE DUP1 ISZERO PUSH2 0x10 JUMPI PUSH1 0x0 DUP1 REVERT JUMPDEST POP CALLER PUSH1 0x0 DUP1 PUSH2 0x100 EXP DUP2 SLOAD DUP2 PUSH20 0xFFFFFFFFFFFFFFFFFFFFFFFFFFFFFFFFFFFFFFFF MUL NOT AND SWAP1 DUP4 PUSH20 0xFFFFFFFFFFFFFFFFFFFFFFFFFFFFFFFFFFFFFFFF AND MUL OR SWAP1 SSTORE POP PUSH2 0xEED DUP1 PUSH2 0x60 PUSH1 0x0 CODECOPY PUSH1 0x0 RETURN INVALID PUSH1 0x80 PUSH1 0x40 MSTORE CALLVALUE DUP1 ISZERO PUSH2 0x10 JUMPI PUSH1 0x0 DUP1 REVERT JUMPDEST POP PUSH1 0x4 CALLDATASIZE LT PUSH2 0x7D JUMPI PUSH1 0x0 CALLDATALOAD PUSH1 0xE0 SHR DUP1 PUSH4 0x8DA5CB5B GT PUSH2 0x5B JUMPI DUP1 PUSH4 0x8DA5CB5B EQ PUSH2 0x117 JUMPI DUP1 PUSH4 0xD2E5AEEE EQ PUSH2 0x135 JUMPI DUP1 PUSH4 0xD4E9A481 EQ PUSH2 0x165 JUMPI DUP1 PUSH4 0xDBD575A2 EQ PUSH2 0x181 JUMPI PUSH2 0x7D JUMP JUMPDEST DUP1 PUSH4 0x1BD4FA4B EQ PUSH2 0x82 JUMPI DUP1 PUSH4 0x731941C8 EQ PUSH2 0xB2 JUMPI DUP1 PUSH4 0x76E897DC EQ PUSH2 0xE2 JUMPI JUMPDEST PUSH1 0x0 DUP1 REVERT JUMPDEST PUSH2 0x9C PUSH1 0x4 DUP1 CALLDATASIZE SUB DUP2 ADD SWAP1 PUSH2 0x97 SWAP2 SWAP1 PUSH2 0x97F JUMP JUMPDEST PUSH2 0x1B1 JUMP JUMPDEST PUSH1 0x40 MLOAD PUSH2 0xA9 SWAP2 SWAP1 PUSH2 0xC39 JUMP JUMPDEST PUSH1 0x40 MLOAD DUP1 SWAP2 SUB SWAP1 RETURN JUMPDEST PUSH2 0xCC PUSH1 0x4 DUP1 CALLDATASIZE SUB DUP2 ADD SWAP1 PUSH2 0xC7 SWAP2 SWAP1 PUSH2 0xAAA JUMP JUMPDEST PUSH2 0x2B5 JUMP JUMPDEST PUSH1 0x40 MLOAD PUSH2 0xD9 SWAP2 SWAP1 PUSH2 0xBA1 JUMP JUMPDEST PUSH1 0x40 MLOAD DUP1 SWAP2 SUB SWAP1 RETURN JUMPDEST PUSH2 0xFC PUSH1 0x4 DUP1 CALLDATASIZE SUB DUP2 ADD SWAP1 PUSH2 0xF7 SWAP2 SWAP1 PUSH2 0x956 JUMP JUMPDEST PUSH2 0x2D9 JUMP JUMPDEST PUSH1 0x40 MLOAD PUSH2 0x10E SWAP7 SWAP6 SWAP5 SWAP4 SWAP3 SWAP2 SWAP1 PUSH2 0xBBC JUMP JUMPDEST PUSH1 0x40 MLOAD DUP1 SWAP2 SUB SWAP1 RETURN JUMPDEST PUSH2 0x11F PUSH2 0x542 JUMP JUMPDEST PUSH1 0x40 MLOAD PUSH2 0x12C SWAP2 SWAP1 PUSH2 0xB6B JUMP JUMPDEST PUSH1 0x40 MLOAD DUP1 SWAP2 SUB SWAP1 RETURN JUMPDEST PUSH2 0x14F PUSH1 0x4 DUP1 CALLDATASIZE SUB DUP2 ADD SWAP1 PUSH2 0x14A SWAP2 SWAP1 PUSH2 0x956 JUMP JUMPDEST PUSH2 0x566 JUMP JUMPDEST PUSH1 0x40 MLOAD PUSH2 0x15C SWAP2 SWAP1 PUSH2 0xB86 JUMP JUMPDEST PUSH1 0x40 MLOAD DUP1 SWAP2 SUB SWAP1 RETURN JUMPDEST PUSH2 0x17F PUSH1 0x4 DUP1 CALLDATASIZE SUB DUP2 ADD SWAP1 PUSH2 0x17A SWAP2 SWAP1 PUSH2 0x9D3 JUMP JUMPDEST PUSH2 0x5A8 JUMP JUMPDEST STOP JUMPDEST PUSH2 0x19B PUSH1 0x4 DUP1 CALLDATASIZE SUB DUP2 ADD SWAP1 PUSH2 0x196 SWAP2 SWAP1 PUSH2 0x956 JUMP JUMPDEST PUSH2 0x761 JUMP JUMPDEST PUSH1 0x40 MLOAD PUSH2 0x1A8 SWAP2 SWAP1 PUSH2 0xC39 JUMP JUMPDEST PUSH1 0x40 MLOAD DUP1 SWAP2 SUB SWAP1 RETURN JUMPDEST PUSH1 0x60 CALLER DUP1 PUSH20 0xFFFFFFFFFFFFFFFFFFFFFFFFFFFFFFFFFFFFFFFF AND PUSH1 0x0 DUP1 SLOAD SWAP1 PUSH2 0x100 EXP SWAP1 DIV PUSH20 0xFFFFFFFFFFFFFFFFFFFFFFFFFFFFFFFFFFFFFFFF AND PUSH20 0xFFFFFFFFFFFFFFFFFFFFFFFFFFFFFFFFFFFFFFFF AND EQ PUSH2 0x242 JUMPI PUSH1 0x40 MLOAD PUSH32 0x8C379A000000000000000000000000000000000000000000000000000000000 DUP2 MSTORE PUSH1 0x4 ADD PUSH2 0x239 SWAP1 PUSH2 0xC5B JUMP JUMPDEST PUSH1 0x40 MLOAD DUP1 SWAP2 SUB SWAP1 REVERT JUMPDEST PUSH2 0x24B DUP5 PUSH2 0x566 JUMP JUMPDEST PUSH2 0x254 JUMPI PUSH1 0x0 DUP1 REVERT JUMPDEST DUP3 PUSH1 0x2 PUSH1 0x0 DUP7 DUP2 MSTORE PUSH1 0x20 ADD SWAP1 DUP2 MSTORE PUSH1 0x20 ADD PUSH1 0x0 KECCAK256 PUSH1 0x4 ADD SWAP1 DUP1 MLOAD SWAP1 PUSH1 0x20 ADD SWAP1 PUSH2 0x27E SWAP3 SWAP2 SWAP1 PUSH2 0x821 JUMP JUMPDEST POP PUSH1 0x2 DUP1 PUSH1 0x0 DUP7 DUP2 MSTORE PUSH1 0x20 ADD SWAP1 DUP2 MSTORE PUSH1 0x20 ADD PUSH1 0x0 KECCAK256 PUSH1 0x5 ADD PUSH1 0x0 PUSH2 0x100 EXP DUP2 SLOAD DUP2 PUSH1 0xFF MUL NOT AND SWAP1 DUP4 PUSH1 0xFF AND MUL OR SWAP1 SSTORE POP POP SWAP3 SWAP2 POP POP JUMP JUMPDEST PUSH1 0x1 DUP2 DUP2 SLOAD DUP2 LT PUSH2 0x2C5 JUMPI PUSH1 0x0 DUP1 REVERT JUMPDEST SWAP1 PUSH1 0x0 MSTORE PUSH1 0x20 PUSH1 0x0 KECCAK256 ADD PUSH1 0x0 SWAP2 POP SWAP1 POP SLOAD DUP2 JUMP JUMPDEST PUSH1 0x2 PUSH1 0x20 MSTORE DUP1 PUSH1 0x0 MSTORE PUSH1 0x40 PUSH1 0x0 KECCAK256 PUSH1 0x0 SWAP2 POP SWAP1 POP DUP1 PUSH1 0x0 ADD SLOAD SWAP1 DUP1 PUSH1 0x1 ADD DUP1 SLOAD PUSH2 0x302 SWAP1 PUSH2 0xD8E JUMP JUMPDEST DUP1 PUSH1 0x1F ADD PUSH1 0x20 DUP1 SWAP2 DIV MUL PUSH1 0x20 ADD PUSH1 0x40 MLOAD SWAP1 DUP2 ADD PUSH1 0x40 MSTORE DUP1 SWAP3 SWAP2 SWAP1 DUP2 DUP2 MSTORE PUSH1 0x20 ADD DUP3 DUP1 SLOAD PUSH2 0x32E SWAP1 PUSH2 0xD8E JUMP JUMPDEST DUP1 ISZERO PUSH2 0x37B JUMPI DUP1 PUSH1 0x1F LT PUSH2 0x350 JUMPI PUSH2 0x100 DUP1 DUP4 SLOAD DIV MUL DUP4 MSTORE SWAP2 PUSH1 0x20 ADD SWAP2 PUSH2 0x37B JUMP JUMPDEST DUP3 ADD SWAP2 SWAP1 PUSH1 0x0 MSTORE PUSH1 0x20 PUSH1 0x0 KECCAK256 SWAP1 JUMPDEST DUP2 SLOAD DUP2 MSTORE SWAP1 PUSH1 0x1 ADD SWAP1 PUSH1 0x20 ADD DUP1 DUP4 GT PUSH2 0x35E JUMPI DUP3 SWAP1 SUB PUSH1 0x1F AND DUP3 ADD SWAP2 JUMPDEST POP POP POP POP POP SWAP1 DUP1 PUSH1 0x2 ADD DUP1 SLOAD PUSH2 0x390 SWAP1 PUSH2 0xD8E JUMP JUMPDEST DUP1 PUSH1 0x1F ADD PUSH1 0x20 DUP1 SWAP2 DIV MUL PUSH1 0x20 ADD PUSH1 0x40 MLOAD SWAP1 DUP2 ADD PUSH1 0x40 MSTORE DUP1 SWAP3 SWAP2 SWAP1 DUP2 DUP2 MSTORE PUSH1 0x20 ADD DUP3 DUP1 SLOAD PUSH2 0x3BC SWAP1 PUSH2 0xD8E JUMP JUMPDEST DUP1 ISZERO PUSH2 0x409 JUMPI DUP1 PUSH1 0x1F LT PUSH2 0x3DE JUMPI PUSH2 0x100 DUP1 DUP4 SLOAD DIV MUL DUP4 MSTORE SWAP2 PUSH1 0x20 ADD SWAP2 PUSH2 0x409 JUMP JUMPDEST DUP3 ADD SWAP2 SWAP1 PUSH1 0x0 MSTORE PUSH1 0x20 PUSH1 0x0 KECCAK256 SWAP1 JUMPDEST DUP2 SLOAD DUP2 MSTORE SWAP1 PUSH1 0x1 ADD SWAP1 PUSH1 0x20 ADD DUP1 DUP4 GT PUSH2 0x3EC JUMPI DUP3 SWAP1 SUB PUSH1 0x1F AND DUP3 ADD SWAP2 JUMPDEST POP POP POP POP POP SWAP1 DUP1 PUSH1 0x3 ADD DUP1 SLOAD PUSH2 0x41E SWAP1 PUSH2 0xD8E JUMP JUMPDEST DUP1 PUSH1 0x1F ADD PUSH1 0x20 DUP1 SWAP2 DIV MUL PUSH1 0x20 ADD PUSH1 0x40 MLOAD SWAP1 DUP2 ADD PUSH1 0x40 MSTORE DUP1 SWAP3 SWAP2 SWAP1 DUP2 DUP2 MSTORE PUSH1 0x20 ADD DUP3 DUP1 SLOAD PUSH2 0x44A SWAP1 PUSH2 0xD8E JUMP JUMPDEST DUP1 ISZERO PUSH2 0x497 JUMPI DUP1 PUSH1 0x1F LT PUSH2 0x46C JUMPI PUSH2 0x100 DUP1 DUP4 SLOAD DIV MUL DUP4 MSTORE SWAP2 PUSH1 0x20 ADD SWAP2 PUSH2 0x497 JUMP JUMPDEST DUP3 ADD SWAP2 SWAP1 PUSH1 0x0 MSTORE PUSH1 0x20 PUSH1 0x0 KECCAK256 SWAP1 JUMPDEST DUP2 SLOAD DUP2 MSTORE SWAP1 PUSH1 0x1 ADD SWAP1 PUSH1 0x20 ADD DUP1 DUP4 GT PUSH2 0x47A JUMPI DUP3 SWAP1 SUB PUSH1 0x1F AND DUP3 ADD SWAP2 JUMPDEST POP POP POP POP POP SWAP1 DUP1 PUSH1 0x4 ADD DUP1 SLOAD PUSH2 0x4AC SWAP1 PUSH2 0xD8E JUMP JUMPDEST DUP1 PUSH1 0x1F ADD PUSH1 0x20 DUP1 SWAP2 DIV MUL PUSH1 0x20 ADD PUSH1 0x40 MLOAD SWAP1 DUP2 ADD PUSH1 0x40 MSTORE DUP1 SWAP3 SWAP2 SWAP1 DUP2 DUP2 MSTORE PUSH1 0x20 ADD DUP3 DUP1 SLOAD PUSH2 0x4D8 SWAP1 PUSH2 0xD8E JUMP JUMPDEST DUP1 ISZERO PUSH2 0x525 JUMPI DUP1 PUSH1 0x1F LT PUSH2 0x4FA JUMPI PUSH2 0x100 DUP1 DUP4 SLOAD DIV MUL DUP4 MSTORE SWAP2 PUSH1 0x20 ADD SWAP2 PUSH2 0x525 JUMP JUMPDEST DUP3 ADD SWAP2 SWAP1 PUSH1 0x0 MSTORE PUSH1 0x20 PUSH1 0x0 KECCAK256 SWAP1 JUMPDEST DUP2 SLOAD DUP2 MSTORE SWAP1 PUSH1 0x1 ADD SWAP1 PUSH1 0x20 ADD DUP1 DUP4 GT PUSH2 0x508 JUMPI DUP3 SWAP1 SUB PUSH1 0x1F AND DUP3 ADD SWAP2 JUMPDEST POP POP POP POP POP SWAP1 DUP1 PUSH1 0x5 ADD PUSH1 0x0 SWAP1 SLOAD SWAP1 PUSH2 0x100 EXP SWAP1 DIV PUSH1 0xFF AND SWAP1 POP DUP7 JUMP JUMPDEST PUSH1 0x0 DUP1 SLOAD SWAP1 PUSH2 0x100 EXP SWAP1 DIV PUSH20 0xFFFFFFFFFFFFFFFFFFFFFFFFFFFFFFFFFFFFFFFF AND DUP2 JUMP JUMPDEST PUSH1 0x0 DUP1 PUSH1 0x2 PUSH1 0x0 DUP5 DUP2 MSTORE PUSH1 0x20 ADD SWAP1 DUP2 MSTORE PUSH1 0x20 ADD PUSH1 0x0 KECCAK256 PUSH1 0x5 ADD PUSH1 0x0 SWAP1 SLOAD SWAP1 PUSH2 0x100 EXP SWAP1 DIV PUSH1 0xFF AND PUSH1 0xFF AND EQ PUSH2 0x59E JUMPI PUSH1 0x1 SWAP1 POP PUSH2 0x5A3 JUMP JUMPDEST PUSH1 0x0 SWAP1 POP JUMPDEST SWAP2 SWAP1 POP JUMP JUMPDEST CALLER DUP1 PUSH20 0xFFFFFFFFFFFFFFFFFFFFFFFFFFFFFFFFFFFFFFFF AND PUSH1 0x0 DUP1 SLOAD SWAP1 PUSH2 0x100 EXP SWAP1 DIV PUSH20 0xFFFFFFFFFFFFFFFFFFFFFFFFFFFFFFFFFFFFFFFF AND PUSH20 0xFFFFFFFFFFFFFFFFFFFFFFFFFFFFFFFFFFFFFFFF AND EQ PUSH2 0x637 JUMPI PUSH1 0x40 MLOAD PUSH32 0x8C379A000000000000000000000000000000000000000000000000000000000 DUP2 MSTORE PUSH1 0x4 ADD PUSH2 0x62E SWAP1 PUSH2 0xC5B JUMP JUMPDEST PUSH1 0x40 MLOAD DUP1 SWAP2 SUB SWAP1 REVERT JUMPDEST PUSH2 0x640 DUP7 PUSH2 0x566 JUMP JUMPDEST ISZERO PUSH2 0x64A JUMPI PUSH1 0x0 DUP1 REVERT JUMPDEST PUSH1 0x40 MLOAD DUP1 PUSH1 0xC0 ADD PUSH1 0x40 MSTORE DUP1 DUP8 DUP2 MSTORE PUSH1 0x20 ADD DUP7 DUP2 MSTORE PUSH1 0x20 ADD DUP6 DUP2 MSTORE PUSH1 0x20 ADD DUP5 DUP2 MSTORE PUSH1 0x20 ADD DUP4 DUP2 MSTORE PUSH1 0x20 ADD PUSH1 0x1 PUSH1 0xFF AND DUP2 MSTORE POP PUSH1 0x2 PUSH1 0x0 DUP9 DUP2 MSTORE PUSH1 0x20 ADD SWAP1 DUP2 MSTORE PUSH1 0x20 ADD PUSH1 0x0 KECCAK256 PUSH1 0x0 DUP3 ADD MLOAD DUP2 PUSH1 0x0 ADD SSTORE PUSH1 0x20 DUP3 ADD MLOAD DUP2 PUSH1 0x1 ADD SWAP1 DUP1 MLOAD SWAP1 PUSH1 0x20 ADD SWAP1 PUSH2 0x6B4 SWAP3 SWAP2 SWAP1 PUSH2 0x821 JUMP JUMPDEST POP PUSH1 0x40 DUP3 ADD MLOAD DUP2 PUSH1 0x2 ADD SWAP1 DUP1 MLOAD SWAP1 PUSH1 0x20 ADD SWAP1 PUSH2 0x6D1 SWAP3 SWAP2 SWAP1 PUSH2 0x821 JUMP JUMPDEST POP PUSH1 0x60 DUP3 ADD MLOAD DUP2 PUSH1 0x3 ADD SWAP1 DUP1 MLOAD SWAP1 PUSH1 0x20 ADD SWAP1 PUSH2 0x6EE SWAP3 SWAP2 SWAP1 PUSH2 0x821 JUMP JUMPDEST POP PUSH1 0x80 DUP3 ADD MLOAD DUP2 PUSH1 0x4 ADD SWAP1 DUP1 MLOAD SWAP1 PUSH1 0x20 ADD SWAP1 PUSH2 0x70B SWAP3 SWAP2 SWAP1 PUSH2 0x821 JUMP JUMPDEST POP PUSH1 0xA0 DUP3 ADD MLOAD DUP2 PUSH1 0x5 ADD PUSH1 0x0 PUSH2 0x100 EXP DUP2 SLOAD DUP2 PUSH1 0xFF MUL NOT AND SWAP1 DUP4 PUSH1 0xFF AND MUL OR SWAP1 SSTORE POP SWAP1 POP POP PUSH1 0x1 DUP7 SWAP1 DUP1 PUSH1 0x1 DUP2 SLOAD ADD DUP1 DUP3 SSTORE DUP1 SWAP2 POP POP PUSH1 0x1 SWAP1 SUB SWAP1 PUSH1 0x0 MSTORE PUSH1 0x20 PUSH1 0x0 KECCAK256 ADD PUSH1 0x0 SWAP1 SWAP2 SWAP1 SWAP2 SWAP1 SWAP2 POP SSTORE POP POP POP POP POP POP JUMP JUMPDEST PUSH1 0x60 PUSH2 0x76C DUP3 PUSH2 0x566 JUMP JUMPDEST PUSH2 0x775 JUMPI PUSH1 0x0 DUP1 REVERT JUMPDEST PUSH1 0x0 PUSH1 0x2 PUSH1 0x0 DUP5 DUP2 MSTORE PUSH1 0x20 ADD SWAP1 DUP2 MSTORE PUSH1 0x20 ADD PUSH1 0x0 KECCAK256 PUSH1 0x4 ADD DUP1 SLOAD PUSH2 0x798 SWAP1 PUSH2 0xD8E JUMP JUMPDEST DUP1 PUSH1 0x1F ADD PUSH1 0x20 DUP1 SWAP2 DIV MUL PUSH1 0x20 ADD PUSH1 0x40 MLOAD SWAP1 DUP2 ADD PUSH1 0x40 MSTORE DUP1 SWAP3 SWAP2 SWAP1 DUP2 DUP2 MSTORE PUSH1 0x20 ADD DUP3 DUP1 SLOAD PUSH2 0x7C4 SWAP1 PUSH2 0xD8E JUMP JUMPDEST DUP1 ISZERO PUSH2 0x811 JUMPI DUP1 PUSH1 0x1F LT PUSH2 0x7E6 JUMPI PUSH2 0x100 DUP1 DUP4 SLOAD DIV MUL DUP4 MSTORE SWAP2 PUSH1 0x20 ADD SWAP2 PUSH2 0x811 JUMP JUMPDEST DUP3 ADD SWAP2 SWAP1 PUSH1 0x0 MSTORE PUSH1 0x20 PUSH1 0x0 KECCAK256 SWAP1 JUMPDEST DUP2 SLOAD DUP2 MSTORE SWAP1 PUSH1 0x1 ADD SWAP1 PUSH1 0x20 ADD DUP1 DUP4 GT PUSH2 0x7F4 JUMPI DUP3 SWAP1 SUB PUSH1 0x1F AND DUP3 ADD SWAP2 JUMPDEST POP POP POP POP POP SWAP1 POP DUP1 SWAP2 POP POP SWAP2 SWAP1 POP JUMP JUMPDEST DUP3 DUP1 SLOAD PUSH2 0x82D SWAP1 PUSH2 0xD8E JUMP JUMPDEST SWAP1 PUSH1 0x0 MSTORE PUSH1 0x20 PUSH1 0x0 KECCAK256 SWAP1 PUSH1 0x1F ADD PUSH1 0x20 SWAP1 DIV DUP2 ADD SWAP3 DUP3 PUSH2 0x84F JUMPI PUSH1 0x0 DUP6 SSTORE PUSH2 0x896 JUMP JUMPDEST DUP3 PUSH1 0x1F LT PUSH2 0x868 JUMPI DUP1 MLOAD PUSH1 0xFF NOT AND DUP4 DUP1 ADD OR DUP6 SSTORE PUSH2 0x896 JUMP JUMPDEST DUP3 DUP1 ADD PUSH1 0x1 ADD DUP6 SSTORE DUP3 ISZERO PUSH2 0x896 JUMPI SWAP2 DUP3 ADD JUMPDEST DUP3 DUP2 GT ISZERO PUSH2 0x895 JUMPI DUP3 MLOAD DUP3 SSTORE SWAP2 PUSH1 0x20 ADD SWAP2 SWAP1 PUSH1 0x1 ADD SWAP1 PUSH2 0x87A JUMP JUMPDEST JUMPDEST POP SWAP1 POP PUSH2 0x8A3 SWAP2 SWAP1 PUSH2 0x8A7 JUMP JUMPDEST POP SWAP1 JUMP JUMPDEST JUMPDEST DUP1 DUP3 GT ISZERO PUSH2 0x8C0 JUMPI PUSH1 0x0 DUP2 PUSH1 0x0 SWAP1 SSTORE POP PUSH1 0x1 ADD PUSH2 0x8A8 JUMP JUMPDEST POP SWAP1 JUMP JUMPDEST PUSH1 0x0 PUSH2 0x8D7 PUSH2 0x8D2 DUP5 PUSH2 0xCA0 JUMP JUMPDEST PUSH2 0xC7B JUMP JUMPDEST SWAP1 POP DUP3 DUP2 MSTORE PUSH1 0x20 DUP2 ADD DUP5 DUP5 DUP5 ADD GT ISZERO PUSH2 0x8EF JUMPI PUSH1 0x0 DUP1 REVERT JUMPDEST PUSH2 0x8FA DUP5 DUP3 DUP6 PUSH2 0xD4C JUMP JUMPDEST POP SWAP4 SWAP3 POP POP POP JUMP JUMPDEST PUSH1 0x0 DUP2 CALLDATALOAD SWAP1 POP PUSH2 0x911 DUP2 PUSH2 0xE89 JUMP JUMPDEST SWAP3 SWAP2 POP POP JUMP JUMPDEST PUSH1 0x0 DUP3 PUSH1 0x1F DUP4 ADD SLT PUSH2 0x928 JUMPI PUSH1 0x0 DUP1 REVERT JUMPDEST DUP2 CALLDATALOAD PUSH2 0x938 DUP5 DUP3 PUSH1 0x20 DUP7 ADD PUSH2 0x8C4 JUMP JUMPDEST SWAP2 POP POP SWAP3 SWAP2 POP POP JUMP JUMPDEST PUSH1 0x0 DUP2 CALLDATALOAD SWAP1 POP PUSH2 0x950 DUP2 PUSH2 0xEA0 JUMP JUMPDEST SWAP3 SWAP2 POP POP JUMP JUMPDEST PUSH1 0x0 PUSH1 0x20 DUP3 DUP5 SUB SLT ISZERO PUSH2 0x968 JUMPI PUSH1 0x0 DUP1 REVERT JUMPDEST PUSH1 0x0 PUSH2 0x976 DUP5 DUP3 DUP6 ADD PUSH2 0x902 JUMP JUMPDEST SWAP2 POP POP SWAP3 SWAP2 POP POP JUMP JUMPDEST PUSH1 0x0 DUP1 PUSH1 0x40 DUP4 DUP6 SUB SLT ISZERO PUSH2 0x992 JUMPI PUSH1 0x0 DUP1 REVERT JUMPDEST PUSH1 0x0 PUSH2 0x9A0 DUP6 DUP3 DUP7 ADD PUSH2 0x902 JUMP JUMPDEST SWAP3 POP POP PUSH1 0x20 DUP4 ADD CALLDATALOAD PUSH8 0xFFFFFFFFFFFFFFFF DUP2 GT ISZERO PUSH2 0x9BD JUMPI PUSH1 0x0 DUP1 REVERT JUMPDEST PUSH2 0x9C9 DUP6 DUP3 DUP7 ADD PUSH2 0x917 JUMP JUMPDEST SWAP2 POP POP SWAP3 POP SWAP3 SWAP1 POP JUMP JUMPDEST PUSH1 0x0 DUP1 PUSH1 0x0 DUP1 PUSH1 0x0 PUSH1 0xA0 DUP7 DUP9 SUB SLT ISZERO PUSH2 0x9EB JUMPI PUSH1 0x0 DUP1 REVERT JUMPDEST PUSH1 0x0 PUSH2 0x9F9 DUP9 DUP3 DUP10 ADD PUSH2 0x902 JUMP JUMPDEST SWAP6 POP POP PUSH1 0x20 DUP7 ADD CALLDATALOAD PUSH8 0xFFFFFFFFFFFFFFFF DUP2 GT ISZERO PUSH2 0xA16 JUMPI PUSH1 0x0 DUP1 REVERT JUMPDEST PUSH2 0xA22 DUP9 DUP3 DUP10 ADD PUSH2 0x917 JUMP JUMPDEST SWAP5 POP POP PUSH1 0x40 DUP7 ADD CALLDATALOAD PUSH8 0xFFFFFFFFFFFFFFFF DUP2 GT ISZERO PUSH2 0xA3F JUMPI PUSH1 0x0 DUP1 REVERT JUMPDEST PUSH2 0xA4B DUP9 DUP3 DUP10 ADD PUSH2 0x917 JUMP JUMPDEST SWAP4 POP POP PUSH1 0x60 DUP7 ADD CALLDATALOAD PUSH8 0xFFFFFFFFFFFFFFFF DUP2 GT ISZERO PUSH2 0xA68 JUMPI PUSH1 0x0 DUP1 REVERT JUMPDEST PUSH2 0xA74 DUP9 DUP3 DUP10 ADD PUSH2 0x917 JUMP JUMPDEST SWAP3 POP POP PUSH1 0x80 DUP7 ADD CALLDATALOAD PUSH8 0xFFFFFFFFFFFFFFFF DUP2 GT ISZERO PUSH2 0xA91 JUMPI PUSH1 0x0 DUP1 REVERT JUMPDEST PUSH2 0xA9D DUP9 DUP3 DUP10 ADD PUSH2 0x917 JUMP JUMPDEST SWAP2 POP POP SWAP3 SWAP6 POP SWAP3 SWAP6 SWAP1 SWAP4 POP JUMP JUMPDEST PUSH1 0x0 PUSH1 0x20 DUP3 DUP5 SUB SLT ISZERO PUSH2 0xABC JUMPI PUSH1 0x0 DUP1 REVERT JUMPDEST PUSH1 0x0 PUSH2 0xACA DUP5 DUP3 DUP6 ADD PUSH2 0x941 JUMP JUMPDEST SWAP2 POP POP SWAP3 SWAP2 POP POP JUMP JUMPDEST PUSH2 0xADC DUP2 PUSH2 0xCED JUMP JUMPDEST DUP3 MSTORE POP POP JUMP JUMPDEST PUSH2 0xAEB DUP2 PUSH2 0xCFF JUMP JUMPDEST DUP3 MSTORE POP POP JUMP JUMPDEST PUSH2 0xAFA DUP2 PUSH2 0xD0B JUMP JUMPDEST DUP3 MSTORE POP POP JUMP JUMPDEST PUSH1 0x0 PUSH2 0xB0B DUP3 PUSH2 0xCD1 JUMP JUMPDEST PUSH2 0xB15 DUP2 DUP6 PUSH2 0xCDC JUMP JUMPDEST SWAP4 POP PUSH2 0xB25 DUP2 DUP6 PUSH1 0x20 DUP7 ADD PUSH2 0xD5B JUMP JUMPDEST PUSH2 0xB2E DUP2 PUSH2 0xE4F JUMP JUMPDEST DUP5 ADD SWAP2 POP POP SWAP3 SWAP2 POP POP JUMP JUMPDEST PUSH1 0x0 PUSH2 0xB46 PUSH1 0xB DUP4 PUSH2 0xCDC JUMP JUMPDEST SWAP2 POP PUSH2 0xB51 DUP3 PUSH2 0xE60 JUMP JUMPDEST PUSH1 0x20 DUP3 ADD SWAP1 POP SWAP2 SWAP1 POP JUMP JUMPDEST PUSH2 0xB65 DUP2 PUSH2 0xD3F JUMP JUMPDEST DUP3 MSTORE POP POP JUMP JUMPDEST PUSH1 0x0 PUSH1 0x20 DUP3 ADD SWAP1 POP PUSH2 0xB80 PUSH1 0x0 DUP4 ADD DUP5 PUSH2 0xAD3 JUMP JUMPDEST SWAP3 SWAP2 POP POP JUMP JUMPDEST PUSH1 0x0 PUSH1 0x20 DUP3 ADD SWAP1 POP PUSH2 0xB9B PUSH1 0x0 DUP4 ADD DUP5 PUSH2 0xAE2 JUMP JUMPDEST SWAP3 SWAP2 POP POP JUMP JUMPDEST PUSH1 0x0 PUSH1 0x20 DUP3 ADD SWAP1 POP PUSH2 0xBB6 PUSH1 0x0 DUP4 ADD DUP5 PUSH2 0xAF1 JUMP JUMPDEST SWAP3 SWAP2 POP POP JUMP JUMPDEST PUSH1 0x0 PUSH1 0xC0 DUP3 ADD SWAP1 POP PUSH2 0xBD1 PUSH1 0x0 DUP4 ADD DUP10 PUSH2 0xAF1 JUMP JUMPDEST DUP2 DUP2 SUB PUSH1 0x20 DUP4 ADD MSTORE PUSH2 0xBE3 DUP2 DUP9 PUSH2 0xB00 JUMP JUMPDEST SWAP1 POP DUP2 DUP2 SUB PUSH1 0x40 DUP4 ADD MSTORE PUSH2 0xBF7 DUP2 DUP8 PUSH2 0xB00 JUMP JUMPDEST SWAP1 POP DUP2 DUP2 SUB PUSH1 0x60 DUP4 ADD MSTORE PUSH2 0xC0B DUP2 DUP7 PUSH2 0xB00 JUMP JUMPDEST SWAP1 POP DUP2 DUP2 SUB PUSH1 0x80 DUP4 ADD MSTORE PUSH2 0xC1F DUP2 DUP6 PUSH2 0xB00 JUMP JUMPDEST SWAP1 POP PUSH2 0xC2E PUSH1 0xA0 DUP4 ADD DUP5 PUSH2 0xB5C JUMP JUMPDEST SWAP8 SWAP7 POP POP POP POP POP POP POP JUMP JUMPDEST PUSH1 0x0 PUSH1 0x20 DUP3 ADD SWAP1 POP DUP2 DUP2 SUB PUSH1 0x0 DUP4 ADD MSTORE PUSH2 0xC53 DUP2 DUP5 PUSH2 0xB00 JUMP JUMPDEST SWAP1 POP SWAP3 SWAP2 POP POP JUMP JUMPDEST PUSH1 0x0 PUSH1 0x20 DUP3 ADD SWAP1 POP DUP2 DUP2 SUB PUSH1 0x0 DUP4 ADD MSTORE PUSH2 0xC74 DUP2 PUSH2 0xB39 JUMP JUMPDEST SWAP1 POP SWAP2 SWAP1 POP JUMP JUMPDEST PUSH1 0x0 PUSH2 0xC85 PUSH2 0xC96 JUMP JUMPDEST SWAP1 POP PUSH2 0xC91 DUP3 DUP3 PUSH2 0xDC0 JUMP JUMPDEST SWAP2 SWAP1 POP JUMP JUMPDEST PUSH1 0x0 PUSH1 0x40 MLOAD SWAP1 POP SWAP1 JUMP JUMPDEST PUSH1 0x0 PUSH8 0xFFFFFFFFFFFFFFFF DUP3 GT ISZERO PUSH2 0xCBB JUMPI PUSH2 0xCBA PUSH2 0xE20 JUMP JUMPDEST JUMPDEST PUSH2 0xCC4 DUP3 PUSH2 0xE4F JUMP JUMPDEST SWAP1 POP PUSH1 0x20 DUP2 ADD SWAP1 POP SWAP2 SWAP1 POP JUMP JUMPDEST PUSH1 0x0 DUP2 MLOAD SWAP1 POP SWAP2 SWAP1 POP JUMP JUMPDEST PUSH1 0x0 DUP3 DUP3 MSTORE PUSH1 0x20 DUP3 ADD SWAP1 POP SWAP3 SWAP2 POP POP JUMP JUMPDEST PUSH1 0x0 PUSH2 0xCF8 DUP3 PUSH2 0xD15 JUMP JUMPDEST SWAP1 POP SWAP2 SWAP1 POP JUMP JUMPDEST PUSH1 0x0 DUP2 ISZERO ISZERO SWAP1 POP SWAP2 SWAP1 POP JUMP JUMPDEST PUSH1 0x0 DUP2 SWAP1 POP SWAP2 SWAP1 POP JUMP JUMPDEST PUSH1 0x0 PUSH20 0xFFFFFFFFFFFFFFFFFFFFFFFFFFFFFFFFFFFFFFFF DUP3 AND SWAP1 POP SWAP2 SWAP1 POP JUMP JUMPDEST PUSH1 0x0 DUP2 SWAP1 POP SWAP2 SWAP1 POP JUMP JUMPDEST PUSH1 0x0 PUSH1 0xFF DUP3 AND SWAP1 POP SWAP2 SWAP1 POP JUMP JUMPDEST DUP3 DUP2 DUP4 CALLDATACOPY PUSH1 0x0 DUP4 DUP4 ADD MSTORE POP POP POP JUMP JUMPDEST PUSH1 0x0 JUMPDEST DUP4 DUP2 LT ISZERO PUSH2 0xD79 JUMPI DUP1 DUP3 ADD MLOAD DUP2 DUP5 ADD MSTORE PUSH1 0x20 DUP2 ADD SWAP1 POP PUSH2 0xD5E JUMP JUMPDEST DUP4 DUP2 GT ISZERO PUSH2 0xD88 JUMPI PUSH1 0x0 DUP5 DUP5 ADD MSTORE JUMPDEST POP POP POP POP JUMP JUMPDEST PUSH1 0x0 PUSH1 0x2 DUP3 DIV SWAP1 POP PUSH1 0x1 DUP3 AND DUP1 PUSH2 0xDA6 JUMPI PUSH1 0x7F DUP3 AND SWAP2 POP JUMPDEST PUSH1 0x20 DUP3 LT DUP2 EQ ISZERO PUSH2 0xDBA JUMPI PUSH2 0xDB9 PUSH2 0xDF1 JUMP JUMPDEST JUMPDEST POP SWAP2 SWAP1 POP JUMP JUMPDEST PUSH2 0xDC9 DUP3 PUSH2 0xE4F JUMP JUMPDEST DUP2 ADD DUP2 DUP2 LT PUSH8 0xFFFFFFFFFFFFFFFF DUP3 GT OR ISZERO PUSH2 0xDE8 JUMPI PUSH2 0xDE7 PUSH2 0xE20 JUMP JUMPDEST JUMPDEST DUP1 PUSH1 0x40 MSTORE POP POP POP JUMP JUMPDEST PUSH32 0x4E487B7100000000000000000000000000000000000000000000000000000000 PUSH1 0x0 MSTORE PUSH1 0x22 PUSH1 0x4 MSTORE PUSH1 0x24 PUSH1 0x0 REVERT JUMPDEST PUSH32 0x4E487B7100000000000000000000000000000000000000000000000000000000 PUSH1 0x0 MSTORE PUSH1 0x41 PUSH1 0x4 MSTORE PUSH1 0x24 PUSH1 0x0 REVERT JUMPDEST PUSH1 0x0 PUSH1 0x1F NOT PUSH1 0x1F DUP4 ADD AND SWAP1 POP SWAP2 SWAP1 POP JUMP JUMPDEST PUSH32 0x4E6F742061206F776E6572000000000000000000000000000000000000000000 PUSH1 0x0 DUP3 ADD MSTORE POP JUMP JUMPDEST PUSH2 0xE92 DUP2 PUSH2 0xD0B JUMP JUMPDEST DUP2 EQ PUSH2 0xE9D JUMPI PUSH1 0x0 DUP1 REVERT JUMPDEST POP JUMP JUMPDEST PUSH2 0xEA9 DUP2 PUSH2 0xD35 JUMP JUMPDEST DUP2 EQ PUSH2 0xEB4 JUMPI PUSH1 0x0 DUP1 REVERT JUMPDEST POP JUMP INVALID LOG2 PUSH5 0x6970667358 0x22 SLT KECCAK256 ADDRESS PUSH19 0xBEA53274F88BFF4B31706C7432CE4A4654C3D5 0xB8 0xBD SWAP6 CALLCODE 0xD6 0x2A 0xA5 EXTCODEHASH DUP13 CALLDATALOAD DUP9 PUSH5 0x736F6C6343 STOP ADDMOD DIV STOP CALLER "
				},
				"gasEstimates": {
					"creation": {
						"codeDepositCost": "764200",
						"executionCost": "21665",
						"totalCost": "785865"
					},
					"external": {
						"getVehicleDetails(bytes32)": "infinite",
						"isVehicle(bytes32)": "1590",
						"owner()": "1211",
						"registerVehicle(bytes32,string,string,string,string)": "infinite",
						"transferVehicle(bytes32,string)": "infinite",
						"vehicleMap(bytes32)": "infinite",
						"vins(uint256)": "2305"
					}
				},
				"methodIdentifiers": {
					"getVehicleDetails(bytes32)": "dbd575a2",
					"isVehicle(bytes32)": "d2e5aeee",
					"owner()": "8da5cb5b",
					"registerVehicle(bytes32,string,string,string,string)": "d4e9a481",
					"transferVehicle(bytes32,string)": "1bd4fa4b",
					"vehicleMap(bytes32)": "76e897dc",
					"vins(uint256)": "731941c8"
				}
			},
			"storageLayout": {
				"storage": [
					{
						"astId": 3,
						"contract": "practice/VehicleRegister.sol:VehicleRegister",
						"label": "owner",
						"offset": 0,
						"slot": "0",
						"type": "t_address"
					},
					{
						"astId": 6,
						"contract": "practice/VehicleRegister.sol:VehicleRegister",
						"label": "vins",
						"offset": 0,
						"slot": "1",
						"type": "t_array(t_bytes32)dyn_storage"
					},
					{
						"astId": 11,
						"contract": "practice/VehicleRegister.sol:VehicleRegister",
						"label": "vehicleMap",
						"offset": 0,
						"slot": "2",
						"type": "t_mapping(t_bytes32,t_struct(Vehicle)24_storage)"
					}
				],
				"types": {
					"t_address": {
						"encoding": "inplace",
						"label": "address",
						"numberOfBytes": "20"
					},
					"t_array(t_bytes32)dyn_storage": {
						"base": "t_bytes32",
						"encoding": "dynamic_array",
						"label": "bytes32[]",
						"numberOfBytes": "32"
					},
					"t_bytes32": {
						"encoding": "inplace",
						"label": "bytes32",
						"numberOfBytes": "32"
					},
					"t_mapping(t_bytes32,t_struct(Vehicle)24_storage)": {
						"encoding": "mapping",
						"key": "t_bytes32",
						"label": "mapping(bytes32 => struct VehicleRegister.Vehicle)",
						"numberOfBytes": "32",
						"value": "t_struct(Vehicle)24_storage"
					},
					"t_string_storage": {
						"encoding": "bytes",
						"label": "string",
						"numberOfBytes": "32"
					},
					"t_struct(Vehicle)24_storage": {
						"encoding": "inplace",
						"label": "struct VehicleRegister.Vehicle",
						"members": [
							{
								"astId": 13,
								"contract": "practice/VehicleRegister.sol:VehicleRegister",
								"label": "vin",
								"offset": 0,
								"slot": "0",
								"type": "t_bytes32"
							},
							{
								"astId": 15,
								"contract": "practice/VehicleRegister.sol:VehicleRegister",
								"label": "year",
								"offset": 0,
								"slot": "1",
								"type": "t_string_storage"
							},
							{
								"astId": 17,
								"contract": "practice/VehicleRegister.sol:VehicleRegister",
								"label": "model",
								"offset": 0,
								"slot": "2",
								"type": "t_string_storage"
							},
							{
								"astId": 19,
								"contract": "practice/VehicleRegister.sol:VehicleRegister",
								"label": "make",
								"offset": 0,
								"slot": "3",
								"type": "t_string_storage"
							},
							{
								"astId": 21,
								"contract": "practice/VehicleRegister.sol:VehicleRegister",
								"label": "owner",
								"offset": 0,
								"slot": "4",
								"type": "t_string_storage"
							},
							{
								"astId": 23,
								"contract": "practice/VehicleRegister.sol:VehicleRegister",
								"label": "status",
								"offset": 0,
								"slot": "5",
								"type": "t_uint8"
							}
						],
						"numberOfBytes": "192"
					},
					"t_uint8": {
						"encoding": "inplace",
						"label": "uint8",
						"numberOfBytes": "1"
					}
				}
			},
			"userdoc": {
				"kind": "user",
				"methods": {},
				"version": 1
			}
		}
	}
}