{
	"practice/ReentrancyAttack.sol": {
		"Reentrancy": {
			"abi": [
				{
					"inputs": [],
					"name": "Deposit",
					"outputs": [],
					"stateMutability": "payable",
					"type": "function"
				},
				{
					"inputs": [
						{
							"internalType": "address",
							"name": "",
							"type": "address"
						}
					],
					"name": "balances",
					"outputs": [
						{
							"internalType": "uint256",
							"name": "",
							"type": "uint256"
						}
					],
					"stateMutability": "view",
					"type": "function"
				},
				{
					"inputs": [],
					"name": "withdraw",
					"outputs": [],
					"stateMutability": "nonpayable",
					"type": "function"
				}
			],
			"devdoc": {
				"kind": "dev",
				"methods": {},
				"version": 1
			},
			"evm": {
				"assembly": "    /* \"practice/ReentrancyAttack.sol\":27:429  contract Reentrancy{\r... */\n  mstore(0x40, 0x80)\n  callvalue\n  dup1\n  iszero\n  tag_1\n  jumpi\n  0x00\n  dup1\n  revert\ntag_1:\n  pop\n  dataSize(sub_0)\n  dup1\n  dataOffset(sub_0)\n  0x00\n  codecopy\n  0x00\n  return\nstop\n\nsub_0: assembly {\n        /* \"practice/ReentrancyAttack.sol\":27:429  contract Reentrancy{\r... */\n      mstore(0x40, 0x80)\n      jumpi(tag_1, lt(calldatasize, 0x04))\n      shr(0xe0, calldataload(0x00))\n      dup1\n      0x27e235e3\n      eq\n      tag_2\n      jumpi\n      dup1\n      0x3ccfd60b\n      eq\n      tag_3\n      jumpi\n      dup1\n      0xed21248c\n      eq\n      tag_4\n      jumpi\n    tag_1:\n      0x00\n      dup1\n      revert\n        /* \"practice/ReentrancyAttack.sol\":53:93  mapping(address => uint) public balances */\n    tag_2:\n      callvalue\n      dup1\n      iszero\n      tag_5\n      jumpi\n      0x00\n      dup1\n      revert\n    tag_5:\n      pop\n      tag_6\n      0x04\n      dup1\n      calldatasize\n      sub\n      dup2\n      add\n      swap1\n      tag_7\n      swap2\n      swap1\n      tag_8\n      jump\t// in\n    tag_7:\n      tag_9\n      jump\t// in\n    tag_6:\n      mload(0x40)\n      tag_10\n      swap2\n      swap1\n      tag_11\n      jump\t// in\n    tag_10:\n      mload(0x40)\n      dup1\n      swap2\n      sub\n      swap1\n      return\n        /* \"practice/ReentrancyAttack.sol\":193:426  function withdraw() public{\r... */\n    tag_3:\n      callvalue\n      dup1\n      iszero\n      tag_12\n      jumpi\n      0x00\n      dup1\n      revert\n    tag_12:\n      pop\n      tag_13\n      tag_14\n      jump\t// in\n    tag_13:\n      stop\n        /* \"practice/ReentrancyAttack.sol\":102:185  function Deposit() public payable{\r... */\n    tag_4:\n      tag_15\n      tag_16\n      jump\t// in\n    tag_15:\n      stop\n        /* \"practice/ReentrancyAttack.sol\":53:93  mapping(address => uint) public balances */\n    tag_9:\n      mstore(0x20, 0x00)\n      dup1\n      0x00\n      mstore\n      keccak256(0x00, 0x40)\n      0x00\n      swap2\n      pop\n      swap1\n      pop\n      sload\n      dup2\n      jump\t// out\n        /* \"practice/ReentrancyAttack.sol\":193:426  function withdraw() public{\r... */\n    tag_14:\n        /* \"practice/ReentrancyAttack.sol\":230:238  uint bal */\n      0x00\n        /* \"practice/ReentrancyAttack.sol\":239:247  balances */\n      dup1\n        /* \"practice/ReentrancyAttack.sol\":239:259  balances[msg.sender] */\n      0x00\n        /* \"practice/ReentrancyAttack.sol\":248:258  msg.sender */\n      caller\n        /* \"practice/ReentrancyAttack.sol\":239:259  balances[msg.sender] */\n      0xffffffffffffffffffffffffffffffffffffffff\n      and\n      0xffffffffffffffffffffffffffffffffffffffff\n      and\n      dup2\n      mstore\n      0x20\n      add\n      swap1\n      dup2\n      mstore\n      0x20\n      add\n      0x00\n      keccak256\n      sload\n        /* \"practice/ReentrancyAttack.sol\":230:259  uint bal=balances[msg.sender] */\n      swap1\n      pop\n        /* \"practice/ReentrancyAttack.sol\":282:283  0 */\n      0x00\n        /* \"practice/ReentrancyAttack.sol\":278:281  bal */\n      dup2\n        /* \"practice/ReentrancyAttack.sol\":278:283  bal>0 */\n      gt\n        /* \"practice/ReentrancyAttack.sol\":270:284  require(bal>0) */\n      tag_18\n      jumpi\n      0x00\n      dup1\n      revert\n    tag_18:\n        /* \"practice/ReentrancyAttack.sol\":296:305  bool sent */\n      0x00\n        /* \"practice/ReentrancyAttack.sol\":308:318  msg.sender */\n      caller\n        /* \"practice/ReentrancyAttack.sol\":308:323  msg.sender.call */\n      0xffffffffffffffffffffffffffffffffffffffff\n      and\n        /* \"practice/ReentrancyAttack.sol\":330:333  bal */\n      dup3\n        /* \"practice/ReentrancyAttack.sol\":308:338  msg.sender.call{value:bal}(\"\") */\n      mload(0x40)\n      tag_19\n      swap1\n      tag_20\n      jump\t// in\n    tag_19:\n      0x00\n      mload(0x40)\n      dup1\n      dup4\n      sub\n      dup2\n      dup6\n      dup8\n      gas\n      call\n      swap3\n      pop\n      pop\n      pop\n      returndatasize\n      dup1\n      0x00\n      dup2\n      eq\n      tag_23\n      jumpi\n      mload(0x40)\n      swap2\n      pop\n      and(add(returndatasize, 0x3f), not(0x1f))\n      dup3\n      add\n      0x40\n      mstore\n      returndatasize\n      dup3\n      mstore\n      returndatasize\n      0x00\n      0x20\n      dup5\n      add\n      returndatacopy\n      jump(tag_22)\n    tag_23:\n      0x60\n      swap2\n      pop\n    tag_22:\n      pop\n        /* \"practice/ReentrancyAttack.sol\":295:338  (bool sent,)=msg.sender.call{value:bal}(\"\") */\n      pop\n      swap1\n      pop\n        /* \"practice/ReentrancyAttack.sol\":357:361  sent */\n      dup1\n        /* \"practice/ReentrancyAttack.sol\":349:384  require(sent,\"ether transfer fail\") */\n      tag_24\n      jumpi\n      mload(0x40)\n      0x08c379a000000000000000000000000000000000000000000000000000000000\n      dup2\n      mstore\n      0x04\n      add\n      tag_25\n      swap1\n      tag_26\n      jump\t// in\n    tag_25:\n      mload(0x40)\n      dup1\n      swap2\n      sub\n      swap1\n      revert\n    tag_24:\n        /* \"practice/ReentrancyAttack.sol\":417:418  0 */\n      0x00\n        /* \"practice/ReentrancyAttack.sol\":396:404  balances */\n      dup1\n        /* \"practice/ReentrancyAttack.sol\":396:416  balances[msg.sender] */\n      0x00\n        /* \"practice/ReentrancyAttack.sol\":405:415  msg.sender */\n      caller\n        /* \"practice/ReentrancyAttack.sol\":396:416  balances[msg.sender] */\n      0xffffffffffffffffffffffffffffffffffffffff\n      and\n      0xffffffffffffffffffffffffffffffffffffffff\n      and\n      dup2\n      mstore\n      0x20\n      add\n      swap1\n      dup2\n      mstore\n      0x20\n      add\n      0x00\n      keccak256\n        /* \"practice/ReentrancyAttack.sol\":396:418  balances[msg.sender]=0 */\n      dup2\n      swap1\n      sstore\n      pop\n        /* \"practice/ReentrancyAttack.sol\":193:426  function withdraw() public{\r... */\n      pop\n      pop\n      jump\t// out\n        /* \"practice/ReentrancyAttack.sol\":102:185  function Deposit() public payable{\r... */\n    tag_16:\n        /* \"practice/ReentrancyAttack.sol\":168:177  msg.value */\n      callvalue\n        /* \"practice/ReentrancyAttack.sol\":146:154  balances */\n      0x00\n        /* \"practice/ReentrancyAttack.sol\":146:166  balances[msg.sender] */\n      dup1\n        /* \"practice/ReentrancyAttack.sol\":155:165  msg.sender */\n      caller\n        /* \"practice/ReentrancyAttack.sol\":146:166  balances[msg.sender] */\n      0xffffffffffffffffffffffffffffffffffffffff\n      and\n      0xffffffffffffffffffffffffffffffffffffffff\n      and\n      dup2\n      mstore\n      0x20\n      add\n      swap1\n      dup2\n      mstore\n      0x20\n      add\n      0x00\n      keccak256\n      0x00\n        /* \"practice/ReentrancyAttack.sol\":146:177  balances[msg.sender]+=msg.value */\n      dup3\n      dup3\n      sload\n      tag_28\n      swap2\n      swap1\n      tag_29\n      jump\t// in\n    tag_28:\n      swap3\n      pop\n      pop\n      dup2\n      swap1\n      sstore\n      pop\n        /* \"practice/ReentrancyAttack.sol\":102:185  function Deposit() public payable{\r... */\n      jump\t// out\n        /* \"#utility.yul\":7:146   */\n    tag_31:\n        /* \"#utility.yul\":53:58   */\n      0x00\n        /* \"#utility.yul\":91:97   */\n      dup2\n        /* \"#utility.yul\":78:98   */\n      calldataload\n        /* \"#utility.yul\":69:98   */\n      swap1\n      pop\n        /* \"#utility.yul\":107:140   */\n      tag_33\n        /* \"#utility.yul\":134:139   */\n      dup2\n        /* \"#utility.yul\":107:140   */\n      tag_34\n      jump\t// in\n    tag_33:\n        /* \"#utility.yul\":59:146   */\n      swap3\n      swap2\n      pop\n      pop\n      jump\t// out\n        /* \"#utility.yul\":152:414   */\n    tag_8:\n        /* \"#utility.yul\":211:217   */\n      0x00\n        /* \"#utility.yul\":260:262   */\n      0x20\n        /* \"#utility.yul\":248:257   */\n      dup3\n        /* \"#utility.yul\":239:246   */\n      dup5\n        /* \"#utility.yul\":235:258   */\n      sub\n        /* \"#utility.yul\":231:263   */\n      slt\n        /* \"#utility.yul\":228:230   */\n      iszero\n      tag_36\n      jumpi\n        /* \"#utility.yul\":276:277   */\n      0x00\n        /* \"#utility.yul\":273:274   */\n      dup1\n        /* \"#utility.yul\":266:278   */\n      revert\n        /* \"#utility.yul\":228:230   */\n    tag_36:\n        /* \"#utility.yul\":319:320   */\n      0x00\n        /* \"#utility.yul\":344:397   */\n      tag_37\n        /* \"#utility.yul\":389:396   */\n      dup5\n        /* \"#utility.yul\":380:386   */\n      dup3\n        /* \"#utility.yul\":369:378   */\n      dup6\n        /* \"#utility.yul\":365:387   */\n      add\n        /* \"#utility.yul\":344:397   */\n      tag_31\n      jump\t// in\n    tag_37:\n        /* \"#utility.yul\":334:397   */\n      swap2\n      pop\n        /* \"#utility.yul\":290:407   */\n      pop\n        /* \"#utility.yul\":218:414   */\n      swap3\n      swap2\n      pop\n      pop\n      jump\t// out\n        /* \"#utility.yul\":420:786   */\n    tag_38:\n        /* \"#utility.yul\":562:565   */\n      0x00\n        /* \"#utility.yul\":583:650   */\n      tag_40\n        /* \"#utility.yul\":647:649   */\n      0x13\n        /* \"#utility.yul\":642:645   */\n      dup4\n        /* \"#utility.yul\":583:650   */\n      tag_41\n      jump\t// in\n    tag_40:\n        /* \"#utility.yul\":576:650   */\n      swap2\n      pop\n        /* \"#utility.yul\":659:752   */\n      tag_42\n        /* \"#utility.yul\":748:751   */\n      dup3\n        /* \"#utility.yul\":659:752   */\n      tag_43\n      jump\t// in\n    tag_42:\n        /* \"#utility.yul\":777:779   */\n      0x20\n        /* \"#utility.yul\":772:775   */\n      dup3\n        /* \"#utility.yul\":768:780   */\n      add\n        /* \"#utility.yul\":761:780   */\n      swap1\n      pop\n        /* \"#utility.yul\":566:786   */\n      swap2\n      swap1\n      pop\n      jump\t// out\n        /* \"#utility.yul\":792:1190   */\n    tag_44:\n        /* \"#utility.yul\":951:954   */\n      0x00\n        /* \"#utility.yul\":972:1055   */\n      tag_46\n        /* \"#utility.yul\":1053:1054   */\n      0x00\n        /* \"#utility.yul\":1048:1051   */\n      dup4\n        /* \"#utility.yul\":972:1055   */\n      tag_47\n      jump\t// in\n    tag_46:\n        /* \"#utility.yul\":965:1055   */\n      swap2\n      pop\n        /* \"#utility.yul\":1064:1157   */\n      tag_48\n        /* \"#utility.yul\":1153:1156   */\n      dup3\n        /* \"#utility.yul\":1064:1157   */\n      tag_49\n      jump\t// in\n    tag_48:\n        /* \"#utility.yul\":1182:1183   */\n      0x00\n        /* \"#utility.yul\":1177:1180   */\n      dup3\n        /* \"#utility.yul\":1173:1184   */\n      add\n        /* \"#utility.yul\":1166:1184   */\n      swap1\n      pop\n        /* \"#utility.yul\":955:1190   */\n      swap2\n      swap1\n      pop\n      jump\t// out\n        /* \"#utility.yul\":1196:1314   */\n    tag_50:\n        /* \"#utility.yul\":1283:1307   */\n      tag_52\n        /* \"#utility.yul\":1301:1306   */\n      dup2\n        /* \"#utility.yul\":1283:1307   */\n      tag_53\n      jump\t// in\n    tag_52:\n        /* \"#utility.yul\":1278:1281   */\n      dup3\n        /* \"#utility.yul\":1271:1308   */\n      mstore\n        /* \"#utility.yul\":1261:1314   */\n      pop\n      pop\n      jump\t// out\n        /* \"#utility.yul\":1320:1699   */\n    tag_20:\n        /* \"#utility.yul\":1504:1507   */\n      0x00\n        /* \"#utility.yul\":1526:1673   */\n      tag_55\n        /* \"#utility.yul\":1669:1672   */\n      dup3\n        /* \"#utility.yul\":1526:1673   */\n      tag_44\n      jump\t// in\n    tag_55:\n        /* \"#utility.yul\":1519:1673   */\n      swap2\n      pop\n        /* \"#utility.yul\":1690:1693   */\n      dup2\n        /* \"#utility.yul\":1683:1693   */\n      swap1\n      pop\n        /* \"#utility.yul\":1508:1699   */\n      swap2\n      swap1\n      pop\n      jump\t// out\n        /* \"#utility.yul\":1705:2124   */\n    tag_26:\n        /* \"#utility.yul\":1871:1875   */\n      0x00\n        /* \"#utility.yul\":1909:1911   */\n      0x20\n        /* \"#utility.yul\":1898:1907   */\n      dup3\n        /* \"#utility.yul\":1894:1912   */\n      add\n        /* \"#utility.yul\":1886:1912   */\n      swap1\n      pop\n        /* \"#utility.yul\":1958:1967   */\n      dup2\n        /* \"#utility.yul\":1952:1956   */\n      dup2\n        /* \"#utility.yul\":1948:1968   */\n      sub\n        /* \"#utility.yul\":1944:1945   */\n      0x00\n        /* \"#utility.yul\":1933:1942   */\n      dup4\n        /* \"#utility.yul\":1929:1946   */\n      add\n        /* \"#utility.yul\":1922:1969   */\n      mstore\n        /* \"#utility.yul\":1986:2117   */\n      tag_57\n        /* \"#utility.yul\":2112:2116   */\n      dup2\n        /* \"#utility.yul\":1986:2117   */\n      tag_38\n      jump\t// in\n    tag_57:\n        /* \"#utility.yul\":1978:2117   */\n      swap1\n      pop\n        /* \"#utility.yul\":1876:2124   */\n      swap2\n      swap1\n      pop\n      jump\t// out\n        /* \"#utility.yul\":2130:2352   */\n    tag_11:\n        /* \"#utility.yul\":2223:2227   */\n      0x00\n        /* \"#utility.yul\":2261:2263   */\n      0x20\n        /* \"#utility.yul\":2250:2259   */\n      dup3\n        /* \"#utility.yul\":2246:2264   */\n      add\n        /* \"#utility.yul\":2238:2264   */\n      swap1\n      pop\n        /* \"#utility.yul\":2274:2345   */\n      tag_59\n        /* \"#utility.yul\":2342:2343   */\n      0x00\n        /* \"#utility.yul\":2331:2340   */\n      dup4\n        /* \"#utility.yul\":2327:2344   */\n      add\n        /* \"#utility.yul\":2318:2324   */\n      dup5\n        /* \"#utility.yul\":2274:2345   */\n      tag_50\n      jump\t// in\n    tag_59:\n        /* \"#utility.yul\":2228:2352   */\n      swap3\n      swap2\n      pop\n      pop\n      jump\t// out\n        /* \"#utility.yul\":2358:2505   */\n    tag_47:\n        /* \"#utility.yul\":2459:2470   */\n      0x00\n        /* \"#utility.yul\":2496:2499   */\n      dup2\n        /* \"#utility.yul\":2481:2499   */\n      swap1\n      pop\n        /* \"#utility.yul\":2471:2505   */\n      swap3\n      swap2\n      pop\n      pop\n      jump\t// out\n        /* \"#utility.yul\":2511:2680   */\n    tag_41:\n        /* \"#utility.yul\":2595:2606   */\n      0x00\n        /* \"#utility.yul\":2629:2635   */\n      dup3\n        /* \"#utility.yul\":2624:2627   */\n      dup3\n        /* \"#utility.yul\":2617:2636   */\n      mstore\n        /* \"#utility.yul\":2669:2673   */\n      0x20\n        /* \"#utility.yul\":2664:2667   */\n      dup3\n        /* \"#utility.yul\":2660:2674   */\n      add\n        /* \"#utility.yul\":2645:2674   */\n      swap1\n      pop\n        /* \"#utility.yul\":2607:2680   */\n      swap3\n      swap2\n      pop\n      pop\n      jump\t// out\n        /* \"#utility.yul\":2686:2991   */\n    tag_29:\n        /* \"#utility.yul\":2726:2729   */\n      0x00\n        /* \"#utility.yul\":2745:2765   */\n      tag_63\n        /* \"#utility.yul\":2763:2764   */\n      dup3\n        /* \"#utility.yul\":2745:2765   */\n      tag_53\n      jump\t// in\n    tag_63:\n        /* \"#utility.yul\":2740:2765   */\n      swap2\n      pop\n        /* \"#utility.yul\":2779:2799   */\n      tag_64\n        /* \"#utility.yul\":2797:2798   */\n      dup4\n        /* \"#utility.yul\":2779:2799   */\n      tag_53\n      jump\t// in\n    tag_64:\n        /* \"#utility.yul\":2774:2799   */\n      swap3\n      pop\n        /* \"#utility.yul\":2933:2934   */\n      dup3\n        /* \"#utility.yul\":2865:2931   */\n      0xffffffffffffffffffffffffffffffffffffffffffffffffffffffffffffffff\n        /* \"#utility.yul\":2861:2935   */\n      sub\n        /* \"#utility.yul\":2858:2859   */\n      dup3\n        /* \"#utility.yul\":2855:2936   */\n      gt\n        /* \"#utility.yul\":2852:2854   */\n      iszero\n      tag_65\n      jumpi\n        /* \"#utility.yul\":2939:2957   */\n      tag_66\n      tag_67\n      jump\t// in\n    tag_66:\n        /* \"#utility.yul\":2852:2854   */\n    tag_65:\n        /* \"#utility.yul\":2983:2984   */\n      dup3\n        /* \"#utility.yul\":2980:2981   */\n      dup3\n        /* \"#utility.yul\":2976:2985   */\n      add\n        /* \"#utility.yul\":2969:2985   */\n      swap1\n      pop\n        /* \"#utility.yul\":2730:2991   */\n      swap3\n      swap2\n      pop\n      pop\n      jump\t// out\n        /* \"#utility.yul\":2997:3093   */\n    tag_68:\n        /* \"#utility.yul\":3034:3041   */\n      0x00\n        /* \"#utility.yul\":3063:3087   */\n      tag_70\n        /* \"#utility.yul\":3081:3086   */\n      dup3\n        /* \"#utility.yul\":3063:3087   */\n      tag_71\n      jump\t// in\n    tag_70:\n        /* \"#utility.yul\":3052:3087   */\n      swap1\n      pop\n        /* \"#utility.yul\":3042:3093   */\n      swap2\n      swap1\n      pop\n      jump\t// out\n        /* \"#utility.yul\":3099:3225   */\n    tag_71:\n        /* \"#utility.yul\":3136:3143   */\n      0x00\n        /* \"#utility.yul\":3176:3218   */\n      0xffffffffffffffffffffffffffffffffffffffff\n        /* \"#utility.yul\":3169:3174   */\n      dup3\n        /* \"#utility.yul\":3165:3219   */\n      and\n        /* \"#utility.yul\":3154:3219   */\n      swap1\n      pop\n        /* \"#utility.yul\":3144:3225   */\n      swap2\n      swap1\n      pop\n      jump\t// out\n        /* \"#utility.yul\":3231:3308   */\n    tag_53:\n        /* \"#utility.yul\":3268:3275   */\n      0x00\n        /* \"#utility.yul\":3297:3302   */\n      dup2\n        /* \"#utility.yul\":3286:3302   */\n      swap1\n      pop\n        /* \"#utility.yul\":3276:3308   */\n      swap2\n      swap1\n      pop\n      jump\t// out\n        /* \"#utility.yul\":3314:3494   */\n    tag_67:\n        /* \"#utility.yul\":3362:3439   */\n      0x4e487b7100000000000000000000000000000000000000000000000000000000\n        /* \"#utility.yul\":3359:3360   */\n      0x00\n        /* \"#utility.yul\":3352:3440   */\n      mstore\n        /* \"#utility.yul\":3459:3463   */\n      0x11\n        /* \"#utility.yul\":3456:3457   */\n      0x04\n        /* \"#utility.yul\":3449:3464   */\n      mstore\n        /* \"#utility.yul\":3483:3487   */\n      0x24\n        /* \"#utility.yul\":3480:3481   */\n      0x00\n        /* \"#utility.yul\":3473:3488   */\n      revert\n        /* \"#utility.yul\":3500:3669   */\n    tag_43:\n        /* \"#utility.yul\":3640:3661   */\n      0x6574686572207472616e73666572206661696c00000000000000000000000000\n        /* \"#utility.yul\":3636:3637   */\n      0x00\n        /* \"#utility.yul\":3628:3634   */\n      dup3\n        /* \"#utility.yul\":3624:3638   */\n      add\n        /* \"#utility.yul\":3617:3662   */\n      mstore\n        /* \"#utility.yul\":3606:3669   */\n      pop\n      jump\t// out\n        /* \"#utility.yul\":3675:3789   */\n    tag_49:\n        /* \"#utility.yul\":3781:3789   */\n      pop\n      jump\t// out\n        /* \"#utility.yul\":3795:3917   */\n    tag_34:\n        /* \"#utility.yul\":3868:3892   */\n      tag_78\n        /* \"#utility.yul\":3886:3891   */\n      dup2\n        /* \"#utility.yul\":3868:3892   */\n      tag_68\n      jump\t// in\n    tag_78:\n        /* \"#utility.yul\":3861:3866   */\n      dup2\n        /* \"#utility.yul\":3858:3893   */\n      eq\n        /* \"#utility.yul\":3848:3850   */\n      tag_79\n      jumpi\n        /* \"#utility.yul\":3907:3908   */\n      0x00\n        /* \"#utility.yul\":3904:3905   */\n      dup1\n        /* \"#utility.yul\":3897:3909   */\n      revert\n        /* \"#utility.yul\":3848:3850   */\n    tag_79:\n        /* \"#utility.yul\":3838:3917   */\n      pop\n      jump\t// out\n\n    auxdata: 0xa2646970667358221220220a4656dbbc135cc2642007183d1ee43e50c65941a83cc58fc39e2070162aa364736f6c63430008040033\n}\n",
				"bytecode": {
					"linkReferences": {},
					"object": "608060405234801561001057600080fd5b50610483806100206000396000f3fe6080604052600436106100345760003560e01c806327e235e3146100395780633ccfd60b14610076578063ed21248c1461008d575b600080fd5b34801561004557600080fd5b50610060600480360381019061005b919061025f565b610097565b60405161006d9190610312565b60405180910390f35b34801561008257600080fd5b5061008b6100af565b005b6100956101f3565b005b60006020528060005260406000206000915090505481565b60008060003373ffffffffffffffffffffffffffffffffffffffff1673ffffffffffffffffffffffffffffffffffffffff168152602001908152602001600020549050600081116100ff57600080fd5b60003373ffffffffffffffffffffffffffffffffffffffff1682604051610125906102dd565b60006040518083038185875af1925050503d8060008114610162576040519150601f19603f3d011682016040523d82523d6000602084013e610167565b606091505b50509050806101ab576040517f08c379a00000000000000000000000000000000000000000000000000000000081526004016101a2906102f2565b60405180910390fd5b60008060003373ffffffffffffffffffffffffffffffffffffffff1673ffffffffffffffffffffffffffffffffffffffff168152602001908152602001600020819055505050565b346000803373ffffffffffffffffffffffffffffffffffffffff1673ffffffffffffffffffffffffffffffffffffffff16815260200190815260200160002060008282546102419190610349565b92505081905550565b60008135905061025981610436565b92915050565b60006020828403121561027157600080fd5b600061027f8482850161024a565b91505092915050565b6000610295601383610338565b91506102a08261040a565b602082019050919050565b60006102b860008361032d565b91506102c382610433565b600082019050919050565b6102d7816103d1565b82525050565b60006102e8826102ab565b9150819050919050565b6000602082019050818103600083015261030b81610288565b9050919050565b600060208201905061032760008301846102ce565b92915050565b600081905092915050565b600082825260208201905092915050565b6000610354826103d1565b915061035f836103d1565b9250827fffffffffffffffffffffffffffffffffffffffffffffffffffffffffffffffff03821115610394576103936103db565b5b828201905092915050565b60006103aa826103b1565b9050919050565b600073ffffffffffffffffffffffffffffffffffffffff82169050919050565b6000819050919050565b7f4e487b7100000000000000000000000000000000000000000000000000000000600052601160045260246000fd5b7f6574686572207472616e73666572206661696c00000000000000000000000000600082015250565b50565b61043f8161039f565b811461044a57600080fd5b5056fea2646970667358221220220a4656dbbc135cc2642007183d1ee43e50c65941a83cc58fc39e2070162aa364736f6c63430008040033",
					"opcodes": "PUSH1 0x80 PUSH1 0x40 MSTORE CALLVALUE DUP1 ISZERO PUSH2 0x10 JUMPI PUSH1 0x0 DUP1 REVERT JUMPDEST POP PUSH2 0x483 DUP1 PUSH2 0x20 PUSH1 0x0 CODECOPY PUSH1 0x0 RETURN INVALID PUSH1 0x80 PUSH1 0x40 MSTORE PUSH1 0x4 CALLDATASIZE LT PUSH2 0x34 JUMPI PUSH1 0x0 CALLDATALOAD PUSH1 0xE0 SHR DUP1 PUSH4 0x27E235E3 EQ PUSH2 0x39 JUMPI DUP1 PUSH4 0x3CCFD60B EQ PUSH2 0x76 JUMPI DUP1 PUSH4 0xED21248C EQ PUSH2 0x8D JUMPI JUMPDEST PUSH1 0x0 DUP1 REVERT JUMPDEST CALLVALUE DUP1 ISZERO PUSH2 0x45 JUMPI PUSH1 0x0 DUP1 REVERT JUMPDEST POP PUSH2 0x60 PUSH1 0x4 DUP1 CALLDATASIZE SUB DUP2 ADD SWAP1 PUSH2 0x5B SWAP2 SWAP1 PUSH2 0x25F JUMP JUMPDEST PUSH2 0x97 JUMP JUMPDEST PUSH1 0x40 MLOAD PUSH2 0x6D SWAP2 SWAP1 PUSH2 0x312 JUMP JUMPDEST PUSH1 0x40 MLOAD DUP1 SWAP2 SUB SWAP1 RETURN JUMPDEST CALLVALUE DUP1 ISZERO PUSH2 0x82 JUMPI PUSH1 0x0 DUP1 REVERT JUMPDEST POP PUSH2 0x8B PUSH2 0xAF JUMP JUMPDEST STOP JUMPDEST PUSH2 0x95 PUSH2 0x1F3 JUMP JUMPDEST STOP JUMPDEST PUSH1 0x0 PUSH1 0x20 MSTORE DUP1 PUSH1 0x0 MSTORE PUSH1 0x40 PUSH1 0x0 KECCAK256 PUSH1 0x0 SWAP2 POP SWAP1 POP SLOAD DUP2 JUMP JUMPDEST PUSH1 0x0 DUP1 PUSH1 0x0 CALLER PUSH20 0xFFFFFFFFFFFFFFFFFFFFFFFFFFFFFFFFFFFFFFFF AND PUSH20 0xFFFFFFFFFFFFFFFFFFFFFFFFFFFFFFFFFFFFFFFF AND DUP2 MSTORE PUSH1 0x20 ADD SWAP1 DUP2 MSTORE PUSH1 0x20 ADD PUSH1 0x0 KECCAK256 SLOAD SWAP1 POP PUSH1 0x0 DUP2 GT PUSH2 0xFF JUMPI PUSH1 0x0 DUP1 REVERT JUMPDEST PUSH1 0x0 CALLER PUSH20 0xFFFFFFFFFFFFFFFFFFFFFFFFFFFFFFFFFFFFFFFF AND DUP3 PUSH1 0x40 MLOAD PUSH2 0x125 SWAP1 PUSH2 0x2DD JUMP JUMPDEST PUSH1 0x0 PUSH1 0x40 MLOAD DUP1 DUP4 SUB DUP2 DUP6 DUP8 GAS CALL SWAP3 POP POP POP RETURNDATASIZE DUP1 PUSH1 0x0 DUP2 EQ PUSH2 0x162 JUMPI PUSH1 0x40 MLOAD SWAP2 POP PUSH1 0x1F NOT PUSH1 0x3F RETURNDATASIZE ADD AND DUP3 ADD PUSH1 0x40 MSTORE RETURNDATASIZE DUP3 MSTORE RETURNDATASIZE PUSH1 0x0 PUSH1 0x20 DUP5 ADD RETURNDATACOPY PUSH2 0x167 JUMP JUMPDEST PUSH1 0x60 SWAP2 POP JUMPDEST POP POP SWAP1 POP DUP1 PUSH2 0x1AB JUMPI PUSH1 0x40 MLOAD PUSH32 0x8C379A000000000000000000000000000000000000000000000000000000000 DUP2 MSTORE PUSH1 0x4 ADD PUSH2 0x1A2 SWAP1 PUSH2 0x2F2 JUMP JUMPDEST PUSH1 0x40 MLOAD DUP1 SWAP2 SUB SWAP1 REVERT JUMPDEST PUSH1 0x0 DUP1 PUSH1 0x0 CALLER PUSH20 0xFFFFFFFFFFFFFFFFFFFFFFFFFFFFFFFFFFFFFFFF AND PUSH20 0xFFFFFFFFFFFFFFFFFFFFFFFFFFFFFFFFFFFFFFFF AND DUP2 MSTORE PUSH1 0x20 ADD SWAP1 DUP2 MSTORE PUSH1 0x20 ADD PUSH1 0x0 KECCAK256 DUP2 SWAP1 SSTORE POP POP POP JUMP JUMPDEST CALLVALUE PUSH1 0x0 DUP1 CALLER PUSH20 0xFFFFFFFFFFFFFFFFFFFFFFFFFFFFFFFFFFFFFFFF AND PUSH20 0xFFFFFFFFFFFFFFFFFFFFFFFFFFFFFFFFFFFFFFFF AND DUP2 MSTORE PUSH1 0x20 ADD SWAP1 DUP2 MSTORE PUSH1 0x20 ADD PUSH1 0x0 KECCAK256 PUSH1 0x0 DUP3 DUP3 SLOAD PUSH2 0x241 SWAP2 SWAP1 PUSH2 0x349 JUMP JUMPDEST SWAP3 POP POP DUP2 SWAP1 SSTORE POP JUMP JUMPDEST PUSH1 0x0 DUP2 CALLDATALOAD SWAP1 POP PUSH2 0x259 DUP2 PUSH2 0x436 JUMP JUMPDEST SWAP3 SWAP2 POP POP JUMP JUMPDEST PUSH1 0x0 PUSH1 0x20 DUP3 DUP5 SUB SLT ISZERO PUSH2 0x271 JUMPI PUSH1 0x0 DUP1 REVERT JUMPDEST PUSH1 0x0 PUSH2 0x27F DUP5 DUP3 DUP6 ADD PUSH2 0x24A JUMP JUMPDEST SWAP2 POP POP SWAP3 SWAP2 POP POP JUMP JUMPDEST PUSH1 0x0 PUSH2 0x295 PUSH1 0x13 DUP4 PUSH2 0x338 JUMP JUMPDEST SWAP2 POP PUSH2 0x2A0 DUP3 PUSH2 0x40A JUMP JUMPDEST PUSH1 0x20 DUP3 ADD SWAP1 POP SWAP2 SWAP1 POP JUMP JUMPDEST PUSH1 0x0 PUSH2 0x2B8 PUSH1 0x0 DUP4 PUSH2 0x32D JUMP JUMPDEST SWAP2 POP PUSH2 0x2C3 DUP3 PUSH2 0x433 JUMP JUMPDEST PUSH1 0x0 DUP3 ADD SWAP1 POP SWAP2 SWAP1 POP JUMP JUMPDEST PUSH2 0x2D7 DUP2 PUSH2 0x3D1 JUMP JUMPDEST DUP3 MSTORE POP POP JUMP JUMPDEST PUSH1 0x0 PUSH2 0x2E8 DUP3 PUSH2 0x2AB JUMP JUMPDEST SWAP2 POP DUP2 SWAP1 POP SWAP2 SWAP1 POP JUMP JUMPDEST PUSH1 0x0 PUSH1 0x20 DUP3 ADD SWAP1 POP DUP2 DUP2 SUB PUSH1 0x0 DUP4 ADD MSTORE PUSH2 0x30B DUP2 PUSH2 0x288 JUMP JUMPDEST SWAP1 POP SWAP2 SWAP1 POP JUMP JUMPDEST PUSH1 0x0 PUSH1 0x20 DUP3 ADD SWAP1 POP PUSH2 0x327 PUSH1 0x0 DUP4 ADD DUP5 PUSH2 0x2CE JUMP JUMPDEST SWAP3 SWAP2 POP POP JUMP JUMPDEST PUSH1 0x0 DUP2 SWAP1 POP SWAP3 SWAP2 POP POP JUMP JUMPDEST PUSH1 0x0 DUP3 DUP3 MSTORE PUSH1 0x20 DUP3 ADD SWAP1 POP SWAP3 SWAP2 POP POP JUMP JUMPDEST PUSH1 0x0 PUSH2 0x354 DUP3 PUSH2 0x3D1 JUMP JUMPDEST SWAP2 POP PUSH2 0x35F DUP4 PUSH2 0x3D1 JUMP JUMPDEST SWAP3 POP DUP3 PUSH32 0xFFFFFFFFFFFFFFFFFFFFFFFFFFFFFFFFFFFFFFFFFFFFFFFFFFFFFFFFFFFFFFFF SUB DUP3 GT ISZERO PUSH2 0x394 JUMPI PUSH2 0x393 PUSH2 0x3DB JUMP JUMPDEST JUMPDEST DUP3 DUP3 ADD SWAP1 POP SWAP3 SWAP2 POP POP JUMP JUMPDEST PUSH1 0x0 PUSH2 0x3AA DUP3 PUSH2 0x3B1 JUMP JUMPDEST SWAP1 POP SWAP2 SWAP1 POP JUMP JUMPDEST PUSH1 0x0 PUSH20 0xFFFFFFFFFFFFFFFFFFFFFFFFFFFFFFFFFFFFFFFF DUP3 AND SWAP1 POP SWAP2 SWAP1 POP JUMP JUMPDEST PUSH1 0x0 DUP2 SWAP1 POP SWAP2 SWAP1 POP JUMP JUMPDEST PUSH32 0x4E487B7100000000000000000000000000000000000000000000000000000000 PUSH1 0x0 MSTORE PUSH1 0x11 PUSH1 0x4 MSTORE PUSH1 0x24 PUSH1 0x0 REVERT JUMPDEST PUSH32 0x6574686572207472616E73666572206661696C00000000000000000000000000 PUSH1 0x0 DUP3 ADD MSTORE POP JUMP JUMPDEST POP JUMP JUMPDEST PUSH2 0x43F DUP2 PUSH2 0x39F JUMP JUMPDEST DUP2 EQ PUSH2 0x44A JUMPI PUSH1 0x0 DUP1 REVERT JUMPDEST POP JUMP INVALID LOG2 PUSH5 0x6970667358 0x22 SLT KECCAK256 0x22 EXP CHAINID JUMP 0xDB 0xBC SGT 0x5C 0xC2 PUSH5 0x2007183D1E 0xE4 RETURNDATACOPY POP 0xC6 MSIZE COINBASE 0xA8 EXTCODECOPY 0xC5 DUP16 0xC3 SWAP15 KECCAK256 PUSH17 0x162AA364736F6C63430008040033000000 "
				},
				"gasEstimates": {
					"creation": {
						"codeDepositCost": "231000",
						"executionCost": "275",
						"totalCost": "231275"
					},
					"external": {
						"Deposit()": "infinite",
						"balances(address)": "1492",
						"withdraw()": "infinite"
					}
				},
				"methodIdentifiers": {
					"Deposit()": "ed21248c",
					"balances(address)": "27e235e3",
					"withdraw()": "3ccfd60b"
				}
			},
			"storageLayout": {
				"storage": [
					{
						"astId": 5,
						"contract": "practice/ReentrancyAttack.sol:Reentrancy",
						"label": "balances",
						"offset": 0,
						"slot": "0",
						"type": "t_mapping(t_address,t_uint256)"
					}
				],
				"types": {
					"t_address": {
						"encoding": "inplace",
						"label": "address",
						"numberOfBytes": "20"
					},
					"t_mapping(t_address,t_uint256)": {
						"encoding": "mapping",
						"key": "t_address",
						"label": "mapping(address => uint256)",
						"numberOfBytes": "32",
						"value": "t_uint256"
					},
					"t_uint256": {
						"encoding": "inplace",
						"label": "uint256",
						"numberOfBytes": "32"
					}
				}
			},
			"userdoc": {
				"kind": "user",
				"methods": {},
				"version": 1
			}
		}
	}
}