{
	"practice/SwapToken.sol": {
		"TokenSwap": {
			"abi": [
				{
					"inputs": [
						{
							"internalType": "address",
							"name": "_token1",
							"type": "address"
						},
						{
							"internalType": "address",
							"name": "_token2",
							"type": "address"
						},
						{
							"internalType": "address",
							"name": "_owner1",
							"type": "address"
						},
						{
							"internalType": "address",
							"name": "_owner2",
							"type": "address"
						}
					],
					"stateMutability": "nonpayable",
					"type": "constructor"
				},
				{
					"inputs": [
						{
							"internalType": "uint256",
							"name": "_amout1",
							"type": "uint256"
						},
						{
							"internalType": "uint256",
							"name": "_amout2",
							"type": "uint256"
						}
					],
					"name": "Swap",
					"outputs": [],
					"stateMutability": "nonpayable",
					"type": "function"
				},
				{
					"inputs": [],
					"name": "owner1",
					"outputs": [
						{
							"internalType": "address",
							"name": "",
							"type": "address"
						}
					],
					"stateMutability": "view",
					"type": "function"
				},
				{
					"inputs": [],
					"name": "owner2",
					"outputs": [
						{
							"internalType": "address",
							"name": "",
							"type": "address"
						}
					],
					"stateMutability": "view",
					"type": "function"
				},
				{
					"inputs": [],
					"name": "token1",
					"outputs": [
						{
							"internalType": "contract IERC20",
							"name": "",
							"type": "address"
						}
					],
					"stateMutability": "view",
					"type": "function"
				},
				{
					"inputs": [],
					"name": "token2",
					"outputs": [
						{
							"internalType": "contract IERC20",
							"name": "",
							"type": "address"
						}
					],
					"stateMutability": "view",
					"type": "function"
				}
			],
			"devdoc": {
				"kind": "dev",
				"methods": {},
				"version": 1
			},
			"evm": {
				"assembly": "    /* \"practice/SwapToken.sol\":272:1174  contract TokenSwap{\r... */\n  mstore(0x40, 0x80)\n    /* \"practice/SwapToken.sol\":415:628  constructor(address _token1,address _token2,address _owner1,address _owner2) public {\r... */\n  callvalue\n  dup1\n  iszero\n  tag_1\n  jumpi\n  0x00\n  dup1\n  revert\ntag_1:\n  pop\n  mload(0x40)\n  sub(codesize, bytecodeSize)\n  dup1\n  bytecodeSize\n  dup4\n  codecopy\n  dup2\n  dup2\n  add\n  0x40\n  mstore\n  dup2\n  add\n  swap1\n  tag_2\n  swap2\n  swap1\n  tag_3\n  jump\t// in\ntag_2:\n    /* \"practice/SwapToken.sol\":526:533  _token1 */\n  dup4\n    /* \"practice/SwapToken.sol\":510:516  token1 */\n  0x00\n  dup1\n    /* \"practice/SwapToken.sol\":510:534  token1 = IERC20(_token1) */\n  0x0100\n  exp\n  dup2\n  sload\n  dup2\n  0xffffffffffffffffffffffffffffffffffffffff\n  mul\n  not\n  and\n  swap1\n  dup4\n  0xffffffffffffffffffffffffffffffffffffffff\n  and\n  mul\n  or\n  swap1\n  sstore\n  pop\n    /* \"practice/SwapToken.sol\":560:567  _token2 */\n  dup3\n    /* \"practice/SwapToken.sol\":545:551  token2 */\n  0x02\n  0x00\n    /* \"practice/SwapToken.sol\":545:568  token2 =IERC20(_token2) */\n  0x0100\n  exp\n  dup2\n  sload\n  dup2\n  0xffffffffffffffffffffffffffffffffffffffff\n  mul\n  not\n  and\n  swap1\n  dup4\n  0xffffffffffffffffffffffffffffffffffffffff\n  and\n  mul\n  or\n  swap1\n  sstore\n  pop\n    /* \"practice/SwapToken.sol\":587:594  _owner1 */\n  dup2\n    /* \"practice/SwapToken.sol\":579:585  owner1 */\n  0x01\n  0x00\n    /* \"practice/SwapToken.sol\":579:594  owner1 =_owner1 */\n  0x0100\n  exp\n  dup2\n  sload\n  dup2\n  0xffffffffffffffffffffffffffffffffffffffff\n  mul\n  not\n  and\n  swap1\n  dup4\n  0xffffffffffffffffffffffffffffffffffffffff\n  and\n  mul\n  or\n  swap1\n  sstore\n  pop\n    /* \"practice/SwapToken.sol\":613:620  _owner2 */\n  dup1\n    /* \"practice/SwapToken.sol\":605:611  owner2 */\n  0x03\n  0x00\n    /* \"practice/SwapToken.sol\":605:620  owner2 =_owner2 */\n  0x0100\n  exp\n  dup2\n  sload\n  dup2\n  0xffffffffffffffffffffffffffffffffffffffff\n  mul\n  not\n  and\n  swap1\n  dup4\n  0xffffffffffffffffffffffffffffffffffffffff\n  and\n  mul\n  or\n  swap1\n  sstore\n  pop\n    /* \"practice/SwapToken.sol\":415:628  constructor(address _token1,address _token2,address _owner1,address _owner2) public {\r... */\n  pop\n  pop\n  pop\n  pop\n    /* \"practice/SwapToken.sol\":272:1174  contract TokenSwap{\r... */\n  jump(tag_6)\n    /* \"#utility.yul\":7:150   */\ntag_8:\n  0x00\n    /* \"#utility.yul\":95:101   */\n  dup2\n    /* \"#utility.yul\":89:102   */\n  mload\n    /* \"#utility.yul\":80:102   */\n  swap1\n  pop\n    /* \"#utility.yul\":111:144   */\n  tag_10\n    /* \"#utility.yul\":138:143   */\n  dup2\n    /* \"#utility.yul\":111:144   */\n  tag_11\n  jump\t// in\ntag_10:\n    /* \"#utility.yul\":70:150   */\n  swap3\n  swap2\n  pop\n  pop\n  jump\t// out\n    /* \"#utility.yul\":156:909   */\ntag_3:\n  0x00\n  dup1\n  0x00\n  dup1\n    /* \"#utility.yul\":326:329   */\n  0x80\n    /* \"#utility.yul\":314:323   */\n  dup6\n    /* \"#utility.yul\":305:312   */\n  dup8\n    /* \"#utility.yul\":301:324   */\n  sub\n    /* \"#utility.yul\":297:330   */\n  slt\n    /* \"#utility.yul\":294:296   */\n  iszero\n  tag_13\n  jumpi\n    /* \"#utility.yul\":343:344   */\n  0x00\n    /* \"#utility.yul\":340:341   */\n  dup1\n    /* \"#utility.yul\":333:345   */\n  revert\n    /* \"#utility.yul\":294:296   */\ntag_13:\n    /* \"#utility.yul\":386:387   */\n  0x00\n    /* \"#utility.yul\":411:475   */\n  tag_14\n    /* \"#utility.yul\":467:474   */\n  dup8\n    /* \"#utility.yul\":458:464   */\n  dup3\n    /* \"#utility.yul\":447:456   */\n  dup9\n    /* \"#utility.yul\":443:465   */\n  add\n    /* \"#utility.yul\":411:475   */\n  tag_8\n  jump\t// in\ntag_14:\n    /* \"#utility.yul\":401:475   */\n  swap5\n  pop\n    /* \"#utility.yul\":357:485   */\n  pop\n    /* \"#utility.yul\":524:526   */\n  0x20\n    /* \"#utility.yul\":550:614   */\n  tag_15\n    /* \"#utility.yul\":606:613   */\n  dup8\n    /* \"#utility.yul\":597:603   */\n  dup3\n    /* \"#utility.yul\":586:595   */\n  dup9\n    /* \"#utility.yul\":582:604   */\n  add\n    /* \"#utility.yul\":550:614   */\n  tag_8\n  jump\t// in\ntag_15:\n    /* \"#utility.yul\":540:614   */\n  swap4\n  pop\n    /* \"#utility.yul\":495:624   */\n  pop\n    /* \"#utility.yul\":663:665   */\n  0x40\n    /* \"#utility.yul\":689:753   */\n  tag_16\n    /* \"#utility.yul\":745:752   */\n  dup8\n    /* \"#utility.yul\":736:742   */\n  dup3\n    /* \"#utility.yul\":725:734   */\n  dup9\n    /* \"#utility.yul\":721:743   */\n  add\n    /* \"#utility.yul\":689:753   */\n  tag_8\n  jump\t// in\ntag_16:\n    /* \"#utility.yul\":679:753   */\n  swap3\n  pop\n    /* \"#utility.yul\":634:763   */\n  pop\n    /* \"#utility.yul\":802:804   */\n  0x60\n    /* \"#utility.yul\":828:892   */\n  tag_17\n    /* \"#utility.yul\":884:891   */\n  dup8\n    /* \"#utility.yul\":875:881   */\n  dup3\n    /* \"#utility.yul\":864:873   */\n  dup9\n    /* \"#utility.yul\":860:882   */\n  add\n    /* \"#utility.yul\":828:892   */\n  tag_8\n  jump\t// in\ntag_17:\n    /* \"#utility.yul\":818:892   */\n  swap2\n  pop\n    /* \"#utility.yul\":773:902   */\n  pop\n    /* \"#utility.yul\":284:909   */\n  swap3\n  swap6\n  swap2\n  swap5\n  pop\n  swap3\n  pop\n  jump\t// out\n    /* \"#utility.yul\":915:1011   */\ntag_18:\n  0x00\n    /* \"#utility.yul\":981:1005   */\n  tag_20\n    /* \"#utility.yul\":999:1004   */\n  dup3\n    /* \"#utility.yul\":981:1005   */\n  tag_21\n  jump\t// in\ntag_20:\n    /* \"#utility.yul\":970:1005   */\n  swap1\n  pop\n    /* \"#utility.yul\":960:1011   */\n  swap2\n  swap1\n  pop\n  jump\t// out\n    /* \"#utility.yul\":1017:1143   */\ntag_21:\n  0x00\n    /* \"#utility.yul\":1094:1136   */\n  0xffffffffffffffffffffffffffffffffffffffff\n    /* \"#utility.yul\":1087:1092   */\n  dup3\n    /* \"#utility.yul\":1083:1137   */\n  and\n    /* \"#utility.yul\":1072:1137   */\n  swap1\n  pop\n    /* \"#utility.yul\":1062:1143   */\n  swap2\n  swap1\n  pop\n  jump\t// out\n    /* \"#utility.yul\":1149:1271   */\ntag_11:\n    /* \"#utility.yul\":1222:1246   */\n  tag_24\n    /* \"#utility.yul\":1240:1245   */\n  dup2\n    /* \"#utility.yul\":1222:1246   */\n  tag_18\n  jump\t// in\ntag_24:\n    /* \"#utility.yul\":1215:1220   */\n  dup2\n    /* \"#utility.yul\":1212:1247   */\n  eq\n    /* \"#utility.yul\":1202:1204   */\n  tag_25\n  jumpi\n    /* \"#utility.yul\":1261:1262   */\n  0x00\n    /* \"#utility.yul\":1258:1259   */\n  dup1\n    /* \"#utility.yul\":1251:1263   */\n  revert\n    /* \"#utility.yul\":1202:1204   */\ntag_25:\n    /* \"#utility.yul\":1192:1271   */\n  pop\n  jump\t// out\n    /* \"practice/SwapToken.sol\":272:1174  contract TokenSwap{\r... */\ntag_6:\n  dataSize(sub_0)\n  dup1\n  dataOffset(sub_0)\n  0x00\n  codecopy\n  0x00\n  return\nstop\n\nsub_0: assembly {\n        /* \"practice/SwapToken.sol\":272:1174  contract TokenSwap{\r... */\n      mstore(0x40, 0x80)\n      callvalue\n      dup1\n      iszero\n      tag_1\n      jumpi\n      0x00\n      dup1\n      revert\n    tag_1:\n      pop\n      jumpi(tag_2, lt(calldatasize, 0x04))\n      shr(0xe0, calldataload(0x00))\n      dup1\n      0x015fc8ee\n      eq\n      tag_3\n      jumpi\n      dup1\n      0x25be124e\n      eq\n      tag_4\n      jumpi\n      dup1\n      0x52709725\n      eq\n      tag_5\n      jumpi\n      dup1\n      0x73688914\n      eq\n      tag_6\n      jumpi\n      dup1\n      0xd21220a7\n      eq\n      tag_7\n      jumpi\n    tag_2:\n      0x00\n      dup1\n      revert\n        /* \"practice/SwapToken.sol\":636:946  function Swap(uint256 _amout1,uint256 _amout2)public{\r... */\n    tag_3:\n      tag_8\n      0x04\n      dup1\n      calldatasize\n      sub\n      dup2\n      add\n      swap1\n      tag_9\n      swap2\n      swap1\n      tag_10\n      jump\t// in\n    tag_9:\n      tag_11\n      jump\t// in\n    tag_8:\n      stop\n        /* \"practice/SwapToken.sol\":354:374  IERC20 public token2 */\n    tag_4:\n      tag_12\n      tag_13\n      jump\t// in\n    tag_12:\n      mload(0x40)\n      tag_14\n      swap2\n      swap1\n      tag_15\n      jump\t// in\n    tag_14:\n      mload(0x40)\n      dup1\n      swap2\n      sub\n      swap1\n      return\n        /* \"practice/SwapToken.sol\":381:402  address public owner2 */\n    tag_5:\n      tag_16\n      tag_17\n      jump\t// in\n    tag_16:\n      mload(0x40)\n      tag_18\n      swap2\n      swap1\n      tag_19\n      jump\t// in\n    tag_18:\n      mload(0x40)\n      dup1\n      swap2\n      sub\n      swap1\n      return\n        /* \"practice/SwapToken.sol\":326:347  address public owner1 */\n    tag_6:\n      tag_20\n      tag_21\n      jump\t// in\n    tag_20:\n      mload(0x40)\n      tag_22\n      swap2\n      swap1\n      tag_19\n      jump\t// in\n    tag_22:\n      mload(0x40)\n      dup1\n      swap2\n      sub\n      swap1\n      return\n        /* \"practice/SwapToken.sol\":299:319  IERC20 public token1 */\n    tag_7:\n      tag_23\n      tag_24\n      jump\t// in\n    tag_23:\n      mload(0x40)\n      tag_25\n      swap2\n      swap1\n      tag_15\n      jump\t// in\n    tag_25:\n      mload(0x40)\n      dup1\n      swap2\n      sub\n      swap1\n      return\n        /* \"practice/SwapToken.sol\":636:946  function Swap(uint256 _amout1,uint256 _amout2)public{\r... */\n    tag_11:\n        /* \"practice/SwapToken.sol\":747:754  _amout1 */\n      dup2\n        /* \"practice/SwapToken.sol\":707:713  token1 */\n      0x00\n      dup1\n      sload\n      swap1\n      0x0100\n      exp\n      swap1\n      div\n      0xffffffffffffffffffffffffffffffffffffffff\n      and\n        /* \"practice/SwapToken.sol\":707:723  token1.allowance */\n      0xffffffffffffffffffffffffffffffffffffffff\n      and\n      0xdd62ed3e\n        /* \"practice/SwapToken.sol\":724:730  owner1 */\n      0x01\n      0x00\n      swap1\n      sload\n      swap1\n      0x0100\n      exp\n      swap1\n      div\n      0xffffffffffffffffffffffffffffffffffffffff\n      and\n        /* \"practice/SwapToken.sol\":739:743  this */\n      address\n        /* \"practice/SwapToken.sol\":707:745  token1.allowance(owner1,address(this)) */\n      mload(0x40)\n      dup4\n      0xffffffff\n      and\n      0xe0\n      shl\n      dup2\n      mstore\n      0x04\n      add\n      tag_27\n      swap3\n      swap2\n      swap1\n      tag_28\n      jump\t// in\n    tag_27:\n      0x20\n      mload(0x40)\n      dup1\n      dup4\n      sub\n      dup2\n      dup7\n      dup1\n      extcodesize\n      iszero\n      dup1\n      iszero\n      tag_29\n      jumpi\n      0x00\n      dup1\n      revert\n    tag_29:\n      pop\n      gas\n      staticcall\n      iszero\n      dup1\n      iszero\n      tag_31\n      jumpi\n      returndatasize\n      0x00\n      dup1\n      returndatacopy\n      revert(0x00, returndatasize)\n    tag_31:\n      pop\n      pop\n      pop\n      pop\n      mload(0x40)\n      returndatasize\n      not(0x1f)\n      0x1f\n      dup3\n      add\n      and\n      dup3\n      add\n      dup1\n      0x40\n      mstore\n      pop\n      dup2\n      add\n      swap1\n      tag_32\n      swap2\n      swap1\n      tag_33\n      jump\t// in\n    tag_32:\n        /* \"practice/SwapToken.sol\":707:754  token1.allowance(owner1,address(this))>=_amout1 */\n      lt\n      iszero\n        /* \"practice/SwapToken.sol\":699:755  require(token1.allowance(owner1,address(this))>=_amout1) */\n      tag_34\n      jumpi\n      0x00\n      dup1\n      revert\n    tag_34:\n        /* \"practice/SwapToken.sol\":814:821  _amout2 */\n      dup1\n        /* \"practice/SwapToken.sol\":774:780  token2 */\n      0x02\n      0x00\n      swap1\n      sload\n      swap1\n      0x0100\n      exp\n      swap1\n      div\n      0xffffffffffffffffffffffffffffffffffffffff\n      and\n        /* \"practice/SwapToken.sol\":774:790  token2.allowance */\n      0xffffffffffffffffffffffffffffffffffffffff\n      and\n      0xdd62ed3e\n        /* \"practice/SwapToken.sol\":791:797  owner2 */\n      0x03\n      0x00\n      swap1\n      sload\n      swap1\n      0x0100\n      exp\n      swap1\n      div\n      0xffffffffffffffffffffffffffffffffffffffff\n      and\n        /* \"practice/SwapToken.sol\":806:810  this */\n      address\n        /* \"practice/SwapToken.sol\":774:812  token2.allowance(owner2,address(this)) */\n      mload(0x40)\n      dup4\n      0xffffffff\n      and\n      0xe0\n      shl\n      dup2\n      mstore\n      0x04\n      add\n      tag_35\n      swap3\n      swap2\n      swap1\n      tag_28\n      jump\t// in\n    tag_35:\n      0x20\n      mload(0x40)\n      dup1\n      dup4\n      sub\n      dup2\n      dup7\n      dup1\n      extcodesize\n      iszero\n      dup1\n      iszero\n      tag_36\n      jumpi\n      0x00\n      dup1\n      revert\n    tag_36:\n      pop\n      gas\n      staticcall\n      iszero\n      dup1\n      iszero\n      tag_38\n      jumpi\n      returndatasize\n      0x00\n      dup1\n      returndatacopy\n      revert(0x00, returndatasize)\n    tag_38:\n      pop\n      pop\n      pop\n      pop\n      mload(0x40)\n      returndatasize\n      not(0x1f)\n      0x1f\n      dup3\n      add\n      and\n      dup3\n      add\n      dup1\n      0x40\n      mstore\n      pop\n      dup2\n      add\n      swap1\n      tag_39\n      swap2\n      swap1\n      tag_33\n      jump\t// in\n    tag_39:\n        /* \"practice/SwapToken.sol\":774:821  token2.allowance(owner2,address(this))>=_amout2 */\n      lt\n      iszero\n        /* \"practice/SwapToken.sol\":766:822  require(token2.allowance(owner2,address(this))>=_amout2) */\n      tag_40\n      jumpi\n      0x00\n      dup1\n      revert\n    tag_40:\n        /* \"practice/SwapToken.sol\":833:880  _safeTransferfrom(token1,owner1,owner2,_amout1) */\n      tag_41\n        /* \"practice/SwapToken.sol\":851:857  token1 */\n      0x00\n      dup1\n      sload\n      swap1\n      0x0100\n      exp\n      swap1\n      div\n      0xffffffffffffffffffffffffffffffffffffffff\n      and\n        /* \"practice/SwapToken.sol\":858:864  owner1 */\n      0x01\n      0x00\n      swap1\n      sload\n      swap1\n      0x0100\n      exp\n      swap1\n      div\n      0xffffffffffffffffffffffffffffffffffffffff\n      and\n        /* \"practice/SwapToken.sol\":865:871  owner2 */\n      0x03\n      0x00\n      swap1\n      sload\n      swap1\n      0x0100\n      exp\n      swap1\n      div\n      0xffffffffffffffffffffffffffffffffffffffff\n      and\n        /* \"practice/SwapToken.sol\":872:879  _amout1 */\n      dup6\n        /* \"practice/SwapToken.sol\":833:850  _safeTransferfrom */\n      tag_42\n        /* \"practice/SwapToken.sol\":833:880  _safeTransferfrom(token1,owner1,owner2,_amout1) */\n      jump\t// in\n    tag_41:\n        /* \"practice/SwapToken.sol\":891:938  _safeTransferfrom(token2,owner2,owner1,_amout2) */\n      tag_43\n        /* \"practice/SwapToken.sol\":909:915  token2 */\n      0x02\n      0x00\n      swap1\n      sload\n      swap1\n      0x0100\n      exp\n      swap1\n      div\n      0xffffffffffffffffffffffffffffffffffffffff\n      and\n        /* \"practice/SwapToken.sol\":916:922  owner2 */\n      0x03\n      0x00\n      swap1\n      sload\n      swap1\n      0x0100\n      exp\n      swap1\n      div\n      0xffffffffffffffffffffffffffffffffffffffff\n      and\n        /* \"practice/SwapToken.sol\":923:929  owner1 */\n      0x01\n      0x00\n      swap1\n      sload\n      swap1\n      0x0100\n      exp\n      swap1\n      div\n      0xffffffffffffffffffffffffffffffffffffffff\n      and\n        /* \"practice/SwapToken.sol\":930:937  _amout2 */\n      dup5\n        /* \"practice/SwapToken.sol\":891:908  _safeTransferfrom */\n      tag_42\n        /* \"practice/SwapToken.sol\":891:938  _safeTransferfrom(token2,owner2,owner1,_amout2) */\n      jump\t// in\n    tag_43:\n        /* \"practice/SwapToken.sol\":636:946  function Swap(uint256 _amout1,uint256 _amout2)public{\r... */\n      pop\n      pop\n      jump\t// out\n        /* \"practice/SwapToken.sol\":354:374  IERC20 public token2 */\n    tag_13:\n      0x02\n      0x00\n      swap1\n      sload\n      swap1\n      0x0100\n      exp\n      swap1\n      div\n      0xffffffffffffffffffffffffffffffffffffffff\n      and\n      dup2\n      jump\t// out\n        /* \"practice/SwapToken.sol\":381:402  address public owner2 */\n    tag_17:\n      0x03\n      0x00\n      swap1\n      sload\n      swap1\n      0x0100\n      exp\n      swap1\n      div\n      0xffffffffffffffffffffffffffffffffffffffff\n      and\n      dup2\n      jump\t// out\n        /* \"practice/SwapToken.sol\":326:347  address public owner1 */\n    tag_21:\n      0x01\n      0x00\n      swap1\n      sload\n      swap1\n      0x0100\n      exp\n      swap1\n      div\n      0xffffffffffffffffffffffffffffffffffffffff\n      and\n      dup2\n      jump\t// out\n        /* \"practice/SwapToken.sol\":299:319  IERC20 public token1 */\n    tag_24:\n      0x00\n      dup1\n      sload\n      swap1\n      0x0100\n      exp\n      swap1\n      div\n      0xffffffffffffffffffffffffffffffffffffffff\n      and\n      dup2\n      jump\t// out\n        /* \"practice/SwapToken.sol\":954:1167  function _safeTransferfrom(IERC20 _token,address _owner,address _sender,uint256 amount) internal{\r... */\n    tag_42:\n        /* \"practice/SwapToken.sol\":1061:1070  bool sent */\n      0x00\n        /* \"practice/SwapToken.sol\":1071:1077  _token */\n      dup5\n        /* \"practice/SwapToken.sol\":1071:1090  _token.transferFrom */\n      0xffffffffffffffffffffffffffffffffffffffff\n      and\n      0x23b872dd\n        /* \"practice/SwapToken.sol\":1091:1097  _owner */\n      dup6\n        /* \"practice/SwapToken.sol\":1098:1105  _sender */\n      dup6\n        /* \"practice/SwapToken.sol\":1106:1112  amount */\n      dup6\n        /* \"practice/SwapToken.sol\":1071:1113  _token.transferFrom(_owner,_sender,amount) */\n      mload(0x40)\n      dup5\n      0xffffffff\n      and\n      0xe0\n      shl\n      dup2\n      mstore\n      0x04\n      add\n      tag_45\n      swap4\n      swap3\n      swap2\n      swap1\n      tag_46\n      jump\t// in\n    tag_45:\n      0x20\n      mload(0x40)\n      dup1\n      dup4\n      sub\n      dup2\n      0x00\n      dup8\n      dup1\n      extcodesize\n      iszero\n      dup1\n      iszero\n      tag_47\n      jumpi\n      0x00\n      dup1\n      revert\n    tag_47:\n      pop\n      gas\n      call\n      iszero\n      dup1\n      iszero\n      tag_49\n      jumpi\n      returndatasize\n      0x00\n      dup1\n      returndatacopy\n      revert(0x00, returndatasize)\n    tag_49:\n      pop\n      pop\n      pop\n      pop\n      mload(0x40)\n      returndatasize\n      not(0x1f)\n      0x1f\n      dup3\n      add\n      and\n      dup3\n      add\n      dup1\n      0x40\n      mstore\n      pop\n      dup2\n      add\n      swap1\n      tag_50\n      swap2\n      swap1\n      tag_51\n      jump\t// in\n    tag_50:\n        /* \"practice/SwapToken.sol\":1061:1113  bool sent=_token.transferFrom(_owner,_sender,amount) */\n      swap1\n      pop\n        /* \"practice/SwapToken.sol\":1132:1136  sent */\n      dup1\n        /* \"practice/SwapToken.sol\":1124:1159  require(sent,\"token transfer fail\") */\n      tag_52\n      jumpi\n      mload(0x40)\n      0x08c379a000000000000000000000000000000000000000000000000000000000\n      dup2\n      mstore\n      0x04\n      add\n      tag_53\n      swap1\n      tag_54\n      jump\t// in\n    tag_53:\n      mload(0x40)\n      dup1\n      swap2\n      sub\n      swap1\n      revert\n    tag_52:\n        /* \"practice/SwapToken.sol\":954:1167  function _safeTransferfrom(IERC20 _token,address _owner,address _sender,uint256 amount) internal{\r... */\n      pop\n      pop\n      pop\n      pop\n      pop\n      jump\t// out\n        /* \"#utility.yul\":7:144   */\n    tag_56:\n      0x00\n        /* \"#utility.yul\":92:98   */\n      dup2\n        /* \"#utility.yul\":86:99   */\n      mload\n        /* \"#utility.yul\":77:99   */\n      swap1\n      pop\n        /* \"#utility.yul\":108:138   */\n      tag_58\n        /* \"#utility.yul\":132:137   */\n      dup2\n        /* \"#utility.yul\":108:138   */\n      tag_59\n      jump\t// in\n    tag_58:\n        /* \"#utility.yul\":67:144   */\n      swap3\n      swap2\n      pop\n      pop\n      jump\t// out\n        /* \"#utility.yul\":150:289   */\n    tag_60:\n      0x00\n        /* \"#utility.yul\":234:240   */\n      dup2\n        /* \"#utility.yul\":221:241   */\n      calldataload\n        /* \"#utility.yul\":212:241   */\n      swap1\n      pop\n        /* \"#utility.yul\":250:283   */\n      tag_62\n        /* \"#utility.yul\":277:282   */\n      dup2\n        /* \"#utility.yul\":250:283   */\n      tag_63\n      jump\t// in\n    tag_62:\n        /* \"#utility.yul\":202:289   */\n      swap3\n      swap2\n      pop\n      pop\n      jump\t// out\n        /* \"#utility.yul\":295:438   */\n    tag_64:\n      0x00\n        /* \"#utility.yul\":383:389   */\n      dup2\n        /* \"#utility.yul\":377:390   */\n      mload\n        /* \"#utility.yul\":368:390   */\n      swap1\n      pop\n        /* \"#utility.yul\":399:432   */\n      tag_66\n        /* \"#utility.yul\":426:431   */\n      dup2\n        /* \"#utility.yul\":399:432   */\n      tag_63\n      jump\t// in\n    tag_66:\n        /* \"#utility.yul\":358:438   */\n      swap3\n      swap2\n      pop\n      pop\n      jump\t// out\n        /* \"#utility.yul\":444:722   */\n    tag_51:\n      0x00\n        /* \"#utility.yul\":560:562   */\n      0x20\n        /* \"#utility.yul\":548:557   */\n      dup3\n        /* \"#utility.yul\":539:546   */\n      dup5\n        /* \"#utility.yul\":535:558   */\n      sub\n        /* \"#utility.yul\":531:563   */\n      slt\n        /* \"#utility.yul\":528:530   */\n      iszero\n      tag_68\n      jumpi\n        /* \"#utility.yul\":576:577   */\n      0x00\n        /* \"#utility.yul\":573:574   */\n      dup1\n        /* \"#utility.yul\":566:578   */\n      revert\n        /* \"#utility.yul\":528:530   */\n    tag_68:\n        /* \"#utility.yul\":619:620   */\n      0x00\n        /* \"#utility.yul\":644:705   */\n      tag_69\n        /* \"#utility.yul\":697:704   */\n      dup5\n        /* \"#utility.yul\":688:694   */\n      dup3\n        /* \"#utility.yul\":677:686   */\n      dup6\n        /* \"#utility.yul\":673:695   */\n      add\n        /* \"#utility.yul\":644:705   */\n      tag_56\n      jump\t// in\n    tag_69:\n        /* \"#utility.yul\":634:705   */\n      swap2\n      pop\n        /* \"#utility.yul\":590:715   */\n      pop\n        /* \"#utility.yul\":518:722   */\n      swap3\n      swap2\n      pop\n      pop\n      jump\t// out\n        /* \"#utility.yul\":728:1012   */\n    tag_33:\n      0x00\n        /* \"#utility.yul\":847:849   */\n      0x20\n        /* \"#utility.yul\":835:844   */\n      dup3\n        /* \"#utility.yul\":826:833   */\n      dup5\n        /* \"#utility.yul\":822:845   */\n      sub\n        /* \"#utility.yul\":818:850   */\n      slt\n        /* \"#utility.yul\":815:817   */\n      iszero\n      tag_71\n      jumpi\n        /* \"#utility.yul\":863:864   */\n      0x00\n        /* \"#utility.yul\":860:861   */\n      dup1\n        /* \"#utility.yul\":853:865   */\n      revert\n        /* \"#utility.yul\":815:817   */\n    tag_71:\n        /* \"#utility.yul\":906:907   */\n      0x00\n        /* \"#utility.yul\":931:995   */\n      tag_72\n        /* \"#utility.yul\":987:994   */\n      dup5\n        /* \"#utility.yul\":978:984   */\n      dup3\n        /* \"#utility.yul\":967:976   */\n      dup6\n        /* \"#utility.yul\":963:985   */\n      add\n        /* \"#utility.yul\":931:995   */\n      tag_64\n      jump\t// in\n    tag_72:\n        /* \"#utility.yul\":921:995   */\n      swap2\n      pop\n        /* \"#utility.yul\":877:1005   */\n      pop\n        /* \"#utility.yul\":805:1012   */\n      swap3\n      swap2\n      pop\n      pop\n      jump\t// out\n        /* \"#utility.yul\":1018:1425   */\n    tag_10:\n      0x00\n      dup1\n        /* \"#utility.yul\":1143:1145   */\n      0x40\n        /* \"#utility.yul\":1131:1140   */\n      dup4\n        /* \"#utility.yul\":1122:1129   */\n      dup6\n        /* \"#utility.yul\":1118:1141   */\n      sub\n        /* \"#utility.yul\":1114:1146   */\n      slt\n        /* \"#utility.yul\":1111:1113   */\n      iszero\n      tag_74\n      jumpi\n        /* \"#utility.yul\":1159:1160   */\n      0x00\n        /* \"#utility.yul\":1156:1157   */\n      dup1\n        /* \"#utility.yul\":1149:1161   */\n      revert\n        /* \"#utility.yul\":1111:1113   */\n    tag_74:\n        /* \"#utility.yul\":1202:1203   */\n      0x00\n        /* \"#utility.yul\":1227:1280   */\n      tag_75\n        /* \"#utility.yul\":1272:1279   */\n      dup6\n        /* \"#utility.yul\":1263:1269   */\n      dup3\n        /* \"#utility.yul\":1252:1261   */\n      dup7\n        /* \"#utility.yul\":1248:1270   */\n      add\n        /* \"#utility.yul\":1227:1280   */\n      tag_60\n      jump\t// in\n    tag_75:\n        /* \"#utility.yul\":1217:1280   */\n      swap3\n      pop\n        /* \"#utility.yul\":1173:1290   */\n      pop\n        /* \"#utility.yul\":1329:1331   */\n      0x20\n        /* \"#utility.yul\":1355:1408   */\n      tag_76\n        /* \"#utility.yul\":1400:1407   */\n      dup6\n        /* \"#utility.yul\":1391:1397   */\n      dup3\n        /* \"#utility.yul\":1380:1389   */\n      dup7\n        /* \"#utility.yul\":1376:1398   */\n      add\n        /* \"#utility.yul\":1355:1408   */\n      tag_60\n      jump\t// in\n    tag_76:\n        /* \"#utility.yul\":1345:1408   */\n      swap2\n      pop\n        /* \"#utility.yul\":1300:1418   */\n      pop\n        /* \"#utility.yul\":1101:1425   */\n      swap3\n      pop\n      swap3\n      swap1\n      pop\n      jump\t// out\n        /* \"#utility.yul\":1431:1549   */\n    tag_77:\n        /* \"#utility.yul\":1518:1542   */\n      tag_79\n        /* \"#utility.yul\":1536:1541   */\n      dup2\n        /* \"#utility.yul\":1518:1542   */\n      tag_80\n      jump\t// in\n    tag_79:\n        /* \"#utility.yul\":1513:1516   */\n      dup3\n        /* \"#utility.yul\":1506:1543   */\n      mstore\n        /* \"#utility.yul\":1496:1549   */\n      pop\n      pop\n      jump\t// out\n        /* \"#utility.yul\":1555:1714   */\n    tag_81:\n        /* \"#utility.yul\":1656:1707   */\n      tag_83\n        /* \"#utility.yul\":1701:1706   */\n      dup2\n        /* \"#utility.yul\":1656:1707   */\n      tag_84\n      jump\t// in\n    tag_83:\n        /* \"#utility.yul\":1651:1654   */\n      dup3\n        /* \"#utility.yul\":1644:1708   */\n      mstore\n        /* \"#utility.yul\":1634:1714   */\n      pop\n      pop\n      jump\t// out\n        /* \"#utility.yul\":1720:2037   */\n    tag_85:\n      0x00\n        /* \"#utility.yul\":1883:1950   */\n      tag_87\n        /* \"#utility.yul\":1947:1949   */\n      0x13\n        /* \"#utility.yul\":1942:1945   */\n      dup4\n        /* \"#utility.yul\":1883:1950   */\n      tag_88\n      jump\t// in\n    tag_87:\n        /* \"#utility.yul\":1876:1950   */\n      swap2\n      pop\n        /* \"#utility.yul\":1980:2001   */\n      0x746f6b656e207472616e73666572206661696c00000000000000000000000000\n        /* \"#utility.yul\":1976:1977   */\n      0x00\n        /* \"#utility.yul\":1971:1974   */\n      dup4\n        /* \"#utility.yul\":1967:1978   */\n      add\n        /* \"#utility.yul\":1960:2002   */\n      mstore\n        /* \"#utility.yul\":2028:2030   */\n      0x20\n        /* \"#utility.yul\":2023:2026   */\n      dup3\n        /* \"#utility.yul\":2019:2031   */\n      add\n        /* \"#utility.yul\":2012:2031   */\n      swap1\n      pop\n        /* \"#utility.yul\":1866:2037   */\n      swap2\n      swap1\n      pop\n      jump\t// out\n        /* \"#utility.yul\":2043:2161   */\n    tag_89:\n        /* \"#utility.yul\":2130:2154   */\n      tag_91\n        /* \"#utility.yul\":2148:2153   */\n      dup2\n        /* \"#utility.yul\":2130:2154   */\n      tag_92\n      jump\t// in\n    tag_91:\n        /* \"#utility.yul\":2125:2128   */\n      dup3\n        /* \"#utility.yul\":2118:2155   */\n      mstore\n        /* \"#utility.yul\":2108:2161   */\n      pop\n      pop\n      jump\t// out\n        /* \"#utility.yul\":2167:2389   */\n    tag_19:\n      0x00\n        /* \"#utility.yul\":2298:2300   */\n      0x20\n        /* \"#utility.yul\":2287:2296   */\n      dup3\n        /* \"#utility.yul\":2283:2301   */\n      add\n        /* \"#utility.yul\":2275:2301   */\n      swap1\n      pop\n        /* \"#utility.yul\":2311:2382   */\n      tag_94\n        /* \"#utility.yul\":2379:2380   */\n      0x00\n        /* \"#utility.yul\":2368:2377   */\n      dup4\n        /* \"#utility.yul\":2364:2381   */\n      add\n        /* \"#utility.yul\":2355:2361   */\n      dup5\n        /* \"#utility.yul\":2311:2382   */\n      tag_77\n      jump\t// in\n    tag_94:\n        /* \"#utility.yul\":2265:2389   */\n      swap3\n      swap2\n      pop\n      pop\n      jump\t// out\n        /* \"#utility.yul\":2395:2727   */\n    tag_28:\n      0x00\n        /* \"#utility.yul\":2554:2556   */\n      0x40\n        /* \"#utility.yul\":2543:2552   */\n      dup3\n        /* \"#utility.yul\":2539:2557   */\n      add\n        /* \"#utility.yul\":2531:2557   */\n      swap1\n      pop\n        /* \"#utility.yul\":2567:2638   */\n      tag_96\n        /* \"#utility.yul\":2635:2636   */\n      0x00\n        /* \"#utility.yul\":2624:2633   */\n      dup4\n        /* \"#utility.yul\":2620:2637   */\n      add\n        /* \"#utility.yul\":2611:2617   */\n      dup6\n        /* \"#utility.yul\":2567:2638   */\n      tag_77\n      jump\t// in\n    tag_96:\n        /* \"#utility.yul\":2648:2720   */\n      tag_97\n        /* \"#utility.yul\":2716:2718   */\n      0x20\n        /* \"#utility.yul\":2705:2714   */\n      dup4\n        /* \"#utility.yul\":2701:2719   */\n      add\n        /* \"#utility.yul\":2692:2698   */\n      dup5\n        /* \"#utility.yul\":2648:2720   */\n      tag_77\n      jump\t// in\n    tag_97:\n        /* \"#utility.yul\":2521:2727   */\n      swap4\n      swap3\n      pop\n      pop\n      pop\n      jump\t// out\n        /* \"#utility.yul\":2733:3175   */\n    tag_46:\n      0x00\n        /* \"#utility.yul\":2920:2922   */\n      0x60\n        /* \"#utility.yul\":2909:2918   */\n      dup3\n        /* \"#utility.yul\":2905:2923   */\n      add\n        /* \"#utility.yul\":2897:2923   */\n      swap1\n      pop\n        /* \"#utility.yul\":2933:3004   */\n      tag_99\n        /* \"#utility.yul\":3001:3002   */\n      0x00\n        /* \"#utility.yul\":2990:2999   */\n      dup4\n        /* \"#utility.yul\":2986:3003   */\n      add\n        /* \"#utility.yul\":2977:2983   */\n      dup7\n        /* \"#utility.yul\":2933:3004   */\n      tag_77\n      jump\t// in\n    tag_99:\n        /* \"#utility.yul\":3014:3086   */\n      tag_100\n        /* \"#utility.yul\":3082:3084   */\n      0x20\n        /* \"#utility.yul\":3071:3080   */\n      dup4\n        /* \"#utility.yul\":3067:3085   */\n      add\n        /* \"#utility.yul\":3058:3064   */\n      dup6\n        /* \"#utility.yul\":3014:3086   */\n      tag_77\n      jump\t// in\n    tag_100:\n        /* \"#utility.yul\":3096:3168   */\n      tag_101\n        /* \"#utility.yul\":3164:3166   */\n      0x40\n        /* \"#utility.yul\":3153:3162   */\n      dup4\n        /* \"#utility.yul\":3149:3167   */\n      add\n        /* \"#utility.yul\":3140:3146   */\n      dup5\n        /* \"#utility.yul\":3096:3168   */\n      tag_89\n      jump\t// in\n    tag_101:\n        /* \"#utility.yul\":2887:3175   */\n      swap5\n      swap4\n      pop\n      pop\n      pop\n      pop\n      jump\t// out\n        /* \"#utility.yul\":3181:3431   */\n    tag_15:\n      0x00\n        /* \"#utility.yul\":3326:3328   */\n      0x20\n        /* \"#utility.yul\":3315:3324   */\n      dup3\n        /* \"#utility.yul\":3311:3329   */\n      add\n        /* \"#utility.yul\":3303:3329   */\n      swap1\n      pop\n        /* \"#utility.yul\":3339:3424   */\n      tag_103\n        /* \"#utility.yul\":3421:3422   */\n      0x00\n        /* \"#utility.yul\":3410:3419   */\n      dup4\n        /* \"#utility.yul\":3406:3423   */\n      add\n        /* \"#utility.yul\":3397:3403   */\n      dup5\n        /* \"#utility.yul\":3339:3424   */\n      tag_81\n      jump\t// in\n    tag_103:\n        /* \"#utility.yul\":3293:3431   */\n      swap3\n      swap2\n      pop\n      pop\n      jump\t// out\n        /* \"#utility.yul\":3437:3856   */\n    tag_54:\n      0x00\n        /* \"#utility.yul\":3641:3643   */\n      0x20\n        /* \"#utility.yul\":3630:3639   */\n      dup3\n        /* \"#utility.yul\":3626:3644   */\n      add\n        /* \"#utility.yul\":3618:3644   */\n      swap1\n      pop\n        /* \"#utility.yul\":3690:3699   */\n      dup2\n        /* \"#utility.yul\":3684:3688   */\n      dup2\n        /* \"#utility.yul\":3680:3700   */\n      sub\n        /* \"#utility.yul\":3676:3677   */\n      0x00\n        /* \"#utility.yul\":3665:3674   */\n      dup4\n        /* \"#utility.yul\":3661:3678   */\n      add\n        /* \"#utility.yul\":3654:3701   */\n      mstore\n        /* \"#utility.yul\":3718:3849   */\n      tag_105\n        /* \"#utility.yul\":3844:3848   */\n      dup2\n        /* \"#utility.yul\":3718:3849   */\n      tag_85\n      jump\t// in\n    tag_105:\n        /* \"#utility.yul\":3710:3849   */\n      swap1\n      pop\n        /* \"#utility.yul\":3608:3856   */\n      swap2\n      swap1\n      pop\n      jump\t// out\n        /* \"#utility.yul\":3862:4031   */\n    tag_88:\n      0x00\n        /* \"#utility.yul\":3980:3986   */\n      dup3\n        /* \"#utility.yul\":3975:3978   */\n      dup3\n        /* \"#utility.yul\":3968:3987   */\n      mstore\n        /* \"#utility.yul\":4020:4024   */\n      0x20\n        /* \"#utility.yul\":4015:4018   */\n      dup3\n        /* \"#utility.yul\":4011:4025   */\n      add\n        /* \"#utility.yul\":3996:4025   */\n      swap1\n      pop\n        /* \"#utility.yul\":3958:4031   */\n      swap3\n      swap2\n      pop\n      pop\n      jump\t// out\n        /* \"#utility.yul\":4037:4133   */\n    tag_80:\n      0x00\n        /* \"#utility.yul\":4103:4127   */\n      tag_108\n        /* \"#utility.yul\":4121:4126   */\n      dup3\n        /* \"#utility.yul\":4103:4127   */\n      tag_109\n      jump\t// in\n    tag_108:\n        /* \"#utility.yul\":4092:4127   */\n      swap1\n      pop\n        /* \"#utility.yul\":4082:4133   */\n      swap2\n      swap1\n      pop\n      jump\t// out\n        /* \"#utility.yul\":4139:4229   */\n    tag_110:\n      0x00\n        /* \"#utility.yul\":4216:4221   */\n      dup2\n        /* \"#utility.yul\":4209:4222   */\n      iszero\n        /* \"#utility.yul\":4202:4223   */\n      iszero\n        /* \"#utility.yul\":4191:4223   */\n      swap1\n      pop\n        /* \"#utility.yul\":4181:4229   */\n      swap2\n      swap1\n      pop\n      jump\t// out\n        /* \"#utility.yul\":4235:4361   */\n    tag_109:\n      0x00\n        /* \"#utility.yul\":4312:4354   */\n      0xffffffffffffffffffffffffffffffffffffffff\n        /* \"#utility.yul\":4305:4310   */\n      dup3\n        /* \"#utility.yul\":4301:4355   */\n      and\n        /* \"#utility.yul\":4290:4355   */\n      swap1\n      pop\n        /* \"#utility.yul\":4280:4361   */\n      swap2\n      swap1\n      pop\n      jump\t// out\n        /* \"#utility.yul\":4367:4444   */\n    tag_92:\n      0x00\n        /* \"#utility.yul\":4433:4438   */\n      dup2\n        /* \"#utility.yul\":4422:4438   */\n      swap1\n      pop\n        /* \"#utility.yul\":4412:4444   */\n      swap2\n      swap1\n      pop\n      jump\t// out\n        /* \"#utility.yul\":4450:4604   */\n    tag_84:\n      0x00\n        /* \"#utility.yul\":4547:4598   */\n      tag_115\n        /* \"#utility.yul\":4592:4597   */\n      dup3\n        /* \"#utility.yul\":4547:4598   */\n      tag_116\n      jump\t// in\n    tag_115:\n        /* \"#utility.yul\":4534:4598   */\n      swap1\n      pop\n        /* \"#utility.yul\":4524:4604   */\n      swap2\n      swap1\n      pop\n      jump\t// out\n        /* \"#utility.yul\":4610:4737   */\n    tag_116:\n      0x00\n        /* \"#utility.yul\":4707:4731   */\n      tag_118\n        /* \"#utility.yul\":4725:4730   */\n      dup3\n        /* \"#utility.yul\":4707:4731   */\n      tag_109\n      jump\t// in\n    tag_118:\n        /* \"#utility.yul\":4694:4731   */\n      swap1\n      pop\n        /* \"#utility.yul\":4684:4737   */\n      swap2\n      swap1\n      pop\n      jump\t// out\n        /* \"#utility.yul\":4743:4859   */\n    tag_59:\n        /* \"#utility.yul\":4813:4834   */\n      tag_120\n        /* \"#utility.yul\":4828:4833   */\n      dup2\n        /* \"#utility.yul\":4813:4834   */\n      tag_110\n      jump\t// in\n    tag_120:\n        /* \"#utility.yul\":4806:4811   */\n      dup2\n        /* \"#utility.yul\":4803:4835   */\n      eq\n        /* \"#utility.yul\":4793:4795   */\n      tag_121\n      jumpi\n        /* \"#utility.yul\":4849:4850   */\n      0x00\n        /* \"#utility.yul\":4846:4847   */\n      dup1\n        /* \"#utility.yul\":4839:4851   */\n      revert\n        /* \"#utility.yul\":4793:4795   */\n    tag_121:\n        /* \"#utility.yul\":4783:4859   */\n      pop\n      jump\t// out\n        /* \"#utility.yul\":4865:4987   */\n    tag_63:\n        /* \"#utility.yul\":4938:4962   */\n      tag_123\n        /* \"#utility.yul\":4956:4961   */\n      dup2\n        /* \"#utility.yul\":4938:4962   */\n      tag_92\n      jump\t// in\n    tag_123:\n        /* \"#utility.yul\":4931:4936   */\n      dup2\n        /* \"#utility.yul\":4928:4963   */\n      eq\n        /* \"#utility.yul\":4918:4920   */\n      tag_124\n      jumpi\n        /* \"#utility.yul\":4977:4978   */\n      0x00\n        /* \"#utility.yul\":4974:4975   */\n      dup1\n        /* \"#utility.yul\":4967:4979   */\n      revert\n        /* \"#utility.yul\":4918:4920   */\n    tag_124:\n        /* \"#utility.yul\":4908:4987   */\n      pop\n      jump\t// out\n\n    auxdata: 0xa2646970667358221220a021b288add15f91297a18db42ccbd8e893f9536b69d11d0b692826fc61c583164736f6c63430008000033\n}\n",
				"bytecode": {
					"linkReferences": {},
					"object": "608060405234801561001057600080fd5b506040516109d93803806109d983398181016040528101906100329190610153565b836000806101000a81548173ffffffffffffffffffffffffffffffffffffffff021916908373ffffffffffffffffffffffffffffffffffffffff16021790555082600260006101000a81548173ffffffffffffffffffffffffffffffffffffffff021916908373ffffffffffffffffffffffffffffffffffffffff16021790555081600160006101000a81548173ffffffffffffffffffffffffffffffffffffffff021916908373ffffffffffffffffffffffffffffffffffffffff16021790555080600360006101000a81548173ffffffffffffffffffffffffffffffffffffffff021916908373ffffffffffffffffffffffffffffffffffffffff160217905550505050506101ff565b60008151905061014d816101e8565b92915050565b6000806000806080858703121561016957600080fd5b60006101778782880161013e565b94505060206101888782880161013e565b93505060406101998782880161013e565b92505060606101aa8782880161013e565b91505092959194509250565b60006101c1826101c8565b9050919050565b600073ffffffffffffffffffffffffffffffffffffffff82169050919050565b6101f1816101b6565b81146101fc57600080fd5b50565b6107cb8061020e6000396000f3fe608060405234801561001057600080fd5b50600436106100575760003560e01c8063015fc8ee1461005c57806325be124e14610078578063527097251461009657806373688914146100b4578063d21220a7146100d2575b600080fd5b6100766004803603810190610071919061058b565b6100f0565b005b61008061038a565b60405161008d91906106af565b60405180910390f35b61009e6103b0565b6040516100ab9190610634565b60405180910390f35b6100bc6103d6565b6040516100c99190610634565b60405180910390f35b6100da6103fc565b6040516100e791906106af565b60405180910390f35b8160008054906101000a900473ffffffffffffffffffffffffffffffffffffffff1673ffffffffffffffffffffffffffffffffffffffff1663dd62ed3e600160009054906101000a900473ffffffffffffffffffffffffffffffffffffffff16306040518363ffffffff1660e01b815260040161016e92919061064f565b60206040518083038186803b15801561018657600080fd5b505afa15801561019a573d6000803e3d6000fd5b505050506040513d601f19601f820116820180604052508101906101be9190610562565b10156101c957600080fd5b80600260009054906101000a900473ffffffffffffffffffffffffffffffffffffffff1673ffffffffffffffffffffffffffffffffffffffff1663dd62ed3e600360009054906101000a900473ffffffffffffffffffffffffffffffffffffffff16306040518363ffffffff1660e01b815260040161024992919061064f565b60206040518083038186803b15801561026157600080fd5b505afa158015610275573d6000803e3d6000fd5b505050506040513d601f19601f820116820180604052508101906102999190610562565b10156102a457600080fd5b61031460008054906101000a900473ffffffffffffffffffffffffffffffffffffffff16600160009054906101000a900473ffffffffffffffffffffffffffffffffffffffff16600360009054906101000a900473ffffffffffffffffffffffffffffffffffffffff1685610420565b610386600260009054906101000a900473ffffffffffffffffffffffffffffffffffffffff16600360009054906101000a900473ffffffffffffffffffffffffffffffffffffffff16600160009054906101000a900473ffffffffffffffffffffffffffffffffffffffff1684610420565b5050565b600260009054906101000a900473ffffffffffffffffffffffffffffffffffffffff1681565b600360009054906101000a900473ffffffffffffffffffffffffffffffffffffffff1681565b600160009054906101000a900473ffffffffffffffffffffffffffffffffffffffff1681565b60008054906101000a900473ffffffffffffffffffffffffffffffffffffffff1681565b60008473ffffffffffffffffffffffffffffffffffffffff166323b872dd8585856040518463ffffffff1660e01b815260040161045f93929190610678565b602060405180830381600087803b15801561047957600080fd5b505af115801561048d573d6000803e3d6000fd5b505050506040513d601f19601f820116820180604052508101906104b19190610539565b9050806104f3576040517f08c379a00000000000000000000000000000000000000000000000000000000081526004016104ea906106ca565b60405180910390fd5b5050505050565b60008151905061050981610767565b92915050565b60008135905061051e8161077e565b92915050565b6000815190506105338161077e565b92915050565b60006020828403121561054b57600080fd5b6000610559848285016104fa565b91505092915050565b60006020828403121561057457600080fd5b600061058284828501610524565b91505092915050565b6000806040838503121561059e57600080fd5b60006105ac8582860161050f565b92505060206105bd8582860161050f565b9150509250929050565b6105d0816106fb565b82525050565b6105df81610743565b82525050565b60006105f26013836106ea565b91507f746f6b656e207472616e73666572206661696c000000000000000000000000006000830152602082019050919050565b61062e81610739565b82525050565b600060208201905061064960008301846105c7565b92915050565b600060408201905061066460008301856105c7565b61067160208301846105c7565b9392505050565b600060608201905061068d60008301866105c7565b61069a60208301856105c7565b6106a76040830184610625565b949350505050565b60006020820190506106c460008301846105d6565b92915050565b600060208201905081810360008301526106e3816105e5565b9050919050565b600082825260208201905092915050565b600061070682610719565b9050919050565b60008115159050919050565b600073ffffffffffffffffffffffffffffffffffffffff82169050919050565b6000819050919050565b600061074e82610755565b9050919050565b600061076082610719565b9050919050565b6107708161070d565b811461077b57600080fd5b50565b61078781610739565b811461079257600080fd5b5056fea2646970667358221220a021b288add15f91297a18db42ccbd8e893f9536b69d11d0b692826fc61c583164736f6c63430008000033",
					"opcodes": "PUSH1 0x80 PUSH1 0x40 MSTORE CALLVALUE DUP1 ISZERO PUSH2 0x10 JUMPI PUSH1 0x0 DUP1 REVERT JUMPDEST POP PUSH1 0x40 MLOAD PUSH2 0x9D9 CODESIZE SUB DUP1 PUSH2 0x9D9 DUP4 CODECOPY DUP2 DUP2 ADD PUSH1 0x40 MSTORE DUP2 ADD SWAP1 PUSH2 0x32 SWAP2 SWAP1 PUSH2 0x153 JUMP JUMPDEST DUP4 PUSH1 0x0 DUP1 PUSH2 0x100 EXP DUP2 SLOAD DUP2 PUSH20 0xFFFFFFFFFFFFFFFFFFFFFFFFFFFFFFFFFFFFFFFF MUL NOT AND SWAP1 DUP4 PUSH20 0xFFFFFFFFFFFFFFFFFFFFFFFFFFFFFFFFFFFFFFFF AND MUL OR SWAP1 SSTORE POP DUP3 PUSH1 0x2 PUSH1 0x0 PUSH2 0x100 EXP DUP2 SLOAD DUP2 PUSH20 0xFFFFFFFFFFFFFFFFFFFFFFFFFFFFFFFFFFFFFFFF MUL NOT AND SWAP1 DUP4 PUSH20 0xFFFFFFFFFFFFFFFFFFFFFFFFFFFFFFFFFFFFFFFF AND MUL OR SWAP1 SSTORE POP DUP2 PUSH1 0x1 PUSH1 0x0 PUSH2 0x100 EXP DUP2 SLOAD DUP2 PUSH20 0xFFFFFFFFFFFFFFFFFFFFFFFFFFFFFFFFFFFFFFFF MUL NOT AND SWAP1 DUP4 PUSH20 0xFFFFFFFFFFFFFFFFFFFFFFFFFFFFFFFFFFFFFFFF AND MUL OR SWAP1 SSTORE POP DUP1 PUSH1 0x3 PUSH1 0x0 PUSH2 0x100 EXP DUP2 SLOAD DUP2 PUSH20 0xFFFFFFFFFFFFFFFFFFFFFFFFFFFFFFFFFFFFFFFF MUL NOT AND SWAP1 DUP4 PUSH20 0xFFFFFFFFFFFFFFFFFFFFFFFFFFFFFFFFFFFFFFFF AND MUL OR SWAP1 SSTORE POP POP POP POP POP PUSH2 0x1FF JUMP JUMPDEST PUSH1 0x0 DUP2 MLOAD SWAP1 POP PUSH2 0x14D DUP2 PUSH2 0x1E8 JUMP JUMPDEST SWAP3 SWAP2 POP POP JUMP JUMPDEST PUSH1 0x0 DUP1 PUSH1 0x0 DUP1 PUSH1 0x80 DUP6 DUP8 SUB SLT ISZERO PUSH2 0x169 JUMPI PUSH1 0x0 DUP1 REVERT JUMPDEST PUSH1 0x0 PUSH2 0x177 DUP8 DUP3 DUP9 ADD PUSH2 0x13E JUMP JUMPDEST SWAP5 POP POP PUSH1 0x20 PUSH2 0x188 DUP8 DUP3 DUP9 ADD PUSH2 0x13E JUMP JUMPDEST SWAP4 POP POP PUSH1 0x40 PUSH2 0x199 DUP8 DUP3 DUP9 ADD PUSH2 0x13E JUMP JUMPDEST SWAP3 POP POP PUSH1 0x60 PUSH2 0x1AA DUP8 DUP3 DUP9 ADD PUSH2 0x13E JUMP JUMPDEST SWAP2 POP POP SWAP3 SWAP6 SWAP2 SWAP5 POP SWAP3 POP JUMP JUMPDEST PUSH1 0x0 PUSH2 0x1C1 DUP3 PUSH2 0x1C8 JUMP JUMPDEST SWAP1 POP SWAP2 SWAP1 POP JUMP JUMPDEST PUSH1 0x0 PUSH20 0xFFFFFFFFFFFFFFFFFFFFFFFFFFFFFFFFFFFFFFFF DUP3 AND SWAP1 POP SWAP2 SWAP1 POP JUMP JUMPDEST PUSH2 0x1F1 DUP2 PUSH2 0x1B6 JUMP JUMPDEST DUP2 EQ PUSH2 0x1FC JUMPI PUSH1 0x0 DUP1 REVERT JUMPDEST POP JUMP JUMPDEST PUSH2 0x7CB DUP1 PUSH2 0x20E PUSH1 0x0 CODECOPY PUSH1 0x0 RETURN INVALID PUSH1 0x80 PUSH1 0x40 MSTORE CALLVALUE DUP1 ISZERO PUSH2 0x10 JUMPI PUSH1 0x0 DUP1 REVERT JUMPDEST POP PUSH1 0x4 CALLDATASIZE LT PUSH2 0x57 JUMPI PUSH1 0x0 CALLDATALOAD PUSH1 0xE0 SHR DUP1 PUSH4 0x15FC8EE EQ PUSH2 0x5C JUMPI DUP1 PUSH4 0x25BE124E EQ PUSH2 0x78 JUMPI DUP1 PUSH4 0x52709725 EQ PUSH2 0x96 JUMPI DUP1 PUSH4 0x73688914 EQ PUSH2 0xB4 JUMPI DUP1 PUSH4 0xD21220A7 EQ PUSH2 0xD2 JUMPI JUMPDEST PUSH1 0x0 DUP1 REVERT JUMPDEST PUSH2 0x76 PUSH1 0x4 DUP1 CALLDATASIZE SUB DUP2 ADD SWAP1 PUSH2 0x71 SWAP2 SWAP1 PUSH2 0x58B JUMP JUMPDEST PUSH2 0xF0 JUMP JUMPDEST STOP JUMPDEST PUSH2 0x80 PUSH2 0x38A JUMP JUMPDEST PUSH1 0x40 MLOAD PUSH2 0x8D SWAP2 SWAP1 PUSH2 0x6AF JUMP JUMPDEST PUSH1 0x40 MLOAD DUP1 SWAP2 SUB SWAP1 RETURN JUMPDEST PUSH2 0x9E PUSH2 0x3B0 JUMP JUMPDEST PUSH1 0x40 MLOAD PUSH2 0xAB SWAP2 SWAP1 PUSH2 0x634 JUMP JUMPDEST PUSH1 0x40 MLOAD DUP1 SWAP2 SUB SWAP1 RETURN JUMPDEST PUSH2 0xBC PUSH2 0x3D6 JUMP JUMPDEST PUSH1 0x40 MLOAD PUSH2 0xC9 SWAP2 SWAP1 PUSH2 0x634 JUMP JUMPDEST PUSH1 0x40 MLOAD DUP1 SWAP2 SUB SWAP1 RETURN JUMPDEST PUSH2 0xDA PUSH2 0x3FC JUMP JUMPDEST PUSH1 0x40 MLOAD PUSH2 0xE7 SWAP2 SWAP1 PUSH2 0x6AF JUMP JUMPDEST PUSH1 0x40 MLOAD DUP1 SWAP2 SUB SWAP1 RETURN JUMPDEST DUP2 PUSH1 0x0 DUP1 SLOAD SWAP1 PUSH2 0x100 EXP SWAP1 DIV PUSH20 0xFFFFFFFFFFFFFFFFFFFFFFFFFFFFFFFFFFFFFFFF AND PUSH20 0xFFFFFFFFFFFFFFFFFFFFFFFFFFFFFFFFFFFFFFFF AND PUSH4 0xDD62ED3E PUSH1 0x1 PUSH1 0x0 SWAP1 SLOAD SWAP1 PUSH2 0x100 EXP SWAP1 DIV PUSH20 0xFFFFFFFFFFFFFFFFFFFFFFFFFFFFFFFFFFFFFFFF AND ADDRESS PUSH1 0x40 MLOAD DUP4 PUSH4 0xFFFFFFFF AND PUSH1 0xE0 SHL DUP2 MSTORE PUSH1 0x4 ADD PUSH2 0x16E SWAP3 SWAP2 SWAP1 PUSH2 0x64F JUMP JUMPDEST PUSH1 0x20 PUSH1 0x40 MLOAD DUP1 DUP4 SUB DUP2 DUP7 DUP1 EXTCODESIZE ISZERO DUP1 ISZERO PUSH2 0x186 JUMPI PUSH1 0x0 DUP1 REVERT JUMPDEST POP GAS STATICCALL ISZERO DUP1 ISZERO PUSH2 0x19A JUMPI RETURNDATASIZE PUSH1 0x0 DUP1 RETURNDATACOPY RETURNDATASIZE PUSH1 0x0 REVERT JUMPDEST POP POP POP POP PUSH1 0x40 MLOAD RETURNDATASIZE PUSH1 0x1F NOT PUSH1 0x1F DUP3 ADD AND DUP3 ADD DUP1 PUSH1 0x40 MSTORE POP DUP2 ADD SWAP1 PUSH2 0x1BE SWAP2 SWAP1 PUSH2 0x562 JUMP JUMPDEST LT ISZERO PUSH2 0x1C9 JUMPI PUSH1 0x0 DUP1 REVERT JUMPDEST DUP1 PUSH1 0x2 PUSH1 0x0 SWAP1 SLOAD SWAP1 PUSH2 0x100 EXP SWAP1 DIV PUSH20 0xFFFFFFFFFFFFFFFFFFFFFFFFFFFFFFFFFFFFFFFF AND PUSH20 0xFFFFFFFFFFFFFFFFFFFFFFFFFFFFFFFFFFFFFFFF AND PUSH4 0xDD62ED3E PUSH1 0x3 PUSH1 0x0 SWAP1 SLOAD SWAP1 PUSH2 0x100 EXP SWAP1 DIV PUSH20 0xFFFFFFFFFFFFFFFFFFFFFFFFFFFFFFFFFFFFFFFF AND ADDRESS PUSH1 0x40 MLOAD DUP4 PUSH4 0xFFFFFFFF AND PUSH1 0xE0 SHL DUP2 MSTORE PUSH1 0x4 ADD PUSH2 0x249 SWAP3 SWAP2 SWAP1 PUSH2 0x64F JUMP JUMPDEST PUSH1 0x20 PUSH1 0x40 MLOAD DUP1 DUP4 SUB DUP2 DUP7 DUP1 EXTCODESIZE ISZERO DUP1 ISZERO PUSH2 0x261 JUMPI PUSH1 0x0 DUP1 REVERT JUMPDEST POP GAS STATICCALL ISZERO DUP1 ISZERO PUSH2 0x275 JUMPI RETURNDATASIZE PUSH1 0x0 DUP1 RETURNDATACOPY RETURNDATASIZE PUSH1 0x0 REVERT JUMPDEST POP POP POP POP PUSH1 0x40 MLOAD RETURNDATASIZE PUSH1 0x1F NOT PUSH1 0x1F DUP3 ADD AND DUP3 ADD DUP1 PUSH1 0x40 MSTORE POP DUP2 ADD SWAP1 PUSH2 0x299 SWAP2 SWAP1 PUSH2 0x562 JUMP JUMPDEST LT ISZERO PUSH2 0x2A4 JUMPI PUSH1 0x0 DUP1 REVERT JUMPDEST PUSH2 0x314 PUSH1 0x0 DUP1 SLOAD SWAP1 PUSH2 0x100 EXP SWAP1 DIV PUSH20 0xFFFFFFFFFFFFFFFFFFFFFFFFFFFFFFFFFFFFFFFF AND PUSH1 0x1 PUSH1 0x0 SWAP1 SLOAD SWAP1 PUSH2 0x100 EXP SWAP1 DIV PUSH20 0xFFFFFFFFFFFFFFFFFFFFFFFFFFFFFFFFFFFFFFFF AND PUSH1 0x3 PUSH1 0x0 SWAP1 SLOAD SWAP1 PUSH2 0x100 EXP SWAP1 DIV PUSH20 0xFFFFFFFFFFFFFFFFFFFFFFFFFFFFFFFFFFFFFFFF AND DUP6 PUSH2 0x420 JUMP JUMPDEST PUSH2 0x386 PUSH1 0x2 PUSH1 0x0 SWAP1 SLOAD SWAP1 PUSH2 0x100 EXP SWAP1 DIV PUSH20 0xFFFFFFFFFFFFFFFFFFFFFFFFFFFFFFFFFFFFFFFF AND PUSH1 0x3 PUSH1 0x0 SWAP1 SLOAD SWAP1 PUSH2 0x100 EXP SWAP1 DIV PUSH20 0xFFFFFFFFFFFFFFFFFFFFFFFFFFFFFFFFFFFFFFFF AND PUSH1 0x1 PUSH1 0x0 SWAP1 SLOAD SWAP1 PUSH2 0x100 EXP SWAP1 DIV PUSH20 0xFFFFFFFFFFFFFFFFFFFFFFFFFFFFFFFFFFFFFFFF AND DUP5 PUSH2 0x420 JUMP JUMPDEST POP POP JUMP JUMPDEST PUSH1 0x2 PUSH1 0x0 SWAP1 SLOAD SWAP1 PUSH2 0x100 EXP SWAP1 DIV PUSH20 0xFFFFFFFFFFFFFFFFFFFFFFFFFFFFFFFFFFFFFFFF AND DUP2 JUMP JUMPDEST PUSH1 0x3 PUSH1 0x0 SWAP1 SLOAD SWAP1 PUSH2 0x100 EXP SWAP1 DIV PUSH20 0xFFFFFFFFFFFFFFFFFFFFFFFFFFFFFFFFFFFFFFFF AND DUP2 JUMP JUMPDEST PUSH1 0x1 PUSH1 0x0 SWAP1 SLOAD SWAP1 PUSH2 0x100 EXP SWAP1 DIV PUSH20 0xFFFFFFFFFFFFFFFFFFFFFFFFFFFFFFFFFFFFFFFF AND DUP2 JUMP JUMPDEST PUSH1 0x0 DUP1 SLOAD SWAP1 PUSH2 0x100 EXP SWAP1 DIV PUSH20 0xFFFFFFFFFFFFFFFFFFFFFFFFFFFFFFFFFFFFFFFF AND DUP2 JUMP JUMPDEST PUSH1 0x0 DUP5 PUSH20 0xFFFFFFFFFFFFFFFFFFFFFFFFFFFFFFFFFFFFFFFF AND PUSH4 0x23B872DD DUP6 DUP6 DUP6 PUSH1 0x40 MLOAD DUP5 PUSH4 0xFFFFFFFF AND PUSH1 0xE0 SHL DUP2 MSTORE PUSH1 0x4 ADD PUSH2 0x45F SWAP4 SWAP3 SWAP2 SWAP1 PUSH2 0x678 JUMP JUMPDEST PUSH1 0x20 PUSH1 0x40 MLOAD DUP1 DUP4 SUB DUP2 PUSH1 0x0 DUP8 DUP1 EXTCODESIZE ISZERO DUP1 ISZERO PUSH2 0x479 JUMPI PUSH1 0x0 DUP1 REVERT JUMPDEST POP GAS CALL ISZERO DUP1 ISZERO PUSH2 0x48D JUMPI RETURNDATASIZE PUSH1 0x0 DUP1 RETURNDATACOPY RETURNDATASIZE PUSH1 0x0 REVERT JUMPDEST POP POP POP POP PUSH1 0x40 MLOAD RETURNDATASIZE PUSH1 0x1F NOT PUSH1 0x1F DUP3 ADD AND DUP3 ADD DUP1 PUSH1 0x40 MSTORE POP DUP2 ADD SWAP1 PUSH2 0x4B1 SWAP2 SWAP1 PUSH2 0x539 JUMP JUMPDEST SWAP1 POP DUP1 PUSH2 0x4F3 JUMPI PUSH1 0x40 MLOAD PUSH32 0x8C379A000000000000000000000000000000000000000000000000000000000 DUP2 MSTORE PUSH1 0x4 ADD PUSH2 0x4EA SWAP1 PUSH2 0x6CA JUMP JUMPDEST PUSH1 0x40 MLOAD DUP1 SWAP2 SUB SWAP1 REVERT JUMPDEST POP POP POP POP POP JUMP JUMPDEST PUSH1 0x0 DUP2 MLOAD SWAP1 POP PUSH2 0x509 DUP2 PUSH2 0x767 JUMP JUMPDEST SWAP3 SWAP2 POP POP JUMP JUMPDEST PUSH1 0x0 DUP2 CALLDATALOAD SWAP1 POP PUSH2 0x51E DUP2 PUSH2 0x77E JUMP JUMPDEST SWAP3 SWAP2 POP POP JUMP JUMPDEST PUSH1 0x0 DUP2 MLOAD SWAP1 POP PUSH2 0x533 DUP2 PUSH2 0x77E JUMP JUMPDEST SWAP3 SWAP2 POP POP JUMP JUMPDEST PUSH1 0x0 PUSH1 0x20 DUP3 DUP5 SUB SLT ISZERO PUSH2 0x54B JUMPI PUSH1 0x0 DUP1 REVERT JUMPDEST PUSH1 0x0 PUSH2 0x559 DUP5 DUP3 DUP6 ADD PUSH2 0x4FA JUMP JUMPDEST SWAP2 POP POP SWAP3 SWAP2 POP POP JUMP JUMPDEST PUSH1 0x0 PUSH1 0x20 DUP3 DUP5 SUB SLT ISZERO PUSH2 0x574 JUMPI PUSH1 0x0 DUP1 REVERT JUMPDEST PUSH1 0x0 PUSH2 0x582 DUP5 DUP3 DUP6 ADD PUSH2 0x524 JUMP JUMPDEST SWAP2 POP POP SWAP3 SWAP2 POP POP JUMP JUMPDEST PUSH1 0x0 DUP1 PUSH1 0x40 DUP4 DUP6 SUB SLT ISZERO PUSH2 0x59E JUMPI PUSH1 0x0 DUP1 REVERT JUMPDEST PUSH1 0x0 PUSH2 0x5AC DUP6 DUP3 DUP7 ADD PUSH2 0x50F JUMP JUMPDEST SWAP3 POP POP PUSH1 0x20 PUSH2 0x5BD DUP6 DUP3 DUP7 ADD PUSH2 0x50F JUMP JUMPDEST SWAP2 POP POP SWAP3 POP SWAP3 SWAP1 POP JUMP JUMPDEST PUSH2 0x5D0 DUP2 PUSH2 0x6FB JUMP JUMPDEST DUP3 MSTORE POP POP JUMP JUMPDEST PUSH2 0x5DF DUP2 PUSH2 0x743 JUMP JUMPDEST DUP3 MSTORE POP POP JUMP JUMPDEST PUSH1 0x0 PUSH2 0x5F2 PUSH1 0x13 DUP4 PUSH2 0x6EA JUMP JUMPDEST SWAP2 POP PUSH32 0x746F6B656E207472616E73666572206661696C00000000000000000000000000 PUSH1 0x0 DUP4 ADD MSTORE PUSH1 0x20 DUP3 ADD SWAP1 POP SWAP2 SWAP1 POP JUMP JUMPDEST PUSH2 0x62E DUP2 PUSH2 0x739 JUMP JUMPDEST DUP3 MSTORE POP POP JUMP JUMPDEST PUSH1 0x0 PUSH1 0x20 DUP3 ADD SWAP1 POP PUSH2 0x649 PUSH1 0x0 DUP4 ADD DUP5 PUSH2 0x5C7 JUMP JUMPDEST SWAP3 SWAP2 POP POP JUMP JUMPDEST PUSH1 0x0 PUSH1 0x40 DUP3 ADD SWAP1 POP PUSH2 0x664 PUSH1 0x0 DUP4 ADD DUP6 PUSH2 0x5C7 JUMP JUMPDEST PUSH2 0x671 PUSH1 0x20 DUP4 ADD DUP5 PUSH2 0x5C7 JUMP JUMPDEST SWAP4 SWAP3 POP POP POP JUMP JUMPDEST PUSH1 0x0 PUSH1 0x60 DUP3 ADD SWAP1 POP PUSH2 0x68D PUSH1 0x0 DUP4 ADD DUP7 PUSH2 0x5C7 JUMP JUMPDEST PUSH2 0x69A PUSH1 0x20 DUP4 ADD DUP6 PUSH2 0x5C7 JUMP JUMPDEST PUSH2 0x6A7 PUSH1 0x40 DUP4 ADD DUP5 PUSH2 0x625 JUMP JUMPDEST SWAP5 SWAP4 POP POP POP POP JUMP JUMPDEST PUSH1 0x0 PUSH1 0x20 DUP3 ADD SWAP1 POP PUSH2 0x6C4 PUSH1 0x0 DUP4 ADD DUP5 PUSH2 0x5D6 JUMP JUMPDEST SWAP3 SWAP2 POP POP JUMP JUMPDEST PUSH1 0x0 PUSH1 0x20 DUP3 ADD SWAP1 POP DUP2 DUP2 SUB PUSH1 0x0 DUP4 ADD MSTORE PUSH2 0x6E3 DUP2 PUSH2 0x5E5 JUMP JUMPDEST SWAP1 POP SWAP2 SWAP1 POP JUMP JUMPDEST PUSH1 0x0 DUP3 DUP3 MSTORE PUSH1 0x20 DUP3 ADD SWAP1 POP SWAP3 SWAP2 POP POP JUMP JUMPDEST PUSH1 0x0 PUSH2 0x706 DUP3 PUSH2 0x719 JUMP JUMPDEST SWAP1 POP SWAP2 SWAP1 POP JUMP JUMPDEST PUSH1 0x0 DUP2 ISZERO ISZERO SWAP1 POP SWAP2 SWAP1 POP JUMP JUMPDEST PUSH1 0x0 PUSH20 0xFFFFFFFFFFFFFFFFFFFFFFFFFFFFFFFFFFFFFFFF DUP3 AND SWAP1 POP SWAP2 SWAP1 POP JUMP JUMPDEST PUSH1 0x0 DUP2 SWAP1 POP SWAP2 SWAP1 POP JUMP JUMPDEST PUSH1 0x0 PUSH2 0x74E DUP3 PUSH2 0x755 JUMP JUMPDEST SWAP1 POP SWAP2 SWAP1 POP JUMP JUMPDEST PUSH1 0x0 PUSH2 0x760 DUP3 PUSH2 0x719 JUMP JUMPDEST SWAP1 POP SWAP2 SWAP1 POP JUMP JUMPDEST PUSH2 0x770 DUP2 PUSH2 0x70D JUMP JUMPDEST DUP2 EQ PUSH2 0x77B JUMPI PUSH1 0x0 DUP1 REVERT JUMPDEST POP JUMP JUMPDEST PUSH2 0x787 DUP2 PUSH2 0x739 JUMP JUMPDEST DUP2 EQ PUSH2 0x792 JUMPI PUSH1 0x0 DUP1 REVERT JUMPDEST POP JUMP INVALID LOG2 PUSH5 0x6970667358 0x22 SLT KECCAK256 LOG0 0x21 0xB2 DUP9 0xAD 0xD1 0x5F SWAP2 0x29 PUSH27 0x18DB42CCBD8E893F9536B69D11D0B692826FC61C583164736F6C63 NUMBER STOP ADDMOD STOP STOP CALLER "
				},
				"gasEstimates": {
					"creation": {
						"codeDepositCost": "399000",
						"executionCost": "infinite",
						"totalCost": "infinite"
					},
					"external": {
						"Swap(uint256,uint256)": "infinite",
						"owner1()": "1258",
						"owner2()": "1236",
						"token1()": "1320",
						"token2()": "1257"
					},
					"internal": {
						"_safeTransferfrom(contract IERC20,address,address,uint256)": "infinite"
					}
				},
				"methodIdentifiers": {
					"Swap(uint256,uint256)": "015fc8ee",
					"owner1()": "73688914",
					"owner2()": "52709725",
					"token1()": "d21220a7",
					"token2()": "25be124e"
				}
			},
			"storageLayout": {
				"storage": [
					{
						"astId": 745,
						"contract": "practice/SwapToken.sol:TokenSwap",
						"label": "token1",
						"offset": 0,
						"slot": "0",
						"type": "t_contract(IERC20)663"
					},
					{
						"astId": 747,
						"contract": "practice/SwapToken.sol:TokenSwap",
						"label": "owner1",
						"offset": 0,
						"slot": "1",
						"type": "t_address"
					},
					{
						"astId": 750,
						"contract": "practice/SwapToken.sol:TokenSwap",
						"label": "token2",
						"offset": 0,
						"slot": "2",
						"type": "t_contract(IERC20)663"
					},
					{
						"astId": 752,
						"contract": "practice/SwapToken.sol:TokenSwap",
						"label": "owner2",
						"offset": 0,
						"slot": "3",
						"type": "t_address"
					}
				],
				"types": {
					"t_address": {
						"encoding": "inplace",
						"label": "address",
						"numberOfBytes": "20"
					},
					"t_contract(IERC20)663": {
						"encoding": "inplace",
						"label": "contract IERC20",
						"numberOfBytes": "20"
					}
				}
			},
			"userdoc": {
				"kind": "user",
				"methods": {},
				"version": 1
			}
		}
	}
}