{
	"practice/TimeLock.sol": {
		"TimeLock": {
			"abi": [
				{
					"inputs": [],
					"name": "Deposit",
					"outputs": [],
					"stateMutability": "payable",
					"type": "function"
				},
				{
					"inputs": [
						{
							"internalType": "uint256",
							"name": "_addtime",
							"type": "uint256"
						}
					],
					"name": "Increasetime",
					"outputs": [],
					"stateMutability": "nonpayable",
					"type": "function"
				},
				{
					"inputs": [],
					"name": "WithDraw",
					"outputs": [
						{
							"internalType": "bool",
							"name": "",
							"type": "bool"
						}
					],
					"stateMutability": "nonpayable",
					"type": "function"
				},
				{
					"inputs": [
						{
							"internalType": "address",
							"name": "",
							"type": "address"
						}
					],
					"name": "balances",
					"outputs": [
						{
							"internalType": "uint256",
							"name": "",
							"type": "uint256"
						}
					],
					"stateMutability": "view",
					"type": "function"
				},
				{
					"inputs": [
						{
							"internalType": "address",
							"name": "",
							"type": "address"
						}
					],
					"name": "lockTime",
					"outputs": [
						{
							"internalType": "uint256",
							"name": "",
							"type": "uint256"
						}
					],
					"stateMutability": "view",
					"type": "function"
				}
			],
			"devdoc": {
				"kind": "dev",
				"methods": {},
				"version": 1
			},
			"evm": {
				"assembly": "    /* \"practice/TimeLock.sol\":141:883  contract TimeLock{\r... */\n  mstore(0x40, 0x80)\n  callvalue\n  dup1\n  iszero\n  tag_1\n  jumpi\n  0x00\n  dup1\n  revert\ntag_1:\n  pop\n  dataSize(sub_0)\n  dup1\n  dataOffset(sub_0)\n  0x00\n  codecopy\n  0x00\n  return\nstop\n\nsub_0: assembly {\n        /* \"practice/TimeLock.sol\":141:883  contract TimeLock{\r... */\n      mstore(0x40, 0x80)\n      jumpi(tag_1, lt(calldatasize, 0x04))\n      shr(0xe0, calldataload(0x00))\n      dup1\n      0x25cc42b2\n      eq\n      tag_2\n      jumpi\n      dup1\n      0x27e235e3\n      eq\n      tag_3\n      jumpi\n      dup1\n      0x31e3e2fe\n      eq\n      tag_4\n      jumpi\n      dup1\n      0xa4beda63\n      eq\n      tag_5\n      jumpi\n      dup1\n      0xed21248c\n      eq\n      tag_6\n      jumpi\n    tag_1:\n      0x00\n      dup1\n      revert\n        /* \"practice/TimeLock.sol\":448:569  function  Increasetime(uint256 _addtime) public{\r... */\n    tag_2:\n      callvalue\n      dup1\n      iszero\n      tag_7\n      jumpi\n      0x00\n      dup1\n      revert\n    tag_7:\n      pop\n      tag_8\n      0x04\n      dup1\n      calldatasize\n      sub\n      dup2\n      add\n      swap1\n      tag_9\n      swap2\n      swap1\n      tag_10\n      jump\t// in\n    tag_9:\n      tag_11\n      jump\t// in\n    tag_8:\n      stop\n        /* \"practice/TimeLock.sol\":204:245  mapping(address=>uint256) public balances */\n    tag_3:\n      callvalue\n      dup1\n      iszero\n      tag_12\n      jumpi\n      0x00\n      dup1\n      revert\n    tag_12:\n      pop\n      tag_13\n      0x04\n      dup1\n      calldatasize\n      sub\n      dup2\n      add\n      swap1\n      tag_14\n      swap2\n      swap1\n      tag_15\n      jump\t// in\n    tag_14:\n      tag_16\n      jump\t// in\n    tag_13:\n      mload(0x40)\n      tag_17\n      swap2\n      swap1\n      tag_18\n      jump\t// in\n    tag_17:\n      mload(0x40)\n      dup1\n      swap2\n      sub\n      swap1\n      return\n        /* \"practice/TimeLock.sol\":575:878  function WithDraw() public returns(bool){\r... */\n    tag_4:\n      callvalue\n      dup1\n      iszero\n      tag_19\n      jumpi\n      0x00\n      dup1\n      revert\n    tag_19:\n      pop\n      tag_20\n      tag_21\n      jump\t// in\n    tag_20:\n      mload(0x40)\n      tag_22\n      swap2\n      swap1\n      tag_23\n      jump\t// in\n    tag_22:\n      mload(0x40)\n      dup1\n      swap2\n      sub\n      swap1\n      return\n        /* \"practice/TimeLock.sol\":252:295  mapping(address => uint256) public lockTime */\n    tag_5:\n      callvalue\n      dup1\n      iszero\n      tag_24\n      jumpi\n      0x00\n      dup1\n      revert\n    tag_24:\n      pop\n      tag_25\n      0x04\n      dup1\n      calldatasize\n      sub\n      dup2\n      add\n      swap1\n      tag_26\n      swap2\n      swap1\n      tag_15\n      jump\t// in\n    tag_26:\n      tag_27\n      jump\t// in\n    tag_25:\n      mload(0x40)\n      tag_28\n      swap2\n      swap1\n      tag_18\n      jump\t// in\n    tag_28:\n      mload(0x40)\n      dup1\n      swap2\n      sub\n      swap1\n      return\n        /* \"practice/TimeLock.sol\":304:442  function Deposit() public payable{\r... */\n    tag_6:\n      tag_29\n      tag_30\n      jump\t// in\n    tag_29:\n      stop\n        /* \"practice/TimeLock.sol\":448:569  function  Increasetime(uint256 _addtime) public{\r... */\n    tag_11:\n        /* \"practice/TimeLock.sol\":527:561  lockTime[msg.sender].add(_addtime) */\n      tag_32\n        /* \"practice/TimeLock.sol\":552:560  _addtime */\n      dup2\n        /* \"practice/TimeLock.sol\":527:535  lockTime */\n      0x01\n        /* \"practice/TimeLock.sol\":527:547  lockTime[msg.sender] */\n      0x00\n        /* \"practice/TimeLock.sol\":536:546  msg.sender */\n      caller\n        /* \"practice/TimeLock.sol\":527:547  lockTime[msg.sender] */\n      0xffffffffffffffffffffffffffffffffffffffff\n      and\n      0xffffffffffffffffffffffffffffffffffffffff\n      and\n      dup2\n      mstore\n      0x20\n      add\n      swap1\n      dup2\n      mstore\n      0x20\n      add\n      0x00\n      keccak256\n      sload\n        /* \"practice/TimeLock.sol\":527:551  lockTime[msg.sender].add */\n      tag_33\n      swap1\n        /* \"practice/TimeLock.sol\":527:561  lockTime[msg.sender].add(_addtime) */\n      swap2\n      swap1\n      0xffffffff\n      and\n      jump\t// in\n    tag_32:\n        /* \"practice/TimeLock.sol\":506:514  lockTime */\n      0x01\n        /* \"practice/TimeLock.sol\":506:526  lockTime[msg.sender] */\n      0x00\n        /* \"practice/TimeLock.sol\":515:525  msg.sender */\n      caller\n        /* \"practice/TimeLock.sol\":506:526  lockTime[msg.sender] */\n      0xffffffffffffffffffffffffffffffffffffffff\n      and\n      0xffffffffffffffffffffffffffffffffffffffff\n      and\n      dup2\n      mstore\n      0x20\n      add\n      swap1\n      dup2\n      mstore\n      0x20\n      add\n      0x00\n      keccak256\n        /* \"practice/TimeLock.sol\":506:561  lockTime[msg.sender]=lockTime[msg.sender].add(_addtime) */\n      dup2\n      swap1\n      sstore\n      pop\n        /* \"practice/TimeLock.sol\":448:569  function  Increasetime(uint256 _addtime) public{\r... */\n      pop\n      jump\t// out\n        /* \"practice/TimeLock.sol\":204:245  mapping(address=>uint256) public balances */\n    tag_16:\n      mstore(0x20, 0x00)\n      dup1\n      0x00\n      mstore\n      keccak256(0x00, 0x40)\n      0x00\n      swap2\n      pop\n      swap1\n      pop\n      sload\n      dup2\n      jump\t// out\n        /* \"practice/TimeLock.sol\":575:878  function WithDraw() public returns(bool){\r... */\n    tag_21:\n        /* \"practice/TimeLock.sol\":610:614  bool */\n      0x00\n        /* \"practice/TimeLock.sol\":655:656  0 */\n      dup1\n        /* \"practice/TimeLock.sol\":634:642  balances */\n      0x00\n        /* \"practice/TimeLock.sol\":634:654  balances[msg.sender] */\n      dup1\n        /* \"practice/TimeLock.sol\":643:653  msg.sender */\n      caller\n        /* \"practice/TimeLock.sol\":634:654  balances[msg.sender] */\n      0xffffffffffffffffffffffffffffffffffffffff\n      and\n      0xffffffffffffffffffffffffffffffffffffffff\n      and\n      dup2\n      mstore\n      0x20\n      add\n      swap1\n      dup2\n      mstore\n      0x20\n      add\n      0x00\n      keccak256\n      sload\n        /* \"practice/TimeLock.sol\":634:656  balances[msg.sender]>0 */\n      gt\n        /* \"practice/TimeLock.sol\":626:657  require(balances[msg.sender]>0) */\n      tag_35\n      jumpi\n      0x00\n      dup1\n      revert\n    tag_35:\n        /* \"practice/TimeLock.sol\":697:712  block.timestamp */\n      timestamp\n        /* \"practice/TimeLock.sol\":676:684  lockTime */\n      0x01\n        /* \"practice/TimeLock.sol\":676:696  lockTime[msg.sender] */\n      0x00\n        /* \"practice/TimeLock.sol\":685:695  msg.sender */\n      caller\n        /* \"practice/TimeLock.sol\":676:696  lockTime[msg.sender] */\n      0xffffffffffffffffffffffffffffffffffffffff\n      and\n      0xffffffffffffffffffffffffffffffffffffffff\n      and\n      dup2\n      mstore\n      0x20\n      add\n      swap1\n      dup2\n      mstore\n      0x20\n      add\n      0x00\n      keccak256\n      sload\n        /* \"practice/TimeLock.sol\":676:712  lockTime[msg.sender]<block.timestamp */\n      lt\n        /* \"practice/TimeLock.sol\":668:713  require(lockTime[msg.sender]<block.timestamp) */\n      tag_36\n      jumpi\n      0x00\n      dup1\n      revert\n    tag_36:\n        /* \"practice/TimeLock.sol\":724:735  uint amount */\n      0x00\n        /* \"practice/TimeLock.sol\":738:746  balances */\n      dup1\n        /* \"practice/TimeLock.sol\":738:758  balances[msg.sender] */\n      0x00\n        /* \"practice/TimeLock.sol\":747:757  msg.sender */\n      caller\n        /* \"practice/TimeLock.sol\":738:758  balances[msg.sender] */\n      0xffffffffffffffffffffffffffffffffffffffff\n      and\n      0xffffffffffffffffffffffffffffffffffffffff\n      and\n      dup2\n      mstore\n      0x20\n      add\n      swap1\n      dup2\n      mstore\n      0x20\n      add\n      0x00\n      keccak256\n      sload\n        /* \"practice/TimeLock.sol\":724:758  uint amount = balances[msg.sender] */\n      swap1\n      pop\n        /* \"practice/TimeLock.sol\":790:791  0 */\n      0x00\n        /* \"practice/TimeLock.sol\":769:777  balances */\n      dup1\n        /* \"practice/TimeLock.sol\":769:789  balances[msg.sender] */\n      0x00\n        /* \"practice/TimeLock.sol\":778:788  msg.sender */\n      caller\n        /* \"practice/TimeLock.sol\":769:789  balances[msg.sender] */\n      0xffffffffffffffffffffffffffffffffffffffff\n      and\n      0xffffffffffffffffffffffffffffffffffffffff\n      and\n      dup2\n      mstore\n      0x20\n      add\n      swap1\n      dup2\n      mstore\n      0x20\n      add\n      0x00\n      keccak256\n        /* \"practice/TimeLock.sol\":769:791  balances[msg.sender]=0 */\n      dup2\n      swap1\n      sstore\n      pop\n        /* \"practice/TimeLock.sol\":803:812  bool sent */\n      0x00\n        /* \"practice/TimeLock.sol\":815:825  msg.sender */\n      caller\n        /* \"practice/TimeLock.sol\":815:830  msg.sender.call */\n      0xffffffffffffffffffffffffffffffffffffffff\n      and\n        /* \"practice/TimeLock.sol\":837:843  amount */\n      dup3\n        /* \"practice/TimeLock.sol\":815:848  msg.sender.call{value:amount}(\"\") */\n      mload(0x40)\n      tag_37\n      swap1\n      tag_38\n      jump\t// in\n    tag_37:\n      0x00\n      mload(0x40)\n      dup1\n      dup4\n      sub\n      dup2\n      dup6\n      dup8\n      gas\n      call\n      swap3\n      pop\n      pop\n      pop\n      returndatasize\n      dup1\n      0x00\n      dup2\n      eq\n      tag_41\n      jumpi\n      mload(0x40)\n      swap2\n      pop\n      and(add(returndatasize, 0x3f), not(0x1f))\n      dup3\n      add\n      0x40\n      mstore\n      returndatasize\n      dup3\n      mstore\n      returndatasize\n      0x00\n      0x20\n      dup5\n      add\n      returndatacopy\n      jump(tag_40)\n    tag_41:\n      0x60\n      swap2\n      pop\n    tag_40:\n      pop\n        /* \"practice/TimeLock.sol\":802:848  (bool sent,)=msg.sender.call{value:amount}(\"\") */\n      pop\n      swap1\n      pop\n        /* \"practice/TimeLock.sol\":866:870  sent */\n      dup1\n        /* \"practice/TimeLock.sol\":859:870  return sent */\n      swap3\n      pop\n      pop\n      pop\n        /* \"practice/TimeLock.sol\":575:878  function WithDraw() public returns(bool){\r... */\n      swap1\n      jump\t// out\n        /* \"practice/TimeLock.sol\":252:295  mapping(address => uint256) public lockTime */\n    tag_27:\n      mstore(0x20, 0x01)\n      dup1\n      0x00\n      mstore\n      keccak256(0x00, 0x40)\n      0x00\n      swap2\n      pop\n      swap1\n      pop\n      sload\n      dup2\n      jump\t// out\n        /* \"practice/TimeLock.sol\":304:442  function Deposit() public payable{\r... */\n    tag_30:\n        /* \"practice/TimeLock.sol\":370:379  msg.value */\n      callvalue\n        /* \"practice/TimeLock.sol\":348:356  balances */\n      0x00\n        /* \"practice/TimeLock.sol\":348:368  balances[msg.sender] */\n      dup1\n        /* \"practice/TimeLock.sol\":357:367  msg.sender */\n      caller\n        /* \"practice/TimeLock.sol\":348:368  balances[msg.sender] */\n      0xffffffffffffffffffffffffffffffffffffffff\n      and\n      0xffffffffffffffffffffffffffffffffffffffff\n      and\n      dup2\n      mstore\n      0x20\n      add\n      swap1\n      dup2\n      mstore\n      0x20\n      add\n      0x00\n      keccak256\n      0x00\n        /* \"practice/TimeLock.sol\":348:379  balances[msg.sender]+=msg.value */\n      dup3\n      dup3\n      sload\n      tag_43\n      swap2\n      swap1\n      tag_44\n      jump\t// in\n    tag_43:\n      swap3\n      pop\n      pop\n      dup2\n      swap1\n      sstore\n      pop\n        /* \"practice/TimeLock.sol\":427:434  1 weeks */\n      0x093a80\n        /* \"practice/TimeLock.sol\":411:426  block.timestamp */\n      timestamp\n        /* \"practice/TimeLock.sol\":411:434  block.timestamp+1 weeks */\n      tag_45\n      swap2\n      swap1\n      tag_44\n      jump\t// in\n    tag_45:\n        /* \"practice/TimeLock.sol\":390:398  lockTime */\n      0x01\n        /* \"practice/TimeLock.sol\":390:410  lockTime[msg.sender] */\n      0x00\n        /* \"practice/TimeLock.sol\":399:409  msg.sender */\n      caller\n        /* \"practice/TimeLock.sol\":390:410  lockTime[msg.sender] */\n      0xffffffffffffffffffffffffffffffffffffffff\n      and\n      0xffffffffffffffffffffffffffffffffffffffff\n      and\n      dup2\n      mstore\n      0x20\n      add\n      swap1\n      dup2\n      mstore\n      0x20\n      add\n      0x00\n      keccak256\n        /* \"practice/TimeLock.sol\":390:434  lockTime[msg.sender]=block.timestamp+1 weeks */\n      dup2\n      swap1\n      sstore\n      pop\n        /* \"practice/TimeLock.sol\":304:442  function Deposit() public payable{\r... */\n      jump\t// out\n        /* \"https://github.com/OpenZeppelin/openzeppelin-contracts/blob/master/contracts/utils/math/SafeMath.sol\":2755:2851  function add(uint256 a, uint256 b) internal pure returns (uint256) {... */\n    tag_33:\n        /* \"https://github.com/OpenZeppelin/openzeppelin-contracts/blob/master/contracts/utils/math/SafeMath.sol\":2813:2820  uint256 */\n      0x00\n        /* \"https://github.com/OpenZeppelin/openzeppelin-contracts/blob/master/contracts/utils/math/SafeMath.sol\":2843:2844  b */\n      dup2\n        /* \"https://github.com/OpenZeppelin/openzeppelin-contracts/blob/master/contracts/utils/math/SafeMath.sol\":2839:2840  a */\n      dup4\n        /* \"https://github.com/OpenZeppelin/openzeppelin-contracts/blob/master/contracts/utils/math/SafeMath.sol\":2839:2844  a + b */\n      tag_47\n      swap2\n      swap1\n      tag_44\n      jump\t// in\n    tag_47:\n        /* \"https://github.com/OpenZeppelin/openzeppelin-contracts/blob/master/contracts/utils/math/SafeMath.sol\":2832:2844  return a + b */\n      swap1\n      pop\n        /* \"https://github.com/OpenZeppelin/openzeppelin-contracts/blob/master/contracts/utils/math/SafeMath.sol\":2755:2851  function add(uint256 a, uint256 b) internal pure returns (uint256) {... */\n      swap3\n      swap2\n      pop\n      pop\n      jump\t// out\n        /* \"#utility.yul\":7:146   */\n    tag_49:\n        /* \"#utility.yul\":53:58   */\n      0x00\n        /* \"#utility.yul\":91:97   */\n      dup2\n        /* \"#utility.yul\":78:98   */\n      calldataload\n        /* \"#utility.yul\":69:98   */\n      swap1\n      pop\n        /* \"#utility.yul\":107:140   */\n      tag_51\n        /* \"#utility.yul\":134:139   */\n      dup2\n        /* \"#utility.yul\":107:140   */\n      tag_52\n      jump\t// in\n    tag_51:\n        /* \"#utility.yul\":59:146   */\n      swap3\n      swap2\n      pop\n      pop\n      jump\t// out\n        /* \"#utility.yul\":152:291   */\n    tag_53:\n        /* \"#utility.yul\":198:203   */\n      0x00\n        /* \"#utility.yul\":236:242   */\n      dup2\n        /* \"#utility.yul\":223:243   */\n      calldataload\n        /* \"#utility.yul\":214:243   */\n      swap1\n      pop\n        /* \"#utility.yul\":252:285   */\n      tag_55\n        /* \"#utility.yul\":279:284   */\n      dup2\n        /* \"#utility.yul\":252:285   */\n      tag_56\n      jump\t// in\n    tag_55:\n        /* \"#utility.yul\":204:291   */\n      swap3\n      swap2\n      pop\n      pop\n      jump\t// out\n        /* \"#utility.yul\":297:559   */\n    tag_15:\n        /* \"#utility.yul\":356:362   */\n      0x00\n        /* \"#utility.yul\":405:407   */\n      0x20\n        /* \"#utility.yul\":393:402   */\n      dup3\n        /* \"#utility.yul\":384:391   */\n      dup5\n        /* \"#utility.yul\":380:403   */\n      sub\n        /* \"#utility.yul\":376:408   */\n      slt\n        /* \"#utility.yul\":373:375   */\n      iszero\n      tag_58\n      jumpi\n        /* \"#utility.yul\":421:422   */\n      0x00\n        /* \"#utility.yul\":418:419   */\n      dup1\n        /* \"#utility.yul\":411:423   */\n      revert\n        /* \"#utility.yul\":373:375   */\n    tag_58:\n        /* \"#utility.yul\":464:465   */\n      0x00\n        /* \"#utility.yul\":489:542   */\n      tag_59\n        /* \"#utility.yul\":534:541   */\n      dup5\n        /* \"#utility.yul\":525:531   */\n      dup3\n        /* \"#utility.yul\":514:523   */\n      dup6\n        /* \"#utility.yul\":510:532   */\n      add\n        /* \"#utility.yul\":489:542   */\n      tag_49\n      jump\t// in\n    tag_59:\n        /* \"#utility.yul\":479:542   */\n      swap2\n      pop\n        /* \"#utility.yul\":435:552   */\n      pop\n        /* \"#utility.yul\":363:559   */\n      swap3\n      swap2\n      pop\n      pop\n      jump\t// out\n        /* \"#utility.yul\":565:827   */\n    tag_10:\n        /* \"#utility.yul\":624:630   */\n      0x00\n        /* \"#utility.yul\":673:675   */\n      0x20\n        /* \"#utility.yul\":661:670   */\n      dup3\n        /* \"#utility.yul\":652:659   */\n      dup5\n        /* \"#utility.yul\":648:671   */\n      sub\n        /* \"#utility.yul\":644:676   */\n      slt\n        /* \"#utility.yul\":641:643   */\n      iszero\n      tag_61\n      jumpi\n        /* \"#utility.yul\":689:690   */\n      0x00\n        /* \"#utility.yul\":686:687   */\n      dup1\n        /* \"#utility.yul\":679:691   */\n      revert\n        /* \"#utility.yul\":641:643   */\n    tag_61:\n        /* \"#utility.yul\":732:733   */\n      0x00\n        /* \"#utility.yul\":757:810   */\n      tag_62\n        /* \"#utility.yul\":802:809   */\n      dup5\n        /* \"#utility.yul\":793:799   */\n      dup3\n        /* \"#utility.yul\":782:791   */\n      dup6\n        /* \"#utility.yul\":778:800   */\n      add\n        /* \"#utility.yul\":757:810   */\n      tag_53\n      jump\t// in\n    tag_62:\n        /* \"#utility.yul\":747:810   */\n      swap2\n      pop\n        /* \"#utility.yul\":703:820   */\n      pop\n        /* \"#utility.yul\":631:827   */\n      swap3\n      swap2\n      pop\n      pop\n      jump\t// out\n        /* \"#utility.yul\":833:942   */\n    tag_63:\n        /* \"#utility.yul\":914:935   */\n      tag_65\n        /* \"#utility.yul\":929:934   */\n      dup2\n        /* \"#utility.yul\":914:935   */\n      tag_66\n      jump\t// in\n    tag_65:\n        /* \"#utility.yul\":909:912   */\n      dup3\n        /* \"#utility.yul\":902:936   */\n      mstore\n        /* \"#utility.yul\":892:942   */\n      pop\n      pop\n      jump\t// out\n        /* \"#utility.yul\":948:1346   */\n    tag_67:\n        /* \"#utility.yul\":1107:1110   */\n      0x00\n        /* \"#utility.yul\":1128:1211   */\n      tag_69\n        /* \"#utility.yul\":1209:1210   */\n      0x00\n        /* \"#utility.yul\":1204:1207   */\n      dup4\n        /* \"#utility.yul\":1128:1211   */\n      tag_70\n      jump\t// in\n    tag_69:\n        /* \"#utility.yul\":1121:1211   */\n      swap2\n      pop\n        /* \"#utility.yul\":1220:1313   */\n      tag_71\n        /* \"#utility.yul\":1309:1312   */\n      dup3\n        /* \"#utility.yul\":1220:1313   */\n      tag_72\n      jump\t// in\n    tag_71:\n        /* \"#utility.yul\":1338:1339   */\n      0x00\n        /* \"#utility.yul\":1333:1336   */\n      dup3\n        /* \"#utility.yul\":1329:1340   */\n      add\n        /* \"#utility.yul\":1322:1340   */\n      swap1\n      pop\n        /* \"#utility.yul\":1111:1346   */\n      swap2\n      swap1\n      pop\n      jump\t// out\n        /* \"#utility.yul\":1352:1470   */\n    tag_73:\n        /* \"#utility.yul\":1439:1463   */\n      tag_75\n        /* \"#utility.yul\":1457:1462   */\n      dup2\n        /* \"#utility.yul\":1439:1463   */\n      tag_76\n      jump\t// in\n    tag_75:\n        /* \"#utility.yul\":1434:1437   */\n      dup3\n        /* \"#utility.yul\":1427:1464   */\n      mstore\n        /* \"#utility.yul\":1417:1470   */\n      pop\n      pop\n      jump\t// out\n        /* \"#utility.yul\":1476:1855   */\n    tag_38:\n        /* \"#utility.yul\":1660:1663   */\n      0x00\n        /* \"#utility.yul\":1682:1829   */\n      tag_78\n        /* \"#utility.yul\":1825:1828   */\n      dup3\n        /* \"#utility.yul\":1682:1829   */\n      tag_67\n      jump\t// in\n    tag_78:\n        /* \"#utility.yul\":1675:1829   */\n      swap2\n      pop\n        /* \"#utility.yul\":1846:1849   */\n      dup2\n        /* \"#utility.yul\":1839:1849   */\n      swap1\n      pop\n        /* \"#utility.yul\":1664:1855   */\n      swap2\n      swap1\n      pop\n      jump\t// out\n        /* \"#utility.yul\":1861:2071   */\n    tag_23:\n        /* \"#utility.yul\":1948:1952   */\n      0x00\n        /* \"#utility.yul\":1986:1988   */\n      0x20\n        /* \"#utility.yul\":1975:1984   */\n      dup3\n        /* \"#utility.yul\":1971:1989   */\n      add\n        /* \"#utility.yul\":1963:1989   */\n      swap1\n      pop\n        /* \"#utility.yul\":1999:2064   */\n      tag_80\n        /* \"#utility.yul\":2061:2062   */\n      0x00\n        /* \"#utility.yul\":2050:2059   */\n      dup4\n        /* \"#utility.yul\":2046:2063   */\n      add\n        /* \"#utility.yul\":2037:2043   */\n      dup5\n        /* \"#utility.yul\":1999:2064   */\n      tag_63\n      jump\t// in\n    tag_80:\n        /* \"#utility.yul\":1953:2071   */\n      swap3\n      swap2\n      pop\n      pop\n      jump\t// out\n        /* \"#utility.yul\":2077:2299   */\n    tag_18:\n        /* \"#utility.yul\":2170:2174   */\n      0x00\n        /* \"#utility.yul\":2208:2210   */\n      0x20\n        /* \"#utility.yul\":2197:2206   */\n      dup3\n        /* \"#utility.yul\":2193:2211   */\n      add\n        /* \"#utility.yul\":2185:2211   */\n      swap1\n      pop\n        /* \"#utility.yul\":2221:2292   */\n      tag_82\n        /* \"#utility.yul\":2289:2290   */\n      0x00\n        /* \"#utility.yul\":2278:2287   */\n      dup4\n        /* \"#utility.yul\":2274:2291   */\n      add\n        /* \"#utility.yul\":2265:2271   */\n      dup5\n        /* \"#utility.yul\":2221:2292   */\n      tag_73\n      jump\t// in\n    tag_82:\n        /* \"#utility.yul\":2175:2299   */\n      swap3\n      swap2\n      pop\n      pop\n      jump\t// out\n        /* \"#utility.yul\":2305:2452   */\n    tag_70:\n        /* \"#utility.yul\":2406:2417   */\n      0x00\n        /* \"#utility.yul\":2443:2446   */\n      dup2\n        /* \"#utility.yul\":2428:2446   */\n      swap1\n      pop\n        /* \"#utility.yul\":2418:2452   */\n      swap3\n      swap2\n      pop\n      pop\n      jump\t// out\n        /* \"#utility.yul\":2458:2763   */\n    tag_44:\n        /* \"#utility.yul\":2498:2501   */\n      0x00\n        /* \"#utility.yul\":2517:2537   */\n      tag_85\n        /* \"#utility.yul\":2535:2536   */\n      dup3\n        /* \"#utility.yul\":2517:2537   */\n      tag_76\n      jump\t// in\n    tag_85:\n        /* \"#utility.yul\":2512:2537   */\n      swap2\n      pop\n        /* \"#utility.yul\":2551:2571   */\n      tag_86\n        /* \"#utility.yul\":2569:2570   */\n      dup4\n        /* \"#utility.yul\":2551:2571   */\n      tag_76\n      jump\t// in\n    tag_86:\n        /* \"#utility.yul\":2546:2571   */\n      swap3\n      pop\n        /* \"#utility.yul\":2705:2706   */\n      dup3\n        /* \"#utility.yul\":2637:2703   */\n      0xffffffffffffffffffffffffffffffffffffffffffffffffffffffffffffffff\n        /* \"#utility.yul\":2633:2707   */\n      sub\n        /* \"#utility.yul\":2630:2631   */\n      dup3\n        /* \"#utility.yul\":2627:2708   */\n      gt\n        /* \"#utility.yul\":2624:2626   */\n      iszero\n      tag_87\n      jumpi\n        /* \"#utility.yul\":2711:2729   */\n      tag_88\n      tag_89\n      jump\t// in\n    tag_88:\n        /* \"#utility.yul\":2624:2626   */\n    tag_87:\n        /* \"#utility.yul\":2755:2756   */\n      dup3\n        /* \"#utility.yul\":2752:2753   */\n      dup3\n        /* \"#utility.yul\":2748:2757   */\n      add\n        /* \"#utility.yul\":2741:2757   */\n      swap1\n      pop\n        /* \"#utility.yul\":2502:2763   */\n      swap3\n      swap2\n      pop\n      pop\n      jump\t// out\n        /* \"#utility.yul\":2769:2865   */\n    tag_90:\n        /* \"#utility.yul\":2806:2813   */\n      0x00\n        /* \"#utility.yul\":2835:2859   */\n      tag_92\n        /* \"#utility.yul\":2853:2858   */\n      dup3\n        /* \"#utility.yul\":2835:2859   */\n      tag_93\n      jump\t// in\n    tag_92:\n        /* \"#utility.yul\":2824:2859   */\n      swap1\n      pop\n        /* \"#utility.yul\":2814:2865   */\n      swap2\n      swap1\n      pop\n      jump\t// out\n        /* \"#utility.yul\":2871:2961   */\n    tag_66:\n        /* \"#utility.yul\":2905:2912   */\n      0x00\n        /* \"#utility.yul\":2948:2953   */\n      dup2\n        /* \"#utility.yul\":2941:2954   */\n      iszero\n        /* \"#utility.yul\":2934:2955   */\n      iszero\n        /* \"#utility.yul\":2923:2955   */\n      swap1\n      pop\n        /* \"#utility.yul\":2913:2961   */\n      swap2\n      swap1\n      pop\n      jump\t// out\n        /* \"#utility.yul\":2967:3093   */\n    tag_93:\n        /* \"#utility.yul\":3004:3011   */\n      0x00\n        /* \"#utility.yul\":3044:3086   */\n      0xffffffffffffffffffffffffffffffffffffffff\n        /* \"#utility.yul\":3037:3042   */\n      dup3\n        /* \"#utility.yul\":3033:3087   */\n      and\n        /* \"#utility.yul\":3022:3087   */\n      swap1\n      pop\n        /* \"#utility.yul\":3012:3093   */\n      swap2\n      swap1\n      pop\n      jump\t// out\n        /* \"#utility.yul\":3099:3176   */\n    tag_76:\n        /* \"#utility.yul\":3136:3143   */\n      0x00\n        /* \"#utility.yul\":3165:3170   */\n      dup2\n        /* \"#utility.yul\":3154:3170   */\n      swap1\n      pop\n        /* \"#utility.yul\":3144:3176   */\n      swap2\n      swap1\n      pop\n      jump\t// out\n        /* \"#utility.yul\":3182:3362   */\n    tag_89:\n        /* \"#utility.yul\":3230:3307   */\n      0x4e487b7100000000000000000000000000000000000000000000000000000000\n        /* \"#utility.yul\":3227:3228   */\n      0x00\n        /* \"#utility.yul\":3220:3308   */\n      mstore\n        /* \"#utility.yul\":3327:3331   */\n      0x11\n        /* \"#utility.yul\":3324:3325   */\n      0x04\n        /* \"#utility.yul\":3317:3332   */\n      mstore\n        /* \"#utility.yul\":3351:3355   */\n      0x24\n        /* \"#utility.yul\":3348:3349   */\n      0x00\n        /* \"#utility.yul\":3341:3356   */\n      revert\n        /* \"#utility.yul\":3368:3482   */\n    tag_72:\n        /* \"#utility.yul\":3474:3482   */\n      pop\n      jump\t// out\n        /* \"#utility.yul\":3488:3610   */\n    tag_52:\n        /* \"#utility.yul\":3561:3585   */\n      tag_100\n        /* \"#utility.yul\":3579:3584   */\n      dup2\n        /* \"#utility.yul\":3561:3585   */\n      tag_90\n      jump\t// in\n    tag_100:\n        /* \"#utility.yul\":3554:3559   */\n      dup2\n        /* \"#utility.yul\":3551:3586   */\n      eq\n        /* \"#utility.yul\":3541:3543   */\n      tag_101\n      jumpi\n        /* \"#utility.yul\":3600:3601   */\n      0x00\n        /* \"#utility.yul\":3597:3598   */\n      dup1\n        /* \"#utility.yul\":3590:3602   */\n      revert\n        /* \"#utility.yul\":3541:3543   */\n    tag_101:\n        /* \"#utility.yul\":3531:3610   */\n      pop\n      jump\t// out\n        /* \"#utility.yul\":3616:3738   */\n    tag_56:\n        /* \"#utility.yul\":3689:3713   */\n      tag_103\n        /* \"#utility.yul\":3707:3712   */\n      dup2\n        /* \"#utility.yul\":3689:3713   */\n      tag_76\n      jump\t// in\n    tag_103:\n        /* \"#utility.yul\":3682:3687   */\n      dup2\n        /* \"#utility.yul\":3679:3714   */\n      eq\n        /* \"#utility.yul\":3669:3671   */\n      tag_104\n      jumpi\n        /* \"#utility.yul\":3728:3729   */\n      0x00\n        /* \"#utility.yul\":3725:3726   */\n      dup1\n        /* \"#utility.yul\":3718:3730   */\n      revert\n        /* \"#utility.yul\":3669:3671   */\n    tag_104:\n        /* \"#utility.yul\":3659:3738   */\n      pop\n      jump\t// out\n\n    auxdata: 0xa264697066735822122078f2a40219a8eae7bc40f62aca45bea94d3f91e59e81c1ccffd576fe16475a0564736f6c63430008040033\n}\n",
				"bytecode": {
					"linkReferences": {},
					"object": "608060405234801561001057600080fd5b50610687806100206000396000f3fe60806040526004361061004a5760003560e01c806325cc42b21461004f57806327e235e31461007857806331e3e2fe146100b5578063a4beda63146100e0578063ed21248c1461011d575b600080fd5b34801561005b57600080fd5b5061007660048036038101906100719190610493565b610127565b005b34801561008457600080fd5b5061009f600480360381019061009a919061046a565b6101bf565b6040516100ac919061052d565b60405180910390f35b3480156100c157600080fd5b506100ca6101d7565b6040516100d79190610512565b60405180910390f35b3480156100ec57600080fd5b506101076004803603810190610102919061046a565b610369565b604051610114919061052d565b60405180910390f35b610125610381565b005b61017981600160003373ffffffffffffffffffffffffffffffffffffffff1673ffffffffffffffffffffffffffffffffffffffff1681526020019081526020016000205461042a90919063ffffffff16565b600160003373ffffffffffffffffffffffffffffffffffffffff1673ffffffffffffffffffffffffffffffffffffffff1681526020019081526020016000208190555050565b60006020528060005260406000206000915090505481565b6000806000803373ffffffffffffffffffffffffffffffffffffffff1673ffffffffffffffffffffffffffffffffffffffff168152602001908152602001600020541161022357600080fd5b42600160003373ffffffffffffffffffffffffffffffffffffffff1673ffffffffffffffffffffffffffffffffffffffff168152602001908152602001600020541061026e57600080fd5b60008060003373ffffffffffffffffffffffffffffffffffffffff1673ffffffffffffffffffffffffffffffffffffffff16815260200190815260200160002054905060008060003373ffffffffffffffffffffffffffffffffffffffff1673ffffffffffffffffffffffffffffffffffffffff1681526020019081526020016000208190555060003373ffffffffffffffffffffffffffffffffffffffff168260405161031b906104fd565b60006040518083038185875af1925050503d8060008114610358576040519150601f19603f3d011682016040523d82523d6000602084013e61035d565b606091505b50509050809250505090565b60016020528060005260406000206000915090505481565b346000803373ffffffffffffffffffffffffffffffffffffffff1673ffffffffffffffffffffffffffffffffffffffff16815260200190815260200160002060008282546103cf9190610553565b9250508190555062093a80426103e59190610553565b600160003373ffffffffffffffffffffffffffffffffffffffff1673ffffffffffffffffffffffffffffffffffffffff16815260200190815260200160002081905550565b600081836104389190610553565b905092915050565b60008135905061044f81610623565b92915050565b6000813590506104648161063a565b92915050565b60006020828403121561047c57600080fd5b600061048a84828501610440565b91505092915050565b6000602082840312156104a557600080fd5b60006104b384828501610455565b91505092915050565b6104c5816105bb565b82525050565b60006104d8600083610548565b91506104e382610620565b600082019050919050565b6104f7816105e7565b82525050565b6000610508826104cb565b9150819050919050565b600060208201905061052760008301846104bc565b92915050565b600060208201905061054260008301846104ee565b92915050565b600081905092915050565b600061055e826105e7565b9150610569836105e7565b9250827fffffffffffffffffffffffffffffffffffffffffffffffffffffffffffffffff0382111561059e5761059d6105f1565b5b828201905092915050565b60006105b4826105c7565b9050919050565b60008115159050919050565b600073ffffffffffffffffffffffffffffffffffffffff82169050919050565b6000819050919050565b7f4e487b7100000000000000000000000000000000000000000000000000000000600052601160045260246000fd5b50565b61062c816105a9565b811461063757600080fd5b50565b610643816105e7565b811461064e57600080fd5b5056fea264697066735822122078f2a40219a8eae7bc40f62aca45bea94d3f91e59e81c1ccffd576fe16475a0564736f6c63430008040033",
					"opcodes": "PUSH1 0x80 PUSH1 0x40 MSTORE CALLVALUE DUP1 ISZERO PUSH2 0x10 JUMPI PUSH1 0x0 DUP1 REVERT JUMPDEST POP PUSH2 0x687 DUP1 PUSH2 0x20 PUSH1 0x0 CODECOPY PUSH1 0x0 RETURN INVALID PUSH1 0x80 PUSH1 0x40 MSTORE PUSH1 0x4 CALLDATASIZE LT PUSH2 0x4A JUMPI PUSH1 0x0 CALLDATALOAD PUSH1 0xE0 SHR DUP1 PUSH4 0x25CC42B2 EQ PUSH2 0x4F JUMPI DUP1 PUSH4 0x27E235E3 EQ PUSH2 0x78 JUMPI DUP1 PUSH4 0x31E3E2FE EQ PUSH2 0xB5 JUMPI DUP1 PUSH4 0xA4BEDA63 EQ PUSH2 0xE0 JUMPI DUP1 PUSH4 0xED21248C EQ PUSH2 0x11D JUMPI JUMPDEST PUSH1 0x0 DUP1 REVERT JUMPDEST CALLVALUE DUP1 ISZERO PUSH2 0x5B JUMPI PUSH1 0x0 DUP1 REVERT JUMPDEST POP PUSH2 0x76 PUSH1 0x4 DUP1 CALLDATASIZE SUB DUP2 ADD SWAP1 PUSH2 0x71 SWAP2 SWAP1 PUSH2 0x493 JUMP JUMPDEST PUSH2 0x127 JUMP JUMPDEST STOP JUMPDEST CALLVALUE DUP1 ISZERO PUSH2 0x84 JUMPI PUSH1 0x0 DUP1 REVERT JUMPDEST POP PUSH2 0x9F PUSH1 0x4 DUP1 CALLDATASIZE SUB DUP2 ADD SWAP1 PUSH2 0x9A SWAP2 SWAP1 PUSH2 0x46A JUMP JUMPDEST PUSH2 0x1BF JUMP JUMPDEST PUSH1 0x40 MLOAD PUSH2 0xAC SWAP2 SWAP1 PUSH2 0x52D JUMP JUMPDEST PUSH1 0x40 MLOAD DUP1 SWAP2 SUB SWAP1 RETURN JUMPDEST CALLVALUE DUP1 ISZERO PUSH2 0xC1 JUMPI PUSH1 0x0 DUP1 REVERT JUMPDEST POP PUSH2 0xCA PUSH2 0x1D7 JUMP JUMPDEST PUSH1 0x40 MLOAD PUSH2 0xD7 SWAP2 SWAP1 PUSH2 0x512 JUMP JUMPDEST PUSH1 0x40 MLOAD DUP1 SWAP2 SUB SWAP1 RETURN JUMPDEST CALLVALUE DUP1 ISZERO PUSH2 0xEC JUMPI PUSH1 0x0 DUP1 REVERT JUMPDEST POP PUSH2 0x107 PUSH1 0x4 DUP1 CALLDATASIZE SUB DUP2 ADD SWAP1 PUSH2 0x102 SWAP2 SWAP1 PUSH2 0x46A JUMP JUMPDEST PUSH2 0x369 JUMP JUMPDEST PUSH1 0x40 MLOAD PUSH2 0x114 SWAP2 SWAP1 PUSH2 0x52D JUMP JUMPDEST PUSH1 0x40 MLOAD DUP1 SWAP2 SUB SWAP1 RETURN JUMPDEST PUSH2 0x125 PUSH2 0x381 JUMP JUMPDEST STOP JUMPDEST PUSH2 0x179 DUP2 PUSH1 0x1 PUSH1 0x0 CALLER PUSH20 0xFFFFFFFFFFFFFFFFFFFFFFFFFFFFFFFFFFFFFFFF AND PUSH20 0xFFFFFFFFFFFFFFFFFFFFFFFFFFFFFFFFFFFFFFFF AND DUP2 MSTORE PUSH1 0x20 ADD SWAP1 DUP2 MSTORE PUSH1 0x20 ADD PUSH1 0x0 KECCAK256 SLOAD PUSH2 0x42A SWAP1 SWAP2 SWAP1 PUSH4 0xFFFFFFFF AND JUMP JUMPDEST PUSH1 0x1 PUSH1 0x0 CALLER PUSH20 0xFFFFFFFFFFFFFFFFFFFFFFFFFFFFFFFFFFFFFFFF AND PUSH20 0xFFFFFFFFFFFFFFFFFFFFFFFFFFFFFFFFFFFFFFFF AND DUP2 MSTORE PUSH1 0x20 ADD SWAP1 DUP2 MSTORE PUSH1 0x20 ADD PUSH1 0x0 KECCAK256 DUP2 SWAP1 SSTORE POP POP JUMP JUMPDEST PUSH1 0x0 PUSH1 0x20 MSTORE DUP1 PUSH1 0x0 MSTORE PUSH1 0x40 PUSH1 0x0 KECCAK256 PUSH1 0x0 SWAP2 POP SWAP1 POP SLOAD DUP2 JUMP JUMPDEST PUSH1 0x0 DUP1 PUSH1 0x0 DUP1 CALLER PUSH20 0xFFFFFFFFFFFFFFFFFFFFFFFFFFFFFFFFFFFFFFFF AND PUSH20 0xFFFFFFFFFFFFFFFFFFFFFFFFFFFFFFFFFFFFFFFF AND DUP2 MSTORE PUSH1 0x20 ADD SWAP1 DUP2 MSTORE PUSH1 0x20 ADD PUSH1 0x0 KECCAK256 SLOAD GT PUSH2 0x223 JUMPI PUSH1 0x0 DUP1 REVERT JUMPDEST TIMESTAMP PUSH1 0x1 PUSH1 0x0 CALLER PUSH20 0xFFFFFFFFFFFFFFFFFFFFFFFFFFFFFFFFFFFFFFFF AND PUSH20 0xFFFFFFFFFFFFFFFFFFFFFFFFFFFFFFFFFFFFFFFF AND DUP2 MSTORE PUSH1 0x20 ADD SWAP1 DUP2 MSTORE PUSH1 0x20 ADD PUSH1 0x0 KECCAK256 SLOAD LT PUSH2 0x26E JUMPI PUSH1 0x0 DUP1 REVERT JUMPDEST PUSH1 0x0 DUP1 PUSH1 0x0 CALLER PUSH20 0xFFFFFFFFFFFFFFFFFFFFFFFFFFFFFFFFFFFFFFFF AND PUSH20 0xFFFFFFFFFFFFFFFFFFFFFFFFFFFFFFFFFFFFFFFF AND DUP2 MSTORE PUSH1 0x20 ADD SWAP1 DUP2 MSTORE PUSH1 0x20 ADD PUSH1 0x0 KECCAK256 SLOAD SWAP1 POP PUSH1 0x0 DUP1 PUSH1 0x0 CALLER PUSH20 0xFFFFFFFFFFFFFFFFFFFFFFFFFFFFFFFFFFFFFFFF AND PUSH20 0xFFFFFFFFFFFFFFFFFFFFFFFFFFFFFFFFFFFFFFFF AND DUP2 MSTORE PUSH1 0x20 ADD SWAP1 DUP2 MSTORE PUSH1 0x20 ADD PUSH1 0x0 KECCAK256 DUP2 SWAP1 SSTORE POP PUSH1 0x0 CALLER PUSH20 0xFFFFFFFFFFFFFFFFFFFFFFFFFFFFFFFFFFFFFFFF AND DUP3 PUSH1 0x40 MLOAD PUSH2 0x31B SWAP1 PUSH2 0x4FD JUMP JUMPDEST PUSH1 0x0 PUSH1 0x40 MLOAD DUP1 DUP4 SUB DUP2 DUP6 DUP8 GAS CALL SWAP3 POP POP POP RETURNDATASIZE DUP1 PUSH1 0x0 DUP2 EQ PUSH2 0x358 JUMPI PUSH1 0x40 MLOAD SWAP2 POP PUSH1 0x1F NOT PUSH1 0x3F RETURNDATASIZE ADD AND DUP3 ADD PUSH1 0x40 MSTORE RETURNDATASIZE DUP3 MSTORE RETURNDATASIZE PUSH1 0x0 PUSH1 0x20 DUP5 ADD RETURNDATACOPY PUSH2 0x35D JUMP JUMPDEST PUSH1 0x60 SWAP2 POP JUMPDEST POP POP SWAP1 POP DUP1 SWAP3 POP POP POP SWAP1 JUMP JUMPDEST PUSH1 0x1 PUSH1 0x20 MSTORE DUP1 PUSH1 0x0 MSTORE PUSH1 0x40 PUSH1 0x0 KECCAK256 PUSH1 0x0 SWAP2 POP SWAP1 POP SLOAD DUP2 JUMP JUMPDEST CALLVALUE PUSH1 0x0 DUP1 CALLER PUSH20 0xFFFFFFFFFFFFFFFFFFFFFFFFFFFFFFFFFFFFFFFF AND PUSH20 0xFFFFFFFFFFFFFFFFFFFFFFFFFFFFFFFFFFFFFFFF AND DUP2 MSTORE PUSH1 0x20 ADD SWAP1 DUP2 MSTORE PUSH1 0x20 ADD PUSH1 0x0 KECCAK256 PUSH1 0x0 DUP3 DUP3 SLOAD PUSH2 0x3CF SWAP2 SWAP1 PUSH2 0x553 JUMP JUMPDEST SWAP3 POP POP DUP2 SWAP1 SSTORE POP PUSH3 0x93A80 TIMESTAMP PUSH2 0x3E5 SWAP2 SWAP1 PUSH2 0x553 JUMP JUMPDEST PUSH1 0x1 PUSH1 0x0 CALLER PUSH20 0xFFFFFFFFFFFFFFFFFFFFFFFFFFFFFFFFFFFFFFFF AND PUSH20 0xFFFFFFFFFFFFFFFFFFFFFFFFFFFFFFFFFFFFFFFF AND DUP2 MSTORE PUSH1 0x20 ADD SWAP1 DUP2 MSTORE PUSH1 0x20 ADD PUSH1 0x0 KECCAK256 DUP2 SWAP1 SSTORE POP JUMP JUMPDEST PUSH1 0x0 DUP2 DUP4 PUSH2 0x438 SWAP2 SWAP1 PUSH2 0x553 JUMP JUMPDEST SWAP1 POP SWAP3 SWAP2 POP POP JUMP JUMPDEST PUSH1 0x0 DUP2 CALLDATALOAD SWAP1 POP PUSH2 0x44F DUP2 PUSH2 0x623 JUMP JUMPDEST SWAP3 SWAP2 POP POP JUMP JUMPDEST PUSH1 0x0 DUP2 CALLDATALOAD SWAP1 POP PUSH2 0x464 DUP2 PUSH2 0x63A JUMP JUMPDEST SWAP3 SWAP2 POP POP JUMP JUMPDEST PUSH1 0x0 PUSH1 0x20 DUP3 DUP5 SUB SLT ISZERO PUSH2 0x47C JUMPI PUSH1 0x0 DUP1 REVERT JUMPDEST PUSH1 0x0 PUSH2 0x48A DUP5 DUP3 DUP6 ADD PUSH2 0x440 JUMP JUMPDEST SWAP2 POP POP SWAP3 SWAP2 POP POP JUMP JUMPDEST PUSH1 0x0 PUSH1 0x20 DUP3 DUP5 SUB SLT ISZERO PUSH2 0x4A5 JUMPI PUSH1 0x0 DUP1 REVERT JUMPDEST PUSH1 0x0 PUSH2 0x4B3 DUP5 DUP3 DUP6 ADD PUSH2 0x455 JUMP JUMPDEST SWAP2 POP POP SWAP3 SWAP2 POP POP JUMP JUMPDEST PUSH2 0x4C5 DUP2 PUSH2 0x5BB JUMP JUMPDEST DUP3 MSTORE POP POP JUMP JUMPDEST PUSH1 0x0 PUSH2 0x4D8 PUSH1 0x0 DUP4 PUSH2 0x548 JUMP JUMPDEST SWAP2 POP PUSH2 0x4E3 DUP3 PUSH2 0x620 JUMP JUMPDEST PUSH1 0x0 DUP3 ADD SWAP1 POP SWAP2 SWAP1 POP JUMP JUMPDEST PUSH2 0x4F7 DUP2 PUSH2 0x5E7 JUMP JUMPDEST DUP3 MSTORE POP POP JUMP JUMPDEST PUSH1 0x0 PUSH2 0x508 DUP3 PUSH2 0x4CB JUMP JUMPDEST SWAP2 POP DUP2 SWAP1 POP SWAP2 SWAP1 POP JUMP JUMPDEST PUSH1 0x0 PUSH1 0x20 DUP3 ADD SWAP1 POP PUSH2 0x527 PUSH1 0x0 DUP4 ADD DUP5 PUSH2 0x4BC JUMP JUMPDEST SWAP3 SWAP2 POP POP JUMP JUMPDEST PUSH1 0x0 PUSH1 0x20 DUP3 ADD SWAP1 POP PUSH2 0x542 PUSH1 0x0 DUP4 ADD DUP5 PUSH2 0x4EE JUMP JUMPDEST SWAP3 SWAP2 POP POP JUMP JUMPDEST PUSH1 0x0 DUP2 SWAP1 POP SWAP3 SWAP2 POP POP JUMP JUMPDEST PUSH1 0x0 PUSH2 0x55E DUP3 PUSH2 0x5E7 JUMP JUMPDEST SWAP2 POP PUSH2 0x569 DUP4 PUSH2 0x5E7 JUMP JUMPDEST SWAP3 POP DUP3 PUSH32 0xFFFFFFFFFFFFFFFFFFFFFFFFFFFFFFFFFFFFFFFFFFFFFFFFFFFFFFFFFFFFFFFF SUB DUP3 GT ISZERO PUSH2 0x59E JUMPI PUSH2 0x59D PUSH2 0x5F1 JUMP JUMPDEST JUMPDEST DUP3 DUP3 ADD SWAP1 POP SWAP3 SWAP2 POP POP JUMP JUMPDEST PUSH1 0x0 PUSH2 0x5B4 DUP3 PUSH2 0x5C7 JUMP JUMPDEST SWAP1 POP SWAP2 SWAP1 POP JUMP JUMPDEST PUSH1 0x0 DUP2 ISZERO ISZERO SWAP1 POP SWAP2 SWAP1 POP JUMP JUMPDEST PUSH1 0x0 PUSH20 0xFFFFFFFFFFFFFFFFFFFFFFFFFFFFFFFFFFFFFFFF DUP3 AND SWAP1 POP SWAP2 SWAP1 POP JUMP JUMPDEST PUSH1 0x0 DUP2 SWAP1 POP SWAP2 SWAP1 POP JUMP JUMPDEST PUSH32 0x4E487B7100000000000000000000000000000000000000000000000000000000 PUSH1 0x0 MSTORE PUSH1 0x11 PUSH1 0x4 MSTORE PUSH1 0x24 PUSH1 0x0 REVERT JUMPDEST POP JUMP JUMPDEST PUSH2 0x62C DUP2 PUSH2 0x5A9 JUMP JUMPDEST DUP2 EQ PUSH2 0x637 JUMPI PUSH1 0x0 DUP1 REVERT JUMPDEST POP JUMP JUMPDEST PUSH2 0x643 DUP2 PUSH2 0x5E7 JUMP JUMPDEST DUP2 EQ PUSH2 0x64E JUMPI PUSH1 0x0 DUP1 REVERT JUMPDEST POP JUMP INVALID LOG2 PUSH5 0x6970667358 0x22 SLT KECCAK256 PUSH25 0xF2A40219A8EAE7BC40F62ACA45BEA94D3F91E59E81C1CCFFD5 PUSH23 0xFE16475A0564736F6C6343000804003300000000000000 "
				},
				"gasEstimates": {
					"creation": {
						"codeDepositCost": "334200",
						"executionCost": "374",
						"totalCost": "334574"
					},
					"external": {
						"Deposit()": "infinite",
						"Increasetime(uint256)": "infinite",
						"WithDraw()": "infinite",
						"balances(address)": "1514",
						"lockTime(address)": "1558"
					}
				},
				"methodIdentifiers": {
					"Deposit()": "ed21248c",
					"Increasetime(uint256)": "25cc42b2",
					"WithDraw()": "31e3e2fe",
					"balances(address)": "27e235e3",
					"lockTime(address)": "a4beda63"
				}
			},
			"storageLayout": {
				"storage": [
					{
						"astId": 321,
						"contract": "practice/TimeLock.sol:TimeLock",
						"label": "balances",
						"offset": 0,
						"slot": "0",
						"type": "t_mapping(t_address,t_uint256)"
					},
					{
						"astId": 325,
						"contract": "practice/TimeLock.sol:TimeLock",
						"label": "lockTime",
						"offset": 0,
						"slot": "1",
						"type": "t_mapping(t_address,t_uint256)"
					}
				],
				"types": {
					"t_address": {
						"encoding": "inplace",
						"label": "address",
						"numberOfBytes": "20"
					},
					"t_mapping(t_address,t_uint256)": {
						"encoding": "mapping",
						"key": "t_address",
						"label": "mapping(address => uint256)",
						"numberOfBytes": "32",
						"value": "t_uint256"
					},
					"t_uint256": {
						"encoding": "inplace",
						"label": "uint256",
						"numberOfBytes": "32"
					}
				}
			},
			"userdoc": {
				"kind": "user",
				"methods": {},
				"version": 1
			}
		}
	}
}