{
	"practice/HotelBookRooms.sol": {
		"HotelBookRooms": {
			"abi": [
				{
					"inputs": [
						{
							"internalType": "uint8",
							"name": "_roomCount",
							"type": "uint8"
						}
					],
					"stateMutability": "nonpayable",
					"type": "constructor"
				},
				{
					"inputs": [
						{
							"internalType": "string",
							"name": "personName",
							"type": "string"
						}
					],
					"name": "Booking",
					"outputs": [],
					"stateMutability": "nonpayable",
					"type": "function"
				},
				{
					"inputs": [
						{
							"internalType": "uint8",
							"name": "",
							"type": "uint8"
						}
					],
					"name": "RoomBook",
					"outputs": [
						{
							"internalType": "uint8",
							"name": "roomNo",
							"type": "uint8"
						},
						{
							"internalType": "string",
							"name": "bookPersonName",
							"type": "string"
						},
						{
							"internalType": "enum HotelBookRooms.Status",
							"name": "status",
							"type": "uint8"
						}
					],
					"stateMutability": "view",
					"type": "function"
				},
				{
					"inputs": [],
					"name": "bookedCount",
					"outputs": [
						{
							"internalType": "uint8",
							"name": "",
							"type": "uint8"
						}
					],
					"stateMutability": "view",
					"type": "function"
				},
				{
					"inputs": [],
					"name": "owner",
					"outputs": [
						{
							"internalType": "address",
							"name": "",
							"type": "address"
						}
					],
					"stateMutability": "view",
					"type": "function"
				},
				{
					"inputs": [],
					"name": "roomCount",
					"outputs": [
						{
							"internalType": "uint8",
							"name": "",
							"type": "uint8"
						}
					],
					"stateMutability": "view",
					"type": "function"
				}
			],
			"devdoc": {
				"kind": "dev",
				"methods": {},
				"version": 1
			},
			"evm": {
				"assembly": "    /* \"practice/HotelBookRooms.sol\":27:863  contract HotelBookRooms{\r... */\n  mstore(0x40, 0x80)\n    /* \"practice/HotelBookRooms.sol\":197:198  0 */\n  0x00\n    /* \"practice/HotelBookRooms.sol\":171:198  uint8 public bookedCount =0 */\n  0x02\n  exp(0x0100, 0x00)\n  dup2\n  sload\n  dup2\n  0xff\n  mul\n  not\n  and\n  swap1\n  dup4\n  0xff\n  and\n  mul\n  or\n  swap1\n  sstore\n  pop\n    /* \"practice/HotelBookRooms.sol\":347:605  constructor (uint8 _roomCount) public{\r... */\n  callvalue\n  dup1\n  iszero\n  tag_1\n  jumpi\n  0x00\n  dup1\n  revert\ntag_1:\n  pop\n  mload(0x40)\n  sub(codesize, bytecodeSize)\n  dup1\n  bytecodeSize\n  dup4\n  codecopy\n  dup2\n  dup2\n  add\n  0x40\n  mstore\n  dup2\n  add\n  swap1\n  tag_2\n  swap2\n  swap1\n  tag_3\n  jump\t// in\ntag_2:\n    /* \"practice/HotelBookRooms.sol\":405:415  _roomCount */\n  dup1\n    /* \"practice/HotelBookRooms.sol\":395:404  roomCount */\n  0x02\n  0x01\n    /* \"practice/HotelBookRooms.sol\":395:415  roomCount=_roomCount */\n  0x0100\n  exp\n  dup2\n  sload\n  dup2\n  0xff\n  mul\n  not\n  and\n  swap1\n  dup4\n  0xff\n  and\n  mul\n  or\n  swap1\n  sstore\n  pop\n    /* \"practice/HotelBookRooms.sol\":432:442  msg.sender */\n  caller\n    /* \"practice/HotelBookRooms.sol\":426:431  owner */\n  0x00\n  dup1\n    /* \"practice/HotelBookRooms.sol\":426:442  owner=msg.sender */\n  0x0100\n  exp\n  dup2\n  sload\n  dup2\n  0xffffffffffffffffffffffffffffffffffffffff\n  mul\n  not\n  and\n  swap1\n  dup4\n  0xffffffffffffffffffffffffffffffffffffffff\n  and\n  mul\n  or\n  swap1\n  sstore\n  pop\n    /* \"practice/HotelBookRooms.sol\":457:464  uint8 i */\n  0x00\n    /* \"practice/HotelBookRooms.sol\":453:598  for(uint8 i=0;i<_roomCount;i++){\r... */\ntag_6:\n    /* \"practice/HotelBookRooms.sol\":469:479  _roomCount */\n  dup2\n    /* \"practice/HotelBookRooms.sol\":467:479  i<_roomCount */\n  0xff\n  and\n    /* \"practice/HotelBookRooms.sol\":467:468  i */\n  dup2\n    /* \"practice/HotelBookRooms.sol\":467:479  i<_roomCount */\n  0xff\n  and\n  lt\n    /* \"practice/HotelBookRooms.sol\":453:598  for(uint8 i=0;i<_roomCount;i++){\r... */\n  iszero\n  tag_7\n  jumpi\n    /* \"practice/HotelBookRooms.sol\":499:522  RoomBooking memory room */\n  0x00\n    /* \"practice/HotelBookRooms.sol\":523:555  RoomBooking(i,\"\",Status.vaccant) */\n  mload(0x40)\n  dup1\n  0x60\n  add\n  0x40\n  mstore\n  dup1\n    /* \"practice/HotelBookRooms.sol\":535:536  i */\n  dup4\n    /* \"practice/HotelBookRooms.sol\":523:555  RoomBooking(i,\"\",Status.vaccant) */\n  0xff\n  and\n  dup2\n  mstore\n  0x20\n  add\n  mload(0x40)\n  dup1\n  0x20\n  add\n  0x40\n  mstore\n  dup1\n  0x00\n  dup2\n  mstore\n  pop\n  dup2\n  mstore\n  0x20\n  add\n    /* \"practice/HotelBookRooms.sol\":540:554  Status.vaccant */\n  0x00\n    /* \"practice/HotelBookRooms.sol\":523:555  RoomBooking(i,\"\",Status.vaccant) */\n  0x01\n  dup2\n  gt\n  iszero\n  tag_9\n  jumpi\n  mstore(0x00, 0x4e487b7100000000000000000000000000000000000000000000000000000000)\n  mstore(0x04, 0x21)\n  revert(0x00, 0x24)\ntag_9:\n  dup2\n  mstore\n  pop\n    /* \"practice/HotelBookRooms.sol\":499:555  RoomBooking memory room=RoomBooking(i,\"\",Status.vaccant) */\n  swap1\n  pop\n    /* \"practice/HotelBookRooms.sol\":582:586  room */\n  dup1\n    /* \"practice/HotelBookRooms.sol\":570:578  RoomBook */\n  0x01\n    /* \"practice/HotelBookRooms.sol\":570:581  RoomBook[i] */\n  0x00\n    /* \"practice/HotelBookRooms.sol\":579:580  i */\n  dup5\n    /* \"practice/HotelBookRooms.sol\":570:581  RoomBook[i] */\n  0xff\n  and\n  0xff\n  and\n  dup2\n  mstore\n  0x20\n  add\n  swap1\n  dup2\n  mstore\n  0x20\n  add\n  0x00\n  keccak256\n    /* \"practice/HotelBookRooms.sol\":570:586  RoomBook[i]=room */\n  0x00\n  dup3\n  add\n  mload\n  dup2\n  0x00\n  add\n  exp(0x0100, 0x00)\n  dup2\n  sload\n  dup2\n  0xff\n  mul\n  not\n  and\n  swap1\n  dup4\n  0xff\n  and\n  mul\n  or\n  swap1\n  sstore\n  pop\n  0x20\n  dup3\n  add\n  mload\n  dup2\n  0x01\n  add\n  swap1\n  dup1\n  mload\n  swap1\n  0x20\n  add\n  swap1\n  tag_10\n  swap3\n  swap2\n  swap1\n  tag_11\n  jump\t// in\ntag_10:\n  pop\n  0x40\n  dup3\n  add\n  mload\n  dup2\n  0x02\n  add\n  exp(0x0100, 0x00)\n  dup2\n  sload\n  dup2\n  0xff\n  mul\n  not\n  and\n  swap1\n  dup4\n  0x01\n  dup2\n  gt\n  iszero\n  tag_12\n  jumpi\n  mstore(0x00, 0x4e487b7100000000000000000000000000000000000000000000000000000000)\n  mstore(0x04, 0x21)\n  revert(0x00, 0x24)\ntag_12:\n  mul\n  or\n  swap1\n  sstore\n  pop\n  swap1\n  pop\n  pop\n    /* \"practice/HotelBookRooms.sol\":453:598  for(uint8 i=0;i<_roomCount;i++){\r... */\n  pop\n    /* \"practice/HotelBookRooms.sol\":480:483  i++ */\n  dup1\n  dup1\n  tag_13\n  swap1\n  tag_14\n  jump\t// in\ntag_13:\n  swap2\n  pop\n  pop\n    /* \"practice/HotelBookRooms.sol\":453:598  for(uint8 i=0;i<_roomCount;i++){\r... */\n  jump(tag_6)\ntag_7:\n  pop\n    /* \"practice/HotelBookRooms.sol\":347:605  constructor (uint8 _roomCount) public{\r... */\n  pop\n    /* \"practice/HotelBookRooms.sol\":27:863  contract HotelBookRooms{\r... */\n  jump(tag_15)\ntag_11:\n  dup3\n  dup1\n  sload\n  tag_16\n  swap1\n  tag_17\n  jump\t// in\ntag_16:\n  swap1\n  0x00\n  mstore\n  keccak256(0x00, 0x20)\n  swap1\n  0x1f\n  add\n  0x20\n  swap1\n  div\n  dup2\n  add\n  swap3\n  dup3\n  tag_19\n  jumpi\n  0x00\n  dup6\n  sstore\n  jump(tag_18)\ntag_19:\n  dup3\n  0x1f\n  lt\n  tag_20\n  jumpi\n  dup1\n  mload\n  not(0xff)\n  and\n  dup4\n  dup1\n  add\n  or\n  dup6\n  sstore\n  jump(tag_18)\ntag_20:\n  dup3\n  dup1\n  add\n  0x01\n  add\n  dup6\n  sstore\n  dup3\n  iszero\n  tag_18\n  jumpi\n  swap2\n  dup3\n  add\ntag_21:\n  dup3\n  dup2\n  gt\n  iszero\n  tag_22\n  jumpi\n  dup3\n  mload\n  dup3\n  sstore\n  swap2\n  0x20\n  add\n  swap2\n  swap1\n  0x01\n  add\n  swap1\n  jump(tag_21)\ntag_22:\ntag_18:\n  pop\n  swap1\n  pop\n  tag_23\n  swap2\n  swap1\n  tag_24\n  jump\t// in\ntag_23:\n  pop\n  swap1\n  jump\t// out\ntag_24:\ntag_25:\n  dup1\n  dup3\n  gt\n  iszero\n  tag_26\n  jumpi\n  0x00\n  dup2\n  0x00\n  swap1\n  sstore\n  pop\n  0x01\n  add\n  jump(tag_25)\ntag_26:\n  pop\n  swap1\n  jump\t// out\n    /* \"#utility.yul\":7:146   */\ntag_28:\n  0x00\n    /* \"#utility.yul\":93:99   */\n  dup2\n    /* \"#utility.yul\":87:100   */\n  mload\n    /* \"#utility.yul\":78:100   */\n  swap1\n  pop\n    /* \"#utility.yul\":109:140   */\n  tag_30\n    /* \"#utility.yul\":134:139   */\n  dup2\n    /* \"#utility.yul\":109:140   */\n  tag_31\n  jump\t// in\ntag_30:\n    /* \"#utility.yul\":68:146   */\n  swap3\n  swap2\n  pop\n  pop\n  jump\t// out\n    /* \"#utility.yul\":152:432   */\ntag_3:\n  0x00\n    /* \"#utility.yul\":269:271   */\n  0x20\n    /* \"#utility.yul\":257:266   */\n  dup3\n    /* \"#utility.yul\":248:255   */\n  dup5\n    /* \"#utility.yul\":244:267   */\n  sub\n    /* \"#utility.yul\":240:272   */\n  slt\n    /* \"#utility.yul\":237:239   */\n  iszero\n  tag_33\n  jumpi\n    /* \"#utility.yul\":285:286   */\n  0x00\n    /* \"#utility.yul\":282:283   */\n  dup1\n    /* \"#utility.yul\":275:287   */\n  revert\n    /* \"#utility.yul\":237:239   */\ntag_33:\n    /* \"#utility.yul\":328:329   */\n  0x00\n    /* \"#utility.yul\":353:415   */\n  tag_34\n    /* \"#utility.yul\":407:414   */\n  dup5\n    /* \"#utility.yul\":398:404   */\n  dup3\n    /* \"#utility.yul\":387:396   */\n  dup6\n    /* \"#utility.yul\":383:405   */\n  add\n    /* \"#utility.yul\":353:415   */\n  tag_28\n  jump\t// in\ntag_34:\n    /* \"#utility.yul\":343:415   */\n  swap2\n  pop\n    /* \"#utility.yul\":299:425   */\n  pop\n    /* \"#utility.yul\":227:432   */\n  swap3\n  swap2\n  pop\n  pop\n  jump\t// out\n    /* \"#utility.yul\":438:524   */\ntag_35:\n  0x00\n    /* \"#utility.yul\":513:517   */\n  0xff\n    /* \"#utility.yul\":506:511   */\n  dup3\n    /* \"#utility.yul\":502:518   */\n  and\n    /* \"#utility.yul\":491:518   */\n  swap1\n  pop\n    /* \"#utility.yul\":481:524   */\n  swap2\n  swap1\n  pop\n  jump\t// out\n    /* \"#utility.yul\":530:850   */\ntag_17:\n  0x00\n    /* \"#utility.yul\":611:612   */\n  0x02\n    /* \"#utility.yul\":605:609   */\n  dup3\n    /* \"#utility.yul\":601:613   */\n  div\n    /* \"#utility.yul\":591:613   */\n  swap1\n  pop\n    /* \"#utility.yul\":658:659   */\n  0x01\n    /* \"#utility.yul\":652:656   */\n  dup3\n    /* \"#utility.yul\":648:660   */\n  and\n    /* \"#utility.yul\":679:697   */\n  dup1\n    /* \"#utility.yul\":669:671   */\n  tag_38\n  jumpi\n    /* \"#utility.yul\":735:739   */\n  0x7f\n    /* \"#utility.yul\":727:733   */\n  dup3\n    /* \"#utility.yul\":723:740   */\n  and\n    /* \"#utility.yul\":713:740   */\n  swap2\n  pop\n    /* \"#utility.yul\":669:671   */\ntag_38:\n    /* \"#utility.yul\":797:799   */\n  0x20\n    /* \"#utility.yul\":789:795   */\n  dup3\n    /* \"#utility.yul\":786:800   */\n  lt\n    /* \"#utility.yul\":766:784   */\n  dup2\n    /* \"#utility.yul\":763:801   */\n  eq\n    /* \"#utility.yul\":760:762   */\n  iszero\n  tag_39\n  jumpi\n    /* \"#utility.yul\":816:834   */\n  tag_40\n  tag_41\n  jump\t// in\ntag_40:\n    /* \"#utility.yul\":760:762   */\ntag_39:\n    /* \"#utility.yul\":581:850   */\n  pop\n  swap2\n  swap1\n  pop\n  jump\t// out\n    /* \"#utility.yul\":856:1023   */\ntag_14:\n  0x00\n    /* \"#utility.yul\":916:938   */\n  tag_43\n    /* \"#utility.yul\":932:937   */\n  dup3\n    /* \"#utility.yul\":916:938   */\n  tag_35\n  jump\t// in\ntag_43:\n    /* \"#utility.yul\":907:938   */\n  swap2\n  pop\n    /* \"#utility.yul\":960:964   */\n  0xff\n    /* \"#utility.yul\":953:958   */\n  dup3\n    /* \"#utility.yul\":950:965   */\n  eq\n    /* \"#utility.yul\":947:949   */\n  iszero\n  tag_44\n  jumpi\n    /* \"#utility.yul\":968:986   */\n  tag_45\n  tag_46\n  jump\t// in\ntag_45:\n    /* \"#utility.yul\":947:949   */\ntag_44:\n    /* \"#utility.yul\":1015:1016   */\n  0x01\n    /* \"#utility.yul\":1008:1013   */\n  dup3\n    /* \"#utility.yul\":1004:1017   */\n  add\n    /* \"#utility.yul\":997:1017   */\n  swap1\n  pop\n    /* \"#utility.yul\":897:1023   */\n  swap2\n  swap1\n  pop\n  jump\t// out\n    /* \"#utility.yul\":1029:1209   */\ntag_46:\n    /* \"#utility.yul\":1077:1154   */\n  0x4e487b7100000000000000000000000000000000000000000000000000000000\n    /* \"#utility.yul\":1074:1075   */\n  0x00\n    /* \"#utility.yul\":1067:1155   */\n  mstore\n    /* \"#utility.yul\":1174:1178   */\n  0x11\n    /* \"#utility.yul\":1171:1172   */\n  0x04\n    /* \"#utility.yul\":1164:1179   */\n  mstore\n    /* \"#utility.yul\":1198:1202   */\n  0x24\n    /* \"#utility.yul\":1195:1196   */\n  0x00\n    /* \"#utility.yul\":1188:1203   */\n  revert\n    /* \"#utility.yul\":1215:1395   */\ntag_41:\n    /* \"#utility.yul\":1263:1340   */\n  0x4e487b7100000000000000000000000000000000000000000000000000000000\n    /* \"#utility.yul\":1260:1261   */\n  0x00\n    /* \"#utility.yul\":1253:1341   */\n  mstore\n    /* \"#utility.yul\":1360:1364   */\n  0x22\n    /* \"#utility.yul\":1357:1358   */\n  0x04\n    /* \"#utility.yul\":1350:1365   */\n  mstore\n    /* \"#utility.yul\":1384:1388   */\n  0x24\n    /* \"#utility.yul\":1381:1382   */\n  0x00\n    /* \"#utility.yul\":1374:1389   */\n  revert\n    /* \"#utility.yul\":1401:1519   */\ntag_31:\n    /* \"#utility.yul\":1472:1494   */\n  tag_50\n    /* \"#utility.yul\":1488:1493   */\n  dup2\n    /* \"#utility.yul\":1472:1494   */\n  tag_35\n  jump\t// in\ntag_50:\n    /* \"#utility.yul\":1465:1470   */\n  dup2\n    /* \"#utility.yul\":1462:1495   */\n  eq\n    /* \"#utility.yul\":1452:1454   */\n  tag_51\n  jumpi\n    /* \"#utility.yul\":1509:1510   */\n  0x00\n    /* \"#utility.yul\":1506:1507   */\n  dup1\n    /* \"#utility.yul\":1499:1511   */\n  revert\n    /* \"#utility.yul\":1452:1454   */\ntag_51:\n    /* \"#utility.yul\":1442:1519   */\n  pop\n  jump\t// out\n    /* \"practice/HotelBookRooms.sol\":27:863  contract HotelBookRooms{\r... */\ntag_15:\n  dataSize(sub_0)\n  dup1\n  dataOffset(sub_0)\n  0x00\n  codecopy\n  0x00\n  return\nstop\n\nsub_0: assembly {\n        /* \"practice/HotelBookRooms.sol\":27:863  contract HotelBookRooms{\r... */\n      mstore(0x40, 0x80)\n      callvalue\n      dup1\n      iszero\n      tag_1\n      jumpi\n      0x00\n      dup1\n      revert\n    tag_1:\n      pop\n      jumpi(tag_2, lt(calldatasize, 0x04))\n      shr(0xe0, calldataload(0x00))\n      dup1\n      0x1f8c8a17\n      eq\n      tag_3\n      jumpi\n      dup1\n      0x8da5cb5b\n      eq\n      tag_4\n      jumpi\n      dup1\n      0xdf93a4e3\n      eq\n      tag_5\n      jumpi\n      dup1\n      0xe8ba178b\n      eq\n      tag_6\n      jumpi\n      dup1\n      0xeab22a8d\n      eq\n      tag_7\n      jumpi\n    tag_2:\n      0x00\n      dup1\n      revert\n        /* \"practice/HotelBookRooms.sol\":121:164  mapping(uint8=>RoomBooking) public RoomBook */\n    tag_3:\n      tag_8\n      0x04\n      dup1\n      calldatasize\n      sub\n      dup2\n      add\n      swap1\n      tag_9\n      swap2\n      swap1\n      tag_10\n      jump\t// in\n    tag_9:\n      tag_11\n      jump\t// in\n    tag_8:\n      mload(0x40)\n      tag_12\n      swap4\n      swap3\n      swap2\n      swap1\n      tag_13\n      jump\t// in\n    tag_12:\n      mload(0x40)\n      dup1\n      swap2\n      sub\n      swap1\n      return\n        /* \"practice/HotelBookRooms.sol\":94:114  address public owner */\n    tag_4:\n      tag_14\n      tag_15\n      jump\t// in\n    tag_14:\n      mload(0x40)\n      tag_16\n      swap2\n      swap1\n      tag_17\n      jump\t// in\n    tag_16:\n      mload(0x40)\n      dup1\n      swap2\n      sub\n      swap1\n      return\n        /* \"practice/HotelBookRooms.sol\":205:227  uint8 public roomCount */\n    tag_5:\n      tag_18\n      tag_19\n      jump\t// in\n    tag_18:\n      mload(0x40)\n      tag_20\n      swap2\n      swap1\n      tag_21\n      jump\t// in\n    tag_20:\n      mload(0x40)\n      dup1\n      swap2\n      sub\n      swap1\n      return\n        /* \"practice/HotelBookRooms.sol\":613:858  function Booking(string memory personName) public{\r... */\n    tag_6:\n      tag_22\n      0x04\n      dup1\n      calldatasize\n      sub\n      dup2\n      add\n      swap1\n      tag_23\n      swap2\n      swap1\n      tag_24\n      jump\t// in\n    tag_23:\n      tag_25\n      jump\t// in\n    tag_22:\n      stop\n        /* \"practice/HotelBookRooms.sol\":171:198  uint8 public bookedCount =0 */\n    tag_7:\n      tag_26\n      tag_27\n      jump\t// in\n    tag_26:\n      mload(0x40)\n      tag_28\n      swap2\n      swap1\n      tag_21\n      jump\t// in\n    tag_28:\n      mload(0x40)\n      dup1\n      swap2\n      sub\n      swap1\n      return\n        /* \"practice/HotelBookRooms.sol\":121:164  mapping(uint8=>RoomBooking) public RoomBook */\n    tag_11:\n      mstore(0x20, 0x01)\n      dup1\n      0x00\n      mstore\n      keccak256(0x00, 0x40)\n      0x00\n      swap2\n      pop\n      swap1\n      pop\n      dup1\n      0x00\n      add\n      0x00\n      swap1\n      sload\n      swap1\n      0x0100\n      exp\n      swap1\n      div\n      0xff\n      and\n      swap1\n      dup1\n      0x01\n      add\n      dup1\n      sload\n      tag_29\n      swap1\n      tag_30\n      jump\t// in\n    tag_29:\n      dup1\n      0x1f\n      add\n      0x20\n      dup1\n      swap2\n      div\n      mul\n      0x20\n      add\n      mload(0x40)\n      swap1\n      dup2\n      add\n      0x40\n      mstore\n      dup1\n      swap3\n      swap2\n      swap1\n      dup2\n      dup2\n      mstore\n      0x20\n      add\n      dup3\n      dup1\n      sload\n      tag_31\n      swap1\n      tag_30\n      jump\t// in\n    tag_31:\n      dup1\n      iszero\n      tag_32\n      jumpi\n      dup1\n      0x1f\n      lt\n      tag_33\n      jumpi\n      0x0100\n      dup1\n      dup4\n      sload\n      div\n      mul\n      dup4\n      mstore\n      swap2\n      0x20\n      add\n      swap2\n      jump(tag_32)\n    tag_33:\n      dup3\n      add\n      swap2\n      swap1\n      0x00\n      mstore\n      keccak256(0x00, 0x20)\n      swap1\n    tag_34:\n      dup2\n      sload\n      dup2\n      mstore\n      swap1\n      0x01\n      add\n      swap1\n      0x20\n      add\n      dup1\n      dup4\n      gt\n      tag_34\n      jumpi\n      dup3\n      swap1\n      sub\n      0x1f\n      and\n      dup3\n      add\n      swap2\n    tag_32:\n      pop\n      pop\n      pop\n      pop\n      pop\n      swap1\n      dup1\n      0x02\n      add\n      0x00\n      swap1\n      sload\n      swap1\n      0x0100\n      exp\n      swap1\n      div\n      0xff\n      and\n      swap1\n      pop\n      dup4\n      jump\t// out\n        /* \"practice/HotelBookRooms.sol\":94:114  address public owner */\n    tag_15:\n      0x00\n      dup1\n      sload\n      swap1\n      0x0100\n      exp\n      swap1\n      div\n      0xffffffffffffffffffffffffffffffffffffffff\n      and\n      dup2\n      jump\t// out\n        /* \"practice/HotelBookRooms.sol\":205:227  uint8 public roomCount */\n    tag_19:\n      0x02\n      0x01\n      swap1\n      sload\n      swap1\n      0x0100\n      exp\n      swap1\n      div\n      0xff\n      and\n      dup2\n      jump\t// out\n        /* \"practice/HotelBookRooms.sol\":613:858  function Booking(string memory personName) public{\r... */\n    tag_25:\n        /* \"practice/HotelBookRooms.sol\":694:703  roomCount */\n      0x02\n      0x01\n      swap1\n      sload\n      swap1\n      0x0100\n      exp\n      swap1\n      div\n      0xff\n      and\n        /* \"practice/HotelBookRooms.sol\":681:703  bookedCount<=roomCount */\n      0xff\n      and\n        /* \"practice/HotelBookRooms.sol\":681:692  bookedCount */\n      0x02\n      0x00\n      swap1\n      sload\n      swap1\n      0x0100\n      exp\n      swap1\n      div\n      0xff\n      and\n        /* \"practice/HotelBookRooms.sol\":681:703  bookedCount<=roomCount */\n      0xff\n      and\n      gt\n      iszero\n        /* \"practice/HotelBookRooms.sol\":673:727  require(bookedCount<=roomCount,\"all rooms are booked\") */\n      tag_36\n      jumpi\n      mload(0x40)\n      0x08c379a000000000000000000000000000000000000000000000000000000000\n      dup2\n      mstore\n      0x04\n      add\n      tag_37\n      swap1\n      tag_38\n      jump\t// in\n    tag_37:\n      mload(0x40)\n      dup1\n      swap2\n      sub\n      swap1\n      revert\n    tag_36:\n        /* \"practice/HotelBookRooms.sol\":738:761  RoomBooking memory room */\n      0x00\n        /* \"practice/HotelBookRooms.sol\":762:770  RoomBook */\n      0x01\n        /* \"practice/HotelBookRooms.sol\":762:783  RoomBook[bookedCount] */\n      0x00\n        /* \"practice/HotelBookRooms.sol\":771:782  bookedCount */\n      0x02\n      0x00\n      swap1\n      sload\n      swap1\n      0x0100\n      exp\n      swap1\n      div\n      0xff\n      and\n        /* \"practice/HotelBookRooms.sol\":762:783  RoomBook[bookedCount] */\n      0xff\n      and\n      0xff\n      and\n      dup2\n      mstore\n      0x20\n      add\n      swap1\n      dup2\n      mstore\n      0x20\n      add\n      0x00\n      keccak256\n        /* \"practice/HotelBookRooms.sol\":738:783  RoomBooking memory room=RoomBook[bookedCount] */\n      mload(0x40)\n      dup1\n      0x60\n      add\n      0x40\n      mstore\n      swap1\n      dup2\n      0x00\n      dup3\n      add\n      0x00\n      swap1\n      sload\n      swap1\n      0x0100\n      exp\n      swap1\n      div\n      0xff\n      and\n      0xff\n      and\n      0xff\n      and\n      dup2\n      mstore\n      0x20\n      add\n      0x01\n      dup3\n      add\n      dup1\n      sload\n      tag_39\n      swap1\n      tag_30\n      jump\t// in\n    tag_39:\n      dup1\n      0x1f\n      add\n      0x20\n      dup1\n      swap2\n      div\n      mul\n      0x20\n      add\n      mload(0x40)\n      swap1\n      dup2\n      add\n      0x40\n      mstore\n      dup1\n      swap3\n      swap2\n      swap1\n      dup2\n      dup2\n      mstore\n      0x20\n      add\n      dup3\n      dup1\n      sload\n      tag_40\n      swap1\n      tag_30\n      jump\t// in\n    tag_40:\n      dup1\n      iszero\n      tag_41\n      jumpi\n      dup1\n      0x1f\n      lt\n      tag_42\n      jumpi\n      0x0100\n      dup1\n      dup4\n      sload\n      div\n      mul\n      dup4\n      mstore\n      swap2\n      0x20\n      add\n      swap2\n      jump(tag_41)\n    tag_42:\n      dup3\n      add\n      swap2\n      swap1\n      0x00\n      mstore\n      keccak256(0x00, 0x20)\n      swap1\n    tag_43:\n      dup2\n      sload\n      dup2\n      mstore\n      swap1\n      0x01\n      add\n      swap1\n      0x20\n      add\n      dup1\n      dup4\n      gt\n      tag_43\n      jumpi\n      dup3\n      swap1\n      sub\n      0x1f\n      and\n      dup3\n      add\n      swap2\n    tag_41:\n      pop\n      pop\n      pop\n      pop\n      pop\n      dup2\n      mstore\n      0x20\n      add\n      0x02\n      dup3\n      add\n      0x00\n      swap1\n      sload\n      swap1\n      0x0100\n      exp\n      swap1\n      div\n      0xff\n      and\n      0x01\n      dup2\n      gt\n      iszero\n      tag_44\n      jumpi\n      mstore(0x00, 0x4e487b7100000000000000000000000000000000000000000000000000000000)\n      mstore(0x04, 0x21)\n      revert(0x00, 0x24)\n    tag_44:\n      0x01\n      dup2\n      gt\n      iszero\n      tag_45\n      jumpi\n      mstore(0x00, 0x4e487b7100000000000000000000000000000000000000000000000000000000)\n      mstore(0x04, 0x21)\n      revert(0x00, 0x24)\n    tag_45:\n      dup2\n      mstore\n      pop\n      pop\n      swap1\n      pop\n        /* \"practice/HotelBookRooms.sol\":799:850  RoomBooking(bookedCount,personName,Status.occupied) */\n      mload(0x40)\n      dup1\n      0x60\n      add\n      0x40\n      mstore\n      dup1\n        /* \"practice/HotelBookRooms.sol\":811:822  bookedCount */\n      0x02\n      0x00\n      swap1\n      sload\n      swap1\n      0x0100\n      exp\n      swap1\n      div\n      0xff\n      and\n        /* \"practice/HotelBookRooms.sol\":799:850  RoomBooking(bookedCount,personName,Status.occupied) */\n      0xff\n      and\n      dup2\n      mstore\n      0x20\n      add\n        /* \"practice/HotelBookRooms.sol\":823:833  personName */\n      dup4\n        /* \"practice/HotelBookRooms.sol\":799:850  RoomBooking(bookedCount,personName,Status.occupied) */\n      dup2\n      mstore\n      0x20\n      add\n        /* \"practice/HotelBookRooms.sol\":834:849  Status.occupied */\n      0x01\n        /* \"practice/HotelBookRooms.sol\":799:850  RoomBooking(bookedCount,personName,Status.occupied) */\n      dup1\n      dup2\n      gt\n      iszero\n      tag_46\n      jumpi\n      mstore(0x00, 0x4e487b7100000000000000000000000000000000000000000000000000000000)\n      mstore(0x04, 0x21)\n      revert(0x00, 0x24)\n    tag_46:\n      dup2\n      mstore\n      pop\n        /* \"practice/HotelBookRooms.sol\":794:850  room=RoomBooking(bookedCount,personName,Status.occupied) */\n      swap1\n      pop\n        /* \"practice/HotelBookRooms.sol\":613:858  function Booking(string memory personName) public{\r... */\n      pop\n      pop\n      jump\t// out\n        /* \"practice/HotelBookRooms.sol\":171:198  uint8 public bookedCount =0 */\n    tag_27:\n      0x02\n      0x00\n      swap1\n      sload\n      swap1\n      0x0100\n      exp\n      swap1\n      div\n      0xff\n      and\n      dup2\n      jump\t// out\n        /* \"#utility.yul\":7:351   */\n    tag_48:\n      0x00\n        /* \"#utility.yul\":110:175   */\n      tag_50\n        /* \"#utility.yul\":125:174   */\n      tag_51\n        /* \"#utility.yul\":167:173   */\n      dup5\n        /* \"#utility.yul\":125:174   */\n      tag_52\n      jump\t// in\n    tag_51:\n        /* \"#utility.yul\":110:175   */\n      tag_53\n      jump\t// in\n    tag_50:\n        /* \"#utility.yul\":101:175   */\n      swap1\n      pop\n        /* \"#utility.yul\":198:204   */\n      dup3\n        /* \"#utility.yul\":191:196   */\n      dup2\n        /* \"#utility.yul\":184:205   */\n      mstore\n        /* \"#utility.yul\":236:240   */\n      0x20\n        /* \"#utility.yul\":229:234   */\n      dup2\n        /* \"#utility.yul\":225:241   */\n      add\n        /* \"#utility.yul\":274:277   */\n      dup5\n        /* \"#utility.yul\":265:271   */\n      dup5\n        /* \"#utility.yul\":260:263   */\n      dup5\n        /* \"#utility.yul\":256:272   */\n      add\n        /* \"#utility.yul\":253:278   */\n      gt\n        /* \"#utility.yul\":250:252   */\n      iszero\n      tag_54\n      jumpi\n        /* \"#utility.yul\":291:292   */\n      0x00\n        /* \"#utility.yul\":288:289   */\n      dup1\n        /* \"#utility.yul\":281:293   */\n      revert\n        /* \"#utility.yul\":250:252   */\n    tag_54:\n        /* \"#utility.yul\":304:345   */\n      tag_55\n        /* \"#utility.yul\":338:344   */\n      dup5\n        /* \"#utility.yul\":333:336   */\n      dup3\n        /* \"#utility.yul\":328:331   */\n      dup6\n        /* \"#utility.yul\":304:345   */\n      tag_56\n      jump\t// in\n    tag_55:\n        /* \"#utility.yul\":91:351   */\n      pop\n      swap4\n      swap3\n      pop\n      pop\n      pop\n      jump\t// out\n        /* \"#utility.yul\":371:644   */\n    tag_57:\n      0x00\n        /* \"#utility.yul\":476:479   */\n      dup3\n        /* \"#utility.yul\":469:473   */\n      0x1f\n        /* \"#utility.yul\":461:467   */\n      dup4\n        /* \"#utility.yul\":457:474   */\n      add\n        /* \"#utility.yul\":453:480   */\n      slt\n        /* \"#utility.yul\":443:445   */\n      tag_59\n      jumpi\n        /* \"#utility.yul\":494:495   */\n      0x00\n        /* \"#utility.yul\":491:492   */\n      dup1\n        /* \"#utility.yul\":484:496   */\n      revert\n        /* \"#utility.yul\":443:445   */\n    tag_59:\n        /* \"#utility.yul\":534:540   */\n      dup2\n        /* \"#utility.yul\":521:541   */\n      calldataload\n        /* \"#utility.yul\":559:638   */\n      tag_60\n        /* \"#utility.yul\":634:637   */\n      dup5\n        /* \"#utility.yul\":626:632   */\n      dup3\n        /* \"#utility.yul\":619:623   */\n      0x20\n        /* \"#utility.yul\":611:617   */\n      dup7\n        /* \"#utility.yul\":607:624   */\n      add\n        /* \"#utility.yul\":559:638   */\n      tag_48\n      jump\t// in\n    tag_60:\n        /* \"#utility.yul\":550:638   */\n      swap2\n      pop\n        /* \"#utility.yul\":433:644   */\n      pop\n      swap3\n      swap2\n      pop\n      pop\n      jump\t// out\n        /* \"#utility.yul\":650:785   */\n    tag_61:\n      0x00\n        /* \"#utility.yul\":732:738   */\n      dup2\n        /* \"#utility.yul\":719:739   */\n      calldataload\n        /* \"#utility.yul\":710:739   */\n      swap1\n      pop\n        /* \"#utility.yul\":748:779   */\n      tag_63\n        /* \"#utility.yul\":773:778   */\n      dup2\n        /* \"#utility.yul\":748:779   */\n      tag_64\n      jump\t// in\n    tag_63:\n        /* \"#utility.yul\":700:785   */\n      swap3\n      swap2\n      pop\n      pop\n      jump\t// out\n        /* \"#utility.yul\":791:1166   */\n    tag_24:\n      0x00\n        /* \"#utility.yul\":909:911   */\n      0x20\n        /* \"#utility.yul\":897:906   */\n      dup3\n        /* \"#utility.yul\":888:895   */\n      dup5\n        /* \"#utility.yul\":884:907   */\n      sub\n        /* \"#utility.yul\":880:912   */\n      slt\n        /* \"#utility.yul\":877:879   */\n      iszero\n      tag_66\n      jumpi\n        /* \"#utility.yul\":925:926   */\n      0x00\n        /* \"#utility.yul\":922:923   */\n      dup1\n        /* \"#utility.yul\":915:927   */\n      revert\n        /* \"#utility.yul\":877:879   */\n    tag_66:\n        /* \"#utility.yul\":996:997   */\n      0x00\n        /* \"#utility.yul\":985:994   */\n      dup3\n        /* \"#utility.yul\":981:998   */\n      add\n        /* \"#utility.yul\":968:999   */\n      calldataload\n        /* \"#utility.yul\":1026:1044   */\n      0xffffffffffffffff\n        /* \"#utility.yul\":1018:1024   */\n      dup2\n        /* \"#utility.yul\":1015:1045   */\n      gt\n        /* \"#utility.yul\":1012:1014   */\n      iszero\n      tag_67\n      jumpi\n        /* \"#utility.yul\":1058:1059   */\n      0x00\n        /* \"#utility.yul\":1055:1056   */\n      dup1\n        /* \"#utility.yul\":1048:1060   */\n      revert\n        /* \"#utility.yul\":1012:1014   */\n    tag_67:\n        /* \"#utility.yul\":1086:1149   */\n      tag_68\n        /* \"#utility.yul\":1141:1148   */\n      dup5\n        /* \"#utility.yul\":1132:1138   */\n      dup3\n        /* \"#utility.yul\":1121:1130   */\n      dup6\n        /* \"#utility.yul\":1117:1139   */\n      add\n        /* \"#utility.yul\":1086:1149   */\n      tag_57\n      jump\t// in\n    tag_68:\n        /* \"#utility.yul\":1076:1149   */\n      swap2\n      pop\n        /* \"#utility.yul\":939:1159   */\n      pop\n        /* \"#utility.yul\":867:1166   */\n      swap3\n      swap2\n      pop\n      pop\n      jump\t// out\n        /* \"#utility.yul\":1172:1430   */\n    tag_10:\n      0x00\n        /* \"#utility.yul\":1278:1280   */\n      0x20\n        /* \"#utility.yul\":1266:1275   */\n      dup3\n        /* \"#utility.yul\":1257:1264   */\n      dup5\n        /* \"#utility.yul\":1253:1276   */\n      sub\n        /* \"#utility.yul\":1249:1281   */\n      slt\n        /* \"#utility.yul\":1246:1248   */\n      iszero\n      tag_70\n      jumpi\n        /* \"#utility.yul\":1294:1295   */\n      0x00\n        /* \"#utility.yul\":1291:1292   */\n      dup1\n        /* \"#utility.yul\":1284:1296   */\n      revert\n        /* \"#utility.yul\":1246:1248   */\n    tag_70:\n        /* \"#utility.yul\":1337:1338   */\n      0x00\n        /* \"#utility.yul\":1362:1413   */\n      tag_71\n        /* \"#utility.yul\":1405:1412   */\n      dup5\n        /* \"#utility.yul\":1396:1402   */\n      dup3\n        /* \"#utility.yul\":1385:1394   */\n      dup6\n        /* \"#utility.yul\":1381:1403   */\n      add\n        /* \"#utility.yul\":1362:1413   */\n      tag_61\n      jump\t// in\n    tag_71:\n        /* \"#utility.yul\":1352:1413   */\n      swap2\n      pop\n        /* \"#utility.yul\":1308:1423   */\n      pop\n        /* \"#utility.yul\":1236:1430   */\n      swap3\n      swap2\n      pop\n      pop\n      jump\t// out\n        /* \"#utility.yul\":1436:1554   */\n    tag_72:\n        /* \"#utility.yul\":1523:1547   */\n      tag_74\n        /* \"#utility.yul\":1541:1546   */\n      dup2\n        /* \"#utility.yul\":1523:1547   */\n      tag_75\n      jump\t// in\n    tag_74:\n        /* \"#utility.yul\":1518:1521   */\n      dup3\n        /* \"#utility.yul\":1511:1548   */\n      mstore\n        /* \"#utility.yul\":1501:1554   */\n      pop\n      pop\n      jump\t// out\n        /* \"#utility.yul\":1560:1703   */\n    tag_76:\n        /* \"#utility.yul\":1653:1696   */\n      tag_78\n        /* \"#utility.yul\":1690:1695   */\n      dup2\n        /* \"#utility.yul\":1653:1696   */\n      tag_79\n      jump\t// in\n    tag_78:\n        /* \"#utility.yul\":1648:1651   */\n      dup3\n        /* \"#utility.yul\":1641:1697   */\n      mstore\n        /* \"#utility.yul\":1631:1703   */\n      pop\n      pop\n      jump\t// out\n        /* \"#utility.yul\":1709:2073   */\n    tag_80:\n      0x00\n        /* \"#utility.yul\":1825:1864   */\n      tag_82\n        /* \"#utility.yul\":1858:1863   */\n      dup3\n        /* \"#utility.yul\":1825:1864   */\n      tag_83\n      jump\t// in\n    tag_82:\n        /* \"#utility.yul\":1880:1951   */\n      tag_84\n        /* \"#utility.yul\":1944:1950   */\n      dup2\n        /* \"#utility.yul\":1939:1942   */\n      dup6\n        /* \"#utility.yul\":1880:1951   */\n      tag_85\n      jump\t// in\n    tag_84:\n        /* \"#utility.yul\":1873:1951   */\n      swap4\n      pop\n        /* \"#utility.yul\":1960:2012   */\n      tag_86\n        /* \"#utility.yul\":2005:2011   */\n      dup2\n        /* \"#utility.yul\":2000:2003   */\n      dup6\n        /* \"#utility.yul\":1993:1997   */\n      0x20\n        /* \"#utility.yul\":1986:1991   */\n      dup7\n        /* \"#utility.yul\":1982:1998   */\n      add\n        /* \"#utility.yul\":1960:2012   */\n      tag_87\n      jump\t// in\n    tag_86:\n        /* \"#utility.yul\":2037:2066   */\n      tag_88\n        /* \"#utility.yul\":2059:2065   */\n      dup2\n        /* \"#utility.yul\":2037:2066   */\n      tag_89\n      jump\t// in\n    tag_88:\n        /* \"#utility.yul\":2032:2035   */\n      dup5\n        /* \"#utility.yul\":2028:2067   */\n      add\n        /* \"#utility.yul\":2021:2067   */\n      swap2\n      pop\n        /* \"#utility.yul\":1801:2073   */\n      pop\n      swap3\n      swap2\n      pop\n      pop\n      jump\t// out\n        /* \"#utility.yul\":2079:2397   */\n    tag_90:\n      0x00\n        /* \"#utility.yul\":2242:2309   */\n      tag_92\n        /* \"#utility.yul\":2306:2308   */\n      0x14\n        /* \"#utility.yul\":2301:2304   */\n      dup4\n        /* \"#utility.yul\":2242:2309   */\n      tag_85\n      jump\t// in\n    tag_92:\n        /* \"#utility.yul\":2235:2309   */\n      swap2\n      pop\n        /* \"#utility.yul\":2339:2361   */\n      0x616c6c20726f6f6d732061726520626f6f6b6564000000000000000000000000\n        /* \"#utility.yul\":2335:2336   */\n      0x00\n        /* \"#utility.yul\":2330:2333   */\n      dup4\n        /* \"#utility.yul\":2326:2337   */\n      add\n        /* \"#utility.yul\":2319:2362   */\n      mstore\n        /* \"#utility.yul\":2388:2390   */\n      0x20\n        /* \"#utility.yul\":2383:2386   */\n      dup3\n        /* \"#utility.yul\":2379:2391   */\n      add\n        /* \"#utility.yul\":2372:2391   */\n      swap1\n      pop\n        /* \"#utility.yul\":2225:2397   */\n      swap2\n      swap1\n      pop\n      jump\t// out\n        /* \"#utility.yul\":2403:2515   */\n    tag_93:\n        /* \"#utility.yul\":2486:2508   */\n      tag_95\n        /* \"#utility.yul\":2502:2507   */\n      dup2\n        /* \"#utility.yul\":2486:2508   */\n      tag_96\n      jump\t// in\n    tag_95:\n        /* \"#utility.yul\":2481:2484   */\n      dup3\n        /* \"#utility.yul\":2474:2509   */\n      mstore\n        /* \"#utility.yul\":2464:2515   */\n      pop\n      pop\n      jump\t// out\n        /* \"#utility.yul\":2521:2743   */\n    tag_17:\n      0x00\n        /* \"#utility.yul\":2652:2654   */\n      0x20\n        /* \"#utility.yul\":2641:2650   */\n      dup3\n        /* \"#utility.yul\":2637:2655   */\n      add\n        /* \"#utility.yul\":2629:2655   */\n      swap1\n      pop\n        /* \"#utility.yul\":2665:2736   */\n      tag_98\n        /* \"#utility.yul\":2733:2734   */\n      0x00\n        /* \"#utility.yul\":2722:2731   */\n      dup4\n        /* \"#utility.yul\":2718:2735   */\n      add\n        /* \"#utility.yul\":2709:2715   */\n      dup5\n        /* \"#utility.yul\":2665:2736   */\n      tag_72\n      jump\t// in\n    tag_98:\n        /* \"#utility.yul\":2619:2743   */\n      swap3\n      swap2\n      pop\n      pop\n      jump\t// out\n        /* \"#utility.yul\":2749:3168   */\n    tag_38:\n      0x00\n        /* \"#utility.yul\":2953:2955   */\n      0x20\n        /* \"#utility.yul\":2942:2951   */\n      dup3\n        /* \"#utility.yul\":2938:2956   */\n      add\n        /* \"#utility.yul\":2930:2956   */\n      swap1\n      pop\n        /* \"#utility.yul\":3002:3011   */\n      dup2\n        /* \"#utility.yul\":2996:3000   */\n      dup2\n        /* \"#utility.yul\":2992:3012   */\n      sub\n        /* \"#utility.yul\":2988:2989   */\n      0x00\n        /* \"#utility.yul\":2977:2986   */\n      dup4\n        /* \"#utility.yul\":2973:2990   */\n      add\n        /* \"#utility.yul\":2966:3013   */\n      mstore\n        /* \"#utility.yul\":3030:3161   */\n      tag_100\n        /* \"#utility.yul\":3156:3160   */\n      dup2\n        /* \"#utility.yul\":3030:3161   */\n      tag_90\n      jump\t// in\n    tag_100:\n        /* \"#utility.yul\":3022:3161   */\n      swap1\n      pop\n        /* \"#utility.yul\":2920:3168   */\n      swap2\n      swap1\n      pop\n      jump\t// out\n        /* \"#utility.yul\":3174:3388   */\n    tag_21:\n      0x00\n        /* \"#utility.yul\":3301:3303   */\n      0x20\n        /* \"#utility.yul\":3290:3299   */\n      dup3\n        /* \"#utility.yul\":3286:3304   */\n      add\n        /* \"#utility.yul\":3278:3304   */\n      swap1\n      pop\n        /* \"#utility.yul\":3314:3381   */\n      tag_102\n        /* \"#utility.yul\":3378:3379   */\n      0x00\n        /* \"#utility.yul\":3367:3376   */\n      dup4\n        /* \"#utility.yul\":3363:3380   */\n      add\n        /* \"#utility.yul\":3354:3360   */\n      dup5\n        /* \"#utility.yul\":3314:3381   */\n      tag_93\n      jump\t// in\n    tag_102:\n        /* \"#utility.yul\":3268:3388   */\n      swap3\n      swap2\n      pop\n      pop\n      jump\t// out\n        /* \"#utility.yul\":3394:3931   */\n    tag_13:\n      0x00\n        /* \"#utility.yul\":3603:3605   */\n      0x60\n        /* \"#utility.yul\":3592:3601   */\n      dup3\n        /* \"#utility.yul\":3588:3606   */\n      add\n        /* \"#utility.yul\":3580:3606   */\n      swap1\n      pop\n        /* \"#utility.yul\":3616:3683   */\n      tag_104\n        /* \"#utility.yul\":3680:3681   */\n      0x00\n        /* \"#utility.yul\":3669:3678   */\n      dup4\n        /* \"#utility.yul\":3665:3682   */\n      add\n        /* \"#utility.yul\":3656:3662   */\n      dup7\n        /* \"#utility.yul\":3616:3683   */\n      tag_93\n      jump\t// in\n    tag_104:\n        /* \"#utility.yul\":3730:3739   */\n      dup2\n        /* \"#utility.yul\":3724:3728   */\n      dup2\n        /* \"#utility.yul\":3720:3740   */\n      sub\n        /* \"#utility.yul\":3715:3717   */\n      0x20\n        /* \"#utility.yul\":3704:3713   */\n      dup4\n        /* \"#utility.yul\":3700:3718   */\n      add\n        /* \"#utility.yul\":3693:3741   */\n      mstore\n        /* \"#utility.yul\":3758:3836   */\n      tag_105\n        /* \"#utility.yul\":3831:3835   */\n      dup2\n        /* \"#utility.yul\":3822:3828   */\n      dup6\n        /* \"#utility.yul\":3758:3836   */\n      tag_80\n      jump\t// in\n    tag_105:\n        /* \"#utility.yul\":3750:3836   */\n      swap1\n      pop\n        /* \"#utility.yul\":3846:3924   */\n      tag_106\n        /* \"#utility.yul\":3920:3922   */\n      0x40\n        /* \"#utility.yul\":3909:3918   */\n      dup4\n        /* \"#utility.yul\":3905:3923   */\n      add\n        /* \"#utility.yul\":3896:3902   */\n      dup5\n        /* \"#utility.yul\":3846:3924   */\n      tag_76\n      jump\t// in\n    tag_106:\n        /* \"#utility.yul\":3570:3931   */\n      swap5\n      swap4\n      pop\n      pop\n      pop\n      pop\n      jump\t// out\n        /* \"#utility.yul\":3937:4220   */\n    tag_53:\n      0x00\n        /* \"#utility.yul\":4003:4005   */\n      0x40\n        /* \"#utility.yul\":3997:4006   */\n      mload\n        /* \"#utility.yul\":3987:4006   */\n      swap1\n      pop\n        /* \"#utility.yul\":4045:4049   */\n      dup2\n        /* \"#utility.yul\":4037:4043   */\n      dup2\n        /* \"#utility.yul\":4033:4050   */\n      add\n        /* \"#utility.yul\":4152:4158   */\n      dup2\n        /* \"#utility.yul\":4140:4150   */\n      dup2\n        /* \"#utility.yul\":4137:4159   */\n      lt\n        /* \"#utility.yul\":4116:4134   */\n      0xffffffffffffffff\n        /* \"#utility.yul\":4104:4114   */\n      dup3\n        /* \"#utility.yul\":4101:4135   */\n      gt\n        /* \"#utility.yul\":4098:4160   */\n      or\n        /* \"#utility.yul\":4095:4097   */\n      iszero\n      tag_108\n      jumpi\n        /* \"#utility.yul\":4163:4181   */\n      tag_109\n      tag_110\n      jump\t// in\n    tag_109:\n        /* \"#utility.yul\":4095:4097   */\n    tag_108:\n        /* \"#utility.yul\":4203:4213   */\n      dup1\n        /* \"#utility.yul\":4199:4201   */\n      0x40\n        /* \"#utility.yul\":4192:4214   */\n      mstore\n        /* \"#utility.yul\":3977:4220   */\n      pop\n      swap2\n      swap1\n      pop\n      jump\t// out\n        /* \"#utility.yul\":4226:4558   */\n    tag_52:\n      0x00\n        /* \"#utility.yul\":4378:4396   */\n      0xffffffffffffffff\n        /* \"#utility.yul\":4370:4376   */\n      dup3\n        /* \"#utility.yul\":4367:4397   */\n      gt\n        /* \"#utility.yul\":4364:4366   */\n      iszero\n      tag_112\n      jumpi\n        /* \"#utility.yul\":4400:4418   */\n      tag_113\n      tag_110\n      jump\t// in\n    tag_113:\n        /* \"#utility.yul\":4364:4366   */\n    tag_112:\n        /* \"#utility.yul\":4485:4489   */\n      0x1f\n        /* \"#utility.yul\":4481:4490   */\n      not\n        /* \"#utility.yul\":4474:4478   */\n      0x1f\n        /* \"#utility.yul\":4466:4472   */\n      dup4\n        /* \"#utility.yul\":4462:4479   */\n      add\n        /* \"#utility.yul\":4458:4491   */\n      and\n        /* \"#utility.yul\":4450:4491   */\n      swap1\n      pop\n        /* \"#utility.yul\":4546:4550   */\n      0x20\n        /* \"#utility.yul\":4540:4544   */\n      dup2\n        /* \"#utility.yul\":4536:4551   */\n      add\n        /* \"#utility.yul\":4528:4551   */\n      swap1\n      pop\n        /* \"#utility.yul\":4293:4558   */\n      swap2\n      swap1\n      pop\n      jump\t// out\n        /* \"#utility.yul\":4564:4663   */\n    tag_83:\n      0x00\n        /* \"#utility.yul\":4650:4655   */\n      dup2\n        /* \"#utility.yul\":4644:4656   */\n      mload\n        /* \"#utility.yul\":4634:4656   */\n      swap1\n      pop\n        /* \"#utility.yul\":4623:4663   */\n      swap2\n      swap1\n      pop\n      jump\t// out\n        /* \"#utility.yul\":4669:4838   */\n    tag_85:\n      0x00\n        /* \"#utility.yul\":4787:4793   */\n      dup3\n        /* \"#utility.yul\":4782:4785   */\n      dup3\n        /* \"#utility.yul\":4775:4794   */\n      mstore\n        /* \"#utility.yul\":4827:4831   */\n      0x20\n        /* \"#utility.yul\":4822:4825   */\n      dup3\n        /* \"#utility.yul\":4818:4832   */\n      add\n        /* \"#utility.yul\":4803:4832   */\n      swap1\n      pop\n        /* \"#utility.yul\":4765:4838   */\n      swap3\n      swap2\n      pop\n      pop\n      jump\t// out\n        /* \"#utility.yul\":4844:4940   */\n    tag_75:\n      0x00\n        /* \"#utility.yul\":4910:4934   */\n      tag_117\n        /* \"#utility.yul\":4928:4933   */\n      dup3\n        /* \"#utility.yul\":4910:4934   */\n      tag_118\n      jump\t// in\n    tag_117:\n        /* \"#utility.yul\":4899:4934   */\n      swap1\n      pop\n        /* \"#utility.yul\":4889:4940   */\n      swap2\n      swap1\n      pop\n      jump\t// out\n        /* \"#utility.yul\":4946:5073   */\n    tag_119:\n      0x00\n        /* \"#utility.yul\":5020:5025   */\n      dup2\n        /* \"#utility.yul\":5009:5025   */\n      swap1\n      pop\n        /* \"#utility.yul\":5026:5067   */\n      tag_121\n        /* \"#utility.yul\":5061:5066   */\n      dup3\n        /* \"#utility.yul\":5026:5067   */\n      tag_122\n      jump\t// in\n    tag_121:\n        /* \"#utility.yul\":4999:5073   */\n      swap2\n      swap1\n      pop\n      jump\t// out\n        /* \"#utility.yul\":5079:5205   */\n    tag_118:\n      0x00\n        /* \"#utility.yul\":5156:5198   */\n      0xffffffffffffffffffffffffffffffffffffffff\n        /* \"#utility.yul\":5149:5154   */\n      dup3\n        /* \"#utility.yul\":5145:5199   */\n      and\n        /* \"#utility.yul\":5134:5199   */\n      swap1\n      pop\n        /* \"#utility.yul\":5124:5205   */\n      swap2\n      swap1\n      pop\n      jump\t// out\n        /* \"#utility.yul\":5211:5297   */\n    tag_96:\n      0x00\n        /* \"#utility.yul\":5286:5290   */\n      0xff\n        /* \"#utility.yul\":5279:5284   */\n      dup3\n        /* \"#utility.yul\":5275:5291   */\n      and\n        /* \"#utility.yul\":5264:5291   */\n      swap1\n      pop\n        /* \"#utility.yul\":5254:5297   */\n      swap2\n      swap1\n      pop\n      jump\t// out\n        /* \"#utility.yul\":5303:5430   */\n    tag_79:\n      0x00\n        /* \"#utility.yul\":5392:5424   */\n      tag_126\n        /* \"#utility.yul\":5418:5423   */\n      dup3\n        /* \"#utility.yul\":5392:5424   */\n      tag_119\n      jump\t// in\n    tag_126:\n        /* \"#utility.yul\":5379:5424   */\n      swap1\n      pop\n        /* \"#utility.yul\":5369:5430   */\n      swap2\n      swap1\n      pop\n      jump\t// out\n        /* \"#utility.yul\":5436:5590   */\n    tag_56:\n        /* \"#utility.yul\":5520:5526   */\n      dup3\n        /* \"#utility.yul\":5515:5518   */\n      dup2\n        /* \"#utility.yul\":5510:5513   */\n      dup4\n        /* \"#utility.yul\":5497:5527   */\n      calldatacopy\n        /* \"#utility.yul\":5582:5583   */\n      0x00\n        /* \"#utility.yul\":5573:5579   */\n      dup4\n        /* \"#utility.yul\":5568:5571   */\n      dup4\n        /* \"#utility.yul\":5564:5580   */\n      add\n        /* \"#utility.yul\":5557:5584   */\n      mstore\n        /* \"#utility.yul\":5487:5590   */\n      pop\n      pop\n      pop\n      jump\t// out\n        /* \"#utility.yul\":5596:5903   */\n    tag_87:\n        /* \"#utility.yul\":5664:5665   */\n      0x00\n        /* \"#utility.yul\":5674:5787   */\n    tag_129:\n        /* \"#utility.yul\":5688:5694   */\n      dup4\n        /* \"#utility.yul\":5685:5686   */\n      dup2\n        /* \"#utility.yul\":5682:5695   */\n      lt\n        /* \"#utility.yul\":5674:5787   */\n      iszero\n      tag_131\n      jumpi\n        /* \"#utility.yul\":5773:5774   */\n      dup1\n        /* \"#utility.yul\":5768:5771   */\n      dup3\n        /* \"#utility.yul\":5764:5775   */\n      add\n        /* \"#utility.yul\":5758:5776   */\n      mload\n        /* \"#utility.yul\":5754:5755   */\n      dup2\n        /* \"#utility.yul\":5749:5752   */\n      dup5\n        /* \"#utility.yul\":5745:5756   */\n      add\n        /* \"#utility.yul\":5738:5777   */\n      mstore\n        /* \"#utility.yul\":5710:5712   */\n      0x20\n        /* \"#utility.yul\":5707:5708   */\n      dup2\n        /* \"#utility.yul\":5703:5713   */\n      add\n        /* \"#utility.yul\":5698:5713   */\n      swap1\n      pop\n        /* \"#utility.yul\":5674:5787   */\n      jump(tag_129)\n    tag_131:\n        /* \"#utility.yul\":5805:5811   */\n      dup4\n        /* \"#utility.yul\":5802:5803   */\n      dup2\n        /* \"#utility.yul\":5799:5812   */\n      gt\n        /* \"#utility.yul\":5796:5798   */\n      iszero\n      tag_132\n      jumpi\n        /* \"#utility.yul\":5885:5886   */\n      0x00\n        /* \"#utility.yul\":5876:5882   */\n      dup5\n        /* \"#utility.yul\":5871:5874   */\n      dup5\n        /* \"#utility.yul\":5867:5883   */\n      add\n        /* \"#utility.yul\":5860:5887   */\n      mstore\n        /* \"#utility.yul\":5796:5798   */\n    tag_132:\n        /* \"#utility.yul\":5645:5903   */\n      pop\n      pop\n      pop\n      pop\n      jump\t// out\n        /* \"#utility.yul\":5909:6229   */\n    tag_30:\n      0x00\n        /* \"#utility.yul\":5990:5991   */\n      0x02\n        /* \"#utility.yul\":5984:5988   */\n      dup3\n        /* \"#utility.yul\":5980:5992   */\n      div\n        /* \"#utility.yul\":5970:5992   */\n      swap1\n      pop\n        /* \"#utility.yul\":6037:6038   */\n      0x01\n        /* \"#utility.yul\":6031:6035   */\n      dup3\n        /* \"#utility.yul\":6027:6039   */\n      and\n        /* \"#utility.yul\":6058:6076   */\n      dup1\n        /* \"#utility.yul\":6048:6050   */\n      tag_134\n      jumpi\n        /* \"#utility.yul\":6114:6118   */\n      0x7f\n        /* \"#utility.yul\":6106:6112   */\n      dup3\n        /* \"#utility.yul\":6102:6119   */\n      and\n        /* \"#utility.yul\":6092:6119   */\n      swap2\n      pop\n        /* \"#utility.yul\":6048:6050   */\n    tag_134:\n        /* \"#utility.yul\":6176:6178   */\n      0x20\n        /* \"#utility.yul\":6168:6174   */\n      dup3\n        /* \"#utility.yul\":6165:6179   */\n      lt\n        /* \"#utility.yul\":6145:6163   */\n      dup2\n        /* \"#utility.yul\":6142:6180   */\n      eq\n        /* \"#utility.yul\":6139:6141   */\n      iszero\n      tag_135\n      jumpi\n        /* \"#utility.yul\":6195:6213   */\n      tag_136\n      tag_137\n      jump\t// in\n    tag_136:\n        /* \"#utility.yul\":6139:6141   */\n    tag_135:\n        /* \"#utility.yul\":5960:6229   */\n      pop\n      swap2\n      swap1\n      pop\n      jump\t// out\n        /* \"#utility.yul\":6235:6415   */\n    tag_138:\n        /* \"#utility.yul\":6283:6360   */\n      0x4e487b7100000000000000000000000000000000000000000000000000000000\n        /* \"#utility.yul\":6280:6281   */\n      0x00\n        /* \"#utility.yul\":6273:6361   */\n      mstore\n        /* \"#utility.yul\":6380:6384   */\n      0x21\n        /* \"#utility.yul\":6377:6378   */\n      0x04\n        /* \"#utility.yul\":6370:6385   */\n      mstore\n        /* \"#utility.yul\":6404:6408   */\n      0x24\n        /* \"#utility.yul\":6401:6402   */\n      0x00\n        /* \"#utility.yul\":6394:6409   */\n      revert\n        /* \"#utility.yul\":6421:6601   */\n    tag_137:\n        /* \"#utility.yul\":6469:6546   */\n      0x4e487b7100000000000000000000000000000000000000000000000000000000\n        /* \"#utility.yul\":6466:6467   */\n      0x00\n        /* \"#utility.yul\":6459:6547   */\n      mstore\n        /* \"#utility.yul\":6566:6570   */\n      0x22\n        /* \"#utility.yul\":6563:6564   */\n      0x04\n        /* \"#utility.yul\":6556:6571   */\n      mstore\n        /* \"#utility.yul\":6590:6594   */\n      0x24\n        /* \"#utility.yul\":6587:6588   */\n      0x00\n        /* \"#utility.yul\":6580:6595   */\n      revert\n        /* \"#utility.yul\":6607:6787   */\n    tag_110:\n        /* \"#utility.yul\":6655:6732   */\n      0x4e487b7100000000000000000000000000000000000000000000000000000000\n        /* \"#utility.yul\":6652:6653   */\n      0x00\n        /* \"#utility.yul\":6645:6733   */\n      mstore\n        /* \"#utility.yul\":6752:6756   */\n      0x41\n        /* \"#utility.yul\":6749:6750   */\n      0x04\n        /* \"#utility.yul\":6742:6757   */\n      mstore\n        /* \"#utility.yul\":6776:6780   */\n      0x24\n        /* \"#utility.yul\":6773:6774   */\n      0x00\n        /* \"#utility.yul\":6766:6781   */\n      revert\n        /* \"#utility.yul\":6793:6895   */\n    tag_89:\n      0x00\n        /* \"#utility.yul\":6885:6887   */\n      0x1f\n        /* \"#utility.yul\":6881:6888   */\n      not\n        /* \"#utility.yul\":6876:6878   */\n      0x1f\n        /* \"#utility.yul\":6869:6874   */\n      dup4\n        /* \"#utility.yul\":6865:6879   */\n      add\n        /* \"#utility.yul\":6861:6889   */\n      and\n        /* \"#utility.yul\":6851:6889   */\n      swap1\n      pop\n        /* \"#utility.yul\":6841:6895   */\n      swap2\n      swap1\n      pop\n      jump\t// out\n        /* \"#utility.yul\":6901:7014   */\n    tag_122:\n        /* \"#utility.yul\":6982:6983   */\n      0x02\n        /* \"#utility.yul\":6975:6980   */\n      dup2\n        /* \"#utility.yul\":6972:6984   */\n      lt\n        /* \"#utility.yul\":6962:6964   */\n      tag_144\n      jumpi\n        /* \"#utility.yul\":6988:7006   */\n      tag_145\n      tag_138\n      jump\t// in\n    tag_145:\n        /* \"#utility.yul\":6962:6964   */\n    tag_144:\n        /* \"#utility.yul\":6952:7014   */\n      pop\n      jump\t// out\n        /* \"#utility.yul\":7020:7138   */\n    tag_64:\n        /* \"#utility.yul\":7091:7113   */\n      tag_147\n        /* \"#utility.yul\":7107:7112   */\n      dup2\n        /* \"#utility.yul\":7091:7113   */\n      tag_96\n      jump\t// in\n    tag_147:\n        /* \"#utility.yul\":7084:7089   */\n      dup2\n        /* \"#utility.yul\":7081:7114   */\n      eq\n        /* \"#utility.yul\":7071:7073   */\n      tag_148\n      jumpi\n        /* \"#utility.yul\":7128:7129   */\n      0x00\n        /* \"#utility.yul\":7125:7126   */\n      dup1\n        /* \"#utility.yul\":7118:7130   */\n      revert\n        /* \"#utility.yul\":7071:7073   */\n    tag_148:\n        /* \"#utility.yul\":7061:7138   */\n      pop\n      jump\t// out\n\n    auxdata: 0xa2646970667358221220eb4872364737d929b3cef313279e227ce65507f4274cec388ac6a982bb5f348564736f6c63430008000033\n}\n",
				"bytecode": {
					"linkReferences": {},
					"object": "60806040526000600260006101000a81548160ff021916908360ff1602179055503480156200002d57600080fd5b5060405162000cb938038062000cb98339818101604052810190620000539190620002c5565b80600260016101000a81548160ff021916908360ff160217905550336000806101000a81548173ffffffffffffffffffffffffffffffffffffffff021916908373ffffffffffffffffffffffffffffffffffffffff16021790555060005b8160ff168160ff161015620001f657600060405180606001604052808360ff1681526020016040518060200160405280600081525081526020016000600181111562000126577f4e487b7100000000000000000000000000000000000000000000000000000000600052602160045260246000fd5b815250905080600160008460ff1660ff16815260200190815260200160002060008201518160000160006101000a81548160ff021916908360ff160217905550602082015181600101908051906020019062000184929190620001fe565b5060408201518160020160006101000a81548160ff02191690836001811115620001d7577f4e487b7100000000000000000000000000000000000000000000000000000000600052602160045260246000fd5b0217905550905050508080620001ed9062000334565b915050620000b1565b5050620003db565b8280546200020c90620002fe565b90600052602060002090601f0160209004810192826200023057600085556200027c565b82601f106200024b57805160ff19168380011785556200027c565b828001600101855582156200027c579182015b828111156200027b5782518255916020019190600101906200025e565b5b5090506200028b91906200028f565b5090565b5b80821115620002aa57600081600090555060010162000290565b5090565b600081519050620002bf81620003c1565b92915050565b600060208284031215620002d857600080fd5b6000620002e884828501620002ae565b91505092915050565b600060ff82169050919050565b600060028204905060018216806200031757607f821691505b602082108114156200032e576200032d62000392565b5b50919050565b60006200034182620002f1565b915060ff82141562000358576200035762000363565b5b600182019050919050565b7f4e487b7100000000000000000000000000000000000000000000000000000000600052601160045260246000fd5b7f4e487b7100000000000000000000000000000000000000000000000000000000600052602260045260246000fd5b620003cc81620002f1565b8114620003d857600080fd5b50565b6108ce80620003eb6000396000f3fe608060405234801561001057600080fd5b50600436106100575760003560e01c80631f8c8a171461005c5780638da5cb5b1461008e578063df93a4e3146100ac578063e8ba178b146100ca578063eab22a8d146100e6575b600080fd5b61007660048036038101906100719190610517565b610104565b6040516100859392919061063c565b60405180910390f35b6100966101d0565b6040516100a391906105e6565b60405180910390f35b6100b46101f4565b6040516100c19190610621565b60405180910390f35b6100e460048036038101906100df91906104d6565b610207565b005b6100ee610446565b6040516100fb9190610621565b60405180910390f35b60016020528060005260406000206000915090508060000160009054906101000a900460ff169080600101805461013a9061079d565b80601f01602080910402602001604051908101604052809291908181526020018280546101669061079d565b80156101b35780601f10610188576101008083540402835291602001916101b3565b820191906000526020600020905b81548152906001019060200180831161019657829003601f168201915b5050505050908060020160009054906101000a900460ff16905083565b60008054906101000a900473ffffffffffffffffffffffffffffffffffffffff1681565b600260019054906101000a900460ff1681565b600260019054906101000a900460ff1660ff16600260009054906101000a900460ff1660ff16111561026e576040517f08c379a000000000000000000000000000000000000000000000000000000000815260040161026590610601565b60405180910390fd5b600060016000600260009054906101000a900460ff1660ff1660ff1681526020019081526020016000206040518060600160405290816000820160009054906101000a900460ff1660ff1660ff1681526020016001820180546102d09061079d565b80601f01602080910402602001604051908101604052809291908181526020018280546102fc9061079d565b80156103495780601f1061031e57610100808354040283529160200191610349565b820191906000526020600020905b81548152906001019060200180831161032c57829003601f168201915b505050505081526020016002820160009054906101000a900460ff16600181111561039d577f4e487b7100000000000000000000000000000000000000000000000000000000600052602160045260246000fd5b60018111156103d5577f4e487b7100000000000000000000000000000000000000000000000000000000600052602160045260246000fd5b8152505090506040518060600160405280600260009054906101000a900460ff1660ff16815260200183815260200160018081111561043d577f4e487b7100000000000000000000000000000000000000000000000000000000600052602160045260246000fd5b81525090505050565b600260009054906101000a900460ff1681565b600061046c610467846106ab565b61067a565b90508281526020810184848401111561048457600080fd5b61048f84828561075b565b509392505050565b600082601f8301126104a857600080fd5b81356104b8848260208601610459565b91505092915050565b6000813590506104d081610881565b92915050565b6000602082840312156104e857600080fd5b600082013567ffffffffffffffff81111561050257600080fd5b61050e84828501610497565b91505092915050565b60006020828403121561052957600080fd5b6000610537848285016104c1565b91505092915050565b610549816106f7565b82525050565b61055881610749565b82525050565b6000610569826106db565b61057381856106e6565b935061058381856020860161076a565b61058c8161085c565b840191505092915050565b60006105a46014836106e6565b91507f616c6c20726f6f6d732061726520626f6f6b65640000000000000000000000006000830152602082019050919050565b6105e08161073c565b82525050565b60006020820190506105fb6000830184610540565b92915050565b6000602082019050818103600083015261061a81610597565b9050919050565b600060208201905061063660008301846105d7565b92915050565b600060608201905061065160008301866105d7565b8181036020830152610663818561055e565b9050610672604083018461054f565b949350505050565b6000604051905081810181811067ffffffffffffffff821117156106a1576106a061082d565b5b8060405250919050565b600067ffffffffffffffff8211156106c6576106c561082d565b5b601f19601f8301169050602081019050919050565b600081519050919050565b600082825260208201905092915050565b60006107028261071c565b9050919050565b60008190506107178261086d565b919050565b600073ffffffffffffffffffffffffffffffffffffffff82169050919050565b600060ff82169050919050565b600061075482610709565b9050919050565b82818337600083830152505050565b60005b8381101561078857808201518184015260208101905061076d565b83811115610797576000848401525b50505050565b600060028204905060018216806107b557607f821691505b602082108114156107c9576107c86107fe565b5b50919050565b7f4e487b7100000000000000000000000000000000000000000000000000000000600052602160045260246000fd5b7f4e487b7100000000000000000000000000000000000000000000000000000000600052602260045260246000fd5b7f4e487b7100000000000000000000000000000000000000000000000000000000600052604160045260246000fd5b6000601f19601f8301169050919050565b6002811061087e5761087d6107cf565b5b50565b61088a8161073c565b811461089557600080fd5b5056fea2646970667358221220eb4872364737d929b3cef313279e227ce65507f4274cec388ac6a982bb5f348564736f6c63430008000033",
					"opcodes": "PUSH1 0x80 PUSH1 0x40 MSTORE PUSH1 0x0 PUSH1 0x2 PUSH1 0x0 PUSH2 0x100 EXP DUP2 SLOAD DUP2 PUSH1 0xFF MUL NOT AND SWAP1 DUP4 PUSH1 0xFF AND MUL OR SWAP1 SSTORE POP CALLVALUE DUP1 ISZERO PUSH3 0x2D JUMPI PUSH1 0x0 DUP1 REVERT JUMPDEST POP PUSH1 0x40 MLOAD PUSH3 0xCB9 CODESIZE SUB DUP1 PUSH3 0xCB9 DUP4 CODECOPY DUP2 DUP2 ADD PUSH1 0x40 MSTORE DUP2 ADD SWAP1 PUSH3 0x53 SWAP2 SWAP1 PUSH3 0x2C5 JUMP JUMPDEST DUP1 PUSH1 0x2 PUSH1 0x1 PUSH2 0x100 EXP DUP2 SLOAD DUP2 PUSH1 0xFF MUL NOT AND SWAP1 DUP4 PUSH1 0xFF AND MUL OR SWAP1 SSTORE POP CALLER PUSH1 0x0 DUP1 PUSH2 0x100 EXP DUP2 SLOAD DUP2 PUSH20 0xFFFFFFFFFFFFFFFFFFFFFFFFFFFFFFFFFFFFFFFF MUL NOT AND SWAP1 DUP4 PUSH20 0xFFFFFFFFFFFFFFFFFFFFFFFFFFFFFFFFFFFFFFFF AND MUL OR SWAP1 SSTORE POP PUSH1 0x0 JUMPDEST DUP2 PUSH1 0xFF AND DUP2 PUSH1 0xFF AND LT ISZERO PUSH3 0x1F6 JUMPI PUSH1 0x0 PUSH1 0x40 MLOAD DUP1 PUSH1 0x60 ADD PUSH1 0x40 MSTORE DUP1 DUP4 PUSH1 0xFF AND DUP2 MSTORE PUSH1 0x20 ADD PUSH1 0x40 MLOAD DUP1 PUSH1 0x20 ADD PUSH1 0x40 MSTORE DUP1 PUSH1 0x0 DUP2 MSTORE POP DUP2 MSTORE PUSH1 0x20 ADD PUSH1 0x0 PUSH1 0x1 DUP2 GT ISZERO PUSH3 0x126 JUMPI PUSH32 0x4E487B7100000000000000000000000000000000000000000000000000000000 PUSH1 0x0 MSTORE PUSH1 0x21 PUSH1 0x4 MSTORE PUSH1 0x24 PUSH1 0x0 REVERT JUMPDEST DUP2 MSTORE POP SWAP1 POP DUP1 PUSH1 0x1 PUSH1 0x0 DUP5 PUSH1 0xFF AND PUSH1 0xFF AND DUP2 MSTORE PUSH1 0x20 ADD SWAP1 DUP2 MSTORE PUSH1 0x20 ADD PUSH1 0x0 KECCAK256 PUSH1 0x0 DUP3 ADD MLOAD DUP2 PUSH1 0x0 ADD PUSH1 0x0 PUSH2 0x100 EXP DUP2 SLOAD DUP2 PUSH1 0xFF MUL NOT AND SWAP1 DUP4 PUSH1 0xFF AND MUL OR SWAP1 SSTORE POP PUSH1 0x20 DUP3 ADD MLOAD DUP2 PUSH1 0x1 ADD SWAP1 DUP1 MLOAD SWAP1 PUSH1 0x20 ADD SWAP1 PUSH3 0x184 SWAP3 SWAP2 SWAP1 PUSH3 0x1FE JUMP JUMPDEST POP PUSH1 0x40 DUP3 ADD MLOAD DUP2 PUSH1 0x2 ADD PUSH1 0x0 PUSH2 0x100 EXP DUP2 SLOAD DUP2 PUSH1 0xFF MUL NOT AND SWAP1 DUP4 PUSH1 0x1 DUP2 GT ISZERO PUSH3 0x1D7 JUMPI PUSH32 0x4E487B7100000000000000000000000000000000000000000000000000000000 PUSH1 0x0 MSTORE PUSH1 0x21 PUSH1 0x4 MSTORE PUSH1 0x24 PUSH1 0x0 REVERT JUMPDEST MUL OR SWAP1 SSTORE POP SWAP1 POP POP POP DUP1 DUP1 PUSH3 0x1ED SWAP1 PUSH3 0x334 JUMP JUMPDEST SWAP2 POP POP PUSH3 0xB1 JUMP JUMPDEST POP POP PUSH3 0x3DB JUMP JUMPDEST DUP3 DUP1 SLOAD PUSH3 0x20C SWAP1 PUSH3 0x2FE JUMP JUMPDEST SWAP1 PUSH1 0x0 MSTORE PUSH1 0x20 PUSH1 0x0 KECCAK256 SWAP1 PUSH1 0x1F ADD PUSH1 0x20 SWAP1 DIV DUP2 ADD SWAP3 DUP3 PUSH3 0x230 JUMPI PUSH1 0x0 DUP6 SSTORE PUSH3 0x27C JUMP JUMPDEST DUP3 PUSH1 0x1F LT PUSH3 0x24B JUMPI DUP1 MLOAD PUSH1 0xFF NOT AND DUP4 DUP1 ADD OR DUP6 SSTORE PUSH3 0x27C JUMP JUMPDEST DUP3 DUP1 ADD PUSH1 0x1 ADD DUP6 SSTORE DUP3 ISZERO PUSH3 0x27C JUMPI SWAP2 DUP3 ADD JUMPDEST DUP3 DUP2 GT ISZERO PUSH3 0x27B JUMPI DUP3 MLOAD DUP3 SSTORE SWAP2 PUSH1 0x20 ADD SWAP2 SWAP1 PUSH1 0x1 ADD SWAP1 PUSH3 0x25E JUMP JUMPDEST JUMPDEST POP SWAP1 POP PUSH3 0x28B SWAP2 SWAP1 PUSH3 0x28F JUMP JUMPDEST POP SWAP1 JUMP JUMPDEST JUMPDEST DUP1 DUP3 GT ISZERO PUSH3 0x2AA JUMPI PUSH1 0x0 DUP2 PUSH1 0x0 SWAP1 SSTORE POP PUSH1 0x1 ADD PUSH3 0x290 JUMP JUMPDEST POP SWAP1 JUMP JUMPDEST PUSH1 0x0 DUP2 MLOAD SWAP1 POP PUSH3 0x2BF DUP2 PUSH3 0x3C1 JUMP JUMPDEST SWAP3 SWAP2 POP POP JUMP JUMPDEST PUSH1 0x0 PUSH1 0x20 DUP3 DUP5 SUB SLT ISZERO PUSH3 0x2D8 JUMPI PUSH1 0x0 DUP1 REVERT JUMPDEST PUSH1 0x0 PUSH3 0x2E8 DUP5 DUP3 DUP6 ADD PUSH3 0x2AE JUMP JUMPDEST SWAP2 POP POP SWAP3 SWAP2 POP POP JUMP JUMPDEST PUSH1 0x0 PUSH1 0xFF DUP3 AND SWAP1 POP SWAP2 SWAP1 POP JUMP JUMPDEST PUSH1 0x0 PUSH1 0x2 DUP3 DIV SWAP1 POP PUSH1 0x1 DUP3 AND DUP1 PUSH3 0x317 JUMPI PUSH1 0x7F DUP3 AND SWAP2 POP JUMPDEST PUSH1 0x20 DUP3 LT DUP2 EQ ISZERO PUSH3 0x32E JUMPI PUSH3 0x32D PUSH3 0x392 JUMP JUMPDEST JUMPDEST POP SWAP2 SWAP1 POP JUMP JUMPDEST PUSH1 0x0 PUSH3 0x341 DUP3 PUSH3 0x2F1 JUMP JUMPDEST SWAP2 POP PUSH1 0xFF DUP3 EQ ISZERO PUSH3 0x358 JUMPI PUSH3 0x357 PUSH3 0x363 JUMP JUMPDEST JUMPDEST PUSH1 0x1 DUP3 ADD SWAP1 POP SWAP2 SWAP1 POP JUMP JUMPDEST PUSH32 0x4E487B7100000000000000000000000000000000000000000000000000000000 PUSH1 0x0 MSTORE PUSH1 0x11 PUSH1 0x4 MSTORE PUSH1 0x24 PUSH1 0x0 REVERT JUMPDEST PUSH32 0x4E487B7100000000000000000000000000000000000000000000000000000000 PUSH1 0x0 MSTORE PUSH1 0x22 PUSH1 0x4 MSTORE PUSH1 0x24 PUSH1 0x0 REVERT JUMPDEST PUSH3 0x3CC DUP2 PUSH3 0x2F1 JUMP JUMPDEST DUP2 EQ PUSH3 0x3D8 JUMPI PUSH1 0x0 DUP1 REVERT JUMPDEST POP JUMP JUMPDEST PUSH2 0x8CE DUP1 PUSH3 0x3EB PUSH1 0x0 CODECOPY PUSH1 0x0 RETURN INVALID PUSH1 0x80 PUSH1 0x40 MSTORE CALLVALUE DUP1 ISZERO PUSH2 0x10 JUMPI PUSH1 0x0 DUP1 REVERT JUMPDEST POP PUSH1 0x4 CALLDATASIZE LT PUSH2 0x57 JUMPI PUSH1 0x0 CALLDATALOAD PUSH1 0xE0 SHR DUP1 PUSH4 0x1F8C8A17 EQ PUSH2 0x5C JUMPI DUP1 PUSH4 0x8DA5CB5B EQ PUSH2 0x8E JUMPI DUP1 PUSH4 0xDF93A4E3 EQ PUSH2 0xAC JUMPI DUP1 PUSH4 0xE8BA178B EQ PUSH2 0xCA JUMPI DUP1 PUSH4 0xEAB22A8D EQ PUSH2 0xE6 JUMPI JUMPDEST PUSH1 0x0 DUP1 REVERT JUMPDEST PUSH2 0x76 PUSH1 0x4 DUP1 CALLDATASIZE SUB DUP2 ADD SWAP1 PUSH2 0x71 SWAP2 SWAP1 PUSH2 0x517 JUMP JUMPDEST PUSH2 0x104 JUMP JUMPDEST PUSH1 0x40 MLOAD PUSH2 0x85 SWAP4 SWAP3 SWAP2 SWAP1 PUSH2 0x63C JUMP JUMPDEST PUSH1 0x40 MLOAD DUP1 SWAP2 SUB SWAP1 RETURN JUMPDEST PUSH2 0x96 PUSH2 0x1D0 JUMP JUMPDEST PUSH1 0x40 MLOAD PUSH2 0xA3 SWAP2 SWAP1 PUSH2 0x5E6 JUMP JUMPDEST PUSH1 0x40 MLOAD DUP1 SWAP2 SUB SWAP1 RETURN JUMPDEST PUSH2 0xB4 PUSH2 0x1F4 JUMP JUMPDEST PUSH1 0x40 MLOAD PUSH2 0xC1 SWAP2 SWAP1 PUSH2 0x621 JUMP JUMPDEST PUSH1 0x40 MLOAD DUP1 SWAP2 SUB SWAP1 RETURN JUMPDEST PUSH2 0xE4 PUSH1 0x4 DUP1 CALLDATASIZE SUB DUP2 ADD SWAP1 PUSH2 0xDF SWAP2 SWAP1 PUSH2 0x4D6 JUMP JUMPDEST PUSH2 0x207 JUMP JUMPDEST STOP JUMPDEST PUSH2 0xEE PUSH2 0x446 JUMP JUMPDEST PUSH1 0x40 MLOAD PUSH2 0xFB SWAP2 SWAP1 PUSH2 0x621 JUMP JUMPDEST PUSH1 0x40 MLOAD DUP1 SWAP2 SUB SWAP1 RETURN JUMPDEST PUSH1 0x1 PUSH1 0x20 MSTORE DUP1 PUSH1 0x0 MSTORE PUSH1 0x40 PUSH1 0x0 KECCAK256 PUSH1 0x0 SWAP2 POP SWAP1 POP DUP1 PUSH1 0x0 ADD PUSH1 0x0 SWAP1 SLOAD SWAP1 PUSH2 0x100 EXP SWAP1 DIV PUSH1 0xFF AND SWAP1 DUP1 PUSH1 0x1 ADD DUP1 SLOAD PUSH2 0x13A SWAP1 PUSH2 0x79D JUMP JUMPDEST DUP1 PUSH1 0x1F ADD PUSH1 0x20 DUP1 SWAP2 DIV MUL PUSH1 0x20 ADD PUSH1 0x40 MLOAD SWAP1 DUP2 ADD PUSH1 0x40 MSTORE DUP1 SWAP3 SWAP2 SWAP1 DUP2 DUP2 MSTORE PUSH1 0x20 ADD DUP3 DUP1 SLOAD PUSH2 0x166 SWAP1 PUSH2 0x79D JUMP JUMPDEST DUP1 ISZERO PUSH2 0x1B3 JUMPI DUP1 PUSH1 0x1F LT PUSH2 0x188 JUMPI PUSH2 0x100 DUP1 DUP4 SLOAD DIV MUL DUP4 MSTORE SWAP2 PUSH1 0x20 ADD SWAP2 PUSH2 0x1B3 JUMP JUMPDEST DUP3 ADD SWAP2 SWAP1 PUSH1 0x0 MSTORE PUSH1 0x20 PUSH1 0x0 KECCAK256 SWAP1 JUMPDEST DUP2 SLOAD DUP2 MSTORE SWAP1 PUSH1 0x1 ADD SWAP1 PUSH1 0x20 ADD DUP1 DUP4 GT PUSH2 0x196 JUMPI DUP3 SWAP1 SUB PUSH1 0x1F AND DUP3 ADD SWAP2 JUMPDEST POP POP POP POP POP SWAP1 DUP1 PUSH1 0x2 ADD PUSH1 0x0 SWAP1 SLOAD SWAP1 PUSH2 0x100 EXP SWAP1 DIV PUSH1 0xFF AND SWAP1 POP DUP4 JUMP JUMPDEST PUSH1 0x0 DUP1 SLOAD SWAP1 PUSH2 0x100 EXP SWAP1 DIV PUSH20 0xFFFFFFFFFFFFFFFFFFFFFFFFFFFFFFFFFFFFFFFF AND DUP2 JUMP JUMPDEST PUSH1 0x2 PUSH1 0x1 SWAP1 SLOAD SWAP1 PUSH2 0x100 EXP SWAP1 DIV PUSH1 0xFF AND DUP2 JUMP JUMPDEST PUSH1 0x2 PUSH1 0x1 SWAP1 SLOAD SWAP1 PUSH2 0x100 EXP SWAP1 DIV PUSH1 0xFF AND PUSH1 0xFF AND PUSH1 0x2 PUSH1 0x0 SWAP1 SLOAD SWAP1 PUSH2 0x100 EXP SWAP1 DIV PUSH1 0xFF AND PUSH1 0xFF AND GT ISZERO PUSH2 0x26E JUMPI PUSH1 0x40 MLOAD PUSH32 0x8C379A000000000000000000000000000000000000000000000000000000000 DUP2 MSTORE PUSH1 0x4 ADD PUSH2 0x265 SWAP1 PUSH2 0x601 JUMP JUMPDEST PUSH1 0x40 MLOAD DUP1 SWAP2 SUB SWAP1 REVERT JUMPDEST PUSH1 0x0 PUSH1 0x1 PUSH1 0x0 PUSH1 0x2 PUSH1 0x0 SWAP1 SLOAD SWAP1 PUSH2 0x100 EXP SWAP1 DIV PUSH1 0xFF AND PUSH1 0xFF AND PUSH1 0xFF AND DUP2 MSTORE PUSH1 0x20 ADD SWAP1 DUP2 MSTORE PUSH1 0x20 ADD PUSH1 0x0 KECCAK256 PUSH1 0x40 MLOAD DUP1 PUSH1 0x60 ADD PUSH1 0x40 MSTORE SWAP1 DUP2 PUSH1 0x0 DUP3 ADD PUSH1 0x0 SWAP1 SLOAD SWAP1 PUSH2 0x100 EXP SWAP1 DIV PUSH1 0xFF AND PUSH1 0xFF AND PUSH1 0xFF AND DUP2 MSTORE PUSH1 0x20 ADD PUSH1 0x1 DUP3 ADD DUP1 SLOAD PUSH2 0x2D0 SWAP1 PUSH2 0x79D JUMP JUMPDEST DUP1 PUSH1 0x1F ADD PUSH1 0x20 DUP1 SWAP2 DIV MUL PUSH1 0x20 ADD PUSH1 0x40 MLOAD SWAP1 DUP2 ADD PUSH1 0x40 MSTORE DUP1 SWAP3 SWAP2 SWAP1 DUP2 DUP2 MSTORE PUSH1 0x20 ADD DUP3 DUP1 SLOAD PUSH2 0x2FC SWAP1 PUSH2 0x79D JUMP JUMPDEST DUP1 ISZERO PUSH2 0x349 JUMPI DUP1 PUSH1 0x1F LT PUSH2 0x31E JUMPI PUSH2 0x100 DUP1 DUP4 SLOAD DIV MUL DUP4 MSTORE SWAP2 PUSH1 0x20 ADD SWAP2 PUSH2 0x349 JUMP JUMPDEST DUP3 ADD SWAP2 SWAP1 PUSH1 0x0 MSTORE PUSH1 0x20 PUSH1 0x0 KECCAK256 SWAP1 JUMPDEST DUP2 SLOAD DUP2 MSTORE SWAP1 PUSH1 0x1 ADD SWAP1 PUSH1 0x20 ADD DUP1 DUP4 GT PUSH2 0x32C JUMPI DUP3 SWAP1 SUB PUSH1 0x1F AND DUP3 ADD SWAP2 JUMPDEST POP POP POP POP POP DUP2 MSTORE PUSH1 0x20 ADD PUSH1 0x2 DUP3 ADD PUSH1 0x0 SWAP1 SLOAD SWAP1 PUSH2 0x100 EXP SWAP1 DIV PUSH1 0xFF AND PUSH1 0x1 DUP2 GT ISZERO PUSH2 0x39D JUMPI PUSH32 0x4E487B7100000000000000000000000000000000000000000000000000000000 PUSH1 0x0 MSTORE PUSH1 0x21 PUSH1 0x4 MSTORE PUSH1 0x24 PUSH1 0x0 REVERT JUMPDEST PUSH1 0x1 DUP2 GT ISZERO PUSH2 0x3D5 JUMPI PUSH32 0x4E487B7100000000000000000000000000000000000000000000000000000000 PUSH1 0x0 MSTORE PUSH1 0x21 PUSH1 0x4 MSTORE PUSH1 0x24 PUSH1 0x0 REVERT JUMPDEST DUP2 MSTORE POP POP SWAP1 POP PUSH1 0x40 MLOAD DUP1 PUSH1 0x60 ADD PUSH1 0x40 MSTORE DUP1 PUSH1 0x2 PUSH1 0x0 SWAP1 SLOAD SWAP1 PUSH2 0x100 EXP SWAP1 DIV PUSH1 0xFF AND PUSH1 0xFF AND DUP2 MSTORE PUSH1 0x20 ADD DUP4 DUP2 MSTORE PUSH1 0x20 ADD PUSH1 0x1 DUP1 DUP2 GT ISZERO PUSH2 0x43D JUMPI PUSH32 0x4E487B7100000000000000000000000000000000000000000000000000000000 PUSH1 0x0 MSTORE PUSH1 0x21 PUSH1 0x4 MSTORE PUSH1 0x24 PUSH1 0x0 REVERT JUMPDEST DUP2 MSTORE POP SWAP1 POP POP POP JUMP JUMPDEST PUSH1 0x2 PUSH1 0x0 SWAP1 SLOAD SWAP1 PUSH2 0x100 EXP SWAP1 DIV PUSH1 0xFF AND DUP2 JUMP JUMPDEST PUSH1 0x0 PUSH2 0x46C PUSH2 0x467 DUP5 PUSH2 0x6AB JUMP JUMPDEST PUSH2 0x67A JUMP JUMPDEST SWAP1 POP DUP3 DUP2 MSTORE PUSH1 0x20 DUP2 ADD DUP5 DUP5 DUP5 ADD GT ISZERO PUSH2 0x484 JUMPI PUSH1 0x0 DUP1 REVERT JUMPDEST PUSH2 0x48F DUP5 DUP3 DUP6 PUSH2 0x75B JUMP JUMPDEST POP SWAP4 SWAP3 POP POP POP JUMP JUMPDEST PUSH1 0x0 DUP3 PUSH1 0x1F DUP4 ADD SLT PUSH2 0x4A8 JUMPI PUSH1 0x0 DUP1 REVERT JUMPDEST DUP2 CALLDATALOAD PUSH2 0x4B8 DUP5 DUP3 PUSH1 0x20 DUP7 ADD PUSH2 0x459 JUMP JUMPDEST SWAP2 POP POP SWAP3 SWAP2 POP POP JUMP JUMPDEST PUSH1 0x0 DUP2 CALLDATALOAD SWAP1 POP PUSH2 0x4D0 DUP2 PUSH2 0x881 JUMP JUMPDEST SWAP3 SWAP2 POP POP JUMP JUMPDEST PUSH1 0x0 PUSH1 0x20 DUP3 DUP5 SUB SLT ISZERO PUSH2 0x4E8 JUMPI PUSH1 0x0 DUP1 REVERT JUMPDEST PUSH1 0x0 DUP3 ADD CALLDATALOAD PUSH8 0xFFFFFFFFFFFFFFFF DUP2 GT ISZERO PUSH2 0x502 JUMPI PUSH1 0x0 DUP1 REVERT JUMPDEST PUSH2 0x50E DUP5 DUP3 DUP6 ADD PUSH2 0x497 JUMP JUMPDEST SWAP2 POP POP SWAP3 SWAP2 POP POP JUMP JUMPDEST PUSH1 0x0 PUSH1 0x20 DUP3 DUP5 SUB SLT ISZERO PUSH2 0x529 JUMPI PUSH1 0x0 DUP1 REVERT JUMPDEST PUSH1 0x0 PUSH2 0x537 DUP5 DUP3 DUP6 ADD PUSH2 0x4C1 JUMP JUMPDEST SWAP2 POP POP SWAP3 SWAP2 POP POP JUMP JUMPDEST PUSH2 0x549 DUP2 PUSH2 0x6F7 JUMP JUMPDEST DUP3 MSTORE POP POP JUMP JUMPDEST PUSH2 0x558 DUP2 PUSH2 0x749 JUMP JUMPDEST DUP3 MSTORE POP POP JUMP JUMPDEST PUSH1 0x0 PUSH2 0x569 DUP3 PUSH2 0x6DB JUMP JUMPDEST PUSH2 0x573 DUP2 DUP6 PUSH2 0x6E6 JUMP JUMPDEST SWAP4 POP PUSH2 0x583 DUP2 DUP6 PUSH1 0x20 DUP7 ADD PUSH2 0x76A JUMP JUMPDEST PUSH2 0x58C DUP2 PUSH2 0x85C JUMP JUMPDEST DUP5 ADD SWAP2 POP POP SWAP3 SWAP2 POP POP JUMP JUMPDEST PUSH1 0x0 PUSH2 0x5A4 PUSH1 0x14 DUP4 PUSH2 0x6E6 JUMP JUMPDEST SWAP2 POP PUSH32 0x616C6C20726F6F6D732061726520626F6F6B6564000000000000000000000000 PUSH1 0x0 DUP4 ADD MSTORE PUSH1 0x20 DUP3 ADD SWAP1 POP SWAP2 SWAP1 POP JUMP JUMPDEST PUSH2 0x5E0 DUP2 PUSH2 0x73C JUMP JUMPDEST DUP3 MSTORE POP POP JUMP JUMPDEST PUSH1 0x0 PUSH1 0x20 DUP3 ADD SWAP1 POP PUSH2 0x5FB PUSH1 0x0 DUP4 ADD DUP5 PUSH2 0x540 JUMP JUMPDEST SWAP3 SWAP2 POP POP JUMP JUMPDEST PUSH1 0x0 PUSH1 0x20 DUP3 ADD SWAP1 POP DUP2 DUP2 SUB PUSH1 0x0 DUP4 ADD MSTORE PUSH2 0x61A DUP2 PUSH2 0x597 JUMP JUMPDEST SWAP1 POP SWAP2 SWAP1 POP JUMP JUMPDEST PUSH1 0x0 PUSH1 0x20 DUP3 ADD SWAP1 POP PUSH2 0x636 PUSH1 0x0 DUP4 ADD DUP5 PUSH2 0x5D7 JUMP JUMPDEST SWAP3 SWAP2 POP POP JUMP JUMPDEST PUSH1 0x0 PUSH1 0x60 DUP3 ADD SWAP1 POP PUSH2 0x651 PUSH1 0x0 DUP4 ADD DUP7 PUSH2 0x5D7 JUMP JUMPDEST DUP2 DUP2 SUB PUSH1 0x20 DUP4 ADD MSTORE PUSH2 0x663 DUP2 DUP6 PUSH2 0x55E JUMP JUMPDEST SWAP1 POP PUSH2 0x672 PUSH1 0x40 DUP4 ADD DUP5 PUSH2 0x54F JUMP JUMPDEST SWAP5 SWAP4 POP POP POP POP JUMP JUMPDEST PUSH1 0x0 PUSH1 0x40 MLOAD SWAP1 POP DUP2 DUP2 ADD DUP2 DUP2 LT PUSH8 0xFFFFFFFFFFFFFFFF DUP3 GT OR ISZERO PUSH2 0x6A1 JUMPI PUSH2 0x6A0 PUSH2 0x82D JUMP JUMPDEST JUMPDEST DUP1 PUSH1 0x40 MSTORE POP SWAP2 SWAP1 POP JUMP JUMPDEST PUSH1 0x0 PUSH8 0xFFFFFFFFFFFFFFFF DUP3 GT ISZERO PUSH2 0x6C6 JUMPI PUSH2 0x6C5 PUSH2 0x82D JUMP JUMPDEST JUMPDEST PUSH1 0x1F NOT PUSH1 0x1F DUP4 ADD AND SWAP1 POP PUSH1 0x20 DUP2 ADD SWAP1 POP SWAP2 SWAP1 POP JUMP JUMPDEST PUSH1 0x0 DUP2 MLOAD SWAP1 POP SWAP2 SWAP1 POP JUMP JUMPDEST PUSH1 0x0 DUP3 DUP3 MSTORE PUSH1 0x20 DUP3 ADD SWAP1 POP SWAP3 SWAP2 POP POP JUMP JUMPDEST PUSH1 0x0 PUSH2 0x702 DUP3 PUSH2 0x71C JUMP JUMPDEST SWAP1 POP SWAP2 SWAP1 POP JUMP JUMPDEST PUSH1 0x0 DUP2 SWAP1 POP PUSH2 0x717 DUP3 PUSH2 0x86D JUMP JUMPDEST SWAP2 SWAP1 POP JUMP JUMPDEST PUSH1 0x0 PUSH20 0xFFFFFFFFFFFFFFFFFFFFFFFFFFFFFFFFFFFFFFFF DUP3 AND SWAP1 POP SWAP2 SWAP1 POP JUMP JUMPDEST PUSH1 0x0 PUSH1 0xFF DUP3 AND SWAP1 POP SWAP2 SWAP1 POP JUMP JUMPDEST PUSH1 0x0 PUSH2 0x754 DUP3 PUSH2 0x709 JUMP JUMPDEST SWAP1 POP SWAP2 SWAP1 POP JUMP JUMPDEST DUP3 DUP2 DUP4 CALLDATACOPY PUSH1 0x0 DUP4 DUP4 ADD MSTORE POP POP POP JUMP JUMPDEST PUSH1 0x0 JUMPDEST DUP4 DUP2 LT ISZERO PUSH2 0x788 JUMPI DUP1 DUP3 ADD MLOAD DUP2 DUP5 ADD MSTORE PUSH1 0x20 DUP2 ADD SWAP1 POP PUSH2 0x76D JUMP JUMPDEST DUP4 DUP2 GT ISZERO PUSH2 0x797 JUMPI PUSH1 0x0 DUP5 DUP5 ADD MSTORE JUMPDEST POP POP POP POP JUMP JUMPDEST PUSH1 0x0 PUSH1 0x2 DUP3 DIV SWAP1 POP PUSH1 0x1 DUP3 AND DUP1 PUSH2 0x7B5 JUMPI PUSH1 0x7F DUP3 AND SWAP2 POP JUMPDEST PUSH1 0x20 DUP3 LT DUP2 EQ ISZERO PUSH2 0x7C9 JUMPI PUSH2 0x7C8 PUSH2 0x7FE JUMP JUMPDEST JUMPDEST POP SWAP2 SWAP1 POP JUMP JUMPDEST PUSH32 0x4E487B7100000000000000000000000000000000000000000000000000000000 PUSH1 0x0 MSTORE PUSH1 0x21 PUSH1 0x4 MSTORE PUSH1 0x24 PUSH1 0x0 REVERT JUMPDEST PUSH32 0x4E487B7100000000000000000000000000000000000000000000000000000000 PUSH1 0x0 MSTORE PUSH1 0x22 PUSH1 0x4 MSTORE PUSH1 0x24 PUSH1 0x0 REVERT JUMPDEST PUSH32 0x4E487B7100000000000000000000000000000000000000000000000000000000 PUSH1 0x0 MSTORE PUSH1 0x41 PUSH1 0x4 MSTORE PUSH1 0x24 PUSH1 0x0 REVERT JUMPDEST PUSH1 0x0 PUSH1 0x1F NOT PUSH1 0x1F DUP4 ADD AND SWAP1 POP SWAP2 SWAP1 POP JUMP JUMPDEST PUSH1 0x2 DUP2 LT PUSH2 0x87E JUMPI PUSH2 0x87D PUSH2 0x7CF JUMP JUMPDEST JUMPDEST POP JUMP JUMPDEST PUSH2 0x88A DUP2 PUSH2 0x73C JUMP JUMPDEST DUP2 EQ PUSH2 0x895 JUMPI PUSH1 0x0 DUP1 REVERT JUMPDEST POP JUMP INVALID LOG2 PUSH5 0x6970667358 0x22 SLT KECCAK256 0xEB 0x48 PUSH19 0x364737D929B3CEF313279E227CE65507F4274C 0xEC CODESIZE DUP11 0xC6 0xA9 DUP3 0xBB 0x5F CALLVALUE DUP6 PUSH5 0x736F6C6343 STOP ADDMOD STOP STOP CALLER "
				},
				"gasEstimates": {
					"creation": {
						"codeDepositCost": "450800",
						"executionCost": "infinite",
						"totalCost": "infinite"
					},
					"external": {
						"Booking(string)": "infinite",
						"RoomBook(uint8)": "infinite",
						"bookedCount()": "1237",
						"owner()": "1211",
						"roomCount()": "1243"
					}
				},
				"methodIdentifiers": {
					"Booking(string)": "e8ba178b",
					"RoomBook(uint8)": "1f8c8a17",
					"bookedCount()": "eab22a8d",
					"owner()": "8da5cb5b",
					"roomCount()": "df93a4e3"
				}
			},
			"storageLayout": {
				"storage": [
					{
						"astId": 6,
						"contract": "practice/HotelBookRooms.sol:HotelBookRooms",
						"label": "owner",
						"offset": 0,
						"slot": "0",
						"type": "t_address"
					},
					{
						"astId": 11,
						"contract": "practice/HotelBookRooms.sol:HotelBookRooms",
						"label": "RoomBook",
						"offset": 0,
						"slot": "1",
						"type": "t_mapping(t_uint8,t_struct(RoomBooking)24_storage)"
					},
					{
						"astId": 14,
						"contract": "practice/HotelBookRooms.sol:HotelBookRooms",
						"label": "bookedCount",
						"offset": 0,
						"slot": "2",
						"type": "t_uint8"
					},
					{
						"astId": 16,
						"contract": "practice/HotelBookRooms.sol:HotelBookRooms",
						"label": "roomCount",
						"offset": 1,
						"slot": "2",
						"type": "t_uint8"
					}
				],
				"types": {
					"t_address": {
						"encoding": "inplace",
						"label": "address",
						"numberOfBytes": "20"
					},
					"t_enum(Status)4": {
						"encoding": "inplace",
						"label": "enum HotelBookRooms.Status",
						"numberOfBytes": "1"
					},
					"t_mapping(t_uint8,t_struct(RoomBooking)24_storage)": {
						"encoding": "mapping",
						"key": "t_uint8",
						"label": "mapping(uint8 => struct HotelBookRooms.RoomBooking)",
						"numberOfBytes": "32",
						"value": "t_struct(RoomBooking)24_storage"
					},
					"t_string_storage": {
						"encoding": "bytes",
						"label": "string",
						"numberOfBytes": "32"
					},
					"t_struct(RoomBooking)24_storage": {
						"encoding": "inplace",
						"label": "struct HotelBookRooms.RoomBooking",
						"members": [
							{
								"astId": 18,
								"contract": "practice/HotelBookRooms.sol:HotelBookRooms",
								"label": "roomNo",
								"offset": 0,
								"slot": "0",
								"type": "t_uint8"
							},
							{
								"astId": 20,
								"contract": "practice/HotelBookRooms.sol:HotelBookRooms",
								"label": "bookPersonName",
								"offset": 0,
								"slot": "1",
								"type": "t_string_storage"
							},
							{
								"astId": 23,
								"contract": "practice/HotelBookRooms.sol:HotelBookRooms",
								"label": "status",
								"offset": 0,
								"slot": "2",
								"type": "t_enum(Status)4"
							}
						],
						"numberOfBytes": "96"
					},
					"t_uint8": {
						"encoding": "inplace",
						"label": "uint8",
						"numberOfBytes": "1"
					}
				}
			},
			"userdoc": {
				"kind": "user",
				"methods": {},
				"version": 1
			}
		}
	}
}