{
	"practice/ShareWallet.sol": {
		"ShareWallet": {
			"abi": [
				{
					"stateMutability": "payable",
					"type": "fallback"
				},
				{
					"inputs": [
						{
							"internalType": "uint256",
							"name": "amount",
							"type": "uint256"
						}
					],
					"name": "WithDraw",
					"outputs": [],
					"stateMutability": "nonpayable",
					"type": "function"
				},
				{
					"inputs": [
						{
							"internalType": "address",
							"name": "",
							"type": "address"
						}
					],
					"name": "_owners",
					"outputs": [
						{
							"internalType": "uint8",
							"name": "",
							"type": "uint8"
						}
					],
					"stateMutability": "view",
					"type": "function"
				},
				{
					"inputs": [
						{
							"internalType": "address",
							"name": "owner",
							"type": "address"
						}
					],
					"name": "addOwner",
					"outputs": [],
					"stateMutability": "nonpayable",
					"type": "function"
				},
				{
					"inputs": [
						{
							"internalType": "address",
							"name": "owner",
							"type": "address"
						}
					],
					"name": "removeOwner",
					"outputs": [],
					"stateMutability": "nonpayable",
					"type": "function"
				},
				{
					"inputs": [
						{
							"internalType": "address payable",
							"name": "to",
							"type": "address"
						},
						{
							"internalType": "uint256",
							"name": "amount",
							"type": "uint256"
						}
					],
					"name": "transferTo",
					"outputs": [],
					"stateMutability": "nonpayable",
					"type": "function"
				}
			],
			"devdoc": {
				"kind": "dev",
				"methods": {},
				"version": 1
			},
			"evm": {
				"assembly": "    /* \"practice/ShareWallet.sol\":27:886  contract ShareWallet{\r... */\n  mstore(0x40, 0x80)\n  callvalue\n  dup1\n  iszero\n  tag_1\n  jumpi\n  0x00\n  dup1\n  revert\ntag_1:\n  pop\n  dataSize(sub_0)\n  dup1\n  dataOffset(sub_0)\n  0x00\n  codecopy\n  0x00\n  return\nstop\n\nsub_0: assembly {\n        /* \"practice/ShareWallet.sol\":27:886  contract ShareWallet{\r... */\n      mstore(0x40, 0x80)\n      jumpi(tag_1, lt(calldatasize, 0x04))\n      shr(0xe0, calldataload(0x00))\n      dup1\n      0x173825d9\n      eq\n      tag_3\n      jumpi\n      dup1\n      0x2ccb1b30\n      eq\n      tag_4\n      jumpi\n      dup1\n      0x7065cb48\n      eq\n      tag_5\n      jumpi\n      dup1\n      0xbf3a5c02\n      eq\n      tag_6\n      jumpi\n      dup1\n      0xcbe159bb\n      eq\n      tag_7\n      jumpi\n      jump(tag_2)\n    tag_1:\n    tag_2:\n      stop\n        /* \"practice/ShareWallet.sol\":418:503  function removeOwner(address owner) isOwner public{\r... */\n    tag_3:\n      callvalue\n      dup1\n      iszero\n      tag_10\n      jumpi\n      0x00\n      dup1\n      revert\n    tag_10:\n      pop\n      tag_11\n      0x04\n      dup1\n      calldatasize\n      sub\n      dup2\n      add\n      swap1\n      tag_12\n      swap2\n      swap1\n      tag_13\n      jump\t// in\n    tag_12:\n      tag_14\n      jump\t// in\n    tag_11:\n      stop\n        /* \"practice/ShareWallet.sol\":716:877  function transferTo(address payable to,uint256 amount) isValidOwner public{\r... */\n    tag_4:\n      callvalue\n      dup1\n      iszero\n      tag_15\n      jumpi\n      0x00\n      dup1\n      revert\n    tag_15:\n      pop\n      tag_16\n      0x04\n      dup1\n      calldatasize\n      sub\n      dup2\n      add\n      swap1\n      tag_17\n      swap2\n      swap1\n      tag_18\n      jump\t// in\n    tag_17:\n      tag_19\n      jump\t// in\n    tag_16:\n      stop\n        /* \"practice/ShareWallet.sol\":330:412  function addOwner(address owner) isOwner public{\r... */\n    tag_5:\n      callvalue\n      dup1\n      iszero\n      tag_20\n      jumpi\n      0x00\n      dup1\n      revert\n    tag_20:\n      pop\n      tag_21\n      0x04\n      dup1\n      calldatasize\n      sub\n      dup2\n      add\n      swap1\n      tag_22\n      swap2\n      swap1\n      tag_13\n      jump\t// in\n    tag_22:\n      tag_23\n      jump\t// in\n    tag_21:\n      stop\n        /* \"practice/ShareWallet.sol\":83:123  mapping (address =>uint8) public _owners */\n    tag_6:\n      callvalue\n      dup1\n      iszero\n      tag_24\n      jumpi\n      0x00\n      dup1\n      revert\n    tag_24:\n      pop\n      tag_25\n      0x04\n      dup1\n      calldatasize\n      sub\n      dup2\n      add\n      swap1\n      tag_26\n      swap2\n      swap1\n      tag_13\n      jump\t// in\n    tag_26:\n      tag_27\n      jump\t// in\n    tag_25:\n      mload(0x40)\n      tag_28\n      swap2\n      swap1\n      tag_29\n      jump\t// in\n    tag_28:\n      mload(0x40)\n      dup1\n      swap2\n      sub\n      swap1\n      return\n        /* \"practice/ShareWallet.sol\":552:710  function WithDraw(uint256 amount) isValidOwner public {\r... */\n    tag_7:\n      callvalue\n      dup1\n      iszero\n      tag_30\n      jumpi\n      0x00\n      dup1\n      revert\n    tag_30:\n      pop\n      tag_31\n      0x04\n      dup1\n      calldatasize\n      sub\n      dup2\n      add\n      swap1\n      tag_32\n      swap2\n      swap1\n      tag_33\n      jump\t// in\n    tag_32:\n      tag_34\n      jump\t// in\n    tag_31:\n      stop\n        /* \"practice/ShareWallet.sol\":418:503  function removeOwner(address owner) isOwner public{\r... */\n    tag_14:\n        /* \"practice/ShareWallet.sol\":177:187  msg.sender */\n      caller\n        /* \"practice/ShareWallet.sol\":169:187  _owner==msg.sender */\n      0xffffffffffffffffffffffffffffffffffffffff\n      and\n        /* \"practice/ShareWallet.sol\":169:175  _owner */\n      0x00\n      dup1\n      sload\n      swap1\n      0x0100\n      exp\n      swap1\n      div\n      0xffffffffffffffffffffffffffffffffffffffff\n      and\n        /* \"practice/ShareWallet.sol\":169:187  _owner==msg.sender */\n      0xffffffffffffffffffffffffffffffffffffffff\n      and\n      eq\n        /* \"practice/ShareWallet.sol\":161:188  require(_owner==msg.sender) */\n      tag_36\n      jumpi\n      0x00\n      dup1\n      revert\n    tag_36:\n        /* \"practice/ShareWallet.sol\":494:495  0 */\n      0x00\n        /* \"practice/ShareWallet.sol\":479:486  _owners */\n      0x01\n        /* \"practice/ShareWallet.sol\":479:493  _owners[owner] */\n      0x00\n        /* \"practice/ShareWallet.sol\":487:492  owner */\n      dup4\n        /* \"practice/ShareWallet.sol\":479:493  _owners[owner] */\n      0xffffffffffffffffffffffffffffffffffffffff\n      and\n      0xffffffffffffffffffffffffffffffffffffffff\n      and\n      dup2\n      mstore\n      0x20\n      add\n      swap1\n      dup2\n      mstore\n      0x20\n      add\n      0x00\n      keccak256\n      0x00\n        /* \"practice/ShareWallet.sol\":479:495  _owners[owner]=0 */\n      0x0100\n      exp\n      dup2\n      sload\n      dup2\n      0xff\n      mul\n      not\n      and\n      swap1\n      dup4\n      0xff\n      and\n      mul\n      or\n      swap1\n      sstore\n      pop\n        /* \"practice/ShareWallet.sol\":418:503  function removeOwner(address owner) isOwner public{\r... */\n      pop\n      jump\t// out\n        /* \"practice/ShareWallet.sol\":716:877  function transferTo(address payable to,uint256 amount) isValidOwner public{\r... */\n    tag_19:\n        /* \"practice/ShareWallet.sol\":266:276  msg.sender */\n      caller\n        /* \"practice/ShareWallet.sol\":258:276  _owner==msg.sender */\n      0xffffffffffffffffffffffffffffffffffffffff\n      and\n        /* \"practice/ShareWallet.sol\":258:264  _owner */\n      0x00\n      dup1\n      sload\n      swap1\n      0x0100\n      exp\n      swap1\n      div\n      0xffffffffffffffffffffffffffffffffffffffff\n      and\n        /* \"practice/ShareWallet.sol\":258:276  _owner==msg.sender */\n      0xffffffffffffffffffffffffffffffffffffffff\n      and\n      eq\n        /* \"practice/ShareWallet.sol\":258:301  _owner==msg.sender|| _owners[msg.sender]==1 */\n      dup1\n      tag_39\n      jumpi\n      pop\n        /* \"practice/ShareWallet.sol\":300:301  1 */\n      0x01\n        /* \"practice/ShareWallet.sol\":279:286  _owners */\n      dup1\n        /* \"practice/ShareWallet.sol\":279:298  _owners[msg.sender] */\n      0x00\n        /* \"practice/ShareWallet.sol\":287:297  msg.sender */\n      caller\n        /* \"practice/ShareWallet.sol\":279:298  _owners[msg.sender] */\n      0xffffffffffffffffffffffffffffffffffffffff\n      and\n      0xffffffffffffffffffffffffffffffffffffffff\n      and\n      dup2\n      mstore\n      0x20\n      add\n      swap1\n      dup2\n      mstore\n      0x20\n      add\n      0x00\n      keccak256\n      0x00\n      swap1\n      sload\n      swap1\n      0x0100\n      exp\n      swap1\n      div\n      0xff\n      and\n        /* \"practice/ShareWallet.sol\":279:301  _owners[msg.sender]==1 */\n      0xff\n      and\n      eq\n        /* \"practice/ShareWallet.sol\":258:301  _owner==msg.sender|| _owners[msg.sender]==1 */\n    tag_39:\n        /* \"practice/ShareWallet.sol\":250:302  require(_owner==msg.sender|| _owners[msg.sender]==1) */\n      tag_40\n      jumpi\n      0x00\n      dup1\n      revert\n    tag_40:\n        /* \"practice/ShareWallet.sol\":832:838  amount */\n      dup1\n        /* \"practice/ShareWallet.sol\":809:830  address(this).balance */\n      selfbalance\n        /* \"practice/ShareWallet.sol\":809:838  address(this).balance>=amount */\n      lt\n      iszero\n        /* \"practice/ShareWallet.sol\":801:839  require(address(this).balance>=amount) */\n      tag_42\n      jumpi\n      0x00\n      dup1\n      revert\n    tag_42:\n        /* \"practice/ShareWallet.sol\":850:852  to */\n      dup2\n        /* \"practice/ShareWallet.sol\":850:861  to.transfer */\n      0xffffffffffffffffffffffffffffffffffffffff\n      and\n        /* \"practice/ShareWallet.sol\":850:869  to.transfer(amount) */\n      0x08fc\n        /* \"practice/ShareWallet.sol\":862:868  amount */\n      dup3\n        /* \"practice/ShareWallet.sol\":850:869  to.transfer(amount) */\n      swap1\n      dup2\n      iszero\n      mul\n      swap1\n      mload(0x40)\n      0x00\n      mload(0x40)\n      dup1\n      dup4\n      sub\n      dup2\n      dup6\n      dup9\n      dup9\n      call\n      swap4\n      pop\n      pop\n      pop\n      pop\n      iszero\n      dup1\n      iszero\n      tag_44\n      jumpi\n      returndatasize\n      0x00\n      dup1\n      returndatacopy\n      revert(0x00, returndatasize)\n    tag_44:\n      pop\n        /* \"practice/ShareWallet.sol\":716:877  function transferTo(address payable to,uint256 amount) isValidOwner public{\r... */\n      pop\n      pop\n      jump\t// out\n        /* \"practice/ShareWallet.sol\":330:412  function addOwner(address owner) isOwner public{\r... */\n    tag_23:\n        /* \"practice/ShareWallet.sol\":177:187  msg.sender */\n      caller\n        /* \"practice/ShareWallet.sol\":169:187  _owner==msg.sender */\n      0xffffffffffffffffffffffffffffffffffffffff\n      and\n        /* \"practice/ShareWallet.sol\":169:175  _owner */\n      0x00\n      dup1\n      sload\n      swap1\n      0x0100\n      exp\n      swap1\n      div\n      0xffffffffffffffffffffffffffffffffffffffff\n      and\n        /* \"practice/ShareWallet.sol\":169:187  _owner==msg.sender */\n      0xffffffffffffffffffffffffffffffffffffffff\n      and\n      eq\n        /* \"practice/ShareWallet.sol\":161:188  require(_owner==msg.sender) */\n      tag_46\n      jumpi\n      0x00\n      dup1\n      revert\n    tag_46:\n        /* \"practice/ShareWallet.sol\":403:404  1 */\n      0x01\n        /* \"practice/ShareWallet.sol\":388:395  _owners */\n      dup1\n        /* \"practice/ShareWallet.sol\":388:402  _owners[owner] */\n      0x00\n        /* \"practice/ShareWallet.sol\":396:401  owner */\n      dup4\n        /* \"practice/ShareWallet.sol\":388:402  _owners[owner] */\n      0xffffffffffffffffffffffffffffffffffffffff\n      and\n      0xffffffffffffffffffffffffffffffffffffffff\n      and\n      dup2\n      mstore\n      0x20\n      add\n      swap1\n      dup2\n      mstore\n      0x20\n      add\n      0x00\n      keccak256\n      0x00\n        /* \"practice/ShareWallet.sol\":388:404  _owners[owner]=1 */\n      0x0100\n      exp\n      dup2\n      sload\n      dup2\n      0xff\n      mul\n      not\n      and\n      swap1\n      dup4\n      0xff\n      and\n      mul\n      or\n      swap1\n      sstore\n      pop\n        /* \"practice/ShareWallet.sol\":330:412  function addOwner(address owner) isOwner public{\r... */\n      pop\n      jump\t// out\n        /* \"practice/ShareWallet.sol\":83:123  mapping (address =>uint8) public _owners */\n    tag_27:\n      mstore(0x20, 0x01)\n      dup1\n      0x00\n      mstore\n      keccak256(0x00, 0x40)\n      0x00\n      swap2\n      pop\n      sload\n      swap1\n      0x0100\n      exp\n      swap1\n      div\n      0xff\n      and\n      dup2\n      jump\t// out\n        /* \"practice/ShareWallet.sol\":552:710  function WithDraw(uint256 amount) isValidOwner public {\r... */\n    tag_34:\n        /* \"practice/ShareWallet.sol\":266:276  msg.sender */\n      caller\n        /* \"practice/ShareWallet.sol\":258:276  _owner==msg.sender */\n      0xffffffffffffffffffffffffffffffffffffffff\n      and\n        /* \"practice/ShareWallet.sol\":258:264  _owner */\n      0x00\n      dup1\n      sload\n      swap1\n      0x0100\n      exp\n      swap1\n      div\n      0xffffffffffffffffffffffffffffffffffffffff\n      and\n        /* \"practice/ShareWallet.sol\":258:276  _owner==msg.sender */\n      0xffffffffffffffffffffffffffffffffffffffff\n      and\n      eq\n        /* \"practice/ShareWallet.sol\":258:301  _owner==msg.sender|| _owners[msg.sender]==1 */\n      dup1\n      tag_49\n      jumpi\n      pop\n        /* \"practice/ShareWallet.sol\":300:301  1 */\n      0x01\n        /* \"practice/ShareWallet.sol\":279:286  _owners */\n      dup1\n        /* \"practice/ShareWallet.sol\":279:298  _owners[msg.sender] */\n      0x00\n        /* \"practice/ShareWallet.sol\":287:297  msg.sender */\n      caller\n        /* \"practice/ShareWallet.sol\":279:298  _owners[msg.sender] */\n      0xffffffffffffffffffffffffffffffffffffffff\n      and\n      0xffffffffffffffffffffffffffffffffffffffff\n      and\n      dup2\n      mstore\n      0x20\n      add\n      swap1\n      dup2\n      mstore\n      0x20\n      add\n      0x00\n      keccak256\n      0x00\n      swap1\n      sload\n      swap1\n      0x0100\n      exp\n      swap1\n      div\n      0xff\n      and\n        /* \"practice/ShareWallet.sol\":279:301  _owners[msg.sender]==1 */\n      0xff\n      and\n      eq\n        /* \"practice/ShareWallet.sol\":258:301  _owner==msg.sender|| _owners[msg.sender]==1 */\n    tag_49:\n        /* \"practice/ShareWallet.sol\":250:302  require(_owner==msg.sender|| _owners[msg.sender]==1) */\n      tag_50\n      jumpi\n      0x00\n      dup1\n      revert\n    tag_50:\n        /* \"practice/ShareWallet.sol\":648:654  amount */\n      dup1\n        /* \"practice/ShareWallet.sol\":625:646  address(this).balance */\n      selfbalance\n        /* \"practice/ShareWallet.sol\":625:654  address(this).balance>=amount */\n      lt\n      iszero\n        /* \"practice/ShareWallet.sol\":617:655  require(address(this).balance>=amount) */\n      tag_52\n      jumpi\n      0x00\n      dup1\n      revert\n    tag_52:\n        /* \"practice/ShareWallet.sol\":674:684  msg.sender */\n      caller\n        /* \"practice/ShareWallet.sol\":666:694  payable(msg.sender).transfer */\n      0xffffffffffffffffffffffffffffffffffffffff\n      and\n        /* \"practice/ShareWallet.sol\":666:702  payable(msg.sender).transfer(amount) */\n      0x08fc\n        /* \"practice/ShareWallet.sol\":695:701  amount */\n      dup3\n        /* \"practice/ShareWallet.sol\":666:702  payable(msg.sender).transfer(amount) */\n      swap1\n      dup2\n      iszero\n      mul\n      swap1\n      mload(0x40)\n      0x00\n      mload(0x40)\n      dup1\n      dup4\n      sub\n      dup2\n      dup6\n      dup9\n      dup9\n      call\n      swap4\n      pop\n      pop\n      pop\n      pop\n      iszero\n      dup1\n      iszero\n      tag_54\n      jumpi\n      returndatasize\n      0x00\n      dup1\n      returndatacopy\n      revert(0x00, returndatasize)\n    tag_54:\n      pop\n        /* \"practice/ShareWallet.sol\":552:710  function WithDraw(uint256 amount) isValidOwner public {\r... */\n      pop\n      jump\t// out\n        /* \"#utility.yul\":7:146   */\n    tag_56:\n        /* \"#utility.yul\":53:58   */\n      0x00\n        /* \"#utility.yul\":91:97   */\n      dup2\n        /* \"#utility.yul\":78:98   */\n      calldataload\n        /* \"#utility.yul\":69:98   */\n      swap1\n      pop\n        /* \"#utility.yul\":107:140   */\n      tag_58\n        /* \"#utility.yul\":134:139   */\n      dup2\n        /* \"#utility.yul\":107:140   */\n      tag_59\n      jump\t// in\n    tag_58:\n        /* \"#utility.yul\":59:146   */\n      swap3\n      swap2\n      pop\n      pop\n      jump\t// out\n        /* \"#utility.yul\":152:307   */\n    tag_60:\n        /* \"#utility.yul\":206:211   */\n      0x00\n        /* \"#utility.yul\":244:250   */\n      dup2\n        /* \"#utility.yul\":231:251   */\n      calldataload\n        /* \"#utility.yul\":222:251   */\n      swap1\n      pop\n        /* \"#utility.yul\":260:301   */\n      tag_62\n        /* \"#utility.yul\":295:300   */\n      dup2\n        /* \"#utility.yul\":260:301   */\n      tag_63\n      jump\t// in\n    tag_62:\n        /* \"#utility.yul\":212:307   */\n      swap3\n      swap2\n      pop\n      pop\n      jump\t// out\n        /* \"#utility.yul\":313:452   */\n    tag_64:\n        /* \"#utility.yul\":359:364   */\n      0x00\n        /* \"#utility.yul\":397:403   */\n      dup2\n        /* \"#utility.yul\":384:404   */\n      calldataload\n        /* \"#utility.yul\":375:404   */\n      swap1\n      pop\n        /* \"#utility.yul\":413:446   */\n      tag_66\n        /* \"#utility.yul\":440:445   */\n      dup2\n        /* \"#utility.yul\":413:446   */\n      tag_67\n      jump\t// in\n    tag_66:\n        /* \"#utility.yul\":365:452   */\n      swap3\n      swap2\n      pop\n      pop\n      jump\t// out\n        /* \"#utility.yul\":458:720   */\n    tag_13:\n        /* \"#utility.yul\":517:523   */\n      0x00\n        /* \"#utility.yul\":566:568   */\n      0x20\n        /* \"#utility.yul\":554:563   */\n      dup3\n        /* \"#utility.yul\":545:552   */\n      dup5\n        /* \"#utility.yul\":541:564   */\n      sub\n        /* \"#utility.yul\":537:569   */\n      slt\n        /* \"#utility.yul\":534:536   */\n      iszero\n      tag_69\n      jumpi\n        /* \"#utility.yul\":582:583   */\n      0x00\n        /* \"#utility.yul\":579:580   */\n      dup1\n        /* \"#utility.yul\":572:584   */\n      revert\n        /* \"#utility.yul\":534:536   */\n    tag_69:\n        /* \"#utility.yul\":625:626   */\n      0x00\n        /* \"#utility.yul\":650:703   */\n      tag_70\n        /* \"#utility.yul\":695:702   */\n      dup5\n        /* \"#utility.yul\":686:692   */\n      dup3\n        /* \"#utility.yul\":675:684   */\n      dup6\n        /* \"#utility.yul\":671:693   */\n      add\n        /* \"#utility.yul\":650:703   */\n      tag_56\n      jump\t// in\n    tag_70:\n        /* \"#utility.yul\":640:703   */\n      swap2\n      pop\n        /* \"#utility.yul\":596:713   */\n      pop\n        /* \"#utility.yul\":524:720   */\n      swap3\n      swap2\n      pop\n      pop\n      jump\t// out\n        /* \"#utility.yul\":726:1149   */\n    tag_18:\n        /* \"#utility.yul\":802:808   */\n      0x00\n        /* \"#utility.yul\":810:816   */\n      dup1\n        /* \"#utility.yul\":859:861   */\n      0x40\n        /* \"#utility.yul\":847:856   */\n      dup4\n        /* \"#utility.yul\":838:845   */\n      dup6\n        /* \"#utility.yul\":834:857   */\n      sub\n        /* \"#utility.yul\":830:862   */\n      slt\n        /* \"#utility.yul\":827:829   */\n      iszero\n      tag_72\n      jumpi\n        /* \"#utility.yul\":875:876   */\n      0x00\n        /* \"#utility.yul\":872:873   */\n      dup1\n        /* \"#utility.yul\":865:877   */\n      revert\n        /* \"#utility.yul\":827:829   */\n    tag_72:\n        /* \"#utility.yul\":918:919   */\n      0x00\n        /* \"#utility.yul\":943:1004   */\n      tag_73\n        /* \"#utility.yul\":996:1003   */\n      dup6\n        /* \"#utility.yul\":987:993   */\n      dup3\n        /* \"#utility.yul\":976:985   */\n      dup7\n        /* \"#utility.yul\":972:994   */\n      add\n        /* \"#utility.yul\":943:1004   */\n      tag_60\n      jump\t// in\n    tag_73:\n        /* \"#utility.yul\":933:1004   */\n      swap3\n      pop\n        /* \"#utility.yul\":889:1014   */\n      pop\n        /* \"#utility.yul\":1053:1055   */\n      0x20\n        /* \"#utility.yul\":1079:1132   */\n      tag_74\n        /* \"#utility.yul\":1124:1131   */\n      dup6\n        /* \"#utility.yul\":1115:1121   */\n      dup3\n        /* \"#utility.yul\":1104:1113   */\n      dup7\n        /* \"#utility.yul\":1100:1122   */\n      add\n        /* \"#utility.yul\":1079:1132   */\n      tag_64\n      jump\t// in\n    tag_74:\n        /* \"#utility.yul\":1069:1132   */\n      swap2\n      pop\n        /* \"#utility.yul\":1024:1142   */\n      pop\n        /* \"#utility.yul\":817:1149   */\n      swap3\n      pop\n      swap3\n      swap1\n      pop\n      jump\t// out\n        /* \"#utility.yul\":1155:1417   */\n    tag_33:\n        /* \"#utility.yul\":1214:1220   */\n      0x00\n        /* \"#utility.yul\":1263:1265   */\n      0x20\n        /* \"#utility.yul\":1251:1260   */\n      dup3\n        /* \"#utility.yul\":1242:1249   */\n      dup5\n        /* \"#utility.yul\":1238:1261   */\n      sub\n        /* \"#utility.yul\":1234:1266   */\n      slt\n        /* \"#utility.yul\":1231:1233   */\n      iszero\n      tag_76\n      jumpi\n        /* \"#utility.yul\":1279:1280   */\n      0x00\n        /* \"#utility.yul\":1276:1277   */\n      dup1\n        /* \"#utility.yul\":1269:1281   */\n      revert\n        /* \"#utility.yul\":1231:1233   */\n    tag_76:\n        /* \"#utility.yul\":1322:1323   */\n      0x00\n        /* \"#utility.yul\":1347:1400   */\n      tag_77\n        /* \"#utility.yul\":1392:1399   */\n      dup5\n        /* \"#utility.yul\":1383:1389   */\n      dup3\n        /* \"#utility.yul\":1372:1381   */\n      dup6\n        /* \"#utility.yul\":1368:1390   */\n      add\n        /* \"#utility.yul\":1347:1400   */\n      tag_64\n      jump\t// in\n    tag_77:\n        /* \"#utility.yul\":1337:1400   */\n      swap2\n      pop\n        /* \"#utility.yul\":1293:1410   */\n      pop\n        /* \"#utility.yul\":1221:1417   */\n      swap3\n      swap2\n      pop\n      pop\n      jump\t// out\n        /* \"#utility.yul\":1423:1535   */\n    tag_78:\n        /* \"#utility.yul\":1506:1528   */\n      tag_80\n        /* \"#utility.yul\":1522:1527   */\n      dup2\n        /* \"#utility.yul\":1506:1528   */\n      tag_81\n      jump\t// in\n    tag_80:\n        /* \"#utility.yul\":1501:1504   */\n      dup3\n        /* \"#utility.yul\":1494:1529   */\n      mstore\n        /* \"#utility.yul\":1484:1535   */\n      pop\n      pop\n      jump\t// out\n        /* \"#utility.yul\":1541:1755   */\n    tag_29:\n        /* \"#utility.yul\":1630:1634   */\n      0x00\n        /* \"#utility.yul\":1668:1670   */\n      0x20\n        /* \"#utility.yul\":1657:1666   */\n      dup3\n        /* \"#utility.yul\":1653:1671   */\n      add\n        /* \"#utility.yul\":1645:1671   */\n      swap1\n      pop\n        /* \"#utility.yul\":1681:1748   */\n      tag_83\n        /* \"#utility.yul\":1745:1746   */\n      0x00\n        /* \"#utility.yul\":1734:1743   */\n      dup4\n        /* \"#utility.yul\":1730:1747   */\n      add\n        /* \"#utility.yul\":1721:1727   */\n      dup5\n        /* \"#utility.yul\":1681:1748   */\n      tag_78\n      jump\t// in\n    tag_83:\n        /* \"#utility.yul\":1635:1755   */\n      swap3\n      swap2\n      pop\n      pop\n      jump\t// out\n        /* \"#utility.yul\":1761:1857   */\n    tag_84:\n        /* \"#utility.yul\":1798:1805   */\n      0x00\n        /* \"#utility.yul\":1827:1851   */\n      tag_86\n        /* \"#utility.yul\":1845:1850   */\n      dup3\n        /* \"#utility.yul\":1827:1851   */\n      tag_87\n      jump\t// in\n    tag_86:\n        /* \"#utility.yul\":1816:1851   */\n      swap1\n      pop\n        /* \"#utility.yul\":1806:1857   */\n      swap2\n      swap1\n      pop\n      jump\t// out\n        /* \"#utility.yul\":1863:1967   */\n    tag_88:\n        /* \"#utility.yul\":1908:1915   */\n      0x00\n        /* \"#utility.yul\":1937:1961   */\n      tag_90\n        /* \"#utility.yul\":1955:1960   */\n      dup3\n        /* \"#utility.yul\":1937:1961   */\n      tag_87\n      jump\t// in\n    tag_90:\n        /* \"#utility.yul\":1926:1961   */\n      swap1\n      pop\n        /* \"#utility.yul\":1916:1967   */\n      swap2\n      swap1\n      pop\n      jump\t// out\n        /* \"#utility.yul\":1973:2099   */\n    tag_87:\n        /* \"#utility.yul\":2010:2017   */\n      0x00\n        /* \"#utility.yul\":2050:2092   */\n      0xffffffffffffffffffffffffffffffffffffffff\n        /* \"#utility.yul\":2043:2048   */\n      dup3\n        /* \"#utility.yul\":2039:2093   */\n      and\n        /* \"#utility.yul\":2028:2093   */\n      swap1\n      pop\n        /* \"#utility.yul\":2018:2099   */\n      swap2\n      swap1\n      pop\n      jump\t// out\n        /* \"#utility.yul\":2105:2182   */\n    tag_92:\n        /* \"#utility.yul\":2142:2149   */\n      0x00\n        /* \"#utility.yul\":2171:2176   */\n      dup2\n        /* \"#utility.yul\":2160:2176   */\n      swap1\n      pop\n        /* \"#utility.yul\":2150:2182   */\n      swap2\n      swap1\n      pop\n      jump\t// out\n        /* \"#utility.yul\":2188:2274   */\n    tag_81:\n        /* \"#utility.yul\":2223:2230   */\n      0x00\n        /* \"#utility.yul\":2263:2267   */\n      0xff\n        /* \"#utility.yul\":2256:2261   */\n      dup3\n        /* \"#utility.yul\":2252:2268   */\n      and\n        /* \"#utility.yul\":2241:2268   */\n      swap1\n      pop\n        /* \"#utility.yul\":2231:2274   */\n      swap2\n      swap1\n      pop\n      jump\t// out\n        /* \"#utility.yul\":2280:2402   */\n    tag_59:\n        /* \"#utility.yul\":2353:2377   */\n      tag_96\n        /* \"#utility.yul\":2371:2376   */\n      dup2\n        /* \"#utility.yul\":2353:2377   */\n      tag_84\n      jump\t// in\n    tag_96:\n        /* \"#utility.yul\":2346:2351   */\n      dup2\n        /* \"#utility.yul\":2343:2378   */\n      eq\n        /* \"#utility.yul\":2333:2335   */\n      tag_97\n      jumpi\n        /* \"#utility.yul\":2392:2393   */\n      0x00\n        /* \"#utility.yul\":2389:2390   */\n      dup1\n        /* \"#utility.yul\":2382:2394   */\n      revert\n        /* \"#utility.yul\":2333:2335   */\n    tag_97:\n        /* \"#utility.yul\":2323:2402   */\n      pop\n      jump\t// out\n        /* \"#utility.yul\":2408:2546   */\n    tag_63:\n        /* \"#utility.yul\":2489:2521   */\n      tag_99\n        /* \"#utility.yul\":2515:2520   */\n      dup2\n        /* \"#utility.yul\":2489:2521   */\n      tag_88\n      jump\t// in\n    tag_99:\n        /* \"#utility.yul\":2482:2487   */\n      dup2\n        /* \"#utility.yul\":2479:2522   */\n      eq\n        /* \"#utility.yul\":2469:2471   */\n      tag_100\n      jumpi\n        /* \"#utility.yul\":2536:2537   */\n      0x00\n        /* \"#utility.yul\":2533:2534   */\n      dup1\n        /* \"#utility.yul\":2526:2538   */\n      revert\n        /* \"#utility.yul\":2469:2471   */\n    tag_100:\n        /* \"#utility.yul\":2459:2546   */\n      pop\n      jump\t// out\n        /* \"#utility.yul\":2552:2674   */\n    tag_67:\n        /* \"#utility.yul\":2625:2649   */\n      tag_102\n        /* \"#utility.yul\":2643:2648   */\n      dup2\n        /* \"#utility.yul\":2625:2649   */\n      tag_92\n      jump\t// in\n    tag_102:\n        /* \"#utility.yul\":2618:2623   */\n      dup2\n        /* \"#utility.yul\":2615:2650   */\n      eq\n        /* \"#utility.yul\":2605:2607   */\n      tag_103\n      jumpi\n        /* \"#utility.yul\":2664:2665   */\n      0x00\n        /* \"#utility.yul\":2661:2662   */\n      dup1\n        /* \"#utility.yul\":2654:2666   */\n      revert\n        /* \"#utility.yul\":2605:2607   */\n    tag_103:\n        /* \"#utility.yul\":2595:2674   */\n      pop\n      jump\t// out\n\n    auxdata: 0xa264697066735822122094011c9ea9caf3add43db3ad5e4496bf2c8c327d36334f4412647b32ebcf99f764736f6c63430008040033\n}\n",
				"bytecode": {
					"linkReferences": {},
					"object": "608060405234801561001057600080fd5b50610697806100206000396000f3fe60806040526004361061004e5760003560e01c8063173825d9146100515780632ccb1b301461007a5780637065cb48146100a3578063bf3a5c02146100cc578063cbe159bb146101095761004f565b5b005b34801561005d57600080fd5b5061007860048036038101906100739190610509565b610132565b005b34801561008657600080fd5b506100a1600480360381019061009c9190610532565b6101e6565b005b3480156100af57600080fd5b506100ca60048036038101906100c59190610509565b6102ef565b005b3480156100d857600080fd5b506100f360048036038101906100ee9190610509565b6103a2565b60405161010091906105a6565b60405180910390f35b34801561011557600080fd5b50610130600480360381019061012b919061056e565b6103c2565b005b3373ffffffffffffffffffffffffffffffffffffffff1660008054906101000a900473ffffffffffffffffffffffffffffffffffffffff1673ffffffffffffffffffffffffffffffffffffffff161461018a57600080fd5b6000600160008373ffffffffffffffffffffffffffffffffffffffff1673ffffffffffffffffffffffffffffffffffffffff16815260200190815260200160002060006101000a81548160ff021916908360ff16021790555050565b3373ffffffffffffffffffffffffffffffffffffffff1660008054906101000a900473ffffffffffffffffffffffffffffffffffffffff1673ffffffffffffffffffffffffffffffffffffffff16148061028e575060018060003373ffffffffffffffffffffffffffffffffffffffff1673ffffffffffffffffffffffffffffffffffffffff16815260200190815260200160002060009054906101000a900460ff1660ff16145b61029757600080fd5b804710156102a457600080fd5b8173ffffffffffffffffffffffffffffffffffffffff166108fc829081150290604051600060405180830381858888f193505050501580156102ea573d6000803e3d6000fd5b505050565b3373ffffffffffffffffffffffffffffffffffffffff1660008054906101000a900473ffffffffffffffffffffffffffffffffffffffff1673ffffffffffffffffffffffffffffffffffffffff161461034757600080fd5b60018060008373ffffffffffffffffffffffffffffffffffffffff1673ffffffffffffffffffffffffffffffffffffffff16815260200190815260200160002060006101000a81548160ff021916908360ff16021790555050565b60016020528060005260406000206000915054906101000a900460ff1681565b3373ffffffffffffffffffffffffffffffffffffffff1660008054906101000a900473ffffffffffffffffffffffffffffffffffffffff1673ffffffffffffffffffffffffffffffffffffffff16148061046a575060018060003373ffffffffffffffffffffffffffffffffffffffff1673ffffffffffffffffffffffffffffffffffffffff16815260200190815260200160002060009054906101000a900460ff1660ff16145b61047357600080fd5b8047101561048057600080fd5b3373ffffffffffffffffffffffffffffffffffffffff166108fc829081150290604051600060405180830381858888f193505050501580156104c6573d6000803e3d6000fd5b5050565b6000813590506104d98161061c565b92915050565b6000813590506104ee81610633565b92915050565b6000813590506105038161064a565b92915050565b60006020828403121561051b57600080fd5b6000610529848285016104ca565b91505092915050565b6000806040838503121561054557600080fd5b6000610553858286016104df565b9250506020610564858286016104f4565b9150509250929050565b60006020828403121561058057600080fd5b600061058e848285016104f4565b91505092915050565b6105a08161060f565b82525050565b60006020820190506105bb6000830184610597565b92915050565b60006105cc826105e5565b9050919050565b60006105de826105e5565b9050919050565b600073ffffffffffffffffffffffffffffffffffffffff82169050919050565b6000819050919050565b600060ff82169050919050565b610625816105c1565b811461063057600080fd5b50565b61063c816105d3565b811461064757600080fd5b50565b61065381610605565b811461065e57600080fd5b5056fea264697066735822122094011c9ea9caf3add43db3ad5e4496bf2c8c327d36334f4412647b32ebcf99f764736f6c63430008040033",
					"opcodes": "PUSH1 0x80 PUSH1 0x40 MSTORE CALLVALUE DUP1 ISZERO PUSH2 0x10 JUMPI PUSH1 0x0 DUP1 REVERT JUMPDEST POP PUSH2 0x697 DUP1 PUSH2 0x20 PUSH1 0x0 CODECOPY PUSH1 0x0 RETURN INVALID PUSH1 0x80 PUSH1 0x40 MSTORE PUSH1 0x4 CALLDATASIZE LT PUSH2 0x4E JUMPI PUSH1 0x0 CALLDATALOAD PUSH1 0xE0 SHR DUP1 PUSH4 0x173825D9 EQ PUSH2 0x51 JUMPI DUP1 PUSH4 0x2CCB1B30 EQ PUSH2 0x7A JUMPI DUP1 PUSH4 0x7065CB48 EQ PUSH2 0xA3 JUMPI DUP1 PUSH4 0xBF3A5C02 EQ PUSH2 0xCC JUMPI DUP1 PUSH4 0xCBE159BB EQ PUSH2 0x109 JUMPI PUSH2 0x4F JUMP JUMPDEST JUMPDEST STOP JUMPDEST CALLVALUE DUP1 ISZERO PUSH2 0x5D JUMPI PUSH1 0x0 DUP1 REVERT JUMPDEST POP PUSH2 0x78 PUSH1 0x4 DUP1 CALLDATASIZE SUB DUP2 ADD SWAP1 PUSH2 0x73 SWAP2 SWAP1 PUSH2 0x509 JUMP JUMPDEST PUSH2 0x132 JUMP JUMPDEST STOP JUMPDEST CALLVALUE DUP1 ISZERO PUSH2 0x86 JUMPI PUSH1 0x0 DUP1 REVERT JUMPDEST POP PUSH2 0xA1 PUSH1 0x4 DUP1 CALLDATASIZE SUB DUP2 ADD SWAP1 PUSH2 0x9C SWAP2 SWAP1 PUSH2 0x532 JUMP JUMPDEST PUSH2 0x1E6 JUMP JUMPDEST STOP JUMPDEST CALLVALUE DUP1 ISZERO PUSH2 0xAF JUMPI PUSH1 0x0 DUP1 REVERT JUMPDEST POP PUSH2 0xCA PUSH1 0x4 DUP1 CALLDATASIZE SUB DUP2 ADD SWAP1 PUSH2 0xC5 SWAP2 SWAP1 PUSH2 0x509 JUMP JUMPDEST PUSH2 0x2EF JUMP JUMPDEST STOP JUMPDEST CALLVALUE DUP1 ISZERO PUSH2 0xD8 JUMPI PUSH1 0x0 DUP1 REVERT JUMPDEST POP PUSH2 0xF3 PUSH1 0x4 DUP1 CALLDATASIZE SUB DUP2 ADD SWAP1 PUSH2 0xEE SWAP2 SWAP1 PUSH2 0x509 JUMP JUMPDEST PUSH2 0x3A2 JUMP JUMPDEST PUSH1 0x40 MLOAD PUSH2 0x100 SWAP2 SWAP1 PUSH2 0x5A6 JUMP JUMPDEST PUSH1 0x40 MLOAD DUP1 SWAP2 SUB SWAP1 RETURN JUMPDEST CALLVALUE DUP1 ISZERO PUSH2 0x115 JUMPI PUSH1 0x0 DUP1 REVERT JUMPDEST POP PUSH2 0x130 PUSH1 0x4 DUP1 CALLDATASIZE SUB DUP2 ADD SWAP1 PUSH2 0x12B SWAP2 SWAP1 PUSH2 0x56E JUMP JUMPDEST PUSH2 0x3C2 JUMP JUMPDEST STOP JUMPDEST CALLER PUSH20 0xFFFFFFFFFFFFFFFFFFFFFFFFFFFFFFFFFFFFFFFF AND PUSH1 0x0 DUP1 SLOAD SWAP1 PUSH2 0x100 EXP SWAP1 DIV PUSH20 0xFFFFFFFFFFFFFFFFFFFFFFFFFFFFFFFFFFFFFFFF AND PUSH20 0xFFFFFFFFFFFFFFFFFFFFFFFFFFFFFFFFFFFFFFFF AND EQ PUSH2 0x18A JUMPI PUSH1 0x0 DUP1 REVERT JUMPDEST PUSH1 0x0 PUSH1 0x1 PUSH1 0x0 DUP4 PUSH20 0xFFFFFFFFFFFFFFFFFFFFFFFFFFFFFFFFFFFFFFFF AND PUSH20 0xFFFFFFFFFFFFFFFFFFFFFFFFFFFFFFFFFFFFFFFF AND DUP2 MSTORE PUSH1 0x20 ADD SWAP1 DUP2 MSTORE PUSH1 0x20 ADD PUSH1 0x0 KECCAK256 PUSH1 0x0 PUSH2 0x100 EXP DUP2 SLOAD DUP2 PUSH1 0xFF MUL NOT AND SWAP1 DUP4 PUSH1 0xFF AND MUL OR SWAP1 SSTORE POP POP JUMP JUMPDEST CALLER PUSH20 0xFFFFFFFFFFFFFFFFFFFFFFFFFFFFFFFFFFFFFFFF AND PUSH1 0x0 DUP1 SLOAD SWAP1 PUSH2 0x100 EXP SWAP1 DIV PUSH20 0xFFFFFFFFFFFFFFFFFFFFFFFFFFFFFFFFFFFFFFFF AND PUSH20 0xFFFFFFFFFFFFFFFFFFFFFFFFFFFFFFFFFFFFFFFF AND EQ DUP1 PUSH2 0x28E JUMPI POP PUSH1 0x1 DUP1 PUSH1 0x0 CALLER PUSH20 0xFFFFFFFFFFFFFFFFFFFFFFFFFFFFFFFFFFFFFFFF AND PUSH20 0xFFFFFFFFFFFFFFFFFFFFFFFFFFFFFFFFFFFFFFFF AND DUP2 MSTORE PUSH1 0x20 ADD SWAP1 DUP2 MSTORE PUSH1 0x20 ADD PUSH1 0x0 KECCAK256 PUSH1 0x0 SWAP1 SLOAD SWAP1 PUSH2 0x100 EXP SWAP1 DIV PUSH1 0xFF AND PUSH1 0xFF AND EQ JUMPDEST PUSH2 0x297 JUMPI PUSH1 0x0 DUP1 REVERT JUMPDEST DUP1 SELFBALANCE LT ISZERO PUSH2 0x2A4 JUMPI PUSH1 0x0 DUP1 REVERT JUMPDEST DUP2 PUSH20 0xFFFFFFFFFFFFFFFFFFFFFFFFFFFFFFFFFFFFFFFF AND PUSH2 0x8FC DUP3 SWAP1 DUP2 ISZERO MUL SWAP1 PUSH1 0x40 MLOAD PUSH1 0x0 PUSH1 0x40 MLOAD DUP1 DUP4 SUB DUP2 DUP6 DUP9 DUP9 CALL SWAP4 POP POP POP POP ISZERO DUP1 ISZERO PUSH2 0x2EA JUMPI RETURNDATASIZE PUSH1 0x0 DUP1 RETURNDATACOPY RETURNDATASIZE PUSH1 0x0 REVERT JUMPDEST POP POP POP JUMP JUMPDEST CALLER PUSH20 0xFFFFFFFFFFFFFFFFFFFFFFFFFFFFFFFFFFFFFFFF AND PUSH1 0x0 DUP1 SLOAD SWAP1 PUSH2 0x100 EXP SWAP1 DIV PUSH20 0xFFFFFFFFFFFFFFFFFFFFFFFFFFFFFFFFFFFFFFFF AND PUSH20 0xFFFFFFFFFFFFFFFFFFFFFFFFFFFFFFFFFFFFFFFF AND EQ PUSH2 0x347 JUMPI PUSH1 0x0 DUP1 REVERT JUMPDEST PUSH1 0x1 DUP1 PUSH1 0x0 DUP4 PUSH20 0xFFFFFFFFFFFFFFFFFFFFFFFFFFFFFFFFFFFFFFFF AND PUSH20 0xFFFFFFFFFFFFFFFFFFFFFFFFFFFFFFFFFFFFFFFF AND DUP2 MSTORE PUSH1 0x20 ADD SWAP1 DUP2 MSTORE PUSH1 0x20 ADD PUSH1 0x0 KECCAK256 PUSH1 0x0 PUSH2 0x100 EXP DUP2 SLOAD DUP2 PUSH1 0xFF MUL NOT AND SWAP1 DUP4 PUSH1 0xFF AND MUL OR SWAP1 SSTORE POP POP JUMP JUMPDEST PUSH1 0x1 PUSH1 0x20 MSTORE DUP1 PUSH1 0x0 MSTORE PUSH1 0x40 PUSH1 0x0 KECCAK256 PUSH1 0x0 SWAP2 POP SLOAD SWAP1 PUSH2 0x100 EXP SWAP1 DIV PUSH1 0xFF AND DUP2 JUMP JUMPDEST CALLER PUSH20 0xFFFFFFFFFFFFFFFFFFFFFFFFFFFFFFFFFFFFFFFF AND PUSH1 0x0 DUP1 SLOAD SWAP1 PUSH2 0x100 EXP SWAP1 DIV PUSH20 0xFFFFFFFFFFFFFFFFFFFFFFFFFFFFFFFFFFFFFFFF AND PUSH20 0xFFFFFFFFFFFFFFFFFFFFFFFFFFFFFFFFFFFFFFFF AND EQ DUP1 PUSH2 0x46A JUMPI POP PUSH1 0x1 DUP1 PUSH1 0x0 CALLER PUSH20 0xFFFFFFFFFFFFFFFFFFFFFFFFFFFFFFFFFFFFFFFF AND PUSH20 0xFFFFFFFFFFFFFFFFFFFFFFFFFFFFFFFFFFFFFFFF AND DUP2 MSTORE PUSH1 0x20 ADD SWAP1 DUP2 MSTORE PUSH1 0x20 ADD PUSH1 0x0 KECCAK256 PUSH1 0x0 SWAP1 SLOAD SWAP1 PUSH2 0x100 EXP SWAP1 DIV PUSH1 0xFF AND PUSH1 0xFF AND EQ JUMPDEST PUSH2 0x473 JUMPI PUSH1 0x0 DUP1 REVERT JUMPDEST DUP1 SELFBALANCE LT ISZERO PUSH2 0x480 JUMPI PUSH1 0x0 DUP1 REVERT JUMPDEST CALLER PUSH20 0xFFFFFFFFFFFFFFFFFFFFFFFFFFFFFFFFFFFFFFFF AND PUSH2 0x8FC DUP3 SWAP1 DUP2 ISZERO MUL SWAP1 PUSH1 0x40 MLOAD PUSH1 0x0 PUSH1 0x40 MLOAD DUP1 DUP4 SUB DUP2 DUP6 DUP9 DUP9 CALL SWAP4 POP POP POP POP ISZERO DUP1 ISZERO PUSH2 0x4C6 JUMPI RETURNDATASIZE PUSH1 0x0 DUP1 RETURNDATACOPY RETURNDATASIZE PUSH1 0x0 REVERT JUMPDEST POP POP JUMP JUMPDEST PUSH1 0x0 DUP2 CALLDATALOAD SWAP1 POP PUSH2 0x4D9 DUP2 PUSH2 0x61C JUMP JUMPDEST SWAP3 SWAP2 POP POP JUMP JUMPDEST PUSH1 0x0 DUP2 CALLDATALOAD SWAP1 POP PUSH2 0x4EE DUP2 PUSH2 0x633 JUMP JUMPDEST SWAP3 SWAP2 POP POP JUMP JUMPDEST PUSH1 0x0 DUP2 CALLDATALOAD SWAP1 POP PUSH2 0x503 DUP2 PUSH2 0x64A JUMP JUMPDEST SWAP3 SWAP2 POP POP JUMP JUMPDEST PUSH1 0x0 PUSH1 0x20 DUP3 DUP5 SUB SLT ISZERO PUSH2 0x51B JUMPI PUSH1 0x0 DUP1 REVERT JUMPDEST PUSH1 0x0 PUSH2 0x529 DUP5 DUP3 DUP6 ADD PUSH2 0x4CA JUMP JUMPDEST SWAP2 POP POP SWAP3 SWAP2 POP POP JUMP JUMPDEST PUSH1 0x0 DUP1 PUSH1 0x40 DUP4 DUP6 SUB SLT ISZERO PUSH2 0x545 JUMPI PUSH1 0x0 DUP1 REVERT JUMPDEST PUSH1 0x0 PUSH2 0x553 DUP6 DUP3 DUP7 ADD PUSH2 0x4DF JUMP JUMPDEST SWAP3 POP POP PUSH1 0x20 PUSH2 0x564 DUP6 DUP3 DUP7 ADD PUSH2 0x4F4 JUMP JUMPDEST SWAP2 POP POP SWAP3 POP SWAP3 SWAP1 POP JUMP JUMPDEST PUSH1 0x0 PUSH1 0x20 DUP3 DUP5 SUB SLT ISZERO PUSH2 0x580 JUMPI PUSH1 0x0 DUP1 REVERT JUMPDEST PUSH1 0x0 PUSH2 0x58E DUP5 DUP3 DUP6 ADD PUSH2 0x4F4 JUMP JUMPDEST SWAP2 POP POP SWAP3 SWAP2 POP POP JUMP JUMPDEST PUSH2 0x5A0 DUP2 PUSH2 0x60F JUMP JUMPDEST DUP3 MSTORE POP POP JUMP JUMPDEST PUSH1 0x0 PUSH1 0x20 DUP3 ADD SWAP1 POP PUSH2 0x5BB PUSH1 0x0 DUP4 ADD DUP5 PUSH2 0x597 JUMP JUMPDEST SWAP3 SWAP2 POP POP JUMP JUMPDEST PUSH1 0x0 PUSH2 0x5CC DUP3 PUSH2 0x5E5 JUMP JUMPDEST SWAP1 POP SWAP2 SWAP1 POP JUMP JUMPDEST PUSH1 0x0 PUSH2 0x5DE DUP3 PUSH2 0x5E5 JUMP JUMPDEST SWAP1 POP SWAP2 SWAP1 POP JUMP JUMPDEST PUSH1 0x0 PUSH20 0xFFFFFFFFFFFFFFFFFFFFFFFFFFFFFFFFFFFFFFFF DUP3 AND SWAP1 POP SWAP2 SWAP1 POP JUMP JUMPDEST PUSH1 0x0 DUP2 SWAP1 POP SWAP2 SWAP1 POP JUMP JUMPDEST PUSH1 0x0 PUSH1 0xFF DUP3 AND SWAP1 POP SWAP2 SWAP1 POP JUMP JUMPDEST PUSH2 0x625 DUP2 PUSH2 0x5C1 JUMP JUMPDEST DUP2 EQ PUSH2 0x630 JUMPI PUSH1 0x0 DUP1 REVERT JUMPDEST POP JUMP JUMPDEST PUSH2 0x63C DUP2 PUSH2 0x5D3 JUMP JUMPDEST DUP2 EQ PUSH2 0x647 JUMPI PUSH1 0x0 DUP1 REVERT JUMPDEST POP JUMP JUMPDEST PUSH2 0x653 DUP2 PUSH2 0x605 JUMP JUMPDEST DUP2 EQ PUSH2 0x65E JUMPI PUSH1 0x0 DUP1 REVERT JUMPDEST POP JUMP INVALID LOG2 PUSH5 0x6970667358 0x22 SLT KECCAK256 SWAP5 ADD SHR SWAP15 0xA9 0xCA RETURN 0xAD 0xD4 RETURNDATASIZE 0xB3 0xAD 0x5E DIFFICULTY SWAP7 0xBF 0x2C DUP13 ORIGIN PUSH30 0x36334F4412647B32EBCF99F764736F6C6343000804003300000000000000 "
				},
				"gasEstimates": {
					"creation": {
						"codeDepositCost": "337400",
						"executionCost": "374",
						"totalCost": "337774"
					},
					"external": {
						"": "173",
						"WithDraw(uint256)": "infinite",
						"_owners(address)": "1589",
						"addOwner(address)": "22301",
						"removeOwner(address)": "22257",
						"transferTo(address,uint256)": "infinite"
					}
				},
				"methodIdentifiers": {
					"WithDraw(uint256)": "cbe159bb",
					"_owners(address)": "bf3a5c02",
					"addOwner(address)": "7065cb48",
					"removeOwner(address)": "173825d9",
					"transferTo(address,uint256)": "2ccb1b30"
				}
			},
			"storageLayout": {
				"storage": [
					{
						"astId": 3,
						"contract": "practice/ShareWallet.sol:ShareWallet",
						"label": "_owner",
						"offset": 0,
						"slot": "0",
						"type": "t_address"
					},
					{
						"astId": 7,
						"contract": "practice/ShareWallet.sol:ShareWallet",
						"label": "_owners",
						"offset": 0,
						"slot": "1",
						"type": "t_mapping(t_address,t_uint8)"
					}
				],
				"types": {
					"t_address": {
						"encoding": "inplace",
						"label": "address",
						"numberOfBytes": "20"
					},
					"t_mapping(t_address,t_uint8)": {
						"encoding": "mapping",
						"key": "t_address",
						"label": "mapping(address => uint8)",
						"numberOfBytes": "32",
						"value": "t_uint8"
					},
					"t_uint8": {
						"encoding": "inplace",
						"label": "uint8",
						"numberOfBytes": "1"
					}
				}
			},
			"userdoc": {
				"kind": "user",
				"methods": {},
				"version": 1
			}
		}
	}
}